{
  "_format": "hh-sol-artifact-1",
  "contractName": "MyEpicGame",
  "sourceName": "contracts/MyEpicGame.sol",
  "abi": [
    {
      "inputs": [
        {
          "internalType": "string[]",
          "name": "characterNames",
          "type": "string[]"
        },
        {
          "internalType": "string[]",
          "name": "characterImageURIs",
          "type": "string[]"
        },
        {
          "internalType": "uint256[]",
          "name": "characterHP",
          "type": "uint256[]"
        },
        {
          "internalType": "uint256[]",
          "name": "characterAttackDamage",
          "type": "uint256[]"
        },
        {
          "internalType": "string",
          "name": "bossName",
          "type": "string"
        },
        {
          "internalType": "string",
          "name": "bossImageURI",
          "type": "string"
        },
        {
          "internalType": "uint256",
          "name": "bossHp",
          "type": "uint256"
        },
        {
          "internalType": "uint256",
          "name": "bossAttackDamage",
          "type": "uint256"
        },
        {
          "internalType": "uint64",
          "name": "subscriptionId",
          "type": "uint64"
        }
      ],
      "stateMutability": "nonpayable",
      "type": "constructor"
    },
    {
      "inputs": [
        {
          "internalType": "address",
          "name": "have",
          "type": "address"
        },
        {
          "internalType": "address",
          "name": "want",
          "type": "address"
        }
      ],
      "name": "OnlyCoordinatorCanFulfill",
      "type": "error"
    },
    {
      "anonymous": false,
      "inputs": [
        {
          "indexed": true,
          "internalType": "address",
          "name": "owner",
          "type": "address"
        },
        {
          "indexed": true,
          "internalType": "address",
          "name": "approved",
          "type": "address"
        },
        {
          "indexed": true,
          "internalType": "uint256",
          "name": "tokenId",
          "type": "uint256"
        }
      ],
      "name": "Approval",
      "type": "event"
    },
    {
      "anonymous": false,
      "inputs": [
        {
          "indexed": true,
          "internalType": "address",
          "name": "owner",
          "type": "address"
        },
        {
          "indexed": true,
          "internalType": "address",
          "name": "operator",
          "type": "address"
        },
        {
          "indexed": false,
          "internalType": "bool",
          "name": "approved",
          "type": "bool"
        }
      ],
      "name": "ApprovalForAll",
      "type": "event"
    },
    {
      "anonymous": false,
      "inputs": [
        {
          "indexed": false,
          "internalType": "address",
          "name": "sender",
          "type": "address"
        },
        {
          "indexed": false,
          "internalType": "uint256",
          "name": "newBossHP",
          "type": "uint256"
        },
        {
          "indexed": false,
          "internalType": "uint256",
          "name": "newPlayerHP",
          "type": "uint256"
        },
        {
          "indexed": false,
          "internalType": "uint256",
          "name": "damageDone",
          "type": "uint256"
        },
        {
          "components": [
            {
              "internalType": "address",
              "name": "sender",
              "type": "address"
            },
            {
              "internalType": "uint256",
              "name": "characterIndex",
              "type": "uint256"
            },
            {
              "internalType": "string",
              "name": "name",
              "type": "string"
            },
            {
              "internalType": "string",
              "name": "imageURI",
              "type": "string"
            },
            {
              "internalType": "uint256",
              "name": "hp",
              "type": "uint256"
            },
            {
              "internalType": "uint256",
              "name": "maxHP",
              "type": "uint256"
            },
            {
              "internalType": "uint256",
              "name": "attackDamage",
              "type": "uint256"
            },
            {
              "internalType": "uint256",
              "name": "damageDone",
              "type": "uint256"
            }
          ],
          "indexed": false,
          "internalType": "struct MyEpicGame.CharacterAttributes[]",
          "name": "allPlayersInGame",
          "type": "tuple[]"
        },
        {
          "indexed": false,
          "internalType": "uint256",
          "name": "randomNumber",
          "type": "uint256"
        }
      ],
      "name": "AttackComplete",
      "type": "event"
    },
    {
      "anonymous": false,
      "inputs": [
        {
          "indexed": false,
          "internalType": "address",
          "name": "sender",
          "type": "address"
        },
        {
          "indexed": false,
          "internalType": "uint256",
          "name": "tokenID",
          "type": "uint256"
        },
        {
          "indexed": false,
          "internalType": "uint256",
          "name": "characterIndex",
          "type": "uint256"
        },
        {
          "components": [
            {
              "internalType": "address",
              "name": "sender",
              "type": "address"
            },
            {
              "internalType": "uint256",
              "name": "characterIndex",
              "type": "uint256"
            },
            {
              "internalType": "string",
              "name": "name",
              "type": "string"
            },
            {
              "internalType": "string",
              "name": "imageURI",
              "type": "string"
            },
            {
              "internalType": "uint256",
              "name": "hp",
              "type": "uint256"
            },
            {
              "internalType": "uint256",
              "name": "maxHP",
              "type": "uint256"
            },
            {
              "internalType": "uint256",
              "name": "attackDamage",
              "type": "uint256"
            },
            {
              "internalType": "uint256",
              "name": "damageDone",
              "type": "uint256"
            }
          ],
          "indexed": false,
          "internalType": "struct MyEpicGame.CharacterAttributes[]",
          "name": "allPlayersInGame",
          "type": "tuple[]"
        }
      ],
      "name": "CharacterNftMinted",
      "type": "event"
    },
    {
      "anonymous": false,
      "inputs": [
        {
          "indexed": false,
          "internalType": "address",
          "name": "sender",
          "type": "address"
        },
        {
          "components": [
            {
              "internalType": "address",
              "name": "sender",
              "type": "address"
            },
            {
              "internalType": "uint256",
              "name": "characterIndex",
              "type": "uint256"
            },
            {
              "internalType": "string",
              "name": "name",
              "type": "string"
            },
            {
              "internalType": "string",
              "name": "imageURI",
              "type": "string"
            },
            {
              "internalType": "uint256",
              "name": "hp",
              "type": "uint256"
            },
            {
              "internalType": "uint256",
              "name": "maxHP",
              "type": "uint256"
            },
            {
              "internalType": "uint256",
              "name": "attackDamage",
              "type": "uint256"
            },
            {
              "internalType": "uint256",
              "name": "damageDone",
              "type": "uint256"
            }
          ],
          "indexed": false,
          "internalType": "struct MyEpicGame.CharacterAttributes[]",
          "name": "allPlayersInGame",
          "type": "tuple[]"
        }
      ],
      "name": "NftDeath",
      "type": "event"
    },
    {
      "anonymous": false,
      "inputs": [
        {
          "indexed": false,
          "internalType": "uint256",
          "name": "requestId",
          "type": "uint256"
        },
        {
          "indexed": false,
          "internalType": "uint256",
          "name": "randomNumber",
          "type": "uint256"
        }
      ],
      "name": "RequestFulfilled",
      "type": "event"
    },
    {
      "anonymous": false,
      "inputs": [
        {
          "indexed": true,
          "internalType": "address",
          "name": "from",
          "type": "address"
        },
        {
          "indexed": true,
          "internalType": "address",
          "name": "to",
          "type": "address"
        },
        {
          "indexed": true,
          "internalType": "uint256",
          "name": "tokenId",
          "type": "uint256"
        }
      ],
      "name": "Transfer",
      "type": "event"
    },
    {
      "inputs": [
        {
          "internalType": "address",
          "name": "to",
          "type": "address"
        },
        {
          "internalType": "uint256",
          "name": "tokenId",
          "type": "uint256"
        }
      ],
      "name": "approve",
      "outputs": [],
      "stateMutability": "nonpayable",
      "type": "function"
    },
    {
      "inputs": [],
      "name": "attackBoss",
      "outputs": [],
      "stateMutability": "nonpayable",
      "type": "function"
    },
    {
      "inputs": [
        {
          "internalType": "address",
          "name": "owner",
          "type": "address"
        }
      ],
      "name": "balanceOf",
      "outputs": [
        {
          "internalType": "uint256",
          "name": "",
          "type": "uint256"
        }
      ],
      "stateMutability": "view",
      "type": "function"
    },
    {
      "inputs": [],
      "name": "bigBoss",
      "outputs": [
        {
          "internalType": "string",
          "name": "name",
          "type": "string"
        },
        {
          "internalType": "string",
          "name": "imageURI",
          "type": "string"
        },
        {
          "internalType": "uint256",
          "name": "hp",
          "type": "uint256"
        },
        {
          "internalType": "uint256",
          "name": "maxHP",
          "type": "uint256"
        },
        {
          "internalType": "uint256",
          "name": "attackDamage",
          "type": "uint256"
        }
      ],
      "stateMutability": "view",
      "type": "function"
    },
    {
      "inputs": [],
      "name": "checkIfUserHasNFT",
      "outputs": [
        {
          "components": [
            {
              "internalType": "address",
              "name": "sender",
              "type": "address"
            },
            {
              "internalType": "uint256",
              "name": "characterIndex",
              "type": "uint256"
            },
            {
              "internalType": "string",
              "name": "name",
              "type": "string"
            },
            {
              "internalType": "string",
              "name": "imageURI",
              "type": "string"
            },
            {
              "internalType": "uint256",
              "name": "hp",
              "type": "uint256"
            },
            {
              "internalType": "uint256",
              "name": "maxHP",
              "type": "uint256"
            },
            {
              "internalType": "uint256",
              "name": "attackDamage",
              "type": "uint256"
            },
            {
              "internalType": "uint256",
              "name": "damageDone",
              "type": "uint256"
            }
          ],
          "internalType": "struct MyEpicGame.CharacterAttributes",
          "name": "",
          "type": "tuple"
        }
      ],
      "stateMutability": "view",
      "type": "function"
    },
    {
      "inputs": [],
      "name": "getAllDefaultCharacters",
      "outputs": [
        {
          "components": [
            {
              "internalType": "address",
              "name": "sender",
              "type": "address"
            },
            {
              "internalType": "uint256",
              "name": "characterIndex",
              "type": "uint256"
            },
            {
              "internalType": "string",
              "name": "name",
              "type": "string"
            },
            {
              "internalType": "string",
              "name": "imageURI",
              "type": "string"
            },
            {
              "internalType": "uint256",
              "name": "hp",
              "type": "uint256"
            },
            {
              "internalType": "uint256",
              "name": "maxHP",
              "type": "uint256"
            },
            {
              "internalType": "uint256",
              "name": "attackDamage",
              "type": "uint256"
            },
            {
              "internalType": "uint256",
              "name": "damageDone",
              "type": "uint256"
            }
          ],
          "internalType": "struct MyEpicGame.CharacterAttributes[]",
          "name": "",
          "type": "tuple[]"
        }
      ],
      "stateMutability": "view",
      "type": "function"
    },
    {
      "inputs": [],
      "name": "getAllPlayersInGame",
      "outputs": [
        {
          "components": [
            {
              "internalType": "address",
              "name": "sender",
              "type": "address"
            },
            {
              "internalType": "uint256",
              "name": "characterIndex",
              "type": "uint256"
            },
            {
              "internalType": "string",
              "name": "name",
              "type": "string"
            },
            {
              "internalType": "string",
              "name": "imageURI",
              "type": "string"
            },
            {
              "internalType": "uint256",
              "name": "hp",
              "type": "uint256"
            },
            {
              "internalType": "uint256",
              "name": "maxHP",
              "type": "uint256"
            },
            {
              "internalType": "uint256",
              "name": "attackDamage",
              "type": "uint256"
            },
            {
              "internalType": "uint256",
              "name": "damageDone",
              "type": "uint256"
            }
          ],
          "internalType": "struct MyEpicGame.CharacterAttributes[]",
          "name": "",
          "type": "tuple[]"
        }
      ],
      "stateMutability": "view",
      "type": "function"
    },
    {
      "inputs": [
        {
          "internalType": "uint256",
          "name": "tokenId",
          "type": "uint256"
        }
      ],
      "name": "getApproved",
      "outputs": [
        {
          "internalType": "address",
          "name": "",
          "type": "address"
        }
      ],
      "stateMutability": "view",
      "type": "function"
    },
    {
      "inputs": [],
      "name": "getBigBoss",
      "outputs": [
        {
          "components": [
            {
              "internalType": "string",
              "name": "name",
              "type": "string"
            },
            {
              "internalType": "string",
              "name": "imageURI",
              "type": "string"
            },
            {
              "internalType": "uint256",
              "name": "hp",
              "type": "uint256"
            },
            {
              "internalType": "uint256",
              "name": "maxHP",
              "type": "uint256"
            },
            {
              "internalType": "uint256",
              "name": "attackDamage",
              "type": "uint256"
            }
          ],
          "internalType": "struct MyEpicGame.BigBoss",
          "name": "",
          "type": "tuple"
        }
      ],
      "stateMutability": "view",
      "type": "function"
    },
    {
      "inputs": [
        {
          "internalType": "address",
          "name": "owner",
          "type": "address"
        },
        {
          "internalType": "address",
          "name": "operator",
          "type": "address"
        }
      ],
      "name": "isApprovedForAll",
      "outputs": [
        {
          "internalType": "bool",
          "name": "",
          "type": "bool"
        }
      ],
      "stateMutability": "view",
      "type": "function"
    },
    {
      "inputs": [
        {
          "internalType": "uint256",
          "name": "_characterIndex",
          "type": "uint256"
        }
      ],
      "name": "mintCharacterNFT",
      "outputs": [],
      "stateMutability": "nonpayable",
      "type": "function"
    },
    {
      "inputs": [],
      "name": "name",
      "outputs": [
        {
          "internalType": "string",
          "name": "",
          "type": "string"
        }
      ],
      "stateMutability": "view",
      "type": "function"
    },
    {
      "inputs": [
        {
          "internalType": "uint256",
          "name": "",
          "type": "uint256"
        }
      ],
      "name": "nftHolderAttributes",
      "outputs": [
        {
          "internalType": "address",
          "name": "sender",
          "type": "address"
        },
        {
          "internalType": "uint256",
          "name": "characterIndex",
          "type": "uint256"
        },
        {
          "internalType": "string",
          "name": "name",
          "type": "string"
        },
        {
          "internalType": "string",
          "name": "imageURI",
          "type": "string"
        },
        {
          "internalType": "uint256",
          "name": "hp",
          "type": "uint256"
        },
        {
          "internalType": "uint256",
          "name": "maxHP",
          "type": "uint256"
        },
        {
          "internalType": "uint256",
          "name": "attackDamage",
          "type": "uint256"
        },
        {
          "internalType": "uint256",
          "name": "damageDone",
          "type": "uint256"
        }
      ],
      "stateMutability": "view",
      "type": "function"
    },
    {
      "inputs": [
        {
          "internalType": "address",
          "name": "",
          "type": "address"
        }
      ],
      "name": "nftHolders",
      "outputs": [
        {
          "internalType": "uint256",
          "name": "",
          "type": "uint256"
        }
      ],
      "stateMutability": "view",
      "type": "function"
    },
    {
      "inputs": [
        {
          "internalType": "uint256",
          "name": "tokenId",
          "type": "uint256"
        }
      ],
      "name": "ownerOf",
      "outputs": [
        {
          "internalType": "address",
          "name": "",
          "type": "address"
        }
      ],
      "stateMutability": "view",
      "type": "function"
    },
    {
      "inputs": [
        {
          "internalType": "uint256",
          "name": "requestId",
          "type": "uint256"
        },
        {
          "internalType": "uint256[]",
          "name": "randomWords",
          "type": "uint256[]"
        }
      ],
      "name": "rawFulfillRandomWords",
      "outputs": [],
      "stateMutability": "nonpayable",
      "type": "function"
    },
    {
      "inputs": [],
      "name": "requestRandomWords",
      "outputs": [],
      "stateMutability": "nonpayable",
      "type": "function"
    },
    {
      "inputs": [],
      "name": "s_requestId",
      "outputs": [
        {
          "internalType": "uint256",
          "name": "",
          "type": "uint256"
        }
      ],
      "stateMutability": "view",
      "type": "function"
    },
    {
      "inputs": [
        {
          "internalType": "address",
          "name": "from",
          "type": "address"
        },
        {
          "internalType": "address",
          "name": "to",
          "type": "address"
        },
        {
          "internalType": "uint256",
          "name": "tokenId",
          "type": "uint256"
        }
      ],
      "name": "safeTransferFrom",
      "outputs": [],
      "stateMutability": "nonpayable",
      "type": "function"
    },
    {
      "inputs": [
        {
          "internalType": "address",
          "name": "from",
          "type": "address"
        },
        {
          "internalType": "address",
          "name": "to",
          "type": "address"
        },
        {
          "internalType": "uint256",
          "name": "tokenId",
          "type": "uint256"
        },
        {
          "internalType": "bytes",
          "name": "data",
          "type": "bytes"
        }
      ],
      "name": "safeTransferFrom",
      "outputs": [],
      "stateMutability": "nonpayable",
      "type": "function"
    },
    {
      "inputs": [
        {
          "internalType": "address",
          "name": "operator",
          "type": "address"
        },
        {
          "internalType": "bool",
          "name": "approved",
          "type": "bool"
        }
      ],
      "name": "setApprovalForAll",
      "outputs": [],
      "stateMutability": "nonpayable",
      "type": "function"
    },
    {
      "inputs": [
        {
          "internalType": "bytes4",
          "name": "interfaceId",
          "type": "bytes4"
        }
      ],
      "name": "supportsInterface",
      "outputs": [
        {
          "internalType": "bool",
          "name": "",
          "type": "bool"
        }
      ],
      "stateMutability": "view",
      "type": "function"
    },
    {
      "inputs": [],
      "name": "symbol",
      "outputs": [
        {
          "internalType": "string",
          "name": "",
          "type": "string"
        }
      ],
      "stateMutability": "view",
      "type": "function"
    },
    {
      "inputs": [
        {
          "internalType": "uint256",
          "name": "_tokenId",
          "type": "uint256"
        }
      ],
      "name": "tokenURI",
      "outputs": [
        {
          "internalType": "string",
          "name": "",
          "type": "string"
        }
      ],
      "stateMutability": "view",
      "type": "function"
    },
    {
      "inputs": [
        {
          "internalType": "address",
          "name": "from",
          "type": "address"
        },
        {
          "internalType": "address",
          "name": "to",
          "type": "address"
        },
        {
          "internalType": "uint256",
          "name": "tokenId",
          "type": "uint256"
        }
      ],
      "name": "transferFrom",
      "outputs": [],
      "stateMutability": "nonpayable",
      "type": "function"
    }
  ],
  "bytecode": "0x60a0604052732ca8e0c643bde4c2e08ab1fa0da3401adad7734d601160006101000a81548173ffffffffffffffffffffffffffffffffffffffff021916908373ffffffffffffffffffffffffffffffffffffffff1602179055507f79d3d8832d904592c0bf9818b621522c988bb8b0c05cdc3b15aea1b6e8db0c1560001b601255620186a0601360006101000a81548163ffffffff021916908363ffffffff1602179055506003601360046101000a81548161ffff021916908361ffff1602179055506005601360066101000a81548163ffffffff021916908363ffffffff160217905550348015620000f157600080fd5b506040516200600638038062006006833981810160405281019062000117919062000866565b601160009054906101000a900473ffffffffffffffffffffffffffffffffffffffff166040518060400160405280600f81526020017f4461726b77696e67204e696768747300000000000000000000000000000000008152506040518060400160405280600781526020017f42415457494e47000000000000000000000000000000000000000000000000008152508160009080519060200190620001be9291906200058d565b508060019080519060200190620001d79291906200058d565b5050508073ffffffffffffffffffffffffffffffffffffffff1660808173ffffffffffffffffffffffffffffffffffffffff1660601b81525050506040518060a0016040528086815260200185815260200184815260200184815260200183815250600a6000820151816000019080519060200190620002599291906200058d565b506020820151816001019080519060200190620002789291906200058d565b5060408201518160020155606082015181600301556080820151816004015590505060005b8951811015620004835760086040518061010001604052803373ffffffffffffffffffffffffffffffffffffffff1681526020018381526020018c8481518110620002ed57620002ec62000c28565b5b602002602001015181526020018b848151811062000310576200030f62000c28565b5b602002602001015181526020018a848151811062000333576200033262000c28565b5b602002602001015181526020018a848151811062000356576200035562000c28565b5b6020026020010151815260200189848151811062000379576200037862000c28565b5b602002602001015181526020016000815250908060018154018082558091505060019003906000526020600020906008020160009091909190915060008201518160000160006101000a81548173ffffffffffffffffffffffffffffffffffffffff021916908373ffffffffffffffffffffffffffffffffffffffff160217905550602082015181600101556040820151816002019080519060200190620004239291906200058d565b506060820151816003019080519060200190620004429291906200058d565b506080820151816004015560a0820151816005015560c0820151816006015560e08201518160070155505080806200047a9062000b7c565b9150506200029d565b50601160009054906101000a900473ffffffffffffffffffffffffffffffffffffffff16601060006101000a81548173ffffffffffffffffffffffffffffffffffffffff021916908373ffffffffffffffffffffffffffffffffffffffff16021790555033601560006101000a81548173ffffffffffffffffffffffffffffffffffffffff021916908373ffffffffffffffffffffffffffffffffffffffff16021790555080601060146101000a81548167ffffffffffffffff021916908367ffffffffffffffff1602179055506200056860066200057760201b620023601760201c565b50505050505050505062000ce4565b6001816000016000828254019250508190555050565b8280546200059b9062000b10565b90600052602060002090601f016020900481019282620005bf57600085556200060b565b82601f10620005da57805160ff19168380011785556200060b565b828001600101855582156200060b579182015b828111156200060a578251825591602001919060010190620005ed565b5b5090506200061a91906200061e565b5090565b5b80821115620006395760008160009055506001016200061f565b5090565b6000620006546200064e8462000a28565b620009ff565b905080838252602082019050828560208602820111156200067a576200067962000c8b565b5b60005b85811015620006cf57815167ffffffffffffffff811115620006a457620006a362000c86565b5b808601620006b3898262000805565b855260208501945060208401935050506001810190506200067d565b5050509392505050565b6000620006f0620006ea8462000a57565b620009ff565b9050808382526020820190508285602086028201111562000716576200071562000c8b565b5b60005b858110156200074a57816200072f888262000838565b84526020840193506020830192505060018101905062000719565b5050509392505050565b60006200076b620007658462000a86565b620009ff565b9050828152602081018484840111156200078a576200078962000c90565b5b6200079784828562000ada565b509392505050565b600082601f830112620007b757620007b662000c86565b5b8151620007c98482602086016200063d565b91505092915050565b600082601f830112620007ea57620007e962000c86565b5b8151620007fc848260208601620006d9565b91505092915050565b600082601f8301126200081d576200081c62000c86565b5b81516200082f84826020860162000754565b91505092915050565b600081519050620008498162000cb0565b92915050565b600081519050620008608162000cca565b92915050565b60008060008060008060008060006101208a8c0312156200088c576200088b62000c9a565b5b60008a015167ffffffffffffffff811115620008ad57620008ac62000c95565b5b620008bb8c828d016200079f565b99505060208a015167ffffffffffffffff811115620008df57620008de62000c95565b5b620008ed8c828d016200079f565b98505060408a015167ffffffffffffffff81111562000911576200091062000c95565b5b6200091f8c828d01620007d2565b97505060608a015167ffffffffffffffff81111562000943576200094262000c95565b5b620009518c828d01620007d2565b96505060808a015167ffffffffffffffff81111562000975576200097462000c95565b5b620009838c828d0162000805565b95505060a08a015167ffffffffffffffff811115620009a757620009a662000c95565b5b620009b58c828d0162000805565b94505060c0620009c88c828d0162000838565b93505060e0620009db8c828d0162000838565b925050610100620009ef8c828d016200084f565b9150509295985092959850929598565b600062000a0b62000a1e565b905062000a19828262000b46565b919050565b6000604051905090565b600067ffffffffffffffff82111562000a465762000a4562000c57565b5b602082029050602081019050919050565b600067ffffffffffffffff82111562000a755762000a7462000c57565b5b602082029050602081019050919050565b600067ffffffffffffffff82111562000aa45762000aa362000c57565b5b62000aaf8262000c9f565b9050602081019050919050565b6000819050919050565b600067ffffffffffffffff82169050919050565b60005b8381101562000afa57808201518184015260208101905062000add565b8381111562000b0a576000848401525b50505050565b6000600282049050600182168062000b2957607f821691505b6020821081141562000b405762000b3f62000bf9565b5b50919050565b62000b518262000c9f565b810181811067ffffffffffffffff8211171562000b735762000b7262000c57565b5b80604052505050565b600062000b898262000abc565b91507fffffffffffffffffffffffffffffffffffffffffffffffffffffffffffffffff82141562000bbf5762000bbe62000bca565b5b600182019050919050565b7f4e487b7100000000000000000000000000000000000000000000000000000000600052601160045260246000fd5b7f4e487b7100000000000000000000000000000000000000000000000000000000600052602260045260246000fd5b7f4e487b7100000000000000000000000000000000000000000000000000000000600052603260045260246000fd5b7f4e487b7100000000000000000000000000000000000000000000000000000000600052604160045260246000fd5b600080fd5b600080fd5b600080fd5b600080fd5b600080fd5b6000601f19601f8301169050919050565b62000cbb8162000abc565b811462000cc757600080fd5b50565b62000cd58162000ac6565b811462000ce157600080fd5b50565b60805160601c6152fc62000d0a600039600081816108fb015261094f01526152fc6000f3fe608060405234801561001057600080fd5b50600436106101735760003560e01c806398da4c95116100de578063c8cf27f411610097578063e89e106a11610071578063e89e106a14610443578063e985e9c514610461578063f8b81ef714610491578063f9b8f4cb146104ad57610173565b8063c8cf27f414610411578063d4f24c5b1461042f578063e0c862891461043957610173565b806398da4c9514610332578063a22cb46514610369578063a9c3267914610385578063b88d4fde146103a7578063b953084e146103c3578063c87b56dd146103e157610173565b806323b872dd1161013057806323b872dd1461024c57806342842e0e146102685780636352211e1461028457806370a08231146102b45780637df124a1146102e457806395d89b411461031457610173565b806301ffc9a7146101785780630665f961146101a857806306fdde03146101c6578063081812fc146101e4578063095ea7b3146102145780631fe543e314610230575b600080fd5b610192600480360381019061018d91906136fd565b6104cb565b60405161019f91906143e8565b60405180910390f35b6101b06105ad565b6040516101bd9190614679565b60405180910390f35b6101ce610709565b6040516101db9190614456565b60405180910390f35b6101fe60048036038101906101f99190613757565b61079b565b60405161020b91906141c6565b60405180910390f35b61022e600480360381019061022991906136bd565b6107e1565b005b61024a600480360381019061024591906137b1565b6108f9565b005b610266600480360381019061026191906135a7565b6109b9565b005b610282600480360381019061027d91906135a7565b610a19565b005b61029e60048036038101906102999190613757565b610a39565b6040516102ab91906141c6565b60405180910390f35b6102ce60048036038101906102c9919061353a565b610aeb565b6040516102db91906146bd565b60405180910390f35b6102fe60048036038101906102f9919061353a565b610ba3565b60405161030b91906146bd565b60405180910390f35b61031c610bbb565b6040516103299190614456565b60405180910390f35b61034c60048036038101906103479190613757565b610c4d565b604051610360989796959493929190614286565b60405180910390f35b610383600480360381019061037e919061367d565b610dc5565b005b61038d610ddb565b60405161039e959493929190614478565b60405180910390f35b6103c160048036038101906103bc91906135fa565b610f0f565b005b6103cb610f71565b6040516103d891906143c6565b60405180910390f35b6103fb60048036038101906103f69190613757565b61117d565b6040516104089190614456565b60405180910390f35b61041961140d565b604051610426919061469b565b60405180910390f35b610437611646565b005b610441611b0d565b005b61044b611c16565b60405161045891906146bd565b60405180910390f35b61047b60048036038101906104769190613567565b611c1c565b60405161048891906143e8565b60405180910390f35b6104ab60048036038101906104a69190613757565b611cb0565b005b6104b5612154565b6040516104c291906143c6565b60405180910390f35b60007f80ac58cd000000000000000000000000000000000000000000000000000000007bffffffffffffffffffffffffffffffffffffffffffffffffffffffff1916827bffffffffffffffffffffffffffffffffffffffffffffffffffffffff1916148061059657507f5b5e139f000000000000000000000000000000000000000000000000000000007bffffffffffffffffffffffffffffffffffffffffffffffffffffffff1916827bffffffffffffffffffffffffffffffffffffffffffffffffffffffff1916145b806105a657506105a582612376565b5b9050919050565b6105b56131b4565b600a6040518060a00160405290816000820180546105d290614a83565b80601f01602080910402602001604051908101604052809291908181526020018280546105fe90614a83565b801561064b5780601f106106205761010080835404028352916020019161064b565b820191906000526020600020905b81548152906001019060200180831161062e57829003601f168201915b5050505050815260200160018201805461066490614a83565b80601f016020809104026020016040519081016040528092919081815260200182805461069090614a83565b80156106dd5780601f106106b2576101008083540402835291602001916106dd565b820191906000526020600020905b8154815290600101906020018083116106c057829003601f168201915b505050505081526020016002820154815260200160038201548152602001600482015481525050905090565b60606000805461071890614a83565b80601f016020809104026020016040519081016040528092919081815260200182805461074490614a83565b80156107915780601f1061076657610100808354040283529160200191610791565b820191906000526020600020905b81548152906001019060200180831161077457829003601f168201915b5050505050905090565b60006107a6826123e0565b6004600083815260200190815260200160002060009054906101000a900473ffffffffffffffffffffffffffffffffffffffff169050919050565b60006107ec82610a39565b90508073ffffffffffffffffffffffffffffffffffffffff168373ffffffffffffffffffffffffffffffffffffffff16141561085d576040517f08c379a000000000000000000000000000000000000000000000000000000000815260040161085490614619565b60405180910390fd5b8073ffffffffffffffffffffffffffffffffffffffff1661087c61242b565b73ffffffffffffffffffffffffffffffffffffffff1614806108ab57506108aa816108a561242b565b611c1c565b5b6108ea576040517f08c379a00000000000000000000000000000000000000000000000000000000081526004016108e1906145b9565b60405180910390fd5b6108f48383612433565b505050565b7f000000000000000000000000000000000000000000000000000000000000000073ffffffffffffffffffffffffffffffffffffffff163373ffffffffffffffffffffffffffffffffffffffff16146109ab57337f00000000000000000000000000000000000000000000000000000000000000006040517f1cf993f40000000000000000000000000000000000000000000000000000000081526004016109a29291906141e1565b60405180910390fd5b6109b582826124ec565b5050565b6109ca6109c461242b565b82612565565b610a09576040517f08c379a0000000000000000000000000000000000000000000000000000000008152600401610a0090614659565b60405180910390fd5b610a148383836125fa565b505050565b610a3483838360405180602001604052806000815250610f0f565b505050565b6000806002600084815260200190815260200160002060009054906101000a900473ffffffffffffffffffffffffffffffffffffffff169050600073ffffffffffffffffffffffffffffffffffffffff168173ffffffffffffffffffffffffffffffffffffffff161415610ae2576040517f08c379a0000000000000000000000000000000000000000000000000000000008152600401610ad9906145f9565b60405180910390fd5b80915050919050565b60008073ffffffffffffffffffffffffffffffffffffffff168273ffffffffffffffffffffffffffffffffffffffff161415610b5c576040517f08c379a0000000000000000000000000000000000000000000000000000000008152600401610b5390614599565b60405180910390fd5b600360008373ffffffffffffffffffffffffffffffffffffffff1673ffffffffffffffffffffffffffffffffffffffff168152602001908152602001600020549050919050565b600f6020528060005260406000206000915090505481565b606060018054610bca90614a83565b80601f0160208091040260200160405190810160405280929190818152602001828054610bf690614a83565b8015610c435780601f10610c1857610100808354040283529160200191610c43565b820191906000526020600020905b815481529060010190602001808311610c2657829003601f168201915b5050505050905090565b60096020528060005260406000206000915090508060000160009054906101000a900473ffffffffffffffffffffffffffffffffffffffff1690806001015490806002018054610c9c90614a83565b80601f0160208091040260200160405190810160405280929190818152602001828054610cc890614a83565b8015610d155780601f10610cea57610100808354040283529160200191610d15565b820191906000526020600020905b815481529060010190602001808311610cf857829003601f168201915b505050505090806003018054610d2a90614a83565b80601f0160208091040260200160405190810160405280929190818152602001828054610d5690614a83565b8015610da35780601f10610d7857610100808354040283529160200191610da3565b820191906000526020600020905b815481529060010190602001808311610d8657829003601f168201915b5050505050908060040154908060050154908060060154908060070154905088565b610dd7610dd061242b565b8383612861565b5050565b600a806000018054610dec90614a83565b80601f0160208091040260200160405190810160405280929190818152602001828054610e1890614a83565b8015610e655780601f10610e3a57610100808354040283529160200191610e65565b820191906000526020600020905b815481529060010190602001808311610e4857829003601f168201915b505050505090806001018054610e7a90614a83565b80601f0160208091040260200160405190810160405280929190818152602001828054610ea690614a83565b8015610ef35780601f10610ec857610100808354040283529160200191610ef3565b820191906000526020600020905b815481529060010190602001808311610ed657829003601f168201915b5050505050908060020154908060030154908060040154905085565b610f20610f1a61242b565b83612565565b610f5f576040517f08c379a0000000000000000000000000000000000000000000000000000000008152600401610f5690614659565b60405180910390fd5b610f6b848484846129ce565b50505050565b60606008805480602002602001604051908101604052809291908181526020016000905b828210156111745783829060005260206000209060080201604051806101000160405290816000820160009054906101000a900473ffffffffffffffffffffffffffffffffffffffff1673ffffffffffffffffffffffffffffffffffffffff1673ffffffffffffffffffffffffffffffffffffffff1681526020016001820154815260200160028201805461102990614a83565b80601f016020809104026020016040519081016040528092919081815260200182805461105590614a83565b80156110a25780601f10611077576101008083540402835291602001916110a2565b820191906000526020600020905b81548152906001019060200180831161108557829003601f168201915b505050505081526020016003820180546110bb90614a83565b80601f01602080910402602001604051908101604052809291908181526020018280546110e790614a83565b80156111345780601f1061110957610100808354040283529160200191611134565b820191906000526020600020905b81548152906001019060200180831161111757829003601f168201915b5050505050815260200160048201548152602001600582015481526020016006820154815260200160078201548152505081526020019060010190610f95565b50505050905090565b6060600060096000848152602001908152602001600020604051806101000160405290816000820160009054906101000a900473ffffffffffffffffffffffffffffffffffffffff1673ffffffffffffffffffffffffffffffffffffffff1673ffffffffffffffffffffffffffffffffffffffff1681526020016001820154815260200160028201805461121090614a83565b80601f016020809104026020016040519081016040528092919081815260200182805461123c90614a83565b80156112895780601f1061125e57610100808354040283529160200191611289565b820191906000526020600020905b81548152906001019060200180831161126c57829003601f168201915b505050505081526020016003820180546112a290614a83565b80601f01602080910402602001604051908101604052809291908181526020018280546112ce90614a83565b801561131b5780601f106112f05761010080835404028352916020019161131b565b820191906000526020600020905b8154815290600101906020018083116112fe57829003601f168201915b505050505081526020016004820154815260200160058201548152602001600682015481526020016007820154815250509050600061135d8260800151612a2a565b9050600061136e8360a00151612a2a565b9050600061137f8460c00151612a2a565b905060006113908560e00151612a2a565b905060006113d886604001516113a58a612a2a565b8860600151888888886040516020016113c497969594939291906140e7565b604051602081830303815290604052612b8b565b90506000816040516020016113ed91906141a4565b604051602081830303815290604052905080975050505050505050919050565b6114156131e3565b6000600f60003373ffffffffffffffffffffffffffffffffffffffff1673ffffffffffffffffffffffffffffffffffffffff16815260200190815260200160002054905060008111156116355760096000828152602001908152602001600020604051806101000160405290816000820160009054906101000a900473ffffffffffffffffffffffffffffffffffffffff1673ffffffffffffffffffffffffffffffffffffffff1673ffffffffffffffffffffffffffffffffffffffff168152602001600182015481526020016002820180546114f190614a83565b80601f016020809104026020016040519081016040528092919081815260200182805461151d90614a83565b801561156a5780601f1061153f5761010080835404028352916020019161156a565b820191906000526020600020905b81548152906001019060200180831161154d57829003601f168201915b5050505050815260200160038201805461158390614a83565b80601f01602080910402602001604051908101604052809291908181526020018280546115af90614a83565b80156115fc5780601f106115d1576101008083540402835291602001916115fc565b820191906000526020600020905b8154815290600101906020018083116115df57829003601f168201915b50505050508152602001600482015481526020016005820154815260200160068201548152602001600782015481525050915050611643565b61163d6131e3565b80925050505b90565b6000600f60003373ffffffffffffffffffffffffffffffffffffffff1673ffffffffffffffffffffffffffffffffffffffff16815260200190815260200160002054905060006009600083815260200190815260200160002090506004601654106116c557600381600601546116bc91906148d9565b81600601819055505b600081600401541161170c576040517f08c379a000000000000000000000000000000000000000000000000000000000815260040161170390614539565b60405180910390fd5b6000600a6002015411611754576040517f08c379a000000000000000000000000000000000000000000000000000000000815260040161174b90614639565b60405180910390fd5b8060060154600a60020154101561179557600a6002015481600701600082825461177e9190614852565b925050819055506000600a600201819055506117d5565b80600601548160070160008282546117ad9190614852565b925050819055508060060154600a60020160008282546117cd9190614933565b925050819055505b600a60040154816004015410156117f55760008160040181905550611816565b600a6004015481600401600082825461180e9190614933565b925050819055505b60005b600780549050811015611a93573373ffffffffffffffffffffffffffffffffffffffff166007828154811061185157611850614c21565b5b906000526020600020906008020160000160009054906101000a900473ffffffffffffffffffffffffffffffffffffffff1673ffffffffffffffffffffffffffffffffffffffff161415611a805760008260040154141561197f57600781815481106118c0576118bf614c21565b5b9060005260206000209060080201600080820160006101000a81549073ffffffffffffffffffffffffffffffffffffffff0219169055600182016000905560028201600061190e919061323e565b60038201600061191e919061323e565b600482016000905560058201600090556006820160009055600782016000905550507f8b348e519319ce056b18ae43c2239a2f2a8973595c0cf01aded937707d44c66d336007604051611972929190614256565b60405180910390a1611a7f565b816007828154811061199457611993614c21565b5b90600052602060002090600802016000820160009054906101000a900473ffffffffffffffffffffffffffffffffffffffff168160000160006101000a81548173ffffffffffffffffffffffffffffffffffffffff021916908373ffffffffffffffffffffffffffffffffffffffff160217905550600182015481600101556002820181600201908054611a2790614a83565b611a3292919061327e565b506003820181600301908054611a4790614a83565b611a5292919061327e565b50600482015481600401556005820154816005015560068201548160060155600782015481600701559050505b5b8080611a8b90614b1a565b915050611819565b50600460165410611ab85760038160060154611aaf91906148a8565b81600601819055505b7f09faba0876fcfdd57f0dba12fd4772592af731e6eb907d0046f715c0fe7170af33600a60020154836004015484600701546007601654604051611b019695949392919061435e565b60405180910390a15050565b601060009054906101000a900473ffffffffffffffffffffffffffffffffffffffff1673ffffffffffffffffffffffffffffffffffffffff16635d3b1d30601254601060149054906101000a900467ffffffffffffffff16601360049054906101000a900461ffff16601360009054906101000a900463ffffffff16601360069054906101000a900463ffffffff166040518663ffffffff1660e01b8152600401611bbc959493929190614403565b602060405180830381600087803b158015611bd657600080fd5b505af1158015611bea573d6000803e3d6000fd5b505050506040513d601f19601f82011682018060405250810190611c0e9190613784565b601481905550565b60145481565b6000600560008473ffffffffffffffffffffffffffffffffffffffff1673ffffffffffffffffffffffffffffffffffffffff16815260200190815260200160002060008373ffffffffffffffffffffffffffffffffffffffff1673ffffffffffffffffffffffffffffffffffffffff16815260200190815260200160002060009054906101000a900460ff16905092915050565b6000611cbc6006612d23565b9050611cc83382612d31565b6040518061010001604052803373ffffffffffffffffffffffffffffffffffffffff16815260200183815260200160088481548110611d0a57611d09614c21565b5b90600052602060002090600802016002018054611d2690614a83565b80601f0160208091040260200160405190810160405280929190818152602001828054611d5290614a83565b8015611d9f5780601f10611d7457610100808354040283529160200191611d9f565b820191906000526020600020905b815481529060010190602001808311611d8257829003601f168201915b5050505050815260200160088481548110611dbd57611dbc614c21565b5b90600052602060002090600802016003018054611dd990614a83565b80601f0160208091040260200160405190810160405280929190818152602001828054611e0590614a83565b8015611e525780601f10611e2757610100808354040283529160200191611e52565b820191906000526020600020905b815481529060010190602001808311611e3557829003601f168201915b5050505050815260200160088481548110611e7057611e6f614c21565b5b906000526020600020906008020160040154815260200160088481548110611e9b57611e9a614c21565b5b906000526020600020906008020160050154815260200160088481548110611ec657611ec5614c21565b5b906000526020600020906008020160060154815260200160008152506009600083815260200190815260200160002060008201518160000160006101000a81548173ffffffffffffffffffffffffffffffffffffffff021916908373ffffffffffffffffffffffffffffffffffffffff160217905550602082015181600101556040820151816002019080519060200190611f6292919061330b565b506060820151816003019080519060200190611f7f92919061330b565b506080820151816004015560a0820151816005015560c0820151816006015560e0820151816007015590505060076009600083815260200190815260200160002090806001815401808255809150506001900390600052602060002090600802016000909190919091506000820160009054906101000a900473ffffffffffffffffffffffffffffffffffffffff168160000160006101000a81548173ffffffffffffffffffffffffffffffffffffffff021916908373ffffffffffffffffffffffffffffffffffffffff16021790555060018201548160010155600282018160020190805461206e90614a83565b61207992919061327e565b50600382018160030190805461208e90614a83565b61209992919061327e565b5060048201548160040155600582015481600501556006820154816006015560078201548160070155505080600f60003373ffffffffffffffffffffffffffffffffffffffff1673ffffffffffffffffffffffffffffffffffffffff168152602001908152602001600020819055506121126006612360565b7ff7ce6d45718f4d5553edc6316819886e91553095c70e36bced1baa5d3f5ee22633828460076040516121489493929190614312565b60405180910390a15050565b60606007805480602002602001604051908101604052809291908181526020016000905b828210156123575783829060005260206000209060080201604051806101000160405290816000820160009054906101000a900473ffffffffffffffffffffffffffffffffffffffff1673ffffffffffffffffffffffffffffffffffffffff1673ffffffffffffffffffffffffffffffffffffffff1681526020016001820154815260200160028201805461220c90614a83565b80601f016020809104026020016040519081016040528092919081815260200182805461223890614a83565b80156122855780601f1061225a57610100808354040283529160200191612285565b820191906000526020600020905b81548152906001019060200180831161226857829003601f168201915b5050505050815260200160038201805461229e90614a83565b80601f01602080910402602001604051908101604052809291908181526020018280546122ca90614a83565b80156123175780601f106122ec57610100808354040283529160200191612317565b820191906000526020600020905b8154815290600101906020018083116122fa57829003601f168201915b5050505050815260200160048201548152602001600582015481526020016006820154815260200160078201548152505081526020019060010190612178565b50505050905090565b6001816000016000828254019250508190555050565b60007f01ffc9a7000000000000000000000000000000000000000000000000000000007bffffffffffffffffffffffffffffffffffffffffffffffffffffffff1916827bffffffffffffffffffffffffffffffffffffffffffffffffffffffff1916149050919050565b6123e981612d4f565b612428576040517f08c379a000000000000000000000000000000000000000000000000000000000815260040161241f906145f9565b60405180910390fd5b50565b600033905090565b816004600083815260200190815260200160002060006101000a81548173ffffffffffffffffffffffffffffffffffffffff021916908373ffffffffffffffffffffffffffffffffffffffff160217905550808273ffffffffffffffffffffffffffffffffffffffff166124a683610a39565b73ffffffffffffffffffffffffffffffffffffffff167f8c5be1e5ebec7d5bd14f71427d1e84f3dd0314c0f7b2291e5b200ac8c7c3b92560405160405180910390a45050565b600160058260008151811061250457612503614c21565b5b60200260200101516125169190614b63565b6125209190614852565b6016819055507f5c69e7026b653d8606b5613bb00fd8c4b0504b1cbe8db600c406faac180924d5826016546040516125599291906146d8565b60405180910390a15050565b60008061257183610a39565b90508073ffffffffffffffffffffffffffffffffffffffff168473ffffffffffffffffffffffffffffffffffffffff1614806125b357506125b28185611c1c565b5b806125f157508373ffffffffffffffffffffffffffffffffffffffff166125d98461079b565b73ffffffffffffffffffffffffffffffffffffffff16145b91505092915050565b8273ffffffffffffffffffffffffffffffffffffffff1661261a82610a39565b73ffffffffffffffffffffffffffffffffffffffff1614612670576040517f08c379a0000000000000000000000000000000000000000000000000000000008152600401612667906144f9565b60405180910390fd5b600073ffffffffffffffffffffffffffffffffffffffff168273ffffffffffffffffffffffffffffffffffffffff1614156126e0576040517f08c379a00000000000000000000000000000000000000000000000000000000081526004016126d790614559565b60405180910390fd5b6126eb838383612dbb565b6126f6600082612433565b6001600360008573ffffffffffffffffffffffffffffffffffffffff1673ffffffffffffffffffffffffffffffffffffffff16815260200190815260200160002060008282546127469190614933565b925050819055506001600360008473ffffffffffffffffffffffffffffffffffffffff1673ffffffffffffffffffffffffffffffffffffffff168152602001908152602001600020600082825461279d9190614852565b92505081905550816002600083815260200190815260200160002060006101000a81548173ffffffffffffffffffffffffffffffffffffffff021916908373ffffffffffffffffffffffffffffffffffffffff160217905550808273ffffffffffffffffffffffffffffffffffffffff168473ffffffffffffffffffffffffffffffffffffffff167fddf252ad1be2c89b69c2b068fc378daa952ba7f163c4a11628f55a4df523b3ef60405160405180910390a461285c838383612dc0565b505050565b8173ffffffffffffffffffffffffffffffffffffffff168373ffffffffffffffffffffffffffffffffffffffff1614156128d0576040517f08c379a00000000000000000000000000000000000000000000000000000000081526004016128c790614579565b60405180910390fd5b80600560008573ffffffffffffffffffffffffffffffffffffffff1673ffffffffffffffffffffffffffffffffffffffff16815260200190815260200160002060008473ffffffffffffffffffffffffffffffffffffffff1673ffffffffffffffffffffffffffffffffffffffff16815260200190815260200160002060006101000a81548160ff0219169083151502179055508173ffffffffffffffffffffffffffffffffffffffff168373ffffffffffffffffffffffffffffffffffffffff167f17307eab39ab6107e8899845ad3d59bd9653f200f220920489ca2b5937696c31836040516129c191906143e8565b60405180910390a3505050565b6129d98484846125fa565b6129e584848484612dc5565b612a24576040517f08c379a0000000000000000000000000000000000000000000000000000000008152600401612a1b906144d9565b60405180910390fd5b50505050565b60606000821415612a72576040518060400160405280600181526020017f30000000000000000000000000000000000000000000000000000000000000008152509050612b86565b600082905060005b60008214612aa4578080612a8d90614b1a565b915050600a82612a9d91906148a8565b9150612a7a565b60008167ffffffffffffffff811115612ac057612abf614c50565b5b6040519080825280601f01601f191660200182016040528015612af25781602001600182028036833780820191505090505b5090505b60008514612b7f57600182612b0b9190614933565b9150600a85612b1a9190614b63565b6030612b269190614852565b60f81b818381518110612b3c57612b3b614c21565b5b60200101907effffffffffffffffffffffffffffffffffffffffffffffffffffffffffffff1916908160001a905350600a85612b7891906148a8565b9450612af6565b8093505050505b919050565b60606000825190506000811415612bb45760405180602001604052806000815250915050612d1e565b60006003600283612bc59190614852565b612bcf91906148a8565b6004612bdb91906148d9565b90506000602082612bec9190614852565b67ffffffffffffffff811115612c0557612c04614c50565b5b6040519080825280601f01601f191660200182016040528015612c375781602001600182028036833780820191505090505b5090506000604051806060016040528060408152602001615287604091399050600181016020830160005b86811015612cdb5760038101905062ffffff818a015116603f8160121c168401518060081b905060ff603f83600c1c1686015116810190508060081b905060ff603f8360061c1686015116810190508060081b905060ff603f831686015116810190508060e01b90508084526004840193505050612c62565b506003860660018114612cf55760028114612d0557612d10565b613d3d60f01b6002830352612d10565b603d60f81b60018303525b508484525050819450505050505b919050565b600081600001549050919050565b612d4b828260405180602001604052806000815250612f5c565b5050565b60008073ffffffffffffffffffffffffffffffffffffffff166002600084815260200190815260200160002060009054906101000a900473ffffffffffffffffffffffffffffffffffffffff1673ffffffffffffffffffffffffffffffffffffffff1614159050919050565b505050565b505050565b6000612de68473ffffffffffffffffffffffffffffffffffffffff16612fb7565b15612f4f578373ffffffffffffffffffffffffffffffffffffffff1663150b7a02612e0f61242b565b8786866040518563ffffffff1660e01b8152600401612e31949392919061420a565b602060405180830381600087803b158015612e4b57600080fd5b505af1925050508015612e7c57506040513d601f19601f82011682018060405250810190612e79919061372a565b60015b612eff573d8060008114612eac576040519150601f19603f3d011682016040523d82523d6000602084013e612eb1565b606091505b50600081511415612ef7576040517f08c379a0000000000000000000000000000000000000000000000000000000008152600401612eee906144d9565b60405180910390fd5b805181602001fd5b63150b7a0260e01b7bffffffffffffffffffffffffffffffffffffffffffffffffffffffff1916817bffffffffffffffffffffffffffffffffffffffffffffffffffffffff191614915050612f54565b600190505b949350505050565b612f668383612fda565b612f736000848484612dc5565b612fb2576040517f08c379a0000000000000000000000000000000000000000000000000000000008152600401612fa9906144d9565b60405180910390fd5b505050565b6000808273ffffffffffffffffffffffffffffffffffffffff163b119050919050565b600073ffffffffffffffffffffffffffffffffffffffff168273ffffffffffffffffffffffffffffffffffffffff16141561304a576040517f08c379a0000000000000000000000000000000000000000000000000000000008152600401613041906145d9565b60405180910390fd5b61305381612d4f565b15613093576040517f08c379a000000000000000000000000000000000000000000000000000000000815260040161308a90614519565b60405180910390fd5b61309f60008383612dbb565b6001600360008473ffffffffffffffffffffffffffffffffffffffff1673ffffffffffffffffffffffffffffffffffffffff16815260200190815260200160002060008282546130ef9190614852565b92505081905550816002600083815260200190815260200160002060006101000a81548173ffffffffffffffffffffffffffffffffffffffff021916908373ffffffffffffffffffffffffffffffffffffffff160217905550808273ffffffffffffffffffffffffffffffffffffffff16600073ffffffffffffffffffffffffffffffffffffffff167fddf252ad1be2c89b69c2b068fc378daa952ba7f163c4a11628f55a4df523b3ef60405160405180910390a46131b060008383612dc0565b5050565b6040518060a0016040528060608152602001606081526020016000815260200160008152602001600081525090565b604051806101000160405280600073ffffffffffffffffffffffffffffffffffffffff168152602001600081526020016060815260200160608152602001600081526020016000815260200160008152602001600081525090565b50805461324a90614a83565b6000825580601f1061325c575061327b565b601f01602090049060005260206000209081019061327a9190613391565b5b50565b82805461328a90614a83565b90600052602060002090601f0160209004810192826132ac57600085556132fa565b82601f106132bd57805485556132fa565b828001600101855582156132fa57600052602060002091601f016020900482015b828111156132f95782548255916001019190600101906132de565b5b5090506133079190613391565b5090565b82805461331790614a83565b90600052602060002090601f0160209004810192826133395760008555613380565b82601f1061335257805160ff1916838001178555613380565b82800160010185558215613380579182015b8281111561337f578251825591602001919060010190613364565b5b50905061338d9190613391565b5090565b5b808211156133aa576000816000905550600101613392565b5090565b60006133c16133bc84614726565b614701565b905080838252602082019050828560208602820111156133e4576133e3614c84565b5b60005b8581101561341457816133fa8882613510565b8452602084019350602083019250506001810190506133e7565b5050509392505050565b600061343161342c84614752565b614701565b90508281526020810184848401111561344d5761344c614c89565b5b613458848285614a41565b509392505050565b60008135905061346f8161522a565b92915050565b600082601f83011261348a57613489614c7f565b5b813561349a8482602086016133ae565b91505092915050565b6000813590506134b281615241565b92915050565b6000813590506134c781615258565b92915050565b6000815190506134dc81615258565b92915050565b600082601f8301126134f7576134f6614c7f565b5b813561350784826020860161341e565b91505092915050565b60008135905061351f8161526f565b92915050565b6000815190506135348161526f565b92915050565b6000602082840312156135505761354f614c93565b5b600061355e84828501613460565b91505092915050565b6000806040838503121561357e5761357d614c93565b5b600061358c85828601613460565b925050602061359d85828601613460565b9150509250929050565b6000806000606084860312156135c0576135bf614c93565b5b60006135ce86828701613460565b93505060206135df86828701613460565b92505060406135f086828701613510565b9150509250925092565b6000806000806080858703121561361457613613614c93565b5b600061362287828801613460565b945050602061363387828801613460565b935050604061364487828801613510565b925050606085013567ffffffffffffffff81111561366557613664614c8e565b5b613671878288016134e2565b91505092959194509250565b6000806040838503121561369457613693614c93565b5b60006136a285828601613460565b92505060206136b3858286016134a3565b9150509250929050565b600080604083850312156136d4576136d3614c93565b5b60006136e285828601613460565b92505060206136f385828601613510565b9150509250929050565b60006020828403121561371357613712614c93565b5b6000613721848285016134b8565b91505092915050565b6000602082840312156137405761373f614c93565b5b600061374e848285016134cd565b91505092915050565b60006020828403121561376d5761376c614c93565b5b600061377b84828501613510565b91505092915050565b60006020828403121561379a57613799614c93565b5b60006137a884828501613525565b91505092915050565b600080604083850312156137c8576137c7614c93565b5b60006137d685828601613510565b925050602083013567ffffffffffffffff8111156137f7576137f6614c8e565b5b61380385828601613475565b9150509250929050565b60006138198383613e35565b905092915050565b600061382d8383613fa3565b905092915050565b61383e81614991565b82525050565b61384d81614991565b82525050565b600061385e826147bd565b6138688185614803565b93508360208202850161387a85614783565b8060005b858110156138b65784840389528151613897858261380d565b94506138a2836147e9565b925060208a0199505060018101905061387e565b50829750879550505050505092915050565b60006138d3826147c8565b6138dd8185614803565b9350836020820285016138ef85614793565b8060005b8581101561392a5784840389528161390b8582613821565b9450613916836147f6565b925060208a019950506001810190506138f3565b50829750879550505050505092915050565b613945816149a3565b82525050565b613954816149af565b82525050565b6000613965826147d3565b61396f8185614814565b935061397f818560208601614a50565b61398881614c98565b840191505092915050565b600061399e826147de565b6139a88185614825565b93506139b8818560208601614a50565b6139c181614c98565b840191505092915050565b60006139d7826147de565b6139e18185614836565b93506139f1818560208601614a50565b6139fa81614c98565b840191505092915050565b6000613a10826147de565b613a1a8185614847565b9350613a2a818560208601614a50565b80840191505092915050565b60008154613a4381614a83565b613a4d8186614825565b94506001821660008114613a685760018114613a7a57613aad565b60ff1983168652602086019350613aad565b613a83856147a8565b60005b83811015613aa557815481890152600182019150602081019050613a86565b808801955050505b50505092915050565b6000613ac3600b83614847565b9150613ace82614cb6565b600b82019050919050565b6000613ae6603283614836565b9150613af182614cdf565b604082019050919050565b6000613b09602583614836565b9150613b1482614d2e565b604082019050919050565b6000613b2c601c83614836565b9150613b3782614d7d565b602082019050919050565b6000613b4f601a83614836565b9150613b5a82614da6565b602082019050919050565b6000613b72606883614847565b9150613b7d82614dcf565b606882019050919050565b6000613b95600e83614847565b9150613ba082614e6a565b600e82019050919050565b6000613bb8602483614836565b9150613bc382614e93565b604082019050919050565b6000613bdb601983614836565b9150613be682614ee2565b602082019050919050565b6000613bfe602983614836565b9150613c0982614f0b565b604082019050919050565b6000613c21600483614847565b9150613c2c82614f5a565b600482019050919050565b6000613c44603e83614836565b9150613c4f82614f83565b604082019050919050565b6000613c67602083614836565b9150613c7282614fd2565b602082019050919050565b6000613c8a600a83614847565b9150613c9582614ffb565b600a82019050919050565b6000613cad601883614836565b9150613cb882615024565b602082019050919050565b6000613cd0602183614836565b9150613cdb8261504d565b604082019050919050565b6000613cf3601d83614847565b9150613cfe8261509c565b601d82019050919050565b6000613d16601883614836565b9150613d21826150c5565b602082019050919050565b6000613d39603d83614847565b9150613d44826150ee565b603d82019050919050565b6000613d5c602d83614847565b9150613d678261513d565b602d82019050919050565b6000613d7f603283614847565b9150613d8a8261518c565b603282019050919050565b6000613da2602e83614836565b9150613dad826151db565b604082019050919050565b600060a0830160008301518482036000860152613dd58282613993565b91505060208301518482036020860152613def8282613993565b9150506040830151613e0460408601826140ab565b506060830151613e1760608601826140ab565b506080830151613e2a60808601826140ab565b508091505092915050565b600061010083016000830151613e4e6000860182613835565b506020830151613e6160208601826140ab565b5060408301518482036040860152613e798282613993565b91505060608301518482036060860152613e938282613993565b9150506080830151613ea860808601826140ab565b5060a0830151613ebb60a08601826140ab565b5060c0830151613ece60c08601826140ab565b5060e0830151613ee160e08601826140ab565b508091505092915050565b600061010083016000830151613f056000860182613835565b506020830151613f1860208601826140ab565b5060408301518482036040860152613f308282613993565b91505060608301518482036060860152613f4a8282613993565b9150506080830151613f5f60808601826140ab565b5060a0830151613f7260a08601826140ab565b5060c0830151613f8560c08601826140ab565b5060e0830151613f9860e08601826140ab565b508091505092915050565b600061010083016000808401549050613fbb81614ab5565b613fc86000870182613835565b5060018401549050613fd981614acf565b613fe660208701826140ab565b50600284018583036040870152613ffd8382613a36565b9250506003840185830360608701526140168382613a36565b9250506004840154905061402981614acf565b61403660808701826140ab565b506005840154905061404781614acf565b61405460a08701826140ab565b506006840154905061406581614acf565b61407260c08701826140ab565b506007840154905061408381614acf565b61409060e08701826140ab565b50819250505092915050565b6140a5816149e5565b82525050565b6140b481614a13565b82525050565b6140c381614a13565b82525050565b6140d281614a1d565b82525050565b6140e181614a2d565b82525050565b60006140f282613c7d565b91506140fe828a613a05565b915061410982613ab6565b91506141158289613a05565b915061412082613b65565b915061412c8288613a05565b915061413782613d2c565b91506141438287613a05565b915061414e82613b88565b915061415a8286613a05565b915061416582613d4f565b91506141718285613a05565b915061417c82613d72565b91506141888284613a05565b915061419382613c14565b915081905098975050505050505050565b60006141af82613ce6565b91506141bb8284613a05565b915081905092915050565b60006020820190506141db6000830184613844565b92915050565b60006040820190506141f66000830185613844565b6142036020830184613844565b9392505050565b600060808201905061421f6000830187613844565b61422c6020830186613844565b61423960408301856140ba565b818103606083015261424b818461395a565b905095945050505050565b600060408201905061426b6000830185613844565b818103602083015261427d81846138c8565b90509392505050565b60006101008201905061429c600083018b613844565b6142a9602083018a6140ba565b81810360408301526142bb81896139cc565b905081810360608301526142cf81886139cc565b90506142de60808301876140ba565b6142eb60a08301866140ba565b6142f860c08301856140ba565b61430560e08301846140ba565b9998505050505050505050565b60006080820190506143276000830187613844565b61433460208301866140ba565b61434160408301856140ba565b818103606083015261435381846138c8565b905095945050505050565b600060c0820190506143736000830189613844565b61438060208301886140ba565b61438d60408301876140ba565b61439a60608301866140ba565b81810360808301526143ac81856138c8565b90506143bb60a08301846140ba565b979650505050505050565b600060208201905081810360008301526143e08184613853565b905092915050565b60006020820190506143fd600083018461393c565b92915050565b600060a082019050614418600083018861394b565b61442560208301876140d8565b614432604083018661409c565b61443f60608301856140c9565b61444c60808301846140c9565b9695505050505050565b6000602082019050818103600083015261447081846139cc565b905092915050565b600060a082019050818103600083015261449281886139cc565b905081810360208301526144a681876139cc565b90506144b560408301866140ba565b6144c260608301856140ba565b6144cf60808301846140ba565b9695505050505050565b600060208201905081810360008301526144f281613ad9565b9050919050565b6000602082019050818103600083015261451281613afc565b9050919050565b6000602082019050818103600083015261453281613b1f565b9050919050565b6000602082019050818103600083015261455281613b42565b9050919050565b6000602082019050818103600083015261457281613bab565b9050919050565b6000602082019050818103600083015261459281613bce565b9050919050565b600060208201905081810360008301526145b281613bf1565b9050919050565b600060208201905081810360008301526145d281613c37565b9050919050565b600060208201905081810360008301526145f281613c5a565b9050919050565b6000602082019050818103600083015261461281613ca0565b9050919050565b6000602082019050818103600083015261463281613cc3565b9050919050565b6000602082019050818103600083015261465281613d09565b9050919050565b6000602082019050818103600083015261467281613d95565b9050919050565b600060208201905081810360008301526146938184613db8565b905092915050565b600060208201905081810360008301526146b58184613eec565b905092915050565b60006020820190506146d260008301846140ba565b92915050565b60006040820190506146ed60008301856140ba565b6146fa60208301846140ba565b9392505050565b600061470b61471c565b90506147178282614ae9565b919050565b6000604051905090565b600067ffffffffffffffff82111561474157614740614c50565b5b602082029050602081019050919050565b600067ffffffffffffffff82111561476d5761476c614c50565b5b61477682614c98565b9050602081019050919050565b6000819050602082019050919050565b60008190508160005260206000209050919050565b60008190508160005260206000209050919050565b600081519050919050565b600081549050919050565b600081519050919050565b600081519050919050565b6000602082019050919050565b6000600882019050919050565b600082825260208201905092915050565b600082825260208201905092915050565b600082825260208201905092915050565b600082825260208201905092915050565b600081905092915050565b600061485d82614a13565b915061486883614a13565b9250827fffffffffffffffffffffffffffffffffffffffffffffffffffffffffffffffff0382111561489d5761489c614b94565b5b828201905092915050565b60006148b382614a13565b91506148be83614a13565b9250826148ce576148cd614bc3565b5b828204905092915050565b60006148e482614a13565b91506148ef83614a13565b9250817fffffffffffffffffffffffffffffffffffffffffffffffffffffffffffffffff048311821515161561492857614927614b94565b5b828202905092915050565b600061493e82614a13565b915061494983614a13565b92508282101561495c5761495b614b94565b5b828203905092915050565b600073ffffffffffffffffffffffffffffffffffffffff82169050919050565b6000819050919050565b600061499c826149f3565b9050919050565b60008115159050919050565b6000819050919050565b60007fffffffff0000000000000000000000000000000000000000000000000000000082169050919050565b600061ffff82169050919050565b600073ffffffffffffffffffffffffffffffffffffffff82169050919050565b6000819050919050565b600063ffffffff82169050919050565b600067ffffffffffffffff82169050919050565b82818337600083830152505050565b60005b83811015614a6e578082015181840152602081019050614a53565b83811115614a7d576000848401525b50505050565b60006002820490506001821680614a9b57607f821691505b60208210811415614aaf57614aae614bf2565b5b50919050565b6000614ac8614ac383614ca9565b614967565b9050919050565b6000614ae2614add83614ca9565b614987565b9050919050565b614af282614c98565b810181811067ffffffffffffffff82111715614b1157614b10614c50565b5b80604052505050565b6000614b2582614a13565b91507fffffffffffffffffffffffffffffffffffffffffffffffffffffffffffffffff821415614b5857614b57614b94565b5b600182019050919050565b6000614b6e82614a13565b9150614b7983614a13565b925082614b8957614b88614bc3565b5b828206905092915050565b7f4e487b7100000000000000000000000000000000000000000000000000000000600052601160045260246000fd5b7f4e487b7100000000000000000000000000000000000000000000000000000000600052601260045260246000fd5b7f4e487b7100000000000000000000000000000000000000000000000000000000600052602260045260246000fd5b7f4e487b7100000000000000000000000000000000000000000000000000000000600052603260045260246000fd5b7f4e487b7100000000000000000000000000000000000000000000000000000000600052604160045260246000fd5b600080fd5b600080fd5b600080fd5b600080fd5b600080fd5b6000601f19601f8301169050919050565b60008160001c9050919050565b7f202d2d204e465420233a20000000000000000000000000000000000000000000600082015250565b7f4552433732313a207472616e7366657220746f206e6f6e20455243373231526560008201527f63656976657220696d706c656d656e7465720000000000000000000000000000602082015250565b7f4552433732313a207472616e736665722066726f6d20696e636f72726563742060008201527f6f776e6572000000000000000000000000000000000000000000000000000000602082015250565b7f4552433732313a20746f6b656e20616c7265616479206d696e74656400000000600082015250565b7f506c6179657220686173206e6f2048502063616e7420706c6179000000000000600082015250565b7f222c20226465736372697074696f6e223a20225468697320697320616e204e4660008201527f542074686174206c6574732070656f706c6520706c617920696e20746865206760208201527f616d65204461726b77696e67204e696768747321222c2022696d616765223a2060408201527f22697066733a2f2f000000000000000000000000000000000000000000000000606082015250565b7f2c20226d61785f76616c7565223a000000000000000000000000000000000000600082015250565b7f4552433732313a207472616e7366657220746f20746865207a65726f2061646460008201527f7265737300000000000000000000000000000000000000000000000000000000602082015250565b7f4552433732313a20617070726f766520746f2063616c6c657200000000000000600082015250565b7f4552433732313a2061646472657373207a65726f206973206e6f74206120766160008201527f6c6964206f776e65720000000000000000000000000000000000000000000000602082015250565b7f7d205d7d00000000000000000000000000000000000000000000000000000000600082015250565b7f4552433732313a20617070726f76652063616c6c6572206973206e6f7420746f60008201527f6b656e206f776e6572206e6f7220617070726f76656420666f7220616c6c0000602082015250565b7f4552433732313a206d696e7420746f20746865207a65726f2061646472657373600082015250565b7f7b226e616d65223a202200000000000000000000000000000000000000000000600082015250565b7f4552433732313a20696e76616c696420746f6b656e2049440000000000000000600082015250565b7f4552433732313a20617070726f76616c20746f2063757272656e74206f776e6560008201527f7200000000000000000000000000000000000000000000000000000000000000602082015250565b7f646174613a6170706c69636174696f6e2f6a736f6e3b6261736536342c000000600082015250565b7f426f737320686173206e6f2048502063616e7420706c61790000000000000000600082015250565b7f222c202261747472696275746573223a205b207b202274726169745f7479706560008201527f223a20224865616c746820506f696e7473222c202276616c7565223a20000000602082015250565b7f7d2c207b202274726169745f74797065223a202241747461636b2044616d616760008201527f65222c202276616c7565223a2000000000000000000000000000000000000000602082015250565b7f7d2c207b202274726169745f74797065223a2022546f74616c2044616d61676560008201527f204465616c74222c202276616c7565223a200000000000000000000000000000602082015250565b7f4552433732313a2063616c6c6572206973206e6f7420746f6b656e206f776e6560008201527f72206e6f7220617070726f766564000000000000000000000000000000000000602082015250565b61523381614991565b811461523e57600080fd5b50565b61524a816149a3565b811461525557600080fd5b50565b615261816149b9565b811461526c57600080fd5b50565b61527881614a13565b811461528357600080fd5b5056fe4142434445464748494a4b4c4d4e4f505152535455565758595a6162636465666768696a6b6c6d6e6f707172737475767778797a303132333435363738392b2fa26469706673582212201e25f2eb5a13293d75a44b52021358c8baf937d64f3b81777c23d6da4079b69164736f6c63430008070033",
  "linkReferences": {},
  "deployedLinkReferences": {}
}