{
  "_format": "hh-sol-artifact-1",
  "contractName": "MyEpicGame",
  "sourceName": "contracts/MyEpicGame.sol",
  "abi": [
    {
      "inputs": [
        {
          "internalType": "string[]",
          "name": "characterNames",
          "type": "string[]"
        },
        {
          "internalType": "string[]",
          "name": "characterImageURIs",
          "type": "string[]"
        },
        {
          "internalType": "uint256[]",
          "name": "characterHP",
          "type": "uint256[]"
        },
        {
          "internalType": "uint256[]",
          "name": "characterAttackDamage",
          "type": "uint256[]"
        },
        {
          "internalType": "string",
          "name": "bossName",
          "type": "string"
        },
        {
          "internalType": "string",
          "name": "bossImageURI",
          "type": "string"
        },
        {
          "internalType": "uint256",
          "name": "bossHp",
          "type": "uint256"
        },
        {
          "internalType": "uint256",
          "name": "bossAttackDamage",
          "type": "uint256"
        },
        {
          "internalType": "uint64",
          "name": "subscriptionId",
          "type": "uint64"
        }
      ],
      "stateMutability": "nonpayable",
      "type": "constructor"
    },
    {
      "inputs": [
        {
          "internalType": "address",
          "name": "have",
          "type": "address"
        },
        {
          "internalType": "address",
          "name": "want",
          "type": "address"
        }
      ],
      "name": "OnlyCoordinatorCanFulfill",
      "type": "error"
    },
    {
      "anonymous": false,
      "inputs": [
        {
          "indexed": true,
          "internalType": "address",
          "name": "owner",
          "type": "address"
        },
        {
          "indexed": true,
          "internalType": "address",
          "name": "approved",
          "type": "address"
        },
        {
          "indexed": true,
          "internalType": "uint256",
          "name": "tokenId",
          "type": "uint256"
        }
      ],
      "name": "Approval",
      "type": "event"
    },
    {
      "anonymous": false,
      "inputs": [
        {
          "indexed": true,
          "internalType": "address",
          "name": "owner",
          "type": "address"
        },
        {
          "indexed": true,
          "internalType": "address",
          "name": "operator",
          "type": "address"
        },
        {
          "indexed": false,
          "internalType": "bool",
          "name": "approved",
          "type": "bool"
        }
      ],
      "name": "ApprovalForAll",
      "type": "event"
    },
    {
      "anonymous": false,
      "inputs": [
        {
          "indexed": false,
          "internalType": "address",
          "name": "sender",
          "type": "address"
        },
        {
          "indexed": false,
          "internalType": "uint256",
          "name": "newBossHP",
          "type": "uint256"
        },
        {
          "indexed": false,
          "internalType": "uint256",
          "name": "newPlayerHP",
          "type": "uint256"
        },
        {
          "indexed": false,
          "internalType": "uint256",
          "name": "damageDone",
          "type": "uint256"
        },
        {
          "components": [
            {
              "internalType": "address",
              "name": "sender",
              "type": "address"
            },
            {
              "internalType": "uint256",
              "name": "characterIndex",
              "type": "uint256"
            },
            {
              "internalType": "string",
              "name": "name",
              "type": "string"
            },
            {
              "internalType": "string",
              "name": "imageURI",
              "type": "string"
            },
            {
              "internalType": "uint256",
              "name": "hp",
              "type": "uint256"
            },
            {
              "internalType": "uint256",
              "name": "maxHP",
              "type": "uint256"
            },
            {
              "internalType": "uint256",
              "name": "attackDamage",
              "type": "uint256"
            },
            {
              "internalType": "uint256",
              "name": "damageDone",
              "type": "uint256"
            }
          ],
          "indexed": false,
          "internalType": "struct MyEpicGame.CharacterAttributes[]",
          "name": "allPlayersInGame",
          "type": "tuple[]"
        }
      ],
      "name": "AttackComplete",
      "type": "event"
    },
    {
      "anonymous": false,
      "inputs": [
        {
          "indexed": false,
          "internalType": "address",
          "name": "sender",
          "type": "address"
        },
        {
          "indexed": false,
          "internalType": "uint256",
          "name": "tokenID",
          "type": "uint256"
        },
        {
          "indexed": false,
          "internalType": "uint256",
          "name": "characterIndex",
          "type": "uint256"
        },
        {
          "components": [
            {
              "internalType": "address",
              "name": "sender",
              "type": "address"
            },
            {
              "internalType": "uint256",
              "name": "characterIndex",
              "type": "uint256"
            },
            {
              "internalType": "string",
              "name": "name",
              "type": "string"
            },
            {
              "internalType": "string",
              "name": "imageURI",
              "type": "string"
            },
            {
              "internalType": "uint256",
              "name": "hp",
              "type": "uint256"
            },
            {
              "internalType": "uint256",
              "name": "maxHP",
              "type": "uint256"
            },
            {
              "internalType": "uint256",
              "name": "attackDamage",
              "type": "uint256"
            },
            {
              "internalType": "uint256",
              "name": "damageDone",
              "type": "uint256"
            }
          ],
          "indexed": false,
          "internalType": "struct MyEpicGame.CharacterAttributes[]",
          "name": "allPlayersInGame",
          "type": "tuple[]"
        }
      ],
      "name": "CharacterNftMinted",
      "type": "event"
    },
    {
      "anonymous": false,
      "inputs": [
        {
          "indexed": false,
          "internalType": "address",
          "name": "sender",
          "type": "address"
        },
        {
          "components": [
            {
              "internalType": "address",
              "name": "sender",
              "type": "address"
            },
            {
              "internalType": "uint256",
              "name": "characterIndex",
              "type": "uint256"
            },
            {
              "internalType": "string",
              "name": "name",
              "type": "string"
            },
            {
              "internalType": "string",
              "name": "imageURI",
              "type": "string"
            },
            {
              "internalType": "uint256",
              "name": "hp",
              "type": "uint256"
            },
            {
              "internalType": "uint256",
              "name": "maxHP",
              "type": "uint256"
            },
            {
              "internalType": "uint256",
              "name": "attackDamage",
              "type": "uint256"
            },
            {
              "internalType": "uint256",
              "name": "damageDone",
              "type": "uint256"
            }
          ],
          "indexed": false,
          "internalType": "struct MyEpicGame.CharacterAttributes[]",
          "name": "allPlayersInGame",
          "type": "tuple[]"
        }
      ],
      "name": "NftDeath",
      "type": "event"
    },
    {
      "anonymous": false,
      "inputs": [
        {
          "indexed": false,
          "internalType": "uint256",
          "name": "randomNumber",
          "type": "uint256"
        },
        {
          "indexed": false,
          "internalType": "string",
          "name": "praise",
          "type": "string"
        }
      ],
      "name": "RandomNumberEvent",
      "type": "event"
    },
    {
      "anonymous": false,
      "inputs": [
        {
          "indexed": true,
          "internalType": "address",
          "name": "from",
          "type": "address"
        },
        {
          "indexed": true,
          "internalType": "address",
          "name": "to",
          "type": "address"
        },
        {
          "indexed": true,
          "internalType": "uint256",
          "name": "tokenId",
          "type": "uint256"
        }
      ],
      "name": "Transfer",
      "type": "event"
    },
    {
      "inputs": [
        {
          "internalType": "address",
          "name": "to",
          "type": "address"
        },
        {
          "internalType": "uint256",
          "name": "tokenId",
          "type": "uint256"
        }
      ],
      "name": "approve",
      "outputs": [],
      "stateMutability": "nonpayable",
      "type": "function"
    },
    {
      "inputs": [],
      "name": "attackBoss",
      "outputs": [],
      "stateMutability": "nonpayable",
      "type": "function"
    },
    {
      "inputs": [
        {
          "internalType": "address",
          "name": "owner",
          "type": "address"
        }
      ],
      "name": "balanceOf",
      "outputs": [
        {
          "internalType": "uint256",
          "name": "",
          "type": "uint256"
        }
      ],
      "stateMutability": "view",
      "type": "function"
    },
    {
      "inputs": [],
      "name": "bigBoss",
      "outputs": [
        {
          "internalType": "string",
          "name": "name",
          "type": "string"
        },
        {
          "internalType": "string",
          "name": "imageURI",
          "type": "string"
        },
        {
          "internalType": "uint256",
          "name": "hp",
          "type": "uint256"
        },
        {
          "internalType": "uint256",
          "name": "maxHP",
          "type": "uint256"
        },
        {
          "internalType": "uint256",
          "name": "attackDamage",
          "type": "uint256"
        }
      ],
      "stateMutability": "view",
      "type": "function"
    },
    {
      "inputs": [],
      "name": "checkIfUserHasNFT",
      "outputs": [
        {
          "components": [
            {
              "internalType": "address",
              "name": "sender",
              "type": "address"
            },
            {
              "internalType": "uint256",
              "name": "characterIndex",
              "type": "uint256"
            },
            {
              "internalType": "string",
              "name": "name",
              "type": "string"
            },
            {
              "internalType": "string",
              "name": "imageURI",
              "type": "string"
            },
            {
              "internalType": "uint256",
              "name": "hp",
              "type": "uint256"
            },
            {
              "internalType": "uint256",
              "name": "maxHP",
              "type": "uint256"
            },
            {
              "internalType": "uint256",
              "name": "attackDamage",
              "type": "uint256"
            },
            {
              "internalType": "uint256",
              "name": "damageDone",
              "type": "uint256"
            }
          ],
          "internalType": "struct MyEpicGame.CharacterAttributes",
          "name": "",
          "type": "tuple"
        }
      ],
      "stateMutability": "view",
      "type": "function"
    },
    {
      "inputs": [],
      "name": "getAllDefaultCharacters",
      "outputs": [
        {
          "components": [
            {
              "internalType": "address",
              "name": "sender",
              "type": "address"
            },
            {
              "internalType": "uint256",
              "name": "characterIndex",
              "type": "uint256"
            },
            {
              "internalType": "string",
              "name": "name",
              "type": "string"
            },
            {
              "internalType": "string",
              "name": "imageURI",
              "type": "string"
            },
            {
              "internalType": "uint256",
              "name": "hp",
              "type": "uint256"
            },
            {
              "internalType": "uint256",
              "name": "maxHP",
              "type": "uint256"
            },
            {
              "internalType": "uint256",
              "name": "attackDamage",
              "type": "uint256"
            },
            {
              "internalType": "uint256",
              "name": "damageDone",
              "type": "uint256"
            }
          ],
          "internalType": "struct MyEpicGame.CharacterAttributes[]",
          "name": "",
          "type": "tuple[]"
        }
      ],
      "stateMutability": "view",
      "type": "function"
    },
    {
      "inputs": [],
      "name": "getAllPlayersInGame",
      "outputs": [
        {
          "components": [
            {
              "internalType": "address",
              "name": "sender",
              "type": "address"
            },
            {
              "internalType": "uint256",
              "name": "characterIndex",
              "type": "uint256"
            },
            {
              "internalType": "string",
              "name": "name",
              "type": "string"
            },
            {
              "internalType": "string",
              "name": "imageURI",
              "type": "string"
            },
            {
              "internalType": "uint256",
              "name": "hp",
              "type": "uint256"
            },
            {
              "internalType": "uint256",
              "name": "maxHP",
              "type": "uint256"
            },
            {
              "internalType": "uint256",
              "name": "attackDamage",
              "type": "uint256"
            },
            {
              "internalType": "uint256",
              "name": "damageDone",
              "type": "uint256"
            }
          ],
          "internalType": "struct MyEpicGame.CharacterAttributes[]",
          "name": "",
          "type": "tuple[]"
        }
      ],
      "stateMutability": "view",
      "type": "function"
    },
    {
      "inputs": [
        {
          "internalType": "uint256",
          "name": "tokenId",
          "type": "uint256"
        }
      ],
      "name": "getApproved",
      "outputs": [
        {
          "internalType": "address",
          "name": "",
          "type": "address"
        }
      ],
      "stateMutability": "view",
      "type": "function"
    },
    {
      "inputs": [],
      "name": "getBigBoss",
      "outputs": [
        {
          "components": [
            {
              "internalType": "string",
              "name": "name",
              "type": "string"
            },
            {
              "internalType": "string",
              "name": "imageURI",
              "type": "string"
            },
            {
              "internalType": "uint256",
              "name": "hp",
              "type": "uint256"
            },
            {
              "internalType": "uint256",
              "name": "maxHP",
              "type": "uint256"
            },
            {
              "internalType": "uint256",
              "name": "attackDamage",
              "type": "uint256"
            }
          ],
          "internalType": "struct MyEpicGame.BigBoss",
          "name": "",
          "type": "tuple"
        }
      ],
      "stateMutability": "view",
      "type": "function"
    },
    {
      "inputs": [
        {
          "internalType": "address",
          "name": "owner",
          "type": "address"
        },
        {
          "internalType": "address",
          "name": "operator",
          "type": "address"
        }
      ],
      "name": "isApprovedForAll",
      "outputs": [
        {
          "internalType": "bool",
          "name": "",
          "type": "bool"
        }
      ],
      "stateMutability": "view",
      "type": "function"
    },
    {
      "inputs": [
        {
          "internalType": "uint256",
          "name": "_characterIndex",
          "type": "uint256"
        }
      ],
      "name": "mintCharacterNFT",
      "outputs": [],
      "stateMutability": "nonpayable",
      "type": "function"
    },
    {
      "inputs": [],
      "name": "name",
      "outputs": [
        {
          "internalType": "string",
          "name": "",
          "type": "string"
        }
      ],
      "stateMutability": "view",
      "type": "function"
    },
    {
      "inputs": [
        {
          "internalType": "uint256",
          "name": "",
          "type": "uint256"
        }
      ],
      "name": "nftHolderAttributes",
      "outputs": [
        {
          "internalType": "address",
          "name": "sender",
          "type": "address"
        },
        {
          "internalType": "uint256",
          "name": "characterIndex",
          "type": "uint256"
        },
        {
          "internalType": "string",
          "name": "name",
          "type": "string"
        },
        {
          "internalType": "string",
          "name": "imageURI",
          "type": "string"
        },
        {
          "internalType": "uint256",
          "name": "hp",
          "type": "uint256"
        },
        {
          "internalType": "uint256",
          "name": "maxHP",
          "type": "uint256"
        },
        {
          "internalType": "uint256",
          "name": "attackDamage",
          "type": "uint256"
        },
        {
          "internalType": "uint256",
          "name": "damageDone",
          "type": "uint256"
        }
      ],
      "stateMutability": "view",
      "type": "function"
    },
    {
      "inputs": [
        {
          "internalType": "address",
          "name": "",
          "type": "address"
        }
      ],
      "name": "nftHolders",
      "outputs": [
        {
          "internalType": "uint256",
          "name": "",
          "type": "uint256"
        }
      ],
      "stateMutability": "view",
      "type": "function"
    },
    {
      "inputs": [
        {
          "internalType": "uint256",
          "name": "tokenId",
          "type": "uint256"
        }
      ],
      "name": "ownerOf",
      "outputs": [
        {
          "internalType": "address",
          "name": "",
          "type": "address"
        }
      ],
      "stateMutability": "view",
      "type": "function"
    },
    {
      "inputs": [
        {
          "internalType": "uint256",
          "name": "requestId",
          "type": "uint256"
        },
        {
          "internalType": "uint256[]",
          "name": "randomWords",
          "type": "uint256[]"
        }
      ],
      "name": "rawFulfillRandomWords",
      "outputs": [],
      "stateMutability": "nonpayable",
      "type": "function"
    },
    {
      "inputs": [],
      "name": "requestRandomWords",
      "outputs": [],
      "stateMutability": "nonpayable",
      "type": "function"
    },
    {
      "inputs": [],
      "name": "s_requestId",
      "outputs": [
        {
          "internalType": "uint256",
          "name": "",
          "type": "uint256"
        }
      ],
      "stateMutability": "view",
      "type": "function"
    },
    {
      "inputs": [
        {
          "internalType": "address",
          "name": "from",
          "type": "address"
        },
        {
          "internalType": "address",
          "name": "to",
          "type": "address"
        },
        {
          "internalType": "uint256",
          "name": "tokenId",
          "type": "uint256"
        }
      ],
      "name": "safeTransferFrom",
      "outputs": [],
      "stateMutability": "nonpayable",
      "type": "function"
    },
    {
      "inputs": [
        {
          "internalType": "address",
          "name": "from",
          "type": "address"
        },
        {
          "internalType": "address",
          "name": "to",
          "type": "address"
        },
        {
          "internalType": "uint256",
          "name": "tokenId",
          "type": "uint256"
        },
        {
          "internalType": "bytes",
          "name": "data",
          "type": "bytes"
        }
      ],
      "name": "safeTransferFrom",
      "outputs": [],
      "stateMutability": "nonpayable",
      "type": "function"
    },
    {
      "inputs": [
        {
          "internalType": "address",
          "name": "operator",
          "type": "address"
        },
        {
          "internalType": "bool",
          "name": "approved",
          "type": "bool"
        }
      ],
      "name": "setApprovalForAll",
      "outputs": [],
      "stateMutability": "nonpayable",
      "type": "function"
    },
    {
      "inputs": [
        {
          "internalType": "bytes4",
          "name": "interfaceId",
          "type": "bytes4"
        }
      ],
      "name": "supportsInterface",
      "outputs": [
        {
          "internalType": "bool",
          "name": "",
          "type": "bool"
        }
      ],
      "stateMutability": "view",
      "type": "function"
    },
    {
      "inputs": [],
      "name": "symbol",
      "outputs": [
        {
          "internalType": "string",
          "name": "",
          "type": "string"
        }
      ],
      "stateMutability": "view",
      "type": "function"
    },
    {
      "inputs": [
        {
          "internalType": "uint256",
          "name": "_tokenId",
          "type": "uint256"
        }
      ],
      "name": "tokenURI",
      "outputs": [
        {
          "internalType": "string",
          "name": "",
          "type": "string"
        }
      ],
      "stateMutability": "view",
      "type": "function"
    },
    {
      "inputs": [
        {
          "internalType": "address",
          "name": "from",
          "type": "address"
        },
        {
          "internalType": "address",
          "name": "to",
          "type": "address"
        },
        {
          "internalType": "uint256",
          "name": "tokenId",
          "type": "uint256"
        }
      ],
      "name": "transferFrom",
      "outputs": [],
      "stateMutability": "nonpayable",
      "type": "function"
    }
  ],
  "bytecode": "0x60a0604052732ca8e0c643bde4c2e08ab1fa0da3401adad7734d601260006101000a81548173ffffffffffffffffffffffffffffffffffffffff021916908373ffffffffffffffffffffffffffffffffffffffff1602179055507f79d3d8832d904592c0bf9818b621522c988bb8b0c05cdc3b15aea1b6e8db0c1560001b601355620186a0601460006101000a81548163ffffffff021916908363ffffffff1602179055506003601460046101000a81548161ffff021916908361ffff1602179055506005601460066101000a81548163ffffffff021916908363ffffffff160217905550348015620000f157600080fd5b506040516200607038038062006070833981810160405281019062000117919062000866565b601260009054906101000a900473ffffffffffffffffffffffffffffffffffffffff166040518060400160405280600f81526020017f4461726b77696e67204e696768747300000000000000000000000000000000008152506040518060400160405280600781526020017f42415457494e47000000000000000000000000000000000000000000000000008152508160009080519060200190620001be9291906200058d565b508060019080519060200190620001d79291906200058d565b5050508073ffffffffffffffffffffffffffffffffffffffff1660808173ffffffffffffffffffffffffffffffffffffffff1660601b81525050506040518060a0016040528086815260200185815260200184815260200184815260200183815250600a6000820151816000019080519060200190620002599291906200058d565b506020820151816001019080519060200190620002789291906200058d565b5060408201518160020155606082015181600301556080820151816004015590505060005b8951811015620004835760086040518061010001604052803373ffffffffffffffffffffffffffffffffffffffff1681526020018381526020018c8481518110620002ed57620002ec62000c28565b5b602002602001015181526020018b848151811062000310576200030f62000c28565b5b602002602001015181526020018a848151811062000333576200033262000c28565b5b602002602001015181526020018a848151811062000356576200035562000c28565b5b6020026020010151815260200189848151811062000379576200037862000c28565b5b602002602001015181526020016000815250908060018154018082558091505060019003906000526020600020906008020160009091909190915060008201518160000160006101000a81548173ffffffffffffffffffffffffffffffffffffffff021916908373ffffffffffffffffffffffffffffffffffffffff160217905550602082015181600101556040820151816002019080519060200190620004239291906200058d565b506060820151816003019080519060200190620004429291906200058d565b506080820151816004015560a0820151816005015560c0820151816006015560e08201518160070155505080806200047a9062000b7c565b9150506200029d565b50601260009054906101000a900473ffffffffffffffffffffffffffffffffffffffff16601160006101000a81548173ffffffffffffffffffffffffffffffffffffffff021916908373ffffffffffffffffffffffffffffffffffffffff16021790555033601660006101000a81548173ffffffffffffffffffffffffffffffffffffffff021916908373ffffffffffffffffffffffffffffffffffffffff16021790555080601160146101000a81548167ffffffffffffffff021916908367ffffffffffffffff1602179055506200056860066200057760201b6200235e1760201c565b50505050505050505062000ce4565b6001816000016000828254019250508190555050565b8280546200059b9062000b10565b90600052602060002090601f016020900481019282620005bf57600085556200060b565b82601f10620005da57805160ff19168380011785556200060b565b828001600101855582156200060b579182015b828111156200060a578251825591602001919060010190620005ed565b5b5090506200061a91906200061e565b5090565b5b80821115620006395760008160009055506001016200061f565b5090565b6000620006546200064e8462000a28565b620009ff565b905080838252602082019050828560208602820111156200067a576200067962000c8b565b5b60005b85811015620006cf57815167ffffffffffffffff811115620006a457620006a362000c86565b5b808601620006b3898262000805565b855260208501945060208401935050506001810190506200067d565b5050509392505050565b6000620006f0620006ea8462000a57565b620009ff565b9050808382526020820190508285602086028201111562000716576200071562000c8b565b5b60005b858110156200074a57816200072f888262000838565b84526020840193506020830192505060018101905062000719565b5050509392505050565b60006200076b620007658462000a86565b620009ff565b9050828152602081018484840111156200078a576200078962000c90565b5b6200079784828562000ada565b509392505050565b600082601f830112620007b757620007b662000c86565b5b8151620007c98482602086016200063d565b91505092915050565b600082601f830112620007ea57620007e962000c86565b5b8151620007fc848260208601620006d9565b91505092915050565b600082601f8301126200081d576200081c62000c86565b5b81516200082f84826020860162000754565b91505092915050565b600081519050620008498162000cb0565b92915050565b600081519050620008608162000cca565b92915050565b60008060008060008060008060006101208a8c0312156200088c576200088b62000c9a565b5b60008a015167ffffffffffffffff811115620008ad57620008ac62000c95565b5b620008bb8c828d016200079f565b99505060208a015167ffffffffffffffff811115620008df57620008de62000c95565b5b620008ed8c828d016200079f565b98505060408a015167ffffffffffffffff81111562000911576200091062000c95565b5b6200091f8c828d01620007d2565b97505060608a015167ffffffffffffffff81111562000943576200094262000c95565b5b620009518c828d01620007d2565b96505060808a015167ffffffffffffffff81111562000975576200097462000c95565b5b620009838c828d0162000805565b95505060a08a015167ffffffffffffffff811115620009a757620009a662000c95565b5b620009b58c828d0162000805565b94505060c0620009c88c828d0162000838565b93505060e0620009db8c828d0162000838565b925050610100620009ef8c828d016200084f565b9150509295985092959850929598565b600062000a0b62000a1e565b905062000a19828262000b46565b919050565b6000604051905090565b600067ffffffffffffffff82111562000a465762000a4562000c57565b5b602082029050602081019050919050565b600067ffffffffffffffff82111562000a755762000a7462000c57565b5b602082029050602081019050919050565b600067ffffffffffffffff82111562000aa45762000aa362000c57565b5b62000aaf8262000c9f565b9050602081019050919050565b6000819050919050565b600067ffffffffffffffff82169050919050565b60005b8381101562000afa57808201518184015260208101905062000add565b8381111562000b0a576000848401525b50505050565b6000600282049050600182168062000b2957607f821691505b6020821081141562000b405762000b3f62000bf9565b5b50919050565b62000b518262000c9f565b810181811067ffffffffffffffff8211171562000b735762000b7262000c57565b5b80604052505050565b600062000b898262000abc565b91507fffffffffffffffffffffffffffffffffffffffffffffffffffffffffffffffff82141562000bbf5762000bbe62000bca565b5b600182019050919050565b7f4e487b7100000000000000000000000000000000000000000000000000000000600052601160045260246000fd5b7f4e487b7100000000000000000000000000000000000000000000000000000000600052602260045260246000fd5b7f4e487b7100000000000000000000000000000000000000000000000000000000600052603260045260246000fd5b7f4e487b7100000000000000000000000000000000000000000000000000000000600052604160045260246000fd5b600080fd5b600080fd5b600080fd5b600080fd5b600080fd5b6000601f19601f8301169050919050565b62000cbb8162000abc565b811462000cc757600080fd5b50565b62000cd58162000ac6565b811462000ce157600080fd5b50565b60805160601c61536662000d0a600039600081816108fb015261094f01526153666000f3fe608060405234801561001057600080fd5b50600436106101735760003560e01c806398da4c95116100de578063c8cf27f411610097578063e89e106a11610071578063e89e106a14610443578063e985e9c514610461578063f8b81ef714610491578063f9b8f4cb146104ad57610173565b8063c8cf27f414610411578063d4f24c5b1461042f578063e0c862891461043957610173565b806398da4c9514610332578063a22cb46514610369578063a9c3267914610385578063b88d4fde146103a7578063b953084e146103c3578063c87b56dd146103e157610173565b806323b872dd1161013057806323b872dd1461024c57806342842e0e146102685780636352211e1461028457806370a08231146102b45780637df124a1146102e457806395d89b411461031457610173565b806301ffc9a7146101785780630665f961146101a857806306fdde03146101c6578063081812fc146101e4578063095ea7b3146102145780631fe543e314610230575b600080fd5b610192600480360381019061018d9190613724565b6104cb565b60405161019f9190614424565b60405180910390f35b6101b06105ad565b6040516101bd91906146b5565b60405180910390f35b6101ce610709565b6040516101db9190614492565b60405180910390f35b6101fe60048036038101906101f9919061377e565b61079b565b60405161020b9190614210565b60405180910390f35b61022e600480360381019061022991906136e4565b6107e1565b005b61024a600480360381019061024591906137d8565b6108f9565b005b610266600480360381019061026191906135ce565b6109b9565b005b610282600480360381019061027d91906135ce565b610a19565b005b61029e6004803603810190610299919061377e565b610a39565b6040516102ab9190614210565b60405180910390f35b6102ce60048036038101906102c99190613561565b610aeb565b6040516102db91906146f9565b60405180910390f35b6102fe60048036038101906102f99190613561565b610ba3565b60405161030b91906146f9565b60405180910390f35b61031c610bbb565b6040516103299190614492565b60405180910390f35b61034c6004803603810190610347919061377e565b610c4d565b6040516103609897969594939291906142d0565b60405180910390f35b610383600480360381019061037e91906136a4565b610dc5565b005b61038d610ddb565b60405161039e9594939291906144b4565b60405180910390f35b6103c160048036038101906103bc9190613621565b610f0f565b005b6103cb610f71565b6040516103d89190614402565b60405180910390f35b6103fb60048036038101906103f6919061377e565b61117d565b6040516104089190614492565b60405180910390f35b61041961140d565b60405161042691906146d7565b60405180910390f35b610437611646565b005b610441611b0b565b005b61044b611c14565b60405161045891906146f9565b60405180910390f35b61047b6004803603810190610476919061358e565b611c1a565b6040516104889190614424565b60405180910390f35b6104ab60048036038101906104a6919061377e565b611cae565b005b6104b5612152565b6040516104c29190614402565b60405180910390f35b60007f80ac58cd000000000000000000000000000000000000000000000000000000007bffffffffffffffffffffffffffffffffffffffffffffffffffffffff1916827bffffffffffffffffffffffffffffffffffffffffffffffffffffffff1916148061059657507f5b5e139f000000000000000000000000000000000000000000000000000000007bffffffffffffffffffffffffffffffffffffffffffffffffffffffff1916827bffffffffffffffffffffffffffffffffffffffffffffffffffffffff1916145b806105a657506105a582612374565b5b9050919050565b6105b56131db565b600a6040518060a00160405290816000820180546105d290614ac4565b80601f01602080910402602001604051908101604052809291908181526020018280546105fe90614ac4565b801561064b5780601f106106205761010080835404028352916020019161064b565b820191906000526020600020905b81548152906001019060200180831161062e57829003601f168201915b5050505050815260200160018201805461066490614ac4565b80601f016020809104026020016040519081016040528092919081815260200182805461069090614ac4565b80156106dd5780601f106106b2576101008083540402835291602001916106dd565b820191906000526020600020905b8154815290600101906020018083116106c057829003601f168201915b505050505081526020016002820154815260200160038201548152602001600482015481525050905090565b60606000805461071890614ac4565b80601f016020809104026020016040519081016040528092919081815260200182805461074490614ac4565b80156107915780601f1061076657610100808354040283529160200191610791565b820191906000526020600020905b81548152906001019060200180831161077457829003601f168201915b5050505050905090565b60006107a6826123de565b6004600083815260200190815260200160002060009054906101000a900473ffffffffffffffffffffffffffffffffffffffff169050919050565b60006107ec82610a39565b90508073ffffffffffffffffffffffffffffffffffffffff168373ffffffffffffffffffffffffffffffffffffffff16141561085d576040517f08c379a000000000000000000000000000000000000000000000000000000000815260040161085490614655565b60405180910390fd5b8073ffffffffffffffffffffffffffffffffffffffff1661087c612429565b73ffffffffffffffffffffffffffffffffffffffff1614806108ab57506108aa816108a5612429565b611c1a565b5b6108ea576040517f08c379a00000000000000000000000000000000000000000000000000000000081526004016108e1906145f5565b60405180910390fd5b6108f48383612431565b505050565b7f000000000000000000000000000000000000000000000000000000000000000073ffffffffffffffffffffffffffffffffffffffff163373ffffffffffffffffffffffffffffffffffffffff16146109ab57337f00000000000000000000000000000000000000000000000000000000000000006040517f1cf993f40000000000000000000000000000000000000000000000000000000081526004016109a292919061422b565b60405180910390fd5b6109b582826124ea565b5050565b6109ca6109c4612429565b8261258c565b610a09576040517f08c379a0000000000000000000000000000000000000000000000000000000008152600401610a0090614695565b60405180910390fd5b610a14838383612621565b505050565b610a3483838360405180602001604052806000815250610f0f565b505050565b6000806002600084815260200190815260200160002060009054906101000a900473ffffffffffffffffffffffffffffffffffffffff169050600073ffffffffffffffffffffffffffffffffffffffff168173ffffffffffffffffffffffffffffffffffffffff161415610ae2576040517f08c379a0000000000000000000000000000000000000000000000000000000008152600401610ad990614635565b60405180910390fd5b80915050919050565b60008073ffffffffffffffffffffffffffffffffffffffff168273ffffffffffffffffffffffffffffffffffffffff161415610b5c576040517f08c379a0000000000000000000000000000000000000000000000000000000008152600401610b53906145d5565b60405180910390fd5b600360008373ffffffffffffffffffffffffffffffffffffffff1673ffffffffffffffffffffffffffffffffffffffff168152602001908152602001600020549050919050565b600f6020528060005260406000206000915090505481565b606060018054610bca90614ac4565b80601f0160208091040260200160405190810160405280929190818152602001828054610bf690614ac4565b8015610c435780601f10610c1857610100808354040283529160200191610c43565b820191906000526020600020905b815481529060010190602001808311610c2657829003601f168201915b5050505050905090565b60096020528060005260406000206000915090508060000160009054906101000a900473ffffffffffffffffffffffffffffffffffffffff1690806001015490806002018054610c9c90614ac4565b80601f0160208091040260200160405190810160405280929190818152602001828054610cc890614ac4565b8015610d155780601f10610cea57610100808354040283529160200191610d15565b820191906000526020600020905b815481529060010190602001808311610cf857829003601f168201915b505050505090806003018054610d2a90614ac4565b80601f0160208091040260200160405190810160405280929190818152602001828054610d5690614ac4565b8015610da35780601f10610d7857610100808354040283529160200191610da3565b820191906000526020600020905b815481529060010190602001808311610d8657829003601f168201915b5050505050908060040154908060050154908060060154908060070154905088565b610dd7610dd0612429565b8383612888565b5050565b600a806000018054610dec90614ac4565b80601f0160208091040260200160405190810160405280929190818152602001828054610e1890614ac4565b8015610e655780601f10610e3a57610100808354040283529160200191610e65565b820191906000526020600020905b815481529060010190602001808311610e4857829003601f168201915b505050505090806001018054610e7a90614ac4565b80601f0160208091040260200160405190810160405280929190818152602001828054610ea690614ac4565b8015610ef35780601f10610ec857610100808354040283529160200191610ef3565b820191906000526020600020905b815481529060010190602001808311610ed657829003601f168201915b5050505050908060020154908060030154908060040154905085565b610f20610f1a612429565b8361258c565b610f5f576040517f08c379a0000000000000000000000000000000000000000000000000000000008152600401610f5690614695565b60405180910390fd5b610f6b848484846129f5565b50505050565b60606008805480602002602001604051908101604052809291908181526020016000905b828210156111745783829060005260206000209060080201604051806101000160405290816000820160009054906101000a900473ffffffffffffffffffffffffffffffffffffffff1673ffffffffffffffffffffffffffffffffffffffff1673ffffffffffffffffffffffffffffffffffffffff1681526020016001820154815260200160028201805461102990614ac4565b80601f016020809104026020016040519081016040528092919081815260200182805461105590614ac4565b80156110a25780601f10611077576101008083540402835291602001916110a2565b820191906000526020600020905b81548152906001019060200180831161108557829003601f168201915b505050505081526020016003820180546110bb90614ac4565b80601f01602080910402602001604051908101604052809291908181526020018280546110e790614ac4565b80156111345780601f1061110957610100808354040283529160200191611134565b820191906000526020600020905b81548152906001019060200180831161111757829003601f168201915b5050505050815260200160048201548152602001600582015481526020016006820154815260200160078201548152505081526020019060010190610f95565b50505050905090565b6060600060096000848152602001908152602001600020604051806101000160405290816000820160009054906101000a900473ffffffffffffffffffffffffffffffffffffffff1673ffffffffffffffffffffffffffffffffffffffff1673ffffffffffffffffffffffffffffffffffffffff1681526020016001820154815260200160028201805461121090614ac4565b80601f016020809104026020016040519081016040528092919081815260200182805461123c90614ac4565b80156112895780601f1061125e57610100808354040283529160200191611289565b820191906000526020600020905b81548152906001019060200180831161126c57829003601f168201915b505050505081526020016003820180546112a290614ac4565b80601f01602080910402602001604051908101604052809291908181526020018280546112ce90614ac4565b801561131b5780601f106112f05761010080835404028352916020019161131b565b820191906000526020600020905b8154815290600101906020018083116112fe57829003601f168201915b505050505081526020016004820154815260200160058201548152602001600682015481526020016007820154815250509050600061135d8260800151612a51565b9050600061136e8360a00151612a51565b9050600061137f8460c00151612a51565b905060006113908560e00151612a51565b905060006113d886604001516113a58a612a51565b8860600151888888886040516020016113c49796959493929190614131565b604051602081830303815290604052612bb2565b90506000816040516020016113ed91906141ee565b604051602081830303815290604052905080975050505050505050919050565b61141561320a565b6000600f60003373ffffffffffffffffffffffffffffffffffffffff1673ffffffffffffffffffffffffffffffffffffffff16815260200190815260200160002054905060008111156116355760096000828152602001908152602001600020604051806101000160405290816000820160009054906101000a900473ffffffffffffffffffffffffffffffffffffffff1673ffffffffffffffffffffffffffffffffffffffff1673ffffffffffffffffffffffffffffffffffffffff168152602001600182015481526020016002820180546114f190614ac4565b80601f016020809104026020016040519081016040528092919081815260200182805461151d90614ac4565b801561156a5780601f1061153f5761010080835404028352916020019161156a565b820191906000526020600020905b81548152906001019060200180831161154d57829003601f168201915b5050505050815260200160038201805461158390614ac4565b80601f01602080910402602001604051908101604052809291908181526020018280546115af90614ac4565b80156115fc5780601f106115d1576101008083540402835291602001916115fc565b820191906000526020600020905b8154815290600101906020018083116115df57829003601f168201915b50505050508152602001600482015481526020016005820154815260200160068201548152602001600782015481525050915050611643565b61163d61320a565b80925050505b90565b6000600f60003373ffffffffffffffffffffffffffffffffffffffff1673ffffffffffffffffffffffffffffffffffffffff1681526020019081526020016000205490506000600960008381526020019081526020016000209050600460105414156116c657600381600601546116bd919061491a565b81600601819055505b600081600401541161170d576040517f08c379a000000000000000000000000000000000000000000000000000000000815260040161170490614575565b60405180910390fd5b6000600a6002015411611755576040517f08c379a000000000000000000000000000000000000000000000000000000000815260040161174c90614675565b60405180910390fd5b8060060154600a60020154101561179657600a6002015481600701600082825461177f9190614893565b925050819055506000600a600201819055506117d6565b80600601548160070160008282546117ae9190614893565b925050819055508060060154600a60020160008282546117ce9190614974565b925050819055505b600a60040154816004015410156117f65760008160040181905550611817565b600a6004015481600401600082825461180f9190614974565b925050819055505b60005b600780549050811015611a94573373ffffffffffffffffffffffffffffffffffffffff166007828154811061185257611851614c62565b5b906000526020600020906008020160000160009054906101000a900473ffffffffffffffffffffffffffffffffffffffff1673ffffffffffffffffffffffffffffffffffffffff161415611a815760008260040154141561198057600781815481106118c1576118c0614c62565b5b9060005260206000209060080201600080820160006101000a81549073ffffffffffffffffffffffffffffffffffffffff0219169055600182016000905560028201600061190f9190613265565b60038201600061191f9190613265565b600482016000905560058201600090556006820160009055600782016000905550507f8b348e519319ce056b18ae43c2239a2f2a8973595c0cf01aded937707d44c66d3360076040516119739291906142a0565b60405180910390a1611a80565b816007828154811061199557611994614c62565b5b90600052602060002090600802016000820160009054906101000a900473ffffffffffffffffffffffffffffffffffffffff168160000160006101000a81548173ffffffffffffffffffffffffffffffffffffffff021916908373ffffffffffffffffffffffffffffffffffffffff160217905550600182015481600101556002820181600201908054611a2890614ac4565b611a339291906132a5565b506003820181600301908054611a4890614ac4565b611a539291906132a5565b50600482015481600401556005820154816005015560068201548160060155600782015481600701559050505b5b8080611a8c90614b5b565b91505061181a565b5060046010541415611aba5760038160060154611ab191906148e9565b81600601819055505b7f93e52d5efffa697fd9ea49a98f3868aadfe91fe7dd670a4784d212c5fba5297633600a60020154836004015484600701546007604051611aff9594939291906143a8565b60405180910390a15050565b601160009054906101000a900473ffffffffffffffffffffffffffffffffffffffff1673ffffffffffffffffffffffffffffffffffffffff16635d3b1d30601354601160149054906101000a900467ffffffffffffffff16601460049054906101000a900461ffff16601460009054906101000a900463ffffffff16601460069054906101000a900463ffffffff166040518663ffffffff1660e01b8152600401611bba95949392919061443f565b602060405180830381600087803b158015611bd457600080fd5b505af1158015611be8573d6000803e3d6000fd5b505050506040513d601f19601f82011682018060405250810190611c0c91906137ab565b601581905550565b60155481565b6000600560008473ffffffffffffffffffffffffffffffffffffffff1673ffffffffffffffffffffffffffffffffffffffff16815260200190815260200160002060008373ffffffffffffffffffffffffffffffffffffffff1673ffffffffffffffffffffffffffffffffffffffff16815260200190815260200160002060009054906101000a900460ff16905092915050565b6000611cba6006612d4a565b9050611cc63382612d58565b6040518061010001604052803373ffffffffffffffffffffffffffffffffffffffff16815260200183815260200160088481548110611d0857611d07614c62565b5b90600052602060002090600802016002018054611d2490614ac4565b80601f0160208091040260200160405190810160405280929190818152602001828054611d5090614ac4565b8015611d9d5780601f10611d7257610100808354040283529160200191611d9d565b820191906000526020600020905b815481529060010190602001808311611d8057829003601f168201915b5050505050815260200160088481548110611dbb57611dba614c62565b5b90600052602060002090600802016003018054611dd790614ac4565b80601f0160208091040260200160405190810160405280929190818152602001828054611e0390614ac4565b8015611e505780601f10611e2557610100808354040283529160200191611e50565b820191906000526020600020905b815481529060010190602001808311611e3357829003601f168201915b5050505050815260200160088481548110611e6e57611e6d614c62565b5b906000526020600020906008020160040154815260200160088481548110611e9957611e98614c62565b5b906000526020600020906008020160050154815260200160088481548110611ec457611ec3614c62565b5b906000526020600020906008020160060154815260200160008152506009600083815260200190815260200160002060008201518160000160006101000a81548173ffffffffffffffffffffffffffffffffffffffff021916908373ffffffffffffffffffffffffffffffffffffffff160217905550602082015181600101556040820151816002019080519060200190611f60929190613332565b506060820151816003019080519060200190611f7d929190613332565b506080820151816004015560a0820151816005015560c0820151816006015560e0820151816007015590505060076009600083815260200190815260200160002090806001815401808255809150506001900390600052602060002090600802016000909190919091506000820160009054906101000a900473ffffffffffffffffffffffffffffffffffffffff168160000160006101000a81548173ffffffffffffffffffffffffffffffffffffffff021916908373ffffffffffffffffffffffffffffffffffffffff16021790555060018201548160010155600282018160020190805461206c90614ac4565b6120779291906132a5565b50600382018160030190805461208c90614ac4565b6120979291906132a5565b5060048201548160040155600582015481600501556006820154816006015560078201548160070155505080600f60003373ffffffffffffffffffffffffffffffffffffffff1673ffffffffffffffffffffffffffffffffffffffff16815260200190815260200160002081905550612110600661235e565b7ff7ce6d45718f4d5553edc6316819886e91553095c70e36bced1baa5d3f5ee2263382846007604051612146949392919061435c565b60405180910390a15050565b60606007805480602002602001604051908101604052809291908181526020016000905b828210156123555783829060005260206000209060080201604051806101000160405290816000820160009054906101000a900473ffffffffffffffffffffffffffffffffffffffff1673ffffffffffffffffffffffffffffffffffffffff1673ffffffffffffffffffffffffffffffffffffffff1681526020016001820154815260200160028201805461220a90614ac4565b80601f016020809104026020016040519081016040528092919081815260200182805461223690614ac4565b80156122835780601f1061225857610100808354040283529160200191612283565b820191906000526020600020905b81548152906001019060200180831161226657829003601f168201915b5050505050815260200160038201805461229c90614ac4565b80601f01602080910402602001604051908101604052809291908181526020018280546122c890614ac4565b80156123155780601f106122ea57610100808354040283529160200191612315565b820191906000526020600020905b8154815290600101906020018083116122f857829003601f168201915b5050505050815260200160048201548152602001600582015481526020016006820154815260200160078201548152505081526020019060010190612176565b50505050905090565b6001816000016000828254019250508190555050565b60007f01ffc9a7000000000000000000000000000000000000000000000000000000007bffffffffffffffffffffffffffffffffffffffffffffffffffffffff1916827bffffffffffffffffffffffffffffffffffffffffffffffffffffffff1916149050919050565b6123e781612d76565b612426576040517f08c379a000000000000000000000000000000000000000000000000000000000815260040161241d90614635565b60405180910390fd5b50565b600033905090565b816004600083815260200190815260200160002060006101000a81548173ffffffffffffffffffffffffffffffffffffffff021916908373ffffffffffffffffffffffffffffffffffffffff160217905550808273ffffffffffffffffffffffffffffffffffffffff166124a483610a39565b73ffffffffffffffffffffffffffffffffffffffff167f8c5be1e5ebec7d5bd14f71427d1e84f3dd0314c0f7b2291e5b200ac8c7c3b92560405160405180910390a45050565b600160058260008151811061250257612501614c62565b5b60200260200101516125149190614ba4565b61251e9190614893565b601081905550601760105490806001815401808255809150506001900390600052602060002001600090919091909150557fc859f04dadf560b8f9dd8e4a7327ec478e58b6a681349f89f64496a23c9c25d26010546040516125809190614714565b60405180910390a15050565b60008061259883610a39565b90508073ffffffffffffffffffffffffffffffffffffffff168473ffffffffffffffffffffffffffffffffffffffff1614806125da57506125d98185611c1a565b5b8061261857508373ffffffffffffffffffffffffffffffffffffffff166126008461079b565b73ffffffffffffffffffffffffffffffffffffffff16145b91505092915050565b8273ffffffffffffffffffffffffffffffffffffffff1661264182610a39565b73ffffffffffffffffffffffffffffffffffffffff1614612697576040517f08c379a000000000000000000000000000000000000000000000000000000000815260040161268e90614535565b60405180910390fd5b600073ffffffffffffffffffffffffffffffffffffffff168273ffffffffffffffffffffffffffffffffffffffff161415612707576040517f08c379a00000000000000000000000000000000000000000000000000000000081526004016126fe90614595565b60405180910390fd5b612712838383612de2565b61271d600082612431565b6001600360008573ffffffffffffffffffffffffffffffffffffffff1673ffffffffffffffffffffffffffffffffffffffff168152602001908152602001600020600082825461276d9190614974565b925050819055506001600360008473ffffffffffffffffffffffffffffffffffffffff1673ffffffffffffffffffffffffffffffffffffffff16815260200190815260200160002060008282546127c49190614893565b92505081905550816002600083815260200190815260200160002060006101000a81548173ffffffffffffffffffffffffffffffffffffffff021916908373ffffffffffffffffffffffffffffffffffffffff160217905550808273ffffffffffffffffffffffffffffffffffffffff168473ffffffffffffffffffffffffffffffffffffffff167fddf252ad1be2c89b69c2b068fc378daa952ba7f163c4a11628f55a4df523b3ef60405160405180910390a4612883838383612de7565b505050565b8173ffffffffffffffffffffffffffffffffffffffff168373ffffffffffffffffffffffffffffffffffffffff1614156128f7576040517f08c379a00000000000000000000000000000000000000000000000000000000081526004016128ee906145b5565b60405180910390fd5b80600560008573ffffffffffffffffffffffffffffffffffffffff1673ffffffffffffffffffffffffffffffffffffffff16815260200190815260200160002060008473ffffffffffffffffffffffffffffffffffffffff1673ffffffffffffffffffffffffffffffffffffffff16815260200190815260200160002060006101000a81548160ff0219169083151502179055508173ffffffffffffffffffffffffffffffffffffffff168373ffffffffffffffffffffffffffffffffffffffff167f17307eab39ab6107e8899845ad3d59bd9653f200f220920489ca2b5937696c31836040516129e89190614424565b60405180910390a3505050565b612a00848484612621565b612a0c84848484612dec565b612a4b576040517f08c379a0000000000000000000000000000000000000000000000000000000008152600401612a4290614515565b60405180910390fd5b50505050565b60606000821415612a99576040518060400160405280600181526020017f30000000000000000000000000000000000000000000000000000000000000008152509050612bad565b600082905060005b60008214612acb578080612ab490614b5b565b915050600a82612ac491906148e9565b9150612aa1565b60008167ffffffffffffffff811115612ae757612ae6614c91565b5b6040519080825280601f01601f191660200182016040528015612b195781602001600182028036833780820191505090505b5090505b60008514612ba657600182612b329190614974565b9150600a85612b419190614ba4565b6030612b4d9190614893565b60f81b818381518110612b6357612b62614c62565b5b60200101907effffffffffffffffffffffffffffffffffffffffffffffffffffffffffffff1916908160001a905350600a85612b9f91906148e9565b9450612b1d565b8093505050505b919050565b60606000825190506000811415612bdb5760405180602001604052806000815250915050612d45565b60006003600283612bec9190614893565b612bf691906148e9565b6004612c02919061491a565b90506000602082612c139190614893565b67ffffffffffffffff811115612c2c57612c2b614c91565b5b6040519080825280601f01601f191660200182016040528015612c5e5781602001600182028036833780820191505090505b50905060006040518060600160405280604081526020016152f1604091399050600181016020830160005b86811015612d025760038101905062ffffff818a015116603f8160121c168401518060081b905060ff603f83600c1c1686015116810190508060081b905060ff603f8360061c1686015116810190508060081b905060ff603f831686015116810190508060e01b90508084526004840193505050612c89565b506003860660018114612d1c5760028114612d2c57612d37565b613d3d60f01b6002830352612d37565b603d60f81b60018303525b508484525050819450505050505b919050565b600081600001549050919050565b612d72828260405180602001604052806000815250612f83565b5050565b60008073ffffffffffffffffffffffffffffffffffffffff166002600084815260200190815260200160002060009054906101000a900473ffffffffffffffffffffffffffffffffffffffff1673ffffffffffffffffffffffffffffffffffffffff1614159050919050565b505050565b505050565b6000612e0d8473ffffffffffffffffffffffffffffffffffffffff16612fde565b15612f76578373ffffffffffffffffffffffffffffffffffffffff1663150b7a02612e36612429565b8786866040518563ffffffff1660e01b8152600401612e589493929190614254565b602060405180830381600087803b158015612e7257600080fd5b505af1925050508015612ea357506040513d601f19601f82011682018060405250810190612ea09190613751565b60015b612f26573d8060008114612ed3576040519150601f19603f3d011682016040523d82523d6000602084013e612ed8565b606091505b50600081511415612f1e576040517f08c379a0000000000000000000000000000000000000000000000000000000008152600401612f1590614515565b60405180910390fd5b805181602001fd5b63150b7a0260e01b7bffffffffffffffffffffffffffffffffffffffffffffffffffffffff1916817bffffffffffffffffffffffffffffffffffffffffffffffffffffffff191614915050612f7b565b600190505b949350505050565b612f8d8383613001565b612f9a6000848484612dec565b612fd9576040517f08c379a0000000000000000000000000000000000000000000000000000000008152600401612fd090614515565b60405180910390fd5b505050565b6000808273ffffffffffffffffffffffffffffffffffffffff163b119050919050565b600073ffffffffffffffffffffffffffffffffffffffff168273ffffffffffffffffffffffffffffffffffffffff161415613071576040517f08c379a000000000000000000000000000000000000000000000000000000000815260040161306890614615565b60405180910390fd5b61307a81612d76565b156130ba576040517f08c379a00000000000000000000000000000000000000000000000000000000081526004016130b190614555565b60405180910390fd5b6130c660008383612de2565b6001600360008473ffffffffffffffffffffffffffffffffffffffff1673ffffffffffffffffffffffffffffffffffffffff16815260200190815260200160002060008282546131169190614893565b92505081905550816002600083815260200190815260200160002060006101000a81548173ffffffffffffffffffffffffffffffffffffffff021916908373ffffffffffffffffffffffffffffffffffffffff160217905550808273ffffffffffffffffffffffffffffffffffffffff16600073ffffffffffffffffffffffffffffffffffffffff167fddf252ad1be2c89b69c2b068fc378daa952ba7f163c4a11628f55a4df523b3ef60405160405180910390a46131d760008383612de7565b5050565b6040518060a0016040528060608152602001606081526020016000815260200160008152602001600081525090565b604051806101000160405280600073ffffffffffffffffffffffffffffffffffffffff168152602001600081526020016060815260200160608152602001600081526020016000815260200160008152602001600081525090565b50805461327190614ac4565b6000825580601f1061328357506132a2565b601f0160209004906000526020600020908101906132a191906133b8565b5b50565b8280546132b190614ac4565b90600052602060002090601f0160209004810192826132d35760008555613321565b82601f106132e45780548555613321565b8280016001018555821561332157600052602060002091601f016020900482015b82811115613320578254825591600101919060010190613305565b5b50905061332e91906133b8565b5090565b82805461333e90614ac4565b90600052602060002090601f01602090048101928261336057600085556133a7565b82601f1061337957805160ff19168380011785556133a7565b828001600101855582156133a7579182015b828111156133a657825182559160200191906001019061338b565b5b5090506133b491906133b8565b5090565b5b808211156133d15760008160009055506001016133b9565b5090565b60006133e86133e384614767565b614742565b9050808382526020820190508285602086028201111561340b5761340a614cc5565b5b60005b8581101561343b57816134218882613537565b84526020840193506020830192505060018101905061340e565b5050509392505050565b600061345861345384614793565b614742565b90508281526020810184848401111561347457613473614cca565b5b61347f848285614a82565b509392505050565b60008135905061349681615294565b92915050565b600082601f8301126134b1576134b0614cc0565b5b81356134c18482602086016133d5565b91505092915050565b6000813590506134d9816152ab565b92915050565b6000813590506134ee816152c2565b92915050565b600081519050613503816152c2565b92915050565b600082601f83011261351e5761351d614cc0565b5b813561352e848260208601613445565b91505092915050565b600081359050613546816152d9565b92915050565b60008151905061355b816152d9565b92915050565b60006020828403121561357757613576614cd4565b5b600061358584828501613487565b91505092915050565b600080604083850312156135a5576135a4614cd4565b5b60006135b385828601613487565b92505060206135c485828601613487565b9150509250929050565b6000806000606084860312156135e7576135e6614cd4565b5b60006135f586828701613487565b935050602061360686828701613487565b925050604061361786828701613537565b9150509250925092565b6000806000806080858703121561363b5761363a614cd4565b5b600061364987828801613487565b945050602061365a87828801613487565b935050604061366b87828801613537565b925050606085013567ffffffffffffffff81111561368c5761368b614ccf565b5b61369887828801613509565b91505092959194509250565b600080604083850312156136bb576136ba614cd4565b5b60006136c985828601613487565b92505060206136da858286016134ca565b9150509250929050565b600080604083850312156136fb576136fa614cd4565b5b600061370985828601613487565b925050602061371a85828601613537565b9150509250929050565b60006020828403121561373a57613739614cd4565b5b6000613748848285016134df565b91505092915050565b60006020828403121561376757613766614cd4565b5b6000613775848285016134f4565b91505092915050565b60006020828403121561379457613793614cd4565b5b60006137a284828501613537565b91505092915050565b6000602082840312156137c1576137c0614cd4565b5b60006137cf8482850161354c565b91505092915050565b600080604083850312156137ef576137ee614cd4565b5b60006137fd85828601613537565b925050602083013567ffffffffffffffff81111561381e5761381d614ccf565b5b61382a8582860161349c565b9150509250929050565b60006138408383613e7f565b905092915050565b60006138548383613fed565b905092915050565b613865816149d2565b82525050565b613874816149d2565b82525050565b6000613885826147fe565b61388f8185614844565b9350836020820285016138a1856147c4565b8060005b858110156138dd57848403895281516138be8582613834565b94506138c98361482a565b925060208a019950506001810190506138a5565b50829750879550505050505092915050565b60006138fa82614809565b6139048185614844565b935083602082028501613916856147d4565b8060005b85811015613951578484038952816139328582613848565b945061393d83614837565b925060208a0199505060018101905061391a565b50829750879550505050505092915050565b61396c816149e4565b82525050565b61397b816149f0565b82525050565b600061398c82614814565b6139968185614855565b93506139a6818560208601614a91565b6139af81614cd9565b840191505092915050565b60006139c58261481f565b6139cf8185614866565b93506139df818560208601614a91565b6139e881614cd9565b840191505092915050565b60006139fe8261481f565b613a088185614877565b9350613a18818560208601614a91565b613a2181614cd9565b840191505092915050565b6000613a378261481f565b613a418185614888565b9350613a51818560208601614a91565b80840191505092915050565b60008154613a6a81614ac4565b613a748186614866565b94506001821660008114613a8f5760018114613aa157613ad4565b60ff1983168652602086019350613ad4565b613aaa856147e9565b60005b83811015613acc57815481890152600182019150602081019050613aad565b808801955050505b50505092915050565b6000613aea600b83614888565b9150613af582614cf7565b600b82019050919050565b6000613b0d603283614877565b9150613b1882614d20565b604082019050919050565b6000613b30602583614877565b9150613b3b82614d6f565b604082019050919050565b6000613b53601c83614877565b9150613b5e82614dbe565b602082019050919050565b6000613b76601283614877565b9150613b8182614de7565b602082019050919050565b6000613b99601a83614877565b9150613ba482614e10565b602082019050919050565b6000613bbc606883614888565b9150613bc782614e39565b606882019050919050565b6000613bdf600e83614888565b9150613bea82614ed4565b600e82019050919050565b6000613c02602483614877565b9150613c0d82614efd565b604082019050919050565b6000613c25601983614877565b9150613c3082614f4c565b602082019050919050565b6000613c48602983614877565b9150613c5382614f75565b604082019050919050565b6000613c6b600483614888565b9150613c7682614fc4565b600482019050919050565b6000613c8e603e83614877565b9150613c9982614fed565b604082019050919050565b6000613cb1602083614877565b9150613cbc8261503c565b602082019050919050565b6000613cd4600a83614888565b9150613cdf82615065565b600a82019050919050565b6000613cf7601883614877565b9150613d028261508e565b602082019050919050565b6000613d1a602183614877565b9150613d25826150b7565b604082019050919050565b6000613d3d601d83614888565b9150613d4882615106565b601d82019050919050565b6000613d60601883614877565b9150613d6b8261512f565b602082019050919050565b6000613d83603d83614888565b9150613d8e82615158565b603d82019050919050565b6000613da6602d83614888565b9150613db1826151a7565b602d82019050919050565b6000613dc9603283614888565b9150613dd4826151f6565b603282019050919050565b6000613dec602e83614877565b9150613df782615245565b604082019050919050565b600060a0830160008301518482036000860152613e1f82826139ba565b91505060208301518482036020860152613e3982826139ba565b9150506040830151613e4e60408601826140f5565b506060830151613e6160608601826140f5565b506080830151613e7460808601826140f5565b508091505092915050565b600061010083016000830151613e98600086018261385c565b506020830151613eab60208601826140f5565b5060408301518482036040860152613ec382826139ba565b91505060608301518482036060860152613edd82826139ba565b9150506080830151613ef260808601826140f5565b5060a0830151613f0560a08601826140f5565b5060c0830151613f1860c08601826140f5565b5060e0830151613f2b60e08601826140f5565b508091505092915050565b600061010083016000830151613f4f600086018261385c565b506020830151613f6260208601826140f5565b5060408301518482036040860152613f7a82826139ba565b91505060608301518482036060860152613f9482826139ba565b9150506080830151613fa960808601826140f5565b5060a0830151613fbc60a08601826140f5565b5060c0830151613fcf60c08601826140f5565b5060e0830151613fe260e08601826140f5565b508091505092915050565b60006101008301600080840154905061400581614af6565b614012600087018261385c565b506001840154905061402381614b10565b61403060208701826140f5565b506002840185830360408701526140478382613a5d565b9250506003840185830360608701526140608382613a5d565b9250506004840154905061407381614b10565b61408060808701826140f5565b506005840154905061409181614b10565b61409e60a08701826140f5565b50600684015490506140af81614b10565b6140bc60c08701826140f5565b50600784015490506140cd81614b10565b6140da60e08701826140f5565b50819250505092915050565b6140ef81614a26565b82525050565b6140fe81614a54565b82525050565b61410d81614a54565b82525050565b61411c81614a5e565b82525050565b61412b81614a6e565b82525050565b600061413c82613cc7565b9150614148828a613a2c565b915061415382613add565b915061415f8289613a2c565b915061416a82613baf565b91506141768288613a2c565b915061418182613d76565b915061418d8287613a2c565b915061419882613bd2565b91506141a48286613a2c565b91506141af82613d99565b91506141bb8285613a2c565b91506141c682613dbc565b91506141d28284613a2c565b91506141dd82613c5e565b915081905098975050505050505050565b60006141f982613d30565b91506142058284613a2c565b915081905092915050565b6000602082019050614225600083018461386b565b92915050565b6000604082019050614240600083018561386b565b61424d602083018461386b565b9392505050565b6000608082019050614269600083018761386b565b614276602083018661386b565b6142836040830185614104565b81810360608301526142958184613981565b905095945050505050565b60006040820190506142b5600083018561386b565b81810360208301526142c781846138ef565b90509392505050565b6000610100820190506142e6600083018b61386b565b6142f3602083018a614104565b818103604083015261430581896139f3565b9050818103606083015261431981886139f3565b90506143286080830187614104565b61433560a0830186614104565b61434260c0830185614104565b61434f60e0830184614104565b9998505050505050505050565b6000608082019050614371600083018761386b565b61437e6020830186614104565b61438b6040830185614104565b818103606083015261439d81846138ef565b905095945050505050565b600060a0820190506143bd600083018861386b565b6143ca6020830187614104565b6143d76040830186614104565b6143e46060830185614104565b81810360808301526143f681846138ef565b90509695505050505050565b6000602082019050818103600083015261441c818461387a565b905092915050565b60006020820190506144396000830184613963565b92915050565b600060a0820190506144546000830188613972565b6144616020830187614122565b61446e60408301866140e6565b61447b6060830185614113565b6144886080830184614113565b9695505050505050565b600060208201905081810360008301526144ac81846139f3565b905092915050565b600060a08201905081810360008301526144ce81886139f3565b905081810360208301526144e281876139f3565b90506144f16040830186614104565b6144fe6060830185614104565b61450b6080830184614104565b9695505050505050565b6000602082019050818103600083015261452e81613b00565b9050919050565b6000602082019050818103600083015261454e81613b23565b9050919050565b6000602082019050818103600083015261456e81613b46565b9050919050565b6000602082019050818103600083015261458e81613b8c565b9050919050565b600060208201905081810360008301526145ae81613bf5565b9050919050565b600060208201905081810360008301526145ce81613c18565b9050919050565b600060208201905081810360008301526145ee81613c3b565b9050919050565b6000602082019050818103600083015261460e81613c81565b9050919050565b6000602082019050818103600083015261462e81613ca4565b9050919050565b6000602082019050818103600083015261464e81613cea565b9050919050565b6000602082019050818103600083015261466e81613d0d565b9050919050565b6000602082019050818103600083015261468e81613d53565b9050919050565b600060208201905081810360008301526146ae81613ddf565b9050919050565b600060208201905081810360008301526146cf8184613e02565b905092915050565b600060208201905081810360008301526146f18184613f36565b905092915050565b600060208201905061470e6000830184614104565b92915050565b60006040820190506147296000830184614104565b818103602083015261473a81613b69565b905092915050565b600061474c61475d565b90506147588282614b2a565b919050565b6000604051905090565b600067ffffffffffffffff82111561478257614781614c91565b5b602082029050602081019050919050565b600067ffffffffffffffff8211156147ae576147ad614c91565b5b6147b782614cd9565b9050602081019050919050565b6000819050602082019050919050565b60008190508160005260206000209050919050565b60008190508160005260206000209050919050565b600081519050919050565b600081549050919050565b600081519050919050565b600081519050919050565b6000602082019050919050565b6000600882019050919050565b600082825260208201905092915050565b600082825260208201905092915050565b600082825260208201905092915050565b600082825260208201905092915050565b600081905092915050565b600061489e82614a54565b91506148a983614a54565b9250827fffffffffffffffffffffffffffffffffffffffffffffffffffffffffffffffff038211156148de576148dd614bd5565b5b828201905092915050565b60006148f482614a54565b91506148ff83614a54565b92508261490f5761490e614c04565b5b828204905092915050565b600061492582614a54565b915061493083614a54565b9250817fffffffffffffffffffffffffffffffffffffffffffffffffffffffffffffffff048311821515161561496957614968614bd5565b5b828202905092915050565b600061497f82614a54565b915061498a83614a54565b92508282101561499d5761499c614bd5565b5b828203905092915050565b600073ffffffffffffffffffffffffffffffffffffffff82169050919050565b6000819050919050565b60006149dd82614a34565b9050919050565b60008115159050919050565b6000819050919050565b60007fffffffff0000000000000000000000000000000000000000000000000000000082169050919050565b600061ffff82169050919050565b600073ffffffffffffffffffffffffffffffffffffffff82169050919050565b6000819050919050565b600063ffffffff82169050919050565b600067ffffffffffffffff82169050919050565b82818337600083830152505050565b60005b83811015614aaf578082015181840152602081019050614a94565b83811115614abe576000848401525b50505050565b60006002820490506001821680614adc57607f821691505b60208210811415614af057614aef614c33565b5b50919050565b6000614b09614b0483614cea565b6149a8565b9050919050565b6000614b23614b1e83614cea565b6149c8565b9050919050565b614b3382614cd9565b810181811067ffffffffffffffff82111715614b5257614b51614c91565b5b80604052505050565b6000614b6682614a54565b91507fffffffffffffffffffffffffffffffffffffffffffffffffffffffffffffffff821415614b9957614b98614bd5565b5b600182019050919050565b6000614baf82614a54565b9150614bba83614a54565b925082614bca57614bc9614c04565b5b828206905092915050565b7f4e487b7100000000000000000000000000000000000000000000000000000000600052601160045260246000fd5b7f4e487b7100000000000000000000000000000000000000000000000000000000600052601260045260246000fd5b7f4e487b7100000000000000000000000000000000000000000000000000000000600052602260045260246000fd5b7f4e487b7100000000000000000000000000000000000000000000000000000000600052603260045260246000fd5b7f4e487b7100000000000000000000000000000000000000000000000000000000600052604160045260246000fd5b600080fd5b600080fd5b600080fd5b600080fd5b600080fd5b6000601f19601f8301169050919050565b60008160001c9050919050565b7f202d2d204e465420233a20000000000000000000000000000000000000000000600082015250565b7f4552433732313a207472616e7366657220746f206e6f6e20455243373231526560008201527f63656976657220696d706c656d656e7465720000000000000000000000000000602082015250565b7f4552433732313a207472616e736665722066726f6d20696e636f72726563742060008201527f6f776e6572000000000000000000000000000000000000000000000000000000602082015250565b7f4552433732313a20746f6b656e20616c7265616479206d696e74656400000000600082015250565b7f6920616d2072616e646f6d206e756d6265720000000000000000000000000000600082015250565b7f506c6179657220686173206e6f2048502063616e7420706c6179000000000000600082015250565b7f222c20226465736372697074696f6e223a20225468697320697320616e204e4660008201527f542074686174206c6574732070656f706c6520706c617920696e20746865206760208201527f616d65204461726b77696e67204e696768747321222c2022696d616765223a2060408201527f22697066733a2f2f000000000000000000000000000000000000000000000000606082015250565b7f2c20226d61785f76616c7565223a000000000000000000000000000000000000600082015250565b7f4552433732313a207472616e7366657220746f20746865207a65726f2061646460008201527f7265737300000000000000000000000000000000000000000000000000000000602082015250565b7f4552433732313a20617070726f766520746f2063616c6c657200000000000000600082015250565b7f4552433732313a2061646472657373207a65726f206973206e6f74206120766160008201527f6c6964206f776e65720000000000000000000000000000000000000000000000602082015250565b7f7d205d7d00000000000000000000000000000000000000000000000000000000600082015250565b7f4552433732313a20617070726f76652063616c6c6572206973206e6f7420746f60008201527f6b656e206f776e6572206e6f7220617070726f76656420666f7220616c6c0000602082015250565b7f4552433732313a206d696e7420746f20746865207a65726f2061646472657373600082015250565b7f7b226e616d65223a202200000000000000000000000000000000000000000000600082015250565b7f4552433732313a20696e76616c696420746f6b656e2049440000000000000000600082015250565b7f4552433732313a20617070726f76616c20746f2063757272656e74206f776e6560008201527f7200000000000000000000000000000000000000000000000000000000000000602082015250565b7f646174613a6170706c69636174696f6e2f6a736f6e3b6261736536342c000000600082015250565b7f426f737320686173206e6f2048502063616e7420706c61790000000000000000600082015250565b7f222c202261747472696275746573223a205b207b202274726169745f7479706560008201527f223a20224865616c746820506f696e7473222c202276616c7565223a20000000602082015250565b7f7d2c207b202274726169745f74797065223a202241747461636b2044616d616760008201527f65222c202276616c7565223a2000000000000000000000000000000000000000602082015250565b7f7d2c207b202274726169745f74797065223a2022546f74616c2044616d61676560008201527f204465616c74222c202276616c7565223a200000000000000000000000000000602082015250565b7f4552433732313a2063616c6c6572206973206e6f7420746f6b656e206f776e6560008201527f72206e6f7220617070726f766564000000000000000000000000000000000000602082015250565b61529d816149d2565b81146152a857600080fd5b50565b6152b4816149e4565b81146152bf57600080fd5b50565b6152cb816149fa565b81146152d657600080fd5b50565b6152e281614a54565b81146152ed57600080fd5b5056fe4142434445464748494a4b4c4d4e4f505152535455565758595a6162636465666768696a6b6c6d6e6f707172737475767778797a303132333435363738392b2fa2646970667358221220ce51a51f73e0fdab665b51ef7316c33c28bba00d2985a988176b2513647177c164736f6c63430008070033",
  "linkReferences": {},
  "deployedLinkReferences": {}
}