{
  "_format": "hh-sol-artifact-1",
  "contractName": "MyEpicGame",
  "sourceName": "contracts/MyEpicGame.sol",
  "abi": [
    {
      "inputs": [
        {
          "internalType": "string[]",
          "name": "characterNames",
          "type": "string[]"
        },
        {
          "internalType": "string[]",
          "name": "characterImageURIs",
          "type": "string[]"
        },
        {
          "internalType": "uint256[]",
          "name": "characterHP",
          "type": "uint256[]"
        },
        {
          "internalType": "uint256[]",
          "name": "characterAttackDamage",
          "type": "uint256[]"
        },
        {
          "internalType": "string",
          "name": "bossName",
          "type": "string"
        },
        {
          "internalType": "string",
          "name": "bossImageURI",
          "type": "string"
        },
        {
          "internalType": "uint256",
          "name": "bossHp",
          "type": "uint256"
        },
        {
          "internalType": "uint256",
          "name": "bossAttackDamage",
          "type": "uint256"
        },
        {
          "internalType": "uint64",
          "name": "subscriptionId",
          "type": "uint64"
        }
      ],
      "stateMutability": "nonpayable",
      "type": "constructor"
    },
    {
      "inputs": [
        {
          "internalType": "address",
          "name": "have",
          "type": "address"
        },
        {
          "internalType": "address",
          "name": "want",
          "type": "address"
        }
      ],
      "name": "OnlyCoordinatorCanFulfill",
      "type": "error"
    },
    {
      "anonymous": false,
      "inputs": [
        {
          "indexed": true,
          "internalType": "address",
          "name": "owner",
          "type": "address"
        },
        {
          "indexed": true,
          "internalType": "address",
          "name": "approved",
          "type": "address"
        },
        {
          "indexed": true,
          "internalType": "uint256",
          "name": "tokenId",
          "type": "uint256"
        }
      ],
      "name": "Approval",
      "type": "event"
    },
    {
      "anonymous": false,
      "inputs": [
        {
          "indexed": true,
          "internalType": "address",
          "name": "owner",
          "type": "address"
        },
        {
          "indexed": true,
          "internalType": "address",
          "name": "operator",
          "type": "address"
        },
        {
          "indexed": false,
          "internalType": "bool",
          "name": "approved",
          "type": "bool"
        }
      ],
      "name": "ApprovalForAll",
      "type": "event"
    },
    {
      "anonymous": false,
      "inputs": [
        {
          "indexed": false,
          "internalType": "address",
          "name": "sender",
          "type": "address"
        },
        {
          "indexed": false,
          "internalType": "uint256",
          "name": "newBossHP",
          "type": "uint256"
        },
        {
          "indexed": false,
          "internalType": "uint256",
          "name": "newPlayerHP",
          "type": "uint256"
        },
        {
          "indexed": false,
          "internalType": "uint256",
          "name": "damageDone",
          "type": "uint256"
        },
        {
          "components": [
            {
              "internalType": "address",
              "name": "sender",
              "type": "address"
            },
            {
              "internalType": "uint256",
              "name": "characterIndex",
              "type": "uint256"
            },
            {
              "internalType": "string",
              "name": "name",
              "type": "string"
            },
            {
              "internalType": "string",
              "name": "imageURI",
              "type": "string"
            },
            {
              "internalType": "uint256",
              "name": "hp",
              "type": "uint256"
            },
            {
              "internalType": "uint256",
              "name": "maxHP",
              "type": "uint256"
            },
            {
              "internalType": "uint256",
              "name": "attackDamage",
              "type": "uint256"
            },
            {
              "internalType": "uint256",
              "name": "damageDone",
              "type": "uint256"
            }
          ],
          "indexed": false,
          "internalType": "struct MyEpicGame.CharacterAttributes[]",
          "name": "allPlayersInGame",
          "type": "tuple[]"
        }
      ],
      "name": "AttackComplete",
      "type": "event"
    },
    {
      "anonymous": false,
      "inputs": [
        {
          "indexed": false,
          "internalType": "address",
          "name": "sender",
          "type": "address"
        },
        {
          "indexed": false,
          "internalType": "uint256",
          "name": "tokenID",
          "type": "uint256"
        },
        {
          "indexed": false,
          "internalType": "uint256",
          "name": "characterIndex",
          "type": "uint256"
        },
        {
          "components": [
            {
              "internalType": "address",
              "name": "sender",
              "type": "address"
            },
            {
              "internalType": "uint256",
              "name": "characterIndex",
              "type": "uint256"
            },
            {
              "internalType": "string",
              "name": "name",
              "type": "string"
            },
            {
              "internalType": "string",
              "name": "imageURI",
              "type": "string"
            },
            {
              "internalType": "uint256",
              "name": "hp",
              "type": "uint256"
            },
            {
              "internalType": "uint256",
              "name": "maxHP",
              "type": "uint256"
            },
            {
              "internalType": "uint256",
              "name": "attackDamage",
              "type": "uint256"
            },
            {
              "internalType": "uint256",
              "name": "damageDone",
              "type": "uint256"
            }
          ],
          "indexed": false,
          "internalType": "struct MyEpicGame.CharacterAttributes[]",
          "name": "allPlayersInGame",
          "type": "tuple[]"
        }
      ],
      "name": "CharacterNftMinted",
      "type": "event"
    },
    {
      "anonymous": false,
      "inputs": [
        {
          "indexed": false,
          "internalType": "address",
          "name": "sender",
          "type": "address"
        },
        {
          "components": [
            {
              "internalType": "address",
              "name": "sender",
              "type": "address"
            },
            {
              "internalType": "uint256",
              "name": "characterIndex",
              "type": "uint256"
            },
            {
              "internalType": "string",
              "name": "name",
              "type": "string"
            },
            {
              "internalType": "string",
              "name": "imageURI",
              "type": "string"
            },
            {
              "internalType": "uint256",
              "name": "hp",
              "type": "uint256"
            },
            {
              "internalType": "uint256",
              "name": "maxHP",
              "type": "uint256"
            },
            {
              "internalType": "uint256",
              "name": "attackDamage",
              "type": "uint256"
            },
            {
              "internalType": "uint256",
              "name": "damageDone",
              "type": "uint256"
            }
          ],
          "indexed": false,
          "internalType": "struct MyEpicGame.CharacterAttributes[]",
          "name": "allPlayersInGame",
          "type": "tuple[]"
        }
      ],
      "name": "NftDeath",
      "type": "event"
    },
    {
      "anonymous": false,
      "inputs": [
        {
          "indexed": false,
          "internalType": "uint256",
          "name": "randomNumber",
          "type": "uint256"
        },
        {
          "indexed": false,
          "internalType": "string",
          "name": "praise",
          "type": "string"
        }
      ],
      "name": "RandomNumberEvent",
      "type": "event"
    },
    {
      "anonymous": false,
      "inputs": [
        {
          "indexed": true,
          "internalType": "address",
          "name": "from",
          "type": "address"
        },
        {
          "indexed": true,
          "internalType": "address",
          "name": "to",
          "type": "address"
        },
        {
          "indexed": true,
          "internalType": "uint256",
          "name": "tokenId",
          "type": "uint256"
        }
      ],
      "name": "Transfer",
      "type": "event"
    },
    {
      "inputs": [
        {
          "internalType": "address",
          "name": "to",
          "type": "address"
        },
        {
          "internalType": "uint256",
          "name": "tokenId",
          "type": "uint256"
        }
      ],
      "name": "approve",
      "outputs": [],
      "stateMutability": "nonpayable",
      "type": "function"
    },
    {
      "inputs": [],
      "name": "attackBoss",
      "outputs": [],
      "stateMutability": "nonpayable",
      "type": "function"
    },
    {
      "inputs": [
        {
          "internalType": "address",
          "name": "owner",
          "type": "address"
        }
      ],
      "name": "balanceOf",
      "outputs": [
        {
          "internalType": "uint256",
          "name": "",
          "type": "uint256"
        }
      ],
      "stateMutability": "view",
      "type": "function"
    },
    {
      "inputs": [],
      "name": "bigBoss",
      "outputs": [
        {
          "internalType": "string",
          "name": "name",
          "type": "string"
        },
        {
          "internalType": "string",
          "name": "imageURI",
          "type": "string"
        },
        {
          "internalType": "uint256",
          "name": "hp",
          "type": "uint256"
        },
        {
          "internalType": "uint256",
          "name": "maxHP",
          "type": "uint256"
        },
        {
          "internalType": "uint256",
          "name": "attackDamage",
          "type": "uint256"
        }
      ],
      "stateMutability": "view",
      "type": "function"
    },
    {
      "inputs": [],
      "name": "checkIfUserHasNFT",
      "outputs": [
        {
          "components": [
            {
              "internalType": "address",
              "name": "sender",
              "type": "address"
            },
            {
              "internalType": "uint256",
              "name": "characterIndex",
              "type": "uint256"
            },
            {
              "internalType": "string",
              "name": "name",
              "type": "string"
            },
            {
              "internalType": "string",
              "name": "imageURI",
              "type": "string"
            },
            {
              "internalType": "uint256",
              "name": "hp",
              "type": "uint256"
            },
            {
              "internalType": "uint256",
              "name": "maxHP",
              "type": "uint256"
            },
            {
              "internalType": "uint256",
              "name": "attackDamage",
              "type": "uint256"
            },
            {
              "internalType": "uint256",
              "name": "damageDone",
              "type": "uint256"
            }
          ],
          "internalType": "struct MyEpicGame.CharacterAttributes",
          "name": "",
          "type": "tuple"
        }
      ],
      "stateMutability": "view",
      "type": "function"
    },
    {
      "inputs": [],
      "name": "getAllDefaultCharacters",
      "outputs": [
        {
          "components": [
            {
              "internalType": "address",
              "name": "sender",
              "type": "address"
            },
            {
              "internalType": "uint256",
              "name": "characterIndex",
              "type": "uint256"
            },
            {
              "internalType": "string",
              "name": "name",
              "type": "string"
            },
            {
              "internalType": "string",
              "name": "imageURI",
              "type": "string"
            },
            {
              "internalType": "uint256",
              "name": "hp",
              "type": "uint256"
            },
            {
              "internalType": "uint256",
              "name": "maxHP",
              "type": "uint256"
            },
            {
              "internalType": "uint256",
              "name": "attackDamage",
              "type": "uint256"
            },
            {
              "internalType": "uint256",
              "name": "damageDone",
              "type": "uint256"
            }
          ],
          "internalType": "struct MyEpicGame.CharacterAttributes[]",
          "name": "",
          "type": "tuple[]"
        }
      ],
      "stateMutability": "view",
      "type": "function"
    },
    {
      "inputs": [],
      "name": "getAllPlayersInGame",
      "outputs": [
        {
          "components": [
            {
              "internalType": "address",
              "name": "sender",
              "type": "address"
            },
            {
              "internalType": "uint256",
              "name": "characterIndex",
              "type": "uint256"
            },
            {
              "internalType": "string",
              "name": "name",
              "type": "string"
            },
            {
              "internalType": "string",
              "name": "imageURI",
              "type": "string"
            },
            {
              "internalType": "uint256",
              "name": "hp",
              "type": "uint256"
            },
            {
              "internalType": "uint256",
              "name": "maxHP",
              "type": "uint256"
            },
            {
              "internalType": "uint256",
              "name": "attackDamage",
              "type": "uint256"
            },
            {
              "internalType": "uint256",
              "name": "damageDone",
              "type": "uint256"
            }
          ],
          "internalType": "struct MyEpicGame.CharacterAttributes[]",
          "name": "",
          "type": "tuple[]"
        }
      ],
      "stateMutability": "view",
      "type": "function"
    },
    {
      "inputs": [
        {
          "internalType": "uint256",
          "name": "tokenId",
          "type": "uint256"
        }
      ],
      "name": "getApproved",
      "outputs": [
        {
          "internalType": "address",
          "name": "",
          "type": "address"
        }
      ],
      "stateMutability": "view",
      "type": "function"
    },
    {
      "inputs": [],
      "name": "getBigBoss",
      "outputs": [
        {
          "components": [
            {
              "internalType": "string",
              "name": "name",
              "type": "string"
            },
            {
              "internalType": "string",
              "name": "imageURI",
              "type": "string"
            },
            {
              "internalType": "uint256",
              "name": "hp",
              "type": "uint256"
            },
            {
              "internalType": "uint256",
              "name": "maxHP",
              "type": "uint256"
            },
            {
              "internalType": "uint256",
              "name": "attackDamage",
              "type": "uint256"
            }
          ],
          "internalType": "struct MyEpicGame.BigBoss",
          "name": "",
          "type": "tuple"
        }
      ],
      "stateMutability": "view",
      "type": "function"
    },
    {
      "inputs": [],
      "name": "getRandomNumber",
      "outputs": [
        {
          "internalType": "uint256",
          "name": "",
          "type": "uint256"
        }
      ],
      "stateMutability": "view",
      "type": "function"
    },
    {
      "inputs": [
        {
          "internalType": "address",
          "name": "owner",
          "type": "address"
        },
        {
          "internalType": "address",
          "name": "operator",
          "type": "address"
        }
      ],
      "name": "isApprovedForAll",
      "outputs": [
        {
          "internalType": "bool",
          "name": "",
          "type": "bool"
        }
      ],
      "stateMutability": "view",
      "type": "function"
    },
    {
      "inputs": [
        {
          "internalType": "uint256",
          "name": "_characterIndex",
          "type": "uint256"
        }
      ],
      "name": "mintCharacterNFT",
      "outputs": [],
      "stateMutability": "nonpayable",
      "type": "function"
    },
    {
      "inputs": [],
      "name": "name",
      "outputs": [
        {
          "internalType": "string",
          "name": "",
          "type": "string"
        }
      ],
      "stateMutability": "view",
      "type": "function"
    },
    {
      "inputs": [
        {
          "internalType": "uint256",
          "name": "",
          "type": "uint256"
        }
      ],
      "name": "nftHolderAttributes",
      "outputs": [
        {
          "internalType": "address",
          "name": "sender",
          "type": "address"
        },
        {
          "internalType": "uint256",
          "name": "characterIndex",
          "type": "uint256"
        },
        {
          "internalType": "string",
          "name": "name",
          "type": "string"
        },
        {
          "internalType": "string",
          "name": "imageURI",
          "type": "string"
        },
        {
          "internalType": "uint256",
          "name": "hp",
          "type": "uint256"
        },
        {
          "internalType": "uint256",
          "name": "maxHP",
          "type": "uint256"
        },
        {
          "internalType": "uint256",
          "name": "attackDamage",
          "type": "uint256"
        },
        {
          "internalType": "uint256",
          "name": "damageDone",
          "type": "uint256"
        }
      ],
      "stateMutability": "view",
      "type": "function"
    },
    {
      "inputs": [
        {
          "internalType": "address",
          "name": "",
          "type": "address"
        }
      ],
      "name": "nftHolders",
      "outputs": [
        {
          "internalType": "uint256",
          "name": "",
          "type": "uint256"
        }
      ],
      "stateMutability": "view",
      "type": "function"
    },
    {
      "inputs": [
        {
          "internalType": "uint256",
          "name": "tokenId",
          "type": "uint256"
        }
      ],
      "name": "ownerOf",
      "outputs": [
        {
          "internalType": "address",
          "name": "",
          "type": "address"
        }
      ],
      "stateMutability": "view",
      "type": "function"
    },
    {
      "inputs": [
        {
          "internalType": "uint256",
          "name": "requestId",
          "type": "uint256"
        },
        {
          "internalType": "uint256[]",
          "name": "randomWords",
          "type": "uint256[]"
        }
      ],
      "name": "rawFulfillRandomWords",
      "outputs": [],
      "stateMutability": "nonpayable",
      "type": "function"
    },
    {
      "inputs": [],
      "name": "requestRandomWords",
      "outputs": [],
      "stateMutability": "nonpayable",
      "type": "function"
    },
    {
      "inputs": [
        {
          "internalType": "uint256",
          "name": "",
          "type": "uint256"
        }
      ],
      "name": "s_randomWords",
      "outputs": [
        {
          "internalType": "uint256",
          "name": "",
          "type": "uint256"
        }
      ],
      "stateMutability": "view",
      "type": "function"
    },
    {
      "inputs": [],
      "name": "s_requestId",
      "outputs": [
        {
          "internalType": "uint256",
          "name": "",
          "type": "uint256"
        }
      ],
      "stateMutability": "view",
      "type": "function"
    },
    {
      "inputs": [
        {
          "internalType": "address",
          "name": "from",
          "type": "address"
        },
        {
          "internalType": "address",
          "name": "to",
          "type": "address"
        },
        {
          "internalType": "uint256",
          "name": "tokenId",
          "type": "uint256"
        }
      ],
      "name": "safeTransferFrom",
      "outputs": [],
      "stateMutability": "nonpayable",
      "type": "function"
    },
    {
      "inputs": [
        {
          "internalType": "address",
          "name": "from",
          "type": "address"
        },
        {
          "internalType": "address",
          "name": "to",
          "type": "address"
        },
        {
          "internalType": "uint256",
          "name": "tokenId",
          "type": "uint256"
        },
        {
          "internalType": "bytes",
          "name": "data",
          "type": "bytes"
        }
      ],
      "name": "safeTransferFrom",
      "outputs": [],
      "stateMutability": "nonpayable",
      "type": "function"
    },
    {
      "inputs": [
        {
          "internalType": "address",
          "name": "operator",
          "type": "address"
        },
        {
          "internalType": "bool",
          "name": "approved",
          "type": "bool"
        }
      ],
      "name": "setApprovalForAll",
      "outputs": [],
      "stateMutability": "nonpayable",
      "type": "function"
    },
    {
      "inputs": [
        {
          "internalType": "bytes4",
          "name": "interfaceId",
          "type": "bytes4"
        }
      ],
      "name": "supportsInterface",
      "outputs": [
        {
          "internalType": "bool",
          "name": "",
          "type": "bool"
        }
      ],
      "stateMutability": "view",
      "type": "function"
    },
    {
      "inputs": [],
      "name": "symbol",
      "outputs": [
        {
          "internalType": "string",
          "name": "",
          "type": "string"
        }
      ],
      "stateMutability": "view",
      "type": "function"
    },
    {
      "inputs": [
        {
          "internalType": "uint256",
          "name": "_tokenId",
          "type": "uint256"
        }
      ],
      "name": "tokenURI",
      "outputs": [
        {
          "internalType": "string",
          "name": "",
          "type": "string"
        }
      ],
      "stateMutability": "view",
      "type": "function"
    },
    {
      "inputs": [
        {
          "internalType": "address",
          "name": "from",
          "type": "address"
        },
        {
          "internalType": "address",
          "name": "to",
          "type": "address"
        },
        {
          "internalType": "uint256",
          "name": "tokenId",
          "type": "uint256"
        }
      ],
      "name": "transferFrom",
      "outputs": [],
      "stateMutability": "nonpayable",
      "type": "function"
    }
  ],
  "bytecode": "0x60a0604052732ca8e0c643bde4c2e08ab1fa0da3401adad7734d601160006101000a81548173ffffffffffffffffffffffffffffffffffffffff021916908373ffffffffffffffffffffffffffffffffffffffff1602179055507f79d3d8832d904592c0bf9818b621522c988bb8b0c05cdc3b15aea1b6e8db0c1560001b601255620186a0601360006101000a81548163ffffffff021916908363ffffffff1602179055506003601360046101000a81548161ffff021916908361ffff1602179055506005601360066101000a81548163ffffffff021916908363ffffffff160217905550348015620000f157600080fd5b506040516200674438038062006744833981810160405281019062000117919062000b6b565b601160009054906101000a900473ffffffffffffffffffffffffffffffffffffffff166040518060400160405280600f81526020017f4461726b77696e67204e696768747300000000000000000000000000000000008152506040518060400160405280600781526020017f42415457494e47000000000000000000000000000000000000000000000000008152508160009080519060200190620001be92919062000892565b508060019080519060200190620001d792919062000892565b5050508073ffffffffffffffffffffffffffffffffffffffff1660808173ffffffffffffffffffffffffffffffffffffffff1660601b81525050506040518060a0016040528086815260200185815260200184815260200184815260200183815250600a60008201518160000190805190602001906200025992919062000892565b5060208201518160010190805190602001906200027892919062000892565b5060408201518160020155606082015181600301556080820151816004015590505060005b8951811015620006b35760086040518061010001604052803373ffffffffffffffffffffffffffffffffffffffff1681526020018381526020018c8481518110620002ed57620002ec62000ffd565b5b602002602001015181526020018b848151811062000310576200030f62000ffd565b5b602002602001015181526020018a848151811062000333576200033262000ffd565b5b602002602001015181526020018a848151811062000356576200035562000ffd565b5b6020026020010151815260200189848151811062000379576200037862000ffd565b5b602002602001015181526020016000815250908060018154018082558091505060019003906000526020600020906008020160009091909190915060008201518160000160006101000a81548173ffffffffffffffffffffffffffffffffffffffff021916908373ffffffffffffffffffffffffffffffffffffffff1602179055506020820151816001015560408201518160020190805190602001906200042392919062000892565b5060608201518160030190805190602001906200044292919062000892565b506080820151816004015560a0820151816005015560c0820151816006015560e08201518160070155505060006008828154811062000486576200048562000ffd565b5b9060005260206000209060080201604051806101000160405290816000820160009054906101000a900473ffffffffffffffffffffffffffffffffffffffff1673ffffffffffffffffffffffffffffffffffffffff1673ffffffffffffffffffffffffffffffffffffffff16815260200160018201548152602001600282018054620005129062000ee5565b80601f0160208091040260200160405190810160405280929190818152602001828054620005409062000ee5565b8015620005915780601f10620005655761010080835404028352916020019162000591565b820191906000526020600020905b8154815290600101906020018083116200057357829003601f168201915b50505050508152602001600382018054620005ac9062000ee5565b80601f0160208091040260200160405190810160405280929190818152602001828054620005da9062000ee5565b80156200062b5780601f10620005ff576101008083540402835291602001916200062b565b820191906000526020600020905b8154815290600101906020018083116200060d57829003601f168201915b5050505050815260200160048201548152602001600582015481526020016006820154815260200160078201548152505090506200069c6040518060600160405280602581526020016200671f60259139826040015183608001518460600151620007a760201b620024331760201c565b508080620006aa9062000f51565b9150506200029d565b50601160009054906101000a900473ffffffffffffffffffffffffffffffffffffffff16601060006101000a81548173ffffffffffffffffffffffffffffffffffffffff021916908373ffffffffffffffffffffffffffffffffffffffff16021790555033601660006101000a81548173ffffffffffffffffffffffffffffffffffffffff021916908373ffffffffffffffffffffffffffffffffffffffff16021790555080601060146101000a81548167ffffffffffffffff021916908367ffffffffffffffff1602179055506200079860066200085360201b620024d51760201c565b505050505050505050620010b9565b6200084d84848484604051602401620007c4949392919062000d56565b6040516020818303038152906040527f8d142cdd000000000000000000000000000000000000000000000000000000007bffffffffffffffffffffffffffffffffffffffffffffffffffffffff19166020820180517bffffffffffffffffffffffffffffffffffffffffffffffffffffffff83818316178352505050506200086960201b60201c565b50505050565b6001816000016000828254019250508190555050565b60008151905060006a636f6e736f6c652e6c6f679050602083016000808483855afa5050505050565b828054620008a09062000ee5565b90600052602060002090601f016020900481019282620008c4576000855562000910565b82601f10620008df57805160ff191683800117855562000910565b8280016001018555821562000910579182015b828111156200090f578251825591602001919060010190620008f2565b5b5090506200091f919062000923565b5090565b5b808211156200093e57600081600090555060010162000924565b5090565b600062000959620009538462000de1565b62000db8565b905080838252602082019050828560208602820111156200097f576200097e62001060565b5b60005b85811015620009d457815167ffffffffffffffff811115620009a957620009a86200105b565b5b808601620009b8898262000b0a565b8552602085019450602084019350505060018101905062000982565b5050509392505050565b6000620009f5620009ef8462000e10565b62000db8565b9050808382526020820190508285602086028201111562000a1b5762000a1a62001060565b5b60005b8581101562000a4f578162000a34888262000b3d565b84526020840193506020830192505060018101905062000a1e565b5050509392505050565b600062000a7062000a6a8462000e3f565b62000db8565b90508281526020810184848401111562000a8f5762000a8e62001065565b5b62000a9c84828562000eaf565b509392505050565b600082601f83011262000abc5762000abb6200105b565b5b815162000ace84826020860162000942565b91505092915050565b600082601f83011262000aef5762000aee6200105b565b5b815162000b01848260208601620009de565b91505092915050565b600082601f83011262000b225762000b216200105b565b5b815162000b3484826020860162000a59565b91505092915050565b60008151905062000b4e8162001085565b92915050565b60008151905062000b65816200109f565b92915050565b60008060008060008060008060006101208a8c03121562000b915762000b906200106f565b5b60008a015167ffffffffffffffff81111562000bb25762000bb16200106a565b5b62000bc08c828d0162000aa4565b99505060208a015167ffffffffffffffff81111562000be45762000be36200106a565b5b62000bf28c828d0162000aa4565b98505060408a015167ffffffffffffffff81111562000c165762000c156200106a565b5b62000c248c828d0162000ad7565b97505060608a015167ffffffffffffffff81111562000c485762000c476200106a565b5b62000c568c828d0162000ad7565b96505060808a015167ffffffffffffffff81111562000c7a5762000c796200106a565b5b62000c888c828d0162000b0a565b95505060a08a015167ffffffffffffffff81111562000cac5762000cab6200106a565b5b62000cba8c828d0162000b0a565b94505060c062000ccd8c828d0162000b3d565b93505060e062000ce08c828d0162000b3d565b92505061010062000cf48c828d0162000b54565b9150509295985092959850929598565b600062000d118262000e75565b62000d1d818562000e80565b935062000d2f81856020860162000eaf565b62000d3a8162001074565b840191505092915050565b62000d508162000e91565b82525050565b6000608082019050818103600083015262000d72818762000d04565b9050818103602083015262000d88818662000d04565b905062000d99604083018562000d45565b818103606083015262000dad818462000d04565b905095945050505050565b600062000dc462000dd7565b905062000dd2828262000f1b565b919050565b6000604051905090565b600067ffffffffffffffff82111562000dff5762000dfe6200102c565b5b602082029050602081019050919050565b600067ffffffffffffffff82111562000e2e5762000e2d6200102c565b5b602082029050602081019050919050565b600067ffffffffffffffff82111562000e5d5762000e5c6200102c565b5b62000e688262001074565b9050602081019050919050565b600081519050919050565b600082825260208201905092915050565b6000819050919050565b600067ffffffffffffffff82169050919050565b60005b8381101562000ecf57808201518184015260208101905062000eb2565b8381111562000edf576000848401525b50505050565b6000600282049050600182168062000efe57607f821691505b6020821081141562000f155762000f1462000fce565b5b50919050565b62000f268262001074565b810181811067ffffffffffffffff8211171562000f485762000f476200102c565b5b80604052505050565b600062000f5e8262000e91565b91507fffffffffffffffffffffffffffffffffffffffffffffffffffffffffffffffff82141562000f945762000f9362000f9f565b5b600182019050919050565b7f4e487b7100000000000000000000000000000000000000000000000000000000600052601160045260246000fd5b7f4e487b7100000000000000000000000000000000000000000000000000000000600052602260045260246000fd5b7f4e487b7100000000000000000000000000000000000000000000000000000000600052603260045260246000fd5b7f4e487b7100000000000000000000000000000000000000000000000000000000600052604160045260246000fd5b600080fd5b600080fd5b600080fd5b600080fd5b600080fd5b6000601f19601f8301169050919050565b620010908162000e91565b81146200109c57600080fd5b50565b620010aa8162000e9b565b8114620010b657600080fd5b50565b60805160601c615640620010df6000396000818161097f01526109d301526156406000f3fe608060405234801561001057600080fd5b50600436106101a95760003560e01c8063a22cb465116100f9578063dbdff2c111610097578063e985e9c511610071578063e985e9c5146104b5578063f6eaffc8146104e5578063f8b81ef714610515578063f9b8f4cb14610531576101a9565b8063dbdff2c11461046f578063e0c862891461048d578063e89e106a14610497576101a9565b8063b953084e116100d3578063b953084e146103f9578063c87b56dd14610417578063c8cf27f414610447578063d4f24c5b14610465576101a9565b8063a22cb4651461039f578063a9c32679146103bb578063b88d4fde146103dd576101a9565b806323b872dd1161016657806370a082311161014057806370a08231146102ea5780637df124a11461031a57806395d89b411461034a57806398da4c9514610368576101a9565b806323b872dd1461028257806342842e0e1461029e5780636352211e146102ba576101a9565b806301ffc9a7146101ae5780630665f961146101de57806306fdde03146101fc578063081812fc1461021a578063095ea7b31461024a5780631fe543e314610266575b600080fd5b6101c860048036038101906101c39190613938565b61054f565b6040516101d59190614638565b60405180910390f35b6101e6610631565b6040516101f39190614961565b60405180910390f35b61020461078d565b60405161021191906146a6565b60405180910390f35b610234600480360381019061022f9190613992565b61081f565b6040516102419190614424565b60405180910390f35b610264600480360381019061025f91906138f8565b610865565b005b610280600480360381019061027b91906139ec565b61097d565b005b61029c600480360381019061029791906137e2565b610a3d565b005b6102b860048036038101906102b391906137e2565b610a9d565b005b6102d460048036038101906102cf9190613992565b610abd565b6040516102e19190614424565b60405180910390f35b61030460048036038101906102ff9190613775565b610b6f565b60405161031191906149a5565b60405180910390f35b610334600480360381019061032f9190613775565b610c27565b60405161034191906149a5565b60405180910390f35b610352610c3f565b60405161035f91906146a6565b60405180910390f35b610382600480360381019061037d9190613992565b610cd1565b6040516103969897969594939291906144e4565b60405180910390f35b6103b960048036038101906103b491906138b8565b610e49565b005b6103c3610e5f565b6040516103d4959493929190614722565b60405180910390f35b6103f760048036038101906103f29190613835565b610f93565b005b610401610ff5565b60405161040e9190614616565b60405180910390f35b610431600480360381019061042c9190613992565b611201565b60405161043e91906146a6565b60405180910390f35b61044f611491565b60405161045c9190614983565b60405180910390f35b61046d6116ca565b005b610477611b8f565b60405161048491906149a5565b60405180910390f35b610495611b99565b005b61049f611ca2565b6040516104ac91906149a5565b60405180910390f35b6104cf60048036038101906104ca91906137a2565b611ca8565b6040516104dc9190614638565b60405180910390f35b6104ff60048036038101906104fa9190613992565b611d3c565b60405161050c91906149a5565b60405180910390f35b61052f600480360381019061052a9190613992565b611d60565b005b610539612227565b6040516105469190614616565b60405180910390f35b60007f80ac58cd000000000000000000000000000000000000000000000000000000007bffffffffffffffffffffffffffffffffffffffffffffffffffffffff1916827bffffffffffffffffffffffffffffffffffffffffffffffffffffffff1916148061061a57507f5b5e139f000000000000000000000000000000000000000000000000000000007bffffffffffffffffffffffffffffffffffffffffffffffffffffffff1916827bffffffffffffffffffffffffffffffffffffffffffffffffffffffff1916145b8061062a5750610629826124eb565b5b9050919050565b6106396133ef565b600a6040518060a001604052908160008201805461065690614d70565b80601f016020809104026020016040519081016040528092919081815260200182805461068290614d70565b80156106cf5780601f106106a4576101008083540402835291602001916106cf565b820191906000526020600020905b8154815290600101906020018083116106b257829003601f168201915b505050505081526020016001820180546106e890614d70565b80601f016020809104026020016040519081016040528092919081815260200182805461071490614d70565b80156107615780601f1061073657610100808354040283529160200191610761565b820191906000526020600020905b81548152906001019060200180831161074457829003601f168201915b505050505081526020016002820154815260200160038201548152602001600482015481525050905090565b60606000805461079c90614d70565b80601f01602080910402602001604051908101604052809291908181526020018280546107c890614d70565b80156108155780601f106107ea57610100808354040283529160200191610815565b820191906000526020600020905b8154815290600101906020018083116107f857829003601f168201915b5050505050905090565b600061082a82612555565b6004600083815260200190815260200160002060009054906101000a900473ffffffffffffffffffffffffffffffffffffffff169050919050565b600061087082610abd565b90508073ffffffffffffffffffffffffffffffffffffffff168373ffffffffffffffffffffffffffffffffffffffff1614156108e1576040517f08c379a00000000000000000000000000000000000000000000000000000000081526004016108d890614901565b60405180910390fd5b8073ffffffffffffffffffffffffffffffffffffffff166109006125a0565b73ffffffffffffffffffffffffffffffffffffffff16148061092f575061092e816109296125a0565b611ca8565b5b61096e576040517f08c379a0000000000000000000000000000000000000000000000000000000008152600401610965906148a1565b60405180910390fd5b61097883836125a8565b505050565b7f000000000000000000000000000000000000000000000000000000000000000073ffffffffffffffffffffffffffffffffffffffff163373ffffffffffffffffffffffffffffffffffffffff1614610a2f57337f00000000000000000000000000000000000000000000000000000000000000006040517f1cf993f4000000000000000000000000000000000000000000000000000000008152600401610a2692919061443f565b60405180910390fd5b610a398282612661565b5050565b610a4e610a486125a0565b826126d8565b610a8d576040517f08c379a0000000000000000000000000000000000000000000000000000000008152600401610a8490614941565b60405180910390fd5b610a9883838361276d565b505050565b610ab883838360405180602001604052806000815250610f93565b505050565b6000806002600084815260200190815260200160002060009054906101000a900473ffffffffffffffffffffffffffffffffffffffff169050600073ffffffffffffffffffffffffffffffffffffffff168173ffffffffffffffffffffffffffffffffffffffff161415610b66576040517f08c379a0000000000000000000000000000000000000000000000000000000008152600401610b5d906148e1565b60405180910390fd5b80915050919050565b60008073ffffffffffffffffffffffffffffffffffffffff168273ffffffffffffffffffffffffffffffffffffffff161415610be0576040517f08c379a0000000000000000000000000000000000000000000000000000000008152600401610bd790614881565b60405180910390fd5b600360008373ffffffffffffffffffffffffffffffffffffffff1673ffffffffffffffffffffffffffffffffffffffff168152602001908152602001600020549050919050565b600f6020528060005260406000206000915090505481565b606060018054610c4e90614d70565b80601f0160208091040260200160405190810160405280929190818152602001828054610c7a90614d70565b8015610cc75780601f10610c9c57610100808354040283529160200191610cc7565b820191906000526020600020905b815481529060010190602001808311610caa57829003601f168201915b5050505050905090565b60096020528060005260406000206000915090508060000160009054906101000a900473ffffffffffffffffffffffffffffffffffffffff1690806001015490806002018054610d2090614d70565b80601f0160208091040260200160405190810160405280929190818152602001828054610d4c90614d70565b8015610d995780601f10610d6e57610100808354040283529160200191610d99565b820191906000526020600020905b815481529060010190602001808311610d7c57829003601f168201915b505050505090806003018054610dae90614d70565b80601f0160208091040260200160405190810160405280929190818152602001828054610dda90614d70565b8015610e275780601f10610dfc57610100808354040283529160200191610e27565b820191906000526020600020905b815481529060010190602001808311610e0a57829003601f168201915b5050505050908060040154908060050154908060060154908060070154905088565b610e5b610e546125a0565b83836129d4565b5050565b600a806000018054610e7090614d70565b80601f0160208091040260200160405190810160405280929190818152602001828054610e9c90614d70565b8015610ee95780601f10610ebe57610100808354040283529160200191610ee9565b820191906000526020600020905b815481529060010190602001808311610ecc57829003601f168201915b505050505090806001018054610efe90614d70565b80601f0160208091040260200160405190810160405280929190818152602001828054610f2a90614d70565b8015610f775780601f10610f4c57610100808354040283529160200191610f77565b820191906000526020600020905b815481529060010190602001808311610f5a57829003601f168201915b5050505050908060020154908060030154908060040154905085565b610fa4610f9e6125a0565b836126d8565b610fe3576040517f08c379a0000000000000000000000000000000000000000000000000000000008152600401610fda90614941565b60405180910390fd5b610fef84848484612b41565b50505050565b60606008805480602002602001604051908101604052809291908181526020016000905b828210156111f85783829060005260206000209060080201604051806101000160405290816000820160009054906101000a900473ffffffffffffffffffffffffffffffffffffffff1673ffffffffffffffffffffffffffffffffffffffff1673ffffffffffffffffffffffffffffffffffffffff168152602001600182015481526020016002820180546110ad90614d70565b80601f01602080910402602001604051908101604052809291908181526020018280546110d990614d70565b80156111265780601f106110fb57610100808354040283529160200191611126565b820191906000526020600020905b81548152906001019060200180831161110957829003601f168201915b5050505050815260200160038201805461113f90614d70565b80601f016020809104026020016040519081016040528092919081815260200182805461116b90614d70565b80156111b85780601f1061118d576101008083540402835291602001916111b8565b820191906000526020600020905b81548152906001019060200180831161119b57829003601f168201915b5050505050815260200160048201548152602001600582015481526020016006820154815260200160078201548152505081526020019060010190611019565b50505050905090565b6060600060096000848152602001908152602001600020604051806101000160405290816000820160009054906101000a900473ffffffffffffffffffffffffffffffffffffffff1673ffffffffffffffffffffffffffffffffffffffff1673ffffffffffffffffffffffffffffffffffffffff1681526020016001820154815260200160028201805461129490614d70565b80601f01602080910402602001604051908101604052809291908181526020018280546112c090614d70565b801561130d5780601f106112e25761010080835404028352916020019161130d565b820191906000526020600020905b8154815290600101906020018083116112f057829003601f168201915b5050505050815260200160038201805461132690614d70565b80601f016020809104026020016040519081016040528092919081815260200182805461135290614d70565b801561139f5780601f106113745761010080835404028352916020019161139f565b820191906000526020600020905b81548152906001019060200180831161138257829003601f168201915b50505050508152602001600482015481526020016005820154815260200160068201548152602001600782015481525050905060006113e18260800151612b9d565b905060006113f28360a00151612b9d565b905060006114038460c00151612b9d565b905060006114148560e00151612b9d565b9050600061145c86604001516114298a612b9d565b8860600151888888886040516020016114489796959493929190614345565b604051602081830303815290604052612cfe565b90506000816040516020016114719190614402565b604051602081830303815290604052905080975050505050505050919050565b61149961341e565b6000600f60003373ffffffffffffffffffffffffffffffffffffffff1673ffffffffffffffffffffffffffffffffffffffff16815260200190815260200160002054905060008111156116b95760096000828152602001908152602001600020604051806101000160405290816000820160009054906101000a900473ffffffffffffffffffffffffffffffffffffffff1673ffffffffffffffffffffffffffffffffffffffff1673ffffffffffffffffffffffffffffffffffffffff1681526020016001820154815260200160028201805461157590614d70565b80601f01602080910402602001604051908101604052809291908181526020018280546115a190614d70565b80156115ee5780601f106115c3576101008083540402835291602001916115ee565b820191906000526020600020905b8154815290600101906020018083116115d157829003601f168201915b5050505050815260200160038201805461160790614d70565b80601f016020809104026020016040519081016040528092919081815260200182805461163390614d70565b80156116805780601f1061165557610100808354040283529160200191611680565b820191906000526020600020905b81548152906001019060200180831161166357829003601f168201915b505050505081526020016004820154815260200160058201548152602001600682015481526020016007820154815250509150506116c7565b6116c161341e565b80925050505b90565b6000600f60003373ffffffffffffffffffffffffffffffffffffffff1673ffffffffffffffffffffffffffffffffffffffff16815260200190815260200160002054905060006009600083815260200190815260200160002090506004601754141561174a57600381600601546117419190614bc6565b81600601819055505b6000816004015411611791576040517f08c379a000000000000000000000000000000000000000000000000000000000815260040161178890614821565b60405180910390fd5b6000600a60020154116117d9576040517f08c379a00000000000000000000000000000000000000000000000000000000081526004016117d090614921565b60405180910390fd5b8060060154600a60020154101561181a57600a600201548160070160008282546118039190614b3f565b925050819055506000600a6002018190555061185a565b80600601548160070160008282546118329190614b3f565b925050819055508060060154600a60020160008282546118529190614c20565b925050819055505b600a600401548160040154101561187a576000816004018190555061189b565b600a600401548160040160008282546118939190614c20565b925050819055505b60005b600780549050811015611b18573373ffffffffffffffffffffffffffffffffffffffff16600782815481106118d6576118d5614f0e565b5b906000526020600020906008020160000160009054906101000a900473ffffffffffffffffffffffffffffffffffffffff1673ffffffffffffffffffffffffffffffffffffffff161415611b0557600082600401541415611a04576007818154811061194557611944614f0e565b5b9060005260206000209060080201600080820160006101000a81549073ffffffffffffffffffffffffffffffffffffffff021916905560018201600090556002820160006119939190613479565b6003820160006119a39190613479565b600482016000905560058201600090556006820160009055600782016000905550507f8b348e519319ce056b18ae43c2239a2f2a8973595c0cf01aded937707d44c66d3360076040516119f79291906144b4565b60405180910390a1611b04565b8160078281548110611a1957611a18614f0e565b5b90600052602060002090600802016000820160009054906101000a900473ffffffffffffffffffffffffffffffffffffffff168160000160006101000a81548173ffffffffffffffffffffffffffffffffffffffff021916908373ffffffffffffffffffffffffffffffffffffffff160217905550600182015481600101556002820181600201908054611aac90614d70565b611ab79291906134b9565b506003820181600301908054611acc90614d70565b611ad79291906134b9565b50600482015481600401556005820154816005015560068201548160060155600782015481600701559050505b5b8080611b1090614e07565b91505061189e565b5060046017541415611b3e5760038160060154611b359190614b95565b81600601819055505b7f93e52d5efffa697fd9ea49a98f3868aadfe91fe7dd670a4784d212c5fba5297633600a60020154836004015484600701546007604051611b839594939291906145bc565b60405180910390a15050565b6000601754905090565b601060009054906101000a900473ffffffffffffffffffffffffffffffffffffffff1673ffffffffffffffffffffffffffffffffffffffff16635d3b1d30601254601060149054906101000a900467ffffffffffffffff16601360049054906101000a900461ffff16601360009054906101000a900463ffffffff16601360069054906101000a900463ffffffff166040518663ffffffff1660e01b8152600401611c48959493929190614653565b602060405180830381600087803b158015611c6257600080fd5b505af1158015611c76573d6000803e3d6000fd5b505050506040513d601f19601f82011682018060405250810190611c9a91906139bf565b601581905550565b60155481565b6000600560008473ffffffffffffffffffffffffffffffffffffffff1673ffffffffffffffffffffffffffffffffffffffff16815260200190815260200160002060008373ffffffffffffffffffffffffffffffffffffffff1673ffffffffffffffffffffffffffffffffffffffff16815260200190815260200160002060009054906101000a900460ff16905092915050565b60148181548110611d4c57600080fd5b906000526020600020016000915090505481565b6000611d6c6006612e96565b9050611d783382612ea4565b6040518061010001604052803373ffffffffffffffffffffffffffffffffffffffff16815260200183815260200160088481548110611dba57611db9614f0e565b5b90600052602060002090600802016002018054611dd690614d70565b80601f0160208091040260200160405190810160405280929190818152602001828054611e0290614d70565b8015611e4f5780601f10611e2457610100808354040283529160200191611e4f565b820191906000526020600020905b815481529060010190602001808311611e3257829003601f168201915b5050505050815260200160088481548110611e6d57611e6c614f0e565b5b90600052602060002090600802016003018054611e8990614d70565b80601f0160208091040260200160405190810160405280929190818152602001828054611eb590614d70565b8015611f025780601f10611ed757610100808354040283529160200191611f02565b820191906000526020600020905b815481529060010190602001808311611ee557829003601f168201915b5050505050815260200160088481548110611f2057611f1f614f0e565b5b906000526020600020906008020160040154815260200160088481548110611f4b57611f4a614f0e565b5b906000526020600020906008020160050154815260200160088481548110611f7657611f75614f0e565b5b906000526020600020906008020160060154815260200160008152506009600083815260200190815260200160002060008201518160000160006101000a81548173ffffffffffffffffffffffffffffffffffffffff021916908373ffffffffffffffffffffffffffffffffffffffff160217905550602082015181600101556040820151816002019080519060200190612012929190613546565b50606082015181600301908051906020019061202f929190613546565b506080820151816004015560a0820151816005015560c0820151816006015560e0820151816007015590505060076009600083815260200190815260200160002090806001815401808255809150506001900390600052602060002090600802016000909190919091506000820160009054906101000a900473ffffffffffffffffffffffffffffffffffffffff168160000160006101000a81548173ffffffffffffffffffffffffffffffffffffffff021916908373ffffffffffffffffffffffffffffffffffffffff16021790555060018201548160010155600282018160020190805461211e90614d70565b6121299291906134b9565b50600382018160030190805461213e90614d70565b6121499291906134b9565b506004820154816004015560058201548160050155600682015481600601556007820154816007015550506121976040518060600160405280602e81526020016155dd602e91398284612ec2565b80600f60003373ffffffffffffffffffffffffffffffffffffffff1673ffffffffffffffffffffffffffffffffffffffff168152602001908152602001600020819055506121e560066124d5565b7ff7ce6d45718f4d5553edc6316819886e91553095c70e36bced1baa5d3f5ee226338284600760405161221b9493929190614570565b60405180910390a15050565b60606007805480602002602001604051908101604052809291908181526020016000905b8282101561242a5783829060005260206000209060080201604051806101000160405290816000820160009054906101000a900473ffffffffffffffffffffffffffffffffffffffff1673ffffffffffffffffffffffffffffffffffffffff1673ffffffffffffffffffffffffffffffffffffffff168152602001600182015481526020016002820180546122df90614d70565b80601f016020809104026020016040519081016040528092919081815260200182805461230b90614d70565b80156123585780601f1061232d57610100808354040283529160200191612358565b820191906000526020600020905b81548152906001019060200180831161233b57829003601f168201915b5050505050815260200160038201805461237190614d70565b80601f016020809104026020016040519081016040528092919081815260200182805461239d90614d70565b80156123ea5780601f106123bf576101008083540402835291602001916123ea565b820191906000526020600020905b8154815290600101906020018083116123cd57829003601f168201915b505050505081526020016004820154815260200160058201548152602001600682015481526020016007820154815250508152602001906001019061224b565b50505050905090565b6124cf8484848460405160240161244d94939291906146c8565b6040516020818303038152906040527f8d142cdd000000000000000000000000000000000000000000000000000000007bffffffffffffffffffffffffffffffffffffffffffffffffffffffff19166020820180517bffffffffffffffffffffffffffffffffffffffffffffffffffffffff8381831617835250505050612f61565b50505050565b6001816000016000828254019250508190555050565b60007f01ffc9a7000000000000000000000000000000000000000000000000000000007bffffffffffffffffffffffffffffffffffffffffffffffffffffffff1916827bffffffffffffffffffffffffffffffffffffffffffffffffffffffff1916149050919050565b61255e81612f8a565b61259d576040517f08c379a0000000000000000000000000000000000000000000000000000000008152600401612594906148e1565b60405180910390fd5b50565b600033905090565b816004600083815260200190815260200160002060006101000a81548173ffffffffffffffffffffffffffffffffffffffff021916908373ffffffffffffffffffffffffffffffffffffffff160217905550808273ffffffffffffffffffffffffffffffffffffffff1661261b83610abd565b73ffffffffffffffffffffffffffffffffffffffff167f8c5be1e5ebec7d5bd14f71427d1e84f3dd0314c0f7b2291e5b200ac8c7c3b92560405160405180910390a45050565b600160058260008151811061267957612678614f0e565b5b602002602001015161268b9190614e50565b6126959190614b3f565b6017819055507fc859f04dadf560b8f9dd8e4a7327ec478e58b6a681349f89f64496a23c9c25d26017546040516126cc91906149c0565b60405180910390a15050565b6000806126e483610abd565b90508073ffffffffffffffffffffffffffffffffffffffff168473ffffffffffffffffffffffffffffffffffffffff16148061272657506127258185611ca8565b5b8061276457508373ffffffffffffffffffffffffffffffffffffffff1661274c8461081f565b73ffffffffffffffffffffffffffffffffffffffff16145b91505092915050565b8273ffffffffffffffffffffffffffffffffffffffff1661278d82610abd565b73ffffffffffffffffffffffffffffffffffffffff16146127e3576040517f08c379a00000000000000000000000000000000000000000000000000000000081526004016127da906147e1565b60405180910390fd5b600073ffffffffffffffffffffffffffffffffffffffff168273ffffffffffffffffffffffffffffffffffffffff161415612853576040517f08c379a000000000000000000000000000000000000000000000000000000000815260040161284a90614841565b60405180910390fd5b61285e838383612ff6565b6128696000826125a8565b6001600360008573ffffffffffffffffffffffffffffffffffffffff1673ffffffffffffffffffffffffffffffffffffffff16815260200190815260200160002060008282546128b99190614c20565b925050819055506001600360008473ffffffffffffffffffffffffffffffffffffffff1673ffffffffffffffffffffffffffffffffffffffff16815260200190815260200160002060008282546129109190614b3f565b92505081905550816002600083815260200190815260200160002060006101000a81548173ffffffffffffffffffffffffffffffffffffffff021916908373ffffffffffffffffffffffffffffffffffffffff160217905550808273ffffffffffffffffffffffffffffffffffffffff168473ffffffffffffffffffffffffffffffffffffffff167fddf252ad1be2c89b69c2b068fc378daa952ba7f163c4a11628f55a4df523b3ef60405160405180910390a46129cf838383612ffb565b505050565b8173ffffffffffffffffffffffffffffffffffffffff168373ffffffffffffffffffffffffffffffffffffffff161415612a43576040517f08c379a0000000000000000000000000000000000000000000000000000000008152600401612a3a90614861565b60405180910390fd5b80600560008573ffffffffffffffffffffffffffffffffffffffff1673ffffffffffffffffffffffffffffffffffffffff16815260200190815260200160002060008473ffffffffffffffffffffffffffffffffffffffff1673ffffffffffffffffffffffffffffffffffffffff16815260200190815260200160002060006101000a81548160ff0219169083151502179055508173ffffffffffffffffffffffffffffffffffffffff168373ffffffffffffffffffffffffffffffffffffffff167f17307eab39ab6107e8899845ad3d59bd9653f200f220920489ca2b5937696c3183604051612b349190614638565b60405180910390a3505050565b612b4c84848461276d565b612b5884848484613000565b612b97576040517f08c379a0000000000000000000000000000000000000000000000000000000008152600401612b8e906147c1565b60405180910390fd5b50505050565b60606000821415612be5576040518060400160405280600181526020017f30000000000000000000000000000000000000000000000000000000000000008152509050612cf9565b600082905060005b60008214612c17578080612c0090614e07565b915050600a82612c109190614b95565b9150612bed565b60008167ffffffffffffffff811115612c3357612c32614f3d565b5b6040519080825280601f01601f191660200182016040528015612c655781602001600182028036833780820191505090505b5090505b60008514612cf257600182612c7e9190614c20565b9150600a85612c8d9190614e50565b6030612c999190614b3f565b60f81b818381518110612caf57612cae614f0e565b5b60200101907effffffffffffffffffffffffffffffffffffffffffffffffffffffffffffff1916908160001a905350600a85612ceb9190614b95565b9450612c69565b8093505050505b919050565b60606000825190506000811415612d275760405180602001604052806000815250915050612e91565b60006003600283612d389190614b3f565b612d429190614b95565b6004612d4e9190614bc6565b90506000602082612d5f9190614b3f565b67ffffffffffffffff811115612d7857612d77614f3d565b5b6040519080825280601f01601f191660200182016040528015612daa5781602001600182028036833780820191505090505b509050600060405180606001604052806040815260200161559d604091399050600181016020830160005b86811015612e4e5760038101905062ffffff818a015116603f8160121c168401518060081b905060ff603f83600c1c1686015116810190508060081b905060ff603f8360061c1686015116810190508060081b905060ff603f831686015116810190508060e01b90508084526004840193505050612dd5565b506003860660018114612e685760028114612e7857612e83565b613d3d60f01b6002830352612e83565b603d60f81b60018303525b508484525050819450505050505b919050565b600081600001549050919050565b612ebe828260405180602001604052806000815250613197565b5050565b612f5c838383604051602401612eda93929190614783565b6040516020818303038152906040527f969cdd03000000000000000000000000000000000000000000000000000000007bffffffffffffffffffffffffffffffffffffffffffffffffffffffff19166020820180517bffffffffffffffffffffffffffffffffffffffffffffffffffffffff8381831617835250505050612f61565b505050565b60008151905060006a636f6e736f6c652e6c6f679050602083016000808483855afa5050505050565b60008073ffffffffffffffffffffffffffffffffffffffff166002600084815260200190815260200160002060009054906101000a900473ffffffffffffffffffffffffffffffffffffffff1673ffffffffffffffffffffffffffffffffffffffff1614159050919050565b505050565b505050565b60006130218473ffffffffffffffffffffffffffffffffffffffff166131f2565b1561318a578373ffffffffffffffffffffffffffffffffffffffff1663150b7a0261304a6125a0565b8786866040518563ffffffff1660e01b815260040161306c9493929190614468565b602060405180830381600087803b15801561308657600080fd5b505af19250505080156130b757506040513d601f19601f820116820180604052508101906130b49190613965565b60015b61313a573d80600081146130e7576040519150601f19603f3d011682016040523d82523d6000602084013e6130ec565b606091505b50600081511415613132576040517f08c379a0000000000000000000000000000000000000000000000000000000008152600401613129906147c1565b60405180910390fd5b805181602001fd5b63150b7a0260e01b7bffffffffffffffffffffffffffffffffffffffffffffffffffffffff1916817bffffffffffffffffffffffffffffffffffffffffffffffffffffffff19161491505061318f565b600190505b949350505050565b6131a18383613215565b6131ae6000848484613000565b6131ed576040517f08c379a00000000000000000000000000000000000000000000000000000000081526004016131e4906147c1565b60405180910390fd5b505050565b6000808273ffffffffffffffffffffffffffffffffffffffff163b119050919050565b600073ffffffffffffffffffffffffffffffffffffffff168273ffffffffffffffffffffffffffffffffffffffff161415613285576040517f08c379a000000000000000000000000000000000000000000000000000000000815260040161327c906148c1565b60405180910390fd5b61328e81612f8a565b156132ce576040517f08c379a00000000000000000000000000000000000000000000000000000000081526004016132c590614801565b60405180910390fd5b6132da60008383612ff6565b6001600360008473ffffffffffffffffffffffffffffffffffffffff1673ffffffffffffffffffffffffffffffffffffffff168152602001908152602001600020600082825461332a9190614b3f565b92505081905550816002600083815260200190815260200160002060006101000a81548173ffffffffffffffffffffffffffffffffffffffff021916908373ffffffffffffffffffffffffffffffffffffffff160217905550808273ffffffffffffffffffffffffffffffffffffffff16600073ffffffffffffffffffffffffffffffffffffffff167fddf252ad1be2c89b69c2b068fc378daa952ba7f163c4a11628f55a4df523b3ef60405160405180910390a46133eb60008383612ffb565b5050565b6040518060a0016040528060608152602001606081526020016000815260200160008152602001600081525090565b604051806101000160405280600073ffffffffffffffffffffffffffffffffffffffff168152602001600081526020016060815260200160608152602001600081526020016000815260200160008152602001600081525090565b50805461348590614d70565b6000825580601f1061349757506134b6565b601f0160209004906000526020600020908101906134b591906135cc565b5b50565b8280546134c590614d70565b90600052602060002090601f0160209004810192826134e75760008555613535565b82601f106134f85780548555613535565b8280016001018555821561353557600052602060002091601f016020900482015b82811115613534578254825591600101919060010190613519565b5b50905061354291906135cc565b5090565b82805461355290614d70565b90600052602060002090601f01602090048101928261357457600085556135bb565b82601f1061358d57805160ff19168380011785556135bb565b828001600101855582156135bb579182015b828111156135ba57825182559160200191906001019061359f565b5b5090506135c891906135cc565b5090565b5b808211156135e55760008160009055506001016135cd565b5090565b60006135fc6135f784614a13565b6149ee565b9050808382526020820190508285602086028201111561361f5761361e614f71565b5b60005b8581101561364f5781613635888261374b565b845260208401935060208301925050600181019050613622565b5050509392505050565b600061366c61366784614a3f565b6149ee565b90508281526020810184848401111561368857613687614f76565b5b613693848285614d2e565b509392505050565b6000813590506136aa81615540565b92915050565b600082601f8301126136c5576136c4614f6c565b5b81356136d58482602086016135e9565b91505092915050565b6000813590506136ed81615557565b92915050565b6000813590506137028161556e565b92915050565b6000815190506137178161556e565b92915050565b600082601f83011261373257613731614f6c565b5b8135613742848260208601613659565b91505092915050565b60008135905061375a81615585565b92915050565b60008151905061376f81615585565b92915050565b60006020828403121561378b5761378a614f80565b5b60006137998482850161369b565b91505092915050565b600080604083850312156137b9576137b8614f80565b5b60006137c78582860161369b565b92505060206137d88582860161369b565b9150509250929050565b6000806000606084860312156137fb576137fa614f80565b5b60006138098682870161369b565b935050602061381a8682870161369b565b925050604061382b8682870161374b565b9150509250925092565b6000806000806080858703121561384f5761384e614f80565b5b600061385d8782880161369b565b945050602061386e8782880161369b565b935050604061387f8782880161374b565b925050606085013567ffffffffffffffff8111156138a05761389f614f7b565b5b6138ac8782880161371d565b91505092959194509250565b600080604083850312156138cf576138ce614f80565b5b60006138dd8582860161369b565b92505060206138ee858286016136de565b9150509250929050565b6000806040838503121561390f5761390e614f80565b5b600061391d8582860161369b565b925050602061392e8582860161374b565b9150509250929050565b60006020828403121561394e5761394d614f80565b5b600061395c848285016136f3565b91505092915050565b60006020828403121561397b5761397a614f80565b5b600061398984828501613708565b91505092915050565b6000602082840312156139a8576139a7614f80565b5b60006139b68482850161374b565b91505092915050565b6000602082840312156139d5576139d4614f80565b5b60006139e384828501613760565b91505092915050565b60008060408385031215613a0357613a02614f80565b5b6000613a118582860161374b565b925050602083013567ffffffffffffffff811115613a3257613a31614f7b565b5b613a3e858286016136b0565b9150509250929050565b6000613a548383614093565b905092915050565b6000613a688383614201565b905092915050565b613a7981614c7e565b82525050565b613a8881614c7e565b82525050565b6000613a9982614aaa565b613aa38185614af0565b935083602082028501613ab585614a70565b8060005b85811015613af15784840389528151613ad28582613a48565b9450613add83614ad6565b925060208a01995050600181019050613ab9565b50829750879550505050505092915050565b6000613b0e82614ab5565b613b188185614af0565b935083602082028501613b2a85614a80565b8060005b85811015613b6557848403895281613b468582613a5c565b9450613b5183614ae3565b925060208a01995050600181019050613b2e565b50829750879550505050505092915050565b613b8081614c90565b82525050565b613b8f81614c9c565b82525050565b6000613ba082614ac0565b613baa8185614b01565b9350613bba818560208601614d3d565b613bc381614f85565b840191505092915050565b6000613bd982614acb565b613be38185614b12565b9350613bf3818560208601614d3d565b613bfc81614f85565b840191505092915050565b6000613c1282614acb565b613c1c8185614b23565b9350613c2c818560208601614d3d565b613c3581614f85565b840191505092915050565b6000613c4b82614acb565b613c558185614b34565b9350613c65818560208601614d3d565b80840191505092915050565b60008154613c7e81614d70565b613c888186614b12565b94506001821660008114613ca35760018114613cb557613ce8565b60ff1983168652602086019350613ce8565b613cbe85614a95565b60005b83811015613ce057815481890152600182019150602081019050613cc1565b808801955050505b50505092915050565b6000613cfe600b83614b34565b9150613d0982614fa3565b600b82019050919050565b6000613d21603283614b23565b9150613d2c82614fcc565b604082019050919050565b6000613d44602583614b23565b9150613d4f8261501b565b604082019050919050565b6000613d67601c83614b23565b9150613d728261506a565b602082019050919050565b6000613d8a601283614b23565b9150613d9582615093565b602082019050919050565b6000613dad601a83614b23565b9150613db8826150bc565b602082019050919050565b6000613dd0606883614b34565b9150613ddb826150e5565b606882019050919050565b6000613df3600e83614b34565b9150613dfe82615180565b600e82019050919050565b6000613e16602483614b23565b9150613e21826151a9565b604082019050919050565b6000613e39601983614b23565b9150613e44826151f8565b602082019050919050565b6000613e5c602983614b23565b9150613e6782615221565b604082019050919050565b6000613e7f600483614b34565b9150613e8a82615270565b600482019050919050565b6000613ea2603e83614b23565b9150613ead82615299565b604082019050919050565b6000613ec5602083614b23565b9150613ed0826152e8565b602082019050919050565b6000613ee8600a83614b34565b9150613ef382615311565b600a82019050919050565b6000613f0b601883614b23565b9150613f168261533a565b602082019050919050565b6000613f2e602183614b23565b9150613f3982615363565b604082019050919050565b6000613f51601d83614b34565b9150613f5c826153b2565b601d82019050919050565b6000613f74601883614b23565b9150613f7f826153db565b602082019050919050565b6000613f97603d83614b34565b9150613fa282615404565b603d82019050919050565b6000613fba602d83614b34565b9150613fc582615453565b602d82019050919050565b6000613fdd603283614b34565b9150613fe8826154a2565b603282019050919050565b6000614000602e83614b23565b915061400b826154f1565b604082019050919050565b600060a08301600083015184820360008601526140338282613bce565b9150506020830151848203602086015261404d8282613bce565b91505060408301516140626040860182614309565b5060608301516140756060860182614309565b5060808301516140886080860182614309565b508091505092915050565b6000610100830160008301516140ac6000860182613a70565b5060208301516140bf6020860182614309565b50604083015184820360408601526140d78282613bce565b915050606083015184820360608601526140f18282613bce565b91505060808301516141066080860182614309565b5060a083015161411960a0860182614309565b5060c083015161412c60c0860182614309565b5060e083015161413f60e0860182614309565b508091505092915050565b6000610100830160008301516141636000860182613a70565b5060208301516141766020860182614309565b506040830151848203604086015261418e8282613bce565b915050606083015184820360608601526141a88282613bce565b91505060808301516141bd6080860182614309565b5060a08301516141d060a0860182614309565b5060c08301516141e360c0860182614309565b5060e08301516141f660e0860182614309565b508091505092915050565b60006101008301600080840154905061421981614da2565b6142266000870182613a70565b506001840154905061423781614dbc565b6142446020870182614309565b5060028401858303604087015261425b8382613c71565b9250506003840185830360608701526142748382613c71565b9250506004840154905061428781614dbc565b6142946080870182614309565b50600584015490506142a581614dbc565b6142b260a0870182614309565b50600684015490506142c381614dbc565b6142d060c0870182614309565b50600784015490506142e181614dbc565b6142ee60e0870182614309565b50819250505092915050565b61430381614cd2565b82525050565b61431281614d00565b82525050565b61432181614d00565b82525050565b61433081614d0a565b82525050565b61433f81614d1a565b82525050565b600061435082613edb565b915061435c828a613c40565b915061436782613cf1565b91506143738289613c40565b915061437e82613dc3565b915061438a8288613c40565b915061439582613f8a565b91506143a18287613c40565b91506143ac82613de6565b91506143b88286613c40565b91506143c382613fad565b91506143cf8285613c40565b91506143da82613fd0565b91506143e68284613c40565b91506143f182613e72565b915081905098975050505050505050565b600061440d82613f44565b91506144198284613c40565b915081905092915050565b60006020820190506144396000830184613a7f565b92915050565b60006040820190506144546000830185613a7f565b6144616020830184613a7f565b9392505050565b600060808201905061447d6000830187613a7f565b61448a6020830186613a7f565b6144976040830185614318565b81810360608301526144a98184613b95565b905095945050505050565b60006040820190506144c96000830185613a7f565b81810360208301526144db8184613b03565b90509392505050565b6000610100820190506144fa600083018b613a7f565b614507602083018a614318565b81810360408301526145198189613c07565b9050818103606083015261452d8188613c07565b905061453c6080830187614318565b61454960a0830186614318565b61455660c0830185614318565b61456360e0830184614318565b9998505050505050505050565b60006080820190506145856000830187613a7f565b6145926020830186614318565b61459f6040830185614318565b81810360608301526145b18184613b03565b905095945050505050565b600060a0820190506145d16000830188613a7f565b6145de6020830187614318565b6145eb6040830186614318565b6145f86060830185614318565b818103608083015261460a8184613b03565b90509695505050505050565b600060208201905081810360008301526146308184613a8e565b905092915050565b600060208201905061464d6000830184613b77565b92915050565b600060a0820190506146686000830188613b86565b6146756020830187614336565b61468260408301866142fa565b61468f6060830185614327565b61469c6080830184614327565b9695505050505050565b600060208201905081810360008301526146c08184613c07565b905092915050565b600060808201905081810360008301526146e28187613c07565b905081810360208301526146f68186613c07565b90506147056040830185614318565b81810360608301526147178184613c07565b905095945050505050565b600060a082019050818103600083015261473c8188613c07565b905081810360208301526147508187613c07565b905061475f6040830186614318565b61476c6060830185614318565b6147796080830184614318565b9695505050505050565b6000606082019050818103600083015261479d8186613c07565b90506147ac6020830185614318565b6147b96040830184614318565b949350505050565b600060208201905081810360008301526147da81613d14565b9050919050565b600060208201905081810360008301526147fa81613d37565b9050919050565b6000602082019050818103600083015261481a81613d5a565b9050919050565b6000602082019050818103600083015261483a81613da0565b9050919050565b6000602082019050818103600083015261485a81613e09565b9050919050565b6000602082019050818103600083015261487a81613e2c565b9050919050565b6000602082019050818103600083015261489a81613e4f565b9050919050565b600060208201905081810360008301526148ba81613e95565b9050919050565b600060208201905081810360008301526148da81613eb8565b9050919050565b600060208201905081810360008301526148fa81613efe565b9050919050565b6000602082019050818103600083015261491a81613f21565b9050919050565b6000602082019050818103600083015261493a81613f67565b9050919050565b6000602082019050818103600083015261495a81613ff3565b9050919050565b6000602082019050818103600083015261497b8184614016565b905092915050565b6000602082019050818103600083015261499d818461414a565b905092915050565b60006020820190506149ba6000830184614318565b92915050565b60006040820190506149d56000830184614318565b81810360208301526149e681613d7d565b905092915050565b60006149f8614a09565b9050614a048282614dd6565b919050565b6000604051905090565b600067ffffffffffffffff821115614a2e57614a2d614f3d565b5b602082029050602081019050919050565b600067ffffffffffffffff821115614a5a57614a59614f3d565b5b614a6382614f85565b9050602081019050919050565b6000819050602082019050919050565b60008190508160005260206000209050919050565b60008190508160005260206000209050919050565b600081519050919050565b600081549050919050565b600081519050919050565b600081519050919050565b6000602082019050919050565b6000600882019050919050565b600082825260208201905092915050565b600082825260208201905092915050565b600082825260208201905092915050565b600082825260208201905092915050565b600081905092915050565b6000614b4a82614d00565b9150614b5583614d00565b9250827fffffffffffffffffffffffffffffffffffffffffffffffffffffffffffffffff03821115614b8a57614b89614e81565b5b828201905092915050565b6000614ba082614d00565b9150614bab83614d00565b925082614bbb57614bba614eb0565b5b828204905092915050565b6000614bd182614d00565b9150614bdc83614d00565b9250817fffffffffffffffffffffffffffffffffffffffffffffffffffffffffffffffff0483118215151615614c1557614c14614e81565b5b828202905092915050565b6000614c2b82614d00565b9150614c3683614d00565b925082821015614c4957614c48614e81565b5b828203905092915050565b600073ffffffffffffffffffffffffffffffffffffffff82169050919050565b6000819050919050565b6000614c8982614ce0565b9050919050565b60008115159050919050565b6000819050919050565b60007fffffffff0000000000000000000000000000000000000000000000000000000082169050919050565b600061ffff82169050919050565b600073ffffffffffffffffffffffffffffffffffffffff82169050919050565b6000819050919050565b600063ffffffff82169050919050565b600067ffffffffffffffff82169050919050565b82818337600083830152505050565b60005b83811015614d5b578082015181840152602081019050614d40565b83811115614d6a576000848401525b50505050565b60006002820490506001821680614d8857607f821691505b60208210811415614d9c57614d9b614edf565b5b50919050565b6000614db5614db083614f96565b614c54565b9050919050565b6000614dcf614dca83614f96565b614c74565b9050919050565b614ddf82614f85565b810181811067ffffffffffffffff82111715614dfe57614dfd614f3d565b5b80604052505050565b6000614e1282614d00565b91507fffffffffffffffffffffffffffffffffffffffffffffffffffffffffffffffff821415614e4557614e44614e81565b5b600182019050919050565b6000614e5b82614d00565b9150614e6683614d00565b925082614e7657614e75614eb0565b5b828206905092915050565b7f4e487b7100000000000000000000000000000000000000000000000000000000600052601160045260246000fd5b7f4e487b7100000000000000000000000000000000000000000000000000000000600052601260045260246000fd5b7f4e487b7100000000000000000000000000000000000000000000000000000000600052602260045260246000fd5b7f4e487b7100000000000000000000000000000000000000000000000000000000600052603260045260246000fd5b7f4e487b7100000000000000000000000000000000000000000000000000000000600052604160045260246000fd5b600080fd5b600080fd5b600080fd5b600080fd5b600080fd5b6000601f19601f8301169050919050565b60008160001c9050919050565b7f202d2d204e465420233a20000000000000000000000000000000000000000000600082015250565b7f4552433732313a207472616e7366657220746f206e6f6e20455243373231526560008201527f63656976657220696d706c656d656e7465720000000000000000000000000000602082015250565b7f4552433732313a207472616e736665722066726f6d20696e636f72726563742060008201527f6f776e6572000000000000000000000000000000000000000000000000000000602082015250565b7f4552433732313a20746f6b656e20616c7265616479206d696e74656400000000600082015250565b7f6920616d2072616e646f6d206e756d6265720000000000000000000000000000600082015250565b7f506c6179657220686173206e6f2048502063616e7420706c6179000000000000600082015250565b7f222c20226465736372697074696f6e223a20225468697320697320616e204e4660008201527f542074686174206c6574732070656f706c6520706c617920696e20746865206760208201527f616d65204461726b77696e67204e696768747321222c2022696d616765223a2060408201527f22697066733a2f2f000000000000000000000000000000000000000000000000606082015250565b7f2c20226d61785f76616c7565223a000000000000000000000000000000000000600082015250565b7f4552433732313a207472616e7366657220746f20746865207a65726f2061646460008201527f7265737300000000000000000000000000000000000000000000000000000000602082015250565b7f4552433732313a20617070726f766520746f2063616c6c657200000000000000600082015250565b7f4552433732313a2061646472657373207a65726f206973206e6f74206120766160008201527f6c6964206f776e65720000000000000000000000000000000000000000000000602082015250565b7f7d205d7d00000000000000000000000000000000000000000000000000000000600082015250565b7f4552433732313a20617070726f76652063616c6c6572206973206e6f7420746f60008201527f6b656e206f776e6572206e6f7220617070726f76656420666f7220616c6c0000602082015250565b7f4552433732313a206d696e7420746f20746865207a65726f2061646472657373600082015250565b7f7b226e616d65223a202200000000000000000000000000000000000000000000600082015250565b7f4552433732313a20696e76616c696420746f6b656e2049440000000000000000600082015250565b7f4552433732313a20617070726f76616c20746f2063757272656e74206f776e6560008201527f7200000000000000000000000000000000000000000000000000000000000000602082015250565b7f646174613a6170706c69636174696f6e2f6a736f6e3b6261736536342c000000600082015250565b7f426f737320686173206e6f2048502063616e7420706c61790000000000000000600082015250565b7f222c202261747472696275746573223a205b207b202274726169745f7479706560008201527f223a20224865616c746820506f696e7473222c202276616c7565223a20000000602082015250565b7f7d2c207b202274726169745f74797065223a202241747461636b2044616d616760008201527f65222c202276616c7565223a2000000000000000000000000000000000000000602082015250565b7f7d2c207b202274726169745f74797065223a2022546f74616c2044616d61676560008201527f204465616c74222c202276616c7565223a200000000000000000000000000000602082015250565b7f4552433732313a2063616c6c6572206973206e6f7420746f6b656e206f776e6560008201527f72206e6f7220617070726f766564000000000000000000000000000000000000602082015250565b61554981614c7e565b811461555457600080fd5b50565b61556081614c90565b811461556b57600080fd5b50565b61557781614ca6565b811461558257600080fd5b50565b61558e81614d00565b811461559957600080fd5b5056fe4142434445464748494a4b4c4d4e4f505152535455565758595a6162636465666768696a6b6c6d6e6f707172737475767778797a303132333435363738392b2f4d696e746564204e465420772f20746f6b656e496420257320616e6420636861726163746572496e646578202573a2646970667358221220dd7be46f783f59a18d94fa433bc7fd9db93a23e759b6e996da30793635c55f8464736f6c63430008070033446f6e6520696e697469616c697a696e6720257320772f2048502025732c20696d67202573",
  "linkReferences": {},
  "deployedLinkReferences": {}
}