{
  "_format": "hh-sol-artifact-1",
  "contractName": "MyEpicGame",
  "sourceName": "contracts/MyEpicGame.sol",
  "abi": [
    {
      "inputs": [
        {
          "internalType": "string[]",
          "name": "characterNames",
          "type": "string[]"
        },
        {
          "internalType": "string[]",
          "name": "characterImageURIs",
          "type": "string[]"
        },
        {
          "internalType": "uint256[]",
          "name": "characterHP",
          "type": "uint256[]"
        },
        {
          "internalType": "uint256[]",
          "name": "characterAttackDamage",
          "type": "uint256[]"
        },
        {
          "internalType": "string",
          "name": "bossName",
          "type": "string"
        },
        {
          "internalType": "string",
          "name": "bossImageURI",
          "type": "string"
        },
        {
          "internalType": "uint256",
          "name": "bossHp",
          "type": "uint256"
        },
        {
          "internalType": "uint256",
          "name": "bossAttackDamage",
          "type": "uint256"
        },
        {
          "internalType": "uint64",
          "name": "subscriptionId",
          "type": "uint64"
        }
      ],
      "stateMutability": "nonpayable",
      "type": "constructor"
    },
    {
      "inputs": [
        {
          "internalType": "address",
          "name": "have",
          "type": "address"
        },
        {
          "internalType": "address",
          "name": "want",
          "type": "address"
        }
      ],
      "name": "OnlyCoordinatorCanFulfill",
      "type": "error"
    },
    {
      "anonymous": false,
      "inputs": [
        {
          "indexed": true,
          "internalType": "address",
          "name": "owner",
          "type": "address"
        },
        {
          "indexed": true,
          "internalType": "address",
          "name": "approved",
          "type": "address"
        },
        {
          "indexed": true,
          "internalType": "uint256",
          "name": "tokenId",
          "type": "uint256"
        }
      ],
      "name": "Approval",
      "type": "event"
    },
    {
      "anonymous": false,
      "inputs": [
        {
          "indexed": true,
          "internalType": "address",
          "name": "owner",
          "type": "address"
        },
        {
          "indexed": true,
          "internalType": "address",
          "name": "operator",
          "type": "address"
        },
        {
          "indexed": false,
          "internalType": "bool",
          "name": "approved",
          "type": "bool"
        }
      ],
      "name": "ApprovalForAll",
      "type": "event"
    },
    {
      "anonymous": false,
      "inputs": [
        {
          "indexed": false,
          "internalType": "address",
          "name": "sender",
          "type": "address"
        },
        {
          "indexed": false,
          "internalType": "uint256",
          "name": "newBossHP",
          "type": "uint256"
        },
        {
          "indexed": false,
          "internalType": "uint256",
          "name": "newPlayerHP",
          "type": "uint256"
        },
        {
          "indexed": false,
          "internalType": "uint256",
          "name": "damageDone",
          "type": "uint256"
        },
        {
          "components": [
            {
              "internalType": "address",
              "name": "sender",
              "type": "address"
            },
            {
              "internalType": "uint256",
              "name": "characterIndex",
              "type": "uint256"
            },
            {
              "internalType": "string",
              "name": "name",
              "type": "string"
            },
            {
              "internalType": "string",
              "name": "imageURI",
              "type": "string"
            },
            {
              "internalType": "uint256",
              "name": "hp",
              "type": "uint256"
            },
            {
              "internalType": "uint256",
              "name": "maxHP",
              "type": "uint256"
            },
            {
              "internalType": "uint256",
              "name": "attackDamage",
              "type": "uint256"
            },
            {
              "internalType": "uint256",
              "name": "damageDone",
              "type": "uint256"
            }
          ],
          "indexed": false,
          "internalType": "struct MyEpicGame.CharacterAttributes[]",
          "name": "allPlayersInGame",
          "type": "tuple[]"
        }
      ],
      "name": "AttackComplete",
      "type": "event"
    },
    {
      "anonymous": false,
      "inputs": [
        {
          "indexed": false,
          "internalType": "address",
          "name": "sender",
          "type": "address"
        },
        {
          "indexed": false,
          "internalType": "uint256",
          "name": "tokenID",
          "type": "uint256"
        },
        {
          "indexed": false,
          "internalType": "uint256",
          "name": "characterIndex",
          "type": "uint256"
        },
        {
          "components": [
            {
              "internalType": "address",
              "name": "sender",
              "type": "address"
            },
            {
              "internalType": "uint256",
              "name": "characterIndex",
              "type": "uint256"
            },
            {
              "internalType": "string",
              "name": "name",
              "type": "string"
            },
            {
              "internalType": "string",
              "name": "imageURI",
              "type": "string"
            },
            {
              "internalType": "uint256",
              "name": "hp",
              "type": "uint256"
            },
            {
              "internalType": "uint256",
              "name": "maxHP",
              "type": "uint256"
            },
            {
              "internalType": "uint256",
              "name": "attackDamage",
              "type": "uint256"
            },
            {
              "internalType": "uint256",
              "name": "damageDone",
              "type": "uint256"
            }
          ],
          "indexed": false,
          "internalType": "struct MyEpicGame.CharacterAttributes[]",
          "name": "allPlayersInGame",
          "type": "tuple[]"
        }
      ],
      "name": "CharacterNftMinted",
      "type": "event"
    },
    {
      "anonymous": false,
      "inputs": [
        {
          "indexed": false,
          "internalType": "address",
          "name": "sender",
          "type": "address"
        },
        {
          "components": [
            {
              "internalType": "address",
              "name": "sender",
              "type": "address"
            },
            {
              "internalType": "uint256",
              "name": "characterIndex",
              "type": "uint256"
            },
            {
              "internalType": "string",
              "name": "name",
              "type": "string"
            },
            {
              "internalType": "string",
              "name": "imageURI",
              "type": "string"
            },
            {
              "internalType": "uint256",
              "name": "hp",
              "type": "uint256"
            },
            {
              "internalType": "uint256",
              "name": "maxHP",
              "type": "uint256"
            },
            {
              "internalType": "uint256",
              "name": "attackDamage",
              "type": "uint256"
            },
            {
              "internalType": "uint256",
              "name": "damageDone",
              "type": "uint256"
            }
          ],
          "indexed": false,
          "internalType": "struct MyEpicGame.CharacterAttributes[]",
          "name": "allPlayersInGame",
          "type": "tuple[]"
        }
      ],
      "name": "NftDeath",
      "type": "event"
    },
    {
      "anonymous": false,
      "inputs": [
        {
          "indexed": false,
          "internalType": "uint256",
          "name": "number",
          "type": "uint256"
        },
        {
          "indexed": false,
          "internalType": "string",
          "name": "praise",
          "type": "string"
        }
      ],
      "name": "RandomNumberEvent",
      "type": "event"
    },
    {
      "anonymous": false,
      "inputs": [
        {
          "indexed": true,
          "internalType": "address",
          "name": "from",
          "type": "address"
        },
        {
          "indexed": true,
          "internalType": "address",
          "name": "to",
          "type": "address"
        },
        {
          "indexed": true,
          "internalType": "uint256",
          "name": "tokenId",
          "type": "uint256"
        }
      ],
      "name": "Transfer",
      "type": "event"
    },
    {
      "inputs": [
        {
          "internalType": "address",
          "name": "to",
          "type": "address"
        },
        {
          "internalType": "uint256",
          "name": "tokenId",
          "type": "uint256"
        }
      ],
      "name": "approve",
      "outputs": [],
      "stateMutability": "nonpayable",
      "type": "function"
    },
    {
      "inputs": [],
      "name": "attackBoss",
      "outputs": [],
      "stateMutability": "nonpayable",
      "type": "function"
    },
    {
      "inputs": [
        {
          "internalType": "address",
          "name": "owner",
          "type": "address"
        }
      ],
      "name": "balanceOf",
      "outputs": [
        {
          "internalType": "uint256",
          "name": "",
          "type": "uint256"
        }
      ],
      "stateMutability": "view",
      "type": "function"
    },
    {
      "inputs": [],
      "name": "bigBoss",
      "outputs": [
        {
          "internalType": "string",
          "name": "name",
          "type": "string"
        },
        {
          "internalType": "string",
          "name": "imageURI",
          "type": "string"
        },
        {
          "internalType": "uint256",
          "name": "hp",
          "type": "uint256"
        },
        {
          "internalType": "uint256",
          "name": "maxHP",
          "type": "uint256"
        },
        {
          "internalType": "uint256",
          "name": "attackDamage",
          "type": "uint256"
        }
      ],
      "stateMutability": "view",
      "type": "function"
    },
    {
      "inputs": [],
      "name": "checkIfUserHasNFT",
      "outputs": [
        {
          "components": [
            {
              "internalType": "address",
              "name": "sender",
              "type": "address"
            },
            {
              "internalType": "uint256",
              "name": "characterIndex",
              "type": "uint256"
            },
            {
              "internalType": "string",
              "name": "name",
              "type": "string"
            },
            {
              "internalType": "string",
              "name": "imageURI",
              "type": "string"
            },
            {
              "internalType": "uint256",
              "name": "hp",
              "type": "uint256"
            },
            {
              "internalType": "uint256",
              "name": "maxHP",
              "type": "uint256"
            },
            {
              "internalType": "uint256",
              "name": "attackDamage",
              "type": "uint256"
            },
            {
              "internalType": "uint256",
              "name": "damageDone",
              "type": "uint256"
            }
          ],
          "internalType": "struct MyEpicGame.CharacterAttributes",
          "name": "",
          "type": "tuple"
        }
      ],
      "stateMutability": "view",
      "type": "function"
    },
    {
      "inputs": [],
      "name": "getAllDefaultCharacters",
      "outputs": [
        {
          "components": [
            {
              "internalType": "address",
              "name": "sender",
              "type": "address"
            },
            {
              "internalType": "uint256",
              "name": "characterIndex",
              "type": "uint256"
            },
            {
              "internalType": "string",
              "name": "name",
              "type": "string"
            },
            {
              "internalType": "string",
              "name": "imageURI",
              "type": "string"
            },
            {
              "internalType": "uint256",
              "name": "hp",
              "type": "uint256"
            },
            {
              "internalType": "uint256",
              "name": "maxHP",
              "type": "uint256"
            },
            {
              "internalType": "uint256",
              "name": "attackDamage",
              "type": "uint256"
            },
            {
              "internalType": "uint256",
              "name": "damageDone",
              "type": "uint256"
            }
          ],
          "internalType": "struct MyEpicGame.CharacterAttributes[]",
          "name": "",
          "type": "tuple[]"
        }
      ],
      "stateMutability": "view",
      "type": "function"
    },
    {
      "inputs": [],
      "name": "getAllPlayersInGame",
      "outputs": [
        {
          "components": [
            {
              "internalType": "address",
              "name": "sender",
              "type": "address"
            },
            {
              "internalType": "uint256",
              "name": "characterIndex",
              "type": "uint256"
            },
            {
              "internalType": "string",
              "name": "name",
              "type": "string"
            },
            {
              "internalType": "string",
              "name": "imageURI",
              "type": "string"
            },
            {
              "internalType": "uint256",
              "name": "hp",
              "type": "uint256"
            },
            {
              "internalType": "uint256",
              "name": "maxHP",
              "type": "uint256"
            },
            {
              "internalType": "uint256",
              "name": "attackDamage",
              "type": "uint256"
            },
            {
              "internalType": "uint256",
              "name": "damageDone",
              "type": "uint256"
            }
          ],
          "internalType": "struct MyEpicGame.CharacterAttributes[]",
          "name": "",
          "type": "tuple[]"
        }
      ],
      "stateMutability": "view",
      "type": "function"
    },
    {
      "inputs": [
        {
          "internalType": "uint256",
          "name": "tokenId",
          "type": "uint256"
        }
      ],
      "name": "getApproved",
      "outputs": [
        {
          "internalType": "address",
          "name": "",
          "type": "address"
        }
      ],
      "stateMutability": "view",
      "type": "function"
    },
    {
      "inputs": [],
      "name": "getBigBoss",
      "outputs": [
        {
          "components": [
            {
              "internalType": "string",
              "name": "name",
              "type": "string"
            },
            {
              "internalType": "string",
              "name": "imageURI",
              "type": "string"
            },
            {
              "internalType": "uint256",
              "name": "hp",
              "type": "uint256"
            },
            {
              "internalType": "uint256",
              "name": "maxHP",
              "type": "uint256"
            },
            {
              "internalType": "uint256",
              "name": "attackDamage",
              "type": "uint256"
            }
          ],
          "internalType": "struct MyEpicGame.BigBoss",
          "name": "",
          "type": "tuple"
        }
      ],
      "stateMutability": "view",
      "type": "function"
    },
    {
      "inputs": [],
      "name": "getRandomNumber",
      "outputs": [
        {
          "internalType": "uint256",
          "name": "",
          "type": "uint256"
        }
      ],
      "stateMutability": "view",
      "type": "function"
    },
    {
      "inputs": [],
      "name": "getRandomNumberTest",
      "outputs": [
        {
          "internalType": "uint256",
          "name": "",
          "type": "uint256"
        }
      ],
      "stateMutability": "view",
      "type": "function"
    },
    {
      "inputs": [
        {
          "internalType": "address",
          "name": "owner",
          "type": "address"
        },
        {
          "internalType": "address",
          "name": "operator",
          "type": "address"
        }
      ],
      "name": "isApprovedForAll",
      "outputs": [
        {
          "internalType": "bool",
          "name": "",
          "type": "bool"
        }
      ],
      "stateMutability": "view",
      "type": "function"
    },
    {
      "inputs": [
        {
          "internalType": "uint256",
          "name": "_characterIndex",
          "type": "uint256"
        }
      ],
      "name": "mintCharacterNFT",
      "outputs": [],
      "stateMutability": "nonpayable",
      "type": "function"
    },
    {
      "inputs": [],
      "name": "name",
      "outputs": [
        {
          "internalType": "string",
          "name": "",
          "type": "string"
        }
      ],
      "stateMutability": "view",
      "type": "function"
    },
    {
      "inputs": [
        {
          "internalType": "uint256",
          "name": "",
          "type": "uint256"
        }
      ],
      "name": "nftHolderAttributes",
      "outputs": [
        {
          "internalType": "address",
          "name": "sender",
          "type": "address"
        },
        {
          "internalType": "uint256",
          "name": "characterIndex",
          "type": "uint256"
        },
        {
          "internalType": "string",
          "name": "name",
          "type": "string"
        },
        {
          "internalType": "string",
          "name": "imageURI",
          "type": "string"
        },
        {
          "internalType": "uint256",
          "name": "hp",
          "type": "uint256"
        },
        {
          "internalType": "uint256",
          "name": "maxHP",
          "type": "uint256"
        },
        {
          "internalType": "uint256",
          "name": "attackDamage",
          "type": "uint256"
        },
        {
          "internalType": "uint256",
          "name": "damageDone",
          "type": "uint256"
        }
      ],
      "stateMutability": "view",
      "type": "function"
    },
    {
      "inputs": [
        {
          "internalType": "address",
          "name": "",
          "type": "address"
        }
      ],
      "name": "nftHolders",
      "outputs": [
        {
          "internalType": "uint256",
          "name": "",
          "type": "uint256"
        }
      ],
      "stateMutability": "view",
      "type": "function"
    },
    {
      "inputs": [
        {
          "internalType": "uint256",
          "name": "tokenId",
          "type": "uint256"
        }
      ],
      "name": "ownerOf",
      "outputs": [
        {
          "internalType": "address",
          "name": "",
          "type": "address"
        }
      ],
      "stateMutability": "view",
      "type": "function"
    },
    {
      "inputs": [
        {
          "internalType": "uint256",
          "name": "requestId",
          "type": "uint256"
        },
        {
          "internalType": "uint256[]",
          "name": "randomWords",
          "type": "uint256[]"
        }
      ],
      "name": "rawFulfillRandomWords",
      "outputs": [],
      "stateMutability": "nonpayable",
      "type": "function"
    },
    {
      "inputs": [],
      "name": "requestRandomWords",
      "outputs": [],
      "stateMutability": "nonpayable",
      "type": "function"
    },
    {
      "inputs": [
        {
          "internalType": "uint256",
          "name": "",
          "type": "uint256"
        }
      ],
      "name": "s_randomWords",
      "outputs": [
        {
          "internalType": "uint256",
          "name": "",
          "type": "uint256"
        }
      ],
      "stateMutability": "view",
      "type": "function"
    },
    {
      "inputs": [],
      "name": "s_requestId",
      "outputs": [
        {
          "internalType": "uint256",
          "name": "",
          "type": "uint256"
        }
      ],
      "stateMutability": "view",
      "type": "function"
    },
    {
      "inputs": [
        {
          "internalType": "address",
          "name": "from",
          "type": "address"
        },
        {
          "internalType": "address",
          "name": "to",
          "type": "address"
        },
        {
          "internalType": "uint256",
          "name": "tokenId",
          "type": "uint256"
        }
      ],
      "name": "safeTransferFrom",
      "outputs": [],
      "stateMutability": "nonpayable",
      "type": "function"
    },
    {
      "inputs": [
        {
          "internalType": "address",
          "name": "from",
          "type": "address"
        },
        {
          "internalType": "address",
          "name": "to",
          "type": "address"
        },
        {
          "internalType": "uint256",
          "name": "tokenId",
          "type": "uint256"
        },
        {
          "internalType": "bytes",
          "name": "data",
          "type": "bytes"
        }
      ],
      "name": "safeTransferFrom",
      "outputs": [],
      "stateMutability": "nonpayable",
      "type": "function"
    },
    {
      "inputs": [
        {
          "internalType": "address",
          "name": "operator",
          "type": "address"
        },
        {
          "internalType": "bool",
          "name": "approved",
          "type": "bool"
        }
      ],
      "name": "setApprovalForAll",
      "outputs": [],
      "stateMutability": "nonpayable",
      "type": "function"
    },
    {
      "inputs": [
        {
          "internalType": "bytes4",
          "name": "interfaceId",
          "type": "bytes4"
        }
      ],
      "name": "supportsInterface",
      "outputs": [
        {
          "internalType": "bool",
          "name": "",
          "type": "bool"
        }
      ],
      "stateMutability": "view",
      "type": "function"
    },
    {
      "inputs": [],
      "name": "symbol",
      "outputs": [
        {
          "internalType": "string",
          "name": "",
          "type": "string"
        }
      ],
      "stateMutability": "view",
      "type": "function"
    },
    {
      "inputs": [
        {
          "internalType": "uint256",
          "name": "_tokenId",
          "type": "uint256"
        }
      ],
      "name": "tokenURI",
      "outputs": [
        {
          "internalType": "string",
          "name": "",
          "type": "string"
        }
      ],
      "stateMutability": "view",
      "type": "function"
    },
    {
      "inputs": [
        {
          "internalType": "address",
          "name": "from",
          "type": "address"
        },
        {
          "internalType": "address",
          "name": "to",
          "type": "address"
        },
        {
          "internalType": "uint256",
          "name": "tokenId",
          "type": "uint256"
        }
      ],
      "name": "transferFrom",
      "outputs": [],
      "stateMutability": "nonpayable",
      "type": "function"
    }
  ],
  "bytecode": "0x60a0604052732ca8e0c643bde4c2e08ab1fa0da3401adad7734d601160006101000a81548173ffffffffffffffffffffffffffffffffffffffff021916908373ffffffffffffffffffffffffffffffffffffffff1602179055507f79d3d8832d904592c0bf9818b621522c988bb8b0c05cdc3b15aea1b6e8db0c1560001b601255620186a0601360006101000a81548163ffffffff021916908363ffffffff1602179055506003601360046101000a81548161ffff021916908361ffff1602179055506002601360066101000a81548163ffffffff021916908363ffffffff160217905550348015620000f157600080fd5b506040516200684f3803806200684f833981810160405281019062000117919062000b6b565b601160009054906101000a900473ffffffffffffffffffffffffffffffffffffffff166040518060400160405280600f81526020017f4461726b77696e67204e696768747300000000000000000000000000000000008152506040518060400160405280600781526020017f42415457494e47000000000000000000000000000000000000000000000000008152508160009080519060200190620001be92919062000892565b508060019080519060200190620001d792919062000892565b5050508073ffffffffffffffffffffffffffffffffffffffff1660808173ffffffffffffffffffffffffffffffffffffffff1660601b81525050506040518060a0016040528086815260200185815260200184815260200184815260200183815250600a60008201518160000190805190602001906200025992919062000892565b5060208201518160010190805190602001906200027892919062000892565b5060408201518160020155606082015181600301556080820151816004015590505060005b8951811015620006b35760086040518061010001604052803373ffffffffffffffffffffffffffffffffffffffff1681526020018381526020018c8481518110620002ed57620002ec62000ffd565b5b602002602001015181526020018b848151811062000310576200030f62000ffd565b5b602002602001015181526020018a848151811062000333576200033262000ffd565b5b602002602001015181526020018a848151811062000356576200035562000ffd565b5b6020026020010151815260200189848151811062000379576200037862000ffd565b5b602002602001015181526020016000815250908060018154018082558091505060019003906000526020600020906008020160009091909190915060008201518160000160006101000a81548173ffffffffffffffffffffffffffffffffffffffff021916908373ffffffffffffffffffffffffffffffffffffffff1602179055506020820151816001015560408201518160020190805190602001906200042392919062000892565b5060608201518160030190805190602001906200044292919062000892565b506080820151816004015560a0820151816005015560c0820151816006015560e08201518160070155505060006008828154811062000486576200048562000ffd565b5b9060005260206000209060080201604051806101000160405290816000820160009054906101000a900473ffffffffffffffffffffffffffffffffffffffff1673ffffffffffffffffffffffffffffffffffffffff1673ffffffffffffffffffffffffffffffffffffffff16815260200160018201548152602001600282018054620005129062000ee5565b80601f0160208091040260200160405190810160405280929190818152602001828054620005409062000ee5565b8015620005915780601f10620005655761010080835404028352916020019162000591565b820191906000526020600020905b8154815290600101906020018083116200057357829003601f168201915b50505050508152602001600382018054620005ac9062000ee5565b80601f0160208091040260200160405190810160405280929190818152602001828054620005da9062000ee5565b80156200062b5780601f10620005ff576101008083540402835291602001916200062b565b820191906000526020600020905b8154815290600101906020018083116200060d57829003601f168201915b5050505050815260200160048201548152602001600582015481526020016006820154815260200160078201548152505090506200069c6040518060600160405280602581526020016200682a60259139826040015183608001518460600151620007a760201b6200252b1760201c565b508080620006aa9062000f51565b9150506200029d565b50601160009054906101000a900473ffffffffffffffffffffffffffffffffffffffff16601060006101000a81548173ffffffffffffffffffffffffffffffffffffffff021916908373ffffffffffffffffffffffffffffffffffffffff16021790555033601660006101000a81548173ffffffffffffffffffffffffffffffffffffffff021916908373ffffffffffffffffffffffffffffffffffffffff16021790555080601060146101000a81548167ffffffffffffffff021916908367ffffffffffffffff1602179055506200079860066200085360201b620025cd1760201c565b505050505050505050620010b9565b6200084d84848484604051602401620007c4949392919062000d56565b6040516020818303038152906040527f8d142cdd000000000000000000000000000000000000000000000000000000007bffffffffffffffffffffffffffffffffffffffffffffffffffffffff19166020820180517bffffffffffffffffffffffffffffffffffffffffffffffffffffffff83818316178352505050506200086960201b60201c565b50505050565b6001816000016000828254019250508190555050565b60008151905060006a636f6e736f6c652e6c6f679050602083016000808483855afa5050505050565b828054620008a09062000ee5565b90600052602060002090601f016020900481019282620008c4576000855562000910565b82601f10620008df57805160ff191683800117855562000910565b8280016001018555821562000910579182015b828111156200090f578251825591602001919060010190620008f2565b5b5090506200091f919062000923565b5090565b5b808211156200093e57600081600090555060010162000924565b5090565b600062000959620009538462000de1565b62000db8565b905080838252602082019050828560208602820111156200097f576200097e62001060565b5b60005b85811015620009d457815167ffffffffffffffff811115620009a957620009a86200105b565b5b808601620009b8898262000b0a565b8552602085019450602084019350505060018101905062000982565b5050509392505050565b6000620009f5620009ef8462000e10565b62000db8565b9050808382526020820190508285602086028201111562000a1b5762000a1a62001060565b5b60005b8581101562000a4f578162000a34888262000b3d565b84526020840193506020830192505060018101905062000a1e565b5050509392505050565b600062000a7062000a6a8462000e3f565b62000db8565b90508281526020810184848401111562000a8f5762000a8e62001065565b5b62000a9c84828562000eaf565b509392505050565b600082601f83011262000abc5762000abb6200105b565b5b815162000ace84826020860162000942565b91505092915050565b600082601f83011262000aef5762000aee6200105b565b5b815162000b01848260208601620009de565b91505092915050565b600082601f83011262000b225762000b216200105b565b5b815162000b3484826020860162000a59565b91505092915050565b60008151905062000b4e8162001085565b92915050565b60008151905062000b65816200109f565b92915050565b60008060008060008060008060006101208a8c03121562000b915762000b906200106f565b5b60008a015167ffffffffffffffff81111562000bb25762000bb16200106a565b5b62000bc08c828d0162000aa4565b99505060208a015167ffffffffffffffff81111562000be45762000be36200106a565b5b62000bf28c828d0162000aa4565b98505060408a015167ffffffffffffffff81111562000c165762000c156200106a565b5b62000c248c828d0162000ad7565b97505060608a015167ffffffffffffffff81111562000c485762000c476200106a565b5b62000c568c828d0162000ad7565b96505060808a015167ffffffffffffffff81111562000c7a5762000c796200106a565b5b62000c888c828d0162000b0a565b95505060a08a015167ffffffffffffffff81111562000cac5762000cab6200106a565b5b62000cba8c828d0162000b0a565b94505060c062000ccd8c828d0162000b3d565b93505060e062000ce08c828d0162000b3d565b92505061010062000cf48c828d0162000b54565b9150509295985092959850929598565b600062000d118262000e75565b62000d1d818562000e80565b935062000d2f81856020860162000eaf565b62000d3a8162001074565b840191505092915050565b62000d508162000e91565b82525050565b6000608082019050818103600083015262000d72818762000d04565b9050818103602083015262000d88818662000d04565b905062000d99604083018562000d45565b818103606083015262000dad818462000d04565b905095945050505050565b600062000dc462000dd7565b905062000dd2828262000f1b565b919050565b6000604051905090565b600067ffffffffffffffff82111562000dff5762000dfe6200102c565b5b602082029050602081019050919050565b600067ffffffffffffffff82111562000e2e5762000e2d6200102c565b5b602082029050602081019050919050565b600067ffffffffffffffff82111562000e5d5762000e5c6200102c565b5b62000e688262001074565b9050602081019050919050565b600081519050919050565b600082825260208201905092915050565b6000819050919050565b600067ffffffffffffffff82169050919050565b60005b8381101562000ecf57808201518184015260208101905062000eb2565b8381111562000edf576000848401525b50505050565b6000600282049050600182168062000efe57607f821691505b6020821081141562000f155762000f1462000fce565b5b50919050565b62000f268262001074565b810181811067ffffffffffffffff8211171562000f485762000f476200102c565b5b80604052505050565b600062000f5e8262000e91565b91507fffffffffffffffffffffffffffffffffffffffffffffffffffffffffffffffff82141562000f945762000f9362000f9f565b5b600182019050919050565b7f4e487b7100000000000000000000000000000000000000000000000000000000600052601160045260246000fd5b7f4e487b7100000000000000000000000000000000000000000000000000000000600052602260045260246000fd5b7f4e487b7100000000000000000000000000000000000000000000000000000000600052603260045260246000fd5b7f4e487b7100000000000000000000000000000000000000000000000000000000600052604160045260246000fd5b600080fd5b600080fd5b600080fd5b600080fd5b600080fd5b6000601f19601f8301169050919050565b620010908162000e91565b81146200109c57600080fd5b50565b620010aa8162000e9b565b8114620010b657600080fd5b50565b60805160601c61574b620010df600039600081816109b80152610a0c015261574b6000f3fe608060405234801561001057600080fd5b50600436106101c45760003560e01c8063a22cb465116100f9578063dbdff2c111610097578063e985e9c511610071578063e985e9c5146104ee578063f6eaffc81461051e578063f8b81ef71461054e578063f9b8f4cb1461056a576101c4565b8063dbdff2c1146104a8578063e0c86289146104c6578063e89e106a146104d0576101c4565b8063b953084e116100d3578063b953084e14610432578063c87b56dd14610450578063c8cf27f414610480578063d4f24c5b1461049e576101c4565b8063a22cb465146103d8578063a9c32679146103f4578063b88d4fde14610416576101c4565b806342842e0e1161016657806370a082311161014057806370a08231146103235780637df124a11461035357806395d89b411461038357806398da4c95146103a1576101c4565b806342842e0e146102b95780636352211e146102d557806369fbc27c14610305576101c4565b8063081812fc116101a2578063081812fc14610235578063095ea7b3146102655780631fe543e31461028157806323b872dd1461029d576101c4565b806301ffc9a7146101c95780630665f961146101f957806306fdde0314610217575b600080fd5b6101e360048036038101906101de9190613a43565b610588565b6040516101f09190614743565b60405180910390f35b61020161066a565b60405161020e9190614a6c565b60405180910390f35b61021f6107c6565b60405161022c91906147b1565b60405180910390f35b61024f600480360381019061024a9190613a9d565b610858565b60405161025c919061452f565b60405180910390f35b61027f600480360381019061027a9190613a03565b61089e565b005b61029b60048036038101906102969190613af7565b6109b6565b005b6102b760048036038101906102b291906138ed565b610a76565b005b6102d360048036038101906102ce91906138ed565b610ad6565b005b6102ef60048036038101906102ea9190613a9d565b610af6565b6040516102fc919061452f565b60405180910390f35b61030d610ba8565b60405161031a9190614ab0565b60405180910390f35b61033d60048036038101906103389190613880565b610bc3565b60405161034a9190614ab0565b60405180910390f35b61036d60048036038101906103689190613880565b610c7b565b60405161037a9190614ab0565b60405180910390f35b61038b610c93565b60405161039891906147b1565b60405180910390f35b6103bb60048036038101906103b69190613a9d565b610d25565b6040516103cf9897969594939291906145ef565b60405180910390f35b6103f260048036038101906103ed91906139c3565b610e9d565b005b6103fc610eb3565b60405161040d95949392919061482d565b60405180910390f35b610430600480360381019061042b9190613940565b610fe7565b005b61043a611049565b6040516104479190614721565b60405180910390f35b61046a60048036038101906104659190613a9d565b611255565b60405161047791906147b1565b60405180910390f35b6104886114e5565b6040516104959190614a8e565b60405180910390f35b6104a661171e565b005b6104b0611c1c565b6040516104bd9190614ab0565b60405180910390f35b6104ce611c37565b005b6104d8611d9a565b6040516104e59190614ab0565b60405180910390f35b610508600480360381019061050391906138ad565b611da0565b6040516105159190614743565b60405180910390f35b61053860048036038101906105339190613a9d565b611e34565b6040516105459190614ab0565b60405180910390f35b61056860048036038101906105639190613a9d565b611e58565b005b61057261231f565b60405161057f9190614721565b60405180910390f35b60007f80ac58cd000000000000000000000000000000000000000000000000000000007bffffffffffffffffffffffffffffffffffffffffffffffffffffffff1916827bffffffffffffffffffffffffffffffffffffffffffffffffffffffff1916148061065357507f5b5e139f000000000000000000000000000000000000000000000000000000007bffffffffffffffffffffffffffffffffffffffffffffffffffffffff1916827bffffffffffffffffffffffffffffffffffffffffffffffffffffffff1916145b806106635750610662826125e3565b5b9050919050565b6106726134ad565b600a6040518060a001604052908160008201805461068f90614e7b565b80601f01602080910402602001604051908101604052809291908181526020018280546106bb90614e7b565b80156107085780601f106106dd57610100808354040283529160200191610708565b820191906000526020600020905b8154815290600101906020018083116106eb57829003601f168201915b5050505050815260200160018201805461072190614e7b565b80601f016020809104026020016040519081016040528092919081815260200182805461074d90614e7b565b801561079a5780601f1061076f5761010080835404028352916020019161079a565b820191906000526020600020905b81548152906001019060200180831161077d57829003601f168201915b505050505081526020016002820154815260200160038201548152602001600482015481525050905090565b6060600080546107d590614e7b565b80601f016020809104026020016040519081016040528092919081815260200182805461080190614e7b565b801561084e5780601f106108235761010080835404028352916020019161084e565b820191906000526020600020905b81548152906001019060200180831161083157829003601f168201915b5050505050905090565b60006108638261264d565b6004600083815260200190815260200160002060009054906101000a900473ffffffffffffffffffffffffffffffffffffffff169050919050565b60006108a982610af6565b90508073ffffffffffffffffffffffffffffffffffffffff168373ffffffffffffffffffffffffffffffffffffffff16141561091a576040517f08c379a000000000000000000000000000000000000000000000000000000000815260040161091190614a0c565b60405180910390fd5b8073ffffffffffffffffffffffffffffffffffffffff16610939612698565b73ffffffffffffffffffffffffffffffffffffffff161480610968575061096781610962612698565b611da0565b5b6109a7576040517f08c379a000000000000000000000000000000000000000000000000000000000815260040161099e906149ac565b60405180910390fd5b6109b183836126a0565b505050565b7f000000000000000000000000000000000000000000000000000000000000000073ffffffffffffffffffffffffffffffffffffffff163373ffffffffffffffffffffffffffffffffffffffff1614610a6857337f00000000000000000000000000000000000000000000000000000000000000006040517f1cf993f4000000000000000000000000000000000000000000000000000000008152600401610a5f92919061454a565b60405180910390fd5b610a728282612759565b5050565b610a87610a81612698565b82612796565b610ac6576040517f08c379a0000000000000000000000000000000000000000000000000000000008152600401610abd90614a4c565b60405180910390fd5b610ad183838361282b565b505050565b610af183838360405180602001604052806000815250610fe7565b505050565b6000806002600084815260200190815260200160002060009054906101000a900473ffffffffffffffffffffffffffffffffffffffff169050600073ffffffffffffffffffffffffffffffffffffffff168173ffffffffffffffffffffffffffffffffffffffff161415610b9f576040517f08c379a0000000000000000000000000000000000000000000000000000000008152600401610b96906149ec565b60405180910390fd5b80915050919050565b600080600a601754610bba9190614f5b565b90508091505090565b60008073ffffffffffffffffffffffffffffffffffffffff168273ffffffffffffffffffffffffffffffffffffffff161415610c34576040517f08c379a0000000000000000000000000000000000000000000000000000000008152600401610c2b9061498c565b60405180910390fd5b600360008373ffffffffffffffffffffffffffffffffffffffff1673ffffffffffffffffffffffffffffffffffffffff168152602001908152602001600020549050919050565b600f6020528060005260406000206000915090505481565b606060018054610ca290614e7b565b80601f0160208091040260200160405190810160405280929190818152602001828054610cce90614e7b565b8015610d1b5780601f10610cf057610100808354040283529160200191610d1b565b820191906000526020600020905b815481529060010190602001808311610cfe57829003601f168201915b5050505050905090565b60096020528060005260406000206000915090508060000160009054906101000a900473ffffffffffffffffffffffffffffffffffffffff1690806001015490806002018054610d7490614e7b565b80601f0160208091040260200160405190810160405280929190818152602001828054610da090614e7b565b8015610ded5780601f10610dc257610100808354040283529160200191610ded565b820191906000526020600020905b815481529060010190602001808311610dd057829003601f168201915b505050505090806003018054610e0290614e7b565b80601f0160208091040260200160405190810160405280929190818152602001828054610e2e90614e7b565b8015610e7b5780601f10610e5057610100808354040283529160200191610e7b565b820191906000526020600020905b815481529060010190602001808311610e5e57829003601f168201915b5050505050908060040154908060050154908060060154908060070154905088565b610eaf610ea8612698565b8383612a92565b5050565b600a806000018054610ec490614e7b565b80601f0160208091040260200160405190810160405280929190818152602001828054610ef090614e7b565b8015610f3d5780601f10610f1257610100808354040283529160200191610f3d565b820191906000526020600020905b815481529060010190602001808311610f2057829003601f168201915b505050505090806001018054610f5290614e7b565b80601f0160208091040260200160405190810160405280929190818152602001828054610f7e90614e7b565b8015610fcb5780601f10610fa057610100808354040283529160200191610fcb565b820191906000526020600020905b815481529060010190602001808311610fae57829003601f168201915b5050505050908060020154908060030154908060040154905085565b610ff8610ff2612698565b83612796565b611037576040517f08c379a000000000000000000000000000000000000000000000000000000000815260040161102e90614a4c565b60405180910390fd5b61104384848484612bff565b50505050565b60606008805480602002602001604051908101604052809291908181526020016000905b8282101561124c5783829060005260206000209060080201604051806101000160405290816000820160009054906101000a900473ffffffffffffffffffffffffffffffffffffffff1673ffffffffffffffffffffffffffffffffffffffff1673ffffffffffffffffffffffffffffffffffffffff1681526020016001820154815260200160028201805461110190614e7b565b80601f016020809104026020016040519081016040528092919081815260200182805461112d90614e7b565b801561117a5780601f1061114f5761010080835404028352916020019161117a565b820191906000526020600020905b81548152906001019060200180831161115d57829003601f168201915b5050505050815260200160038201805461119390614e7b565b80601f01602080910402602001604051908101604052809291908181526020018280546111bf90614e7b565b801561120c5780601f106111e15761010080835404028352916020019161120c565b820191906000526020600020905b8154815290600101906020018083116111ef57829003601f168201915b505050505081526020016004820154815260200160058201548152602001600682015481526020016007820154815250508152602001906001019061106d565b50505050905090565b6060600060096000848152602001908152602001600020604051806101000160405290816000820160009054906101000a900473ffffffffffffffffffffffffffffffffffffffff1673ffffffffffffffffffffffffffffffffffffffff1673ffffffffffffffffffffffffffffffffffffffff168152602001600182015481526020016002820180546112e890614e7b565b80601f016020809104026020016040519081016040528092919081815260200182805461131490614e7b565b80156113615780601f1061133657610100808354040283529160200191611361565b820191906000526020600020905b81548152906001019060200180831161134457829003601f168201915b5050505050815260200160038201805461137a90614e7b565b80601f01602080910402602001604051908101604052809291908181526020018280546113a690614e7b565b80156113f35780601f106113c8576101008083540402835291602001916113f3565b820191906000526020600020905b8154815290600101906020018083116113d657829003601f168201915b50505050508152602001600482015481526020016005820154815260200160068201548152602001600782015481525050905060006114358260800151612c5b565b905060006114468360a00151612c5b565b905060006114578460c00151612c5b565b905060006114688560e00151612c5b565b905060006114b0866040015161147d8a612c5b565b88606001518888888860405160200161149c9796959493929190614450565b604051602081830303815290604052612dbc565b90506000816040516020016114c5919061450d565b604051602081830303815290604052905080975050505050505050919050565b6114ed6134dc565b6000600f60003373ffffffffffffffffffffffffffffffffffffffff1673ffffffffffffffffffffffffffffffffffffffff168152602001908152602001600020549050600081111561170d5760096000828152602001908152602001600020604051806101000160405290816000820160009054906101000a900473ffffffffffffffffffffffffffffffffffffffff1673ffffffffffffffffffffffffffffffffffffffff1673ffffffffffffffffffffffffffffffffffffffff168152602001600182015481526020016002820180546115c990614e7b565b80601f01602080910402602001604051908101604052809291908181526020018280546115f590614e7b565b80156116425780601f1061161757610100808354040283529160200191611642565b820191906000526020600020905b81548152906001019060200180831161162557829003601f168201915b5050505050815260200160038201805461165b90614e7b565b80601f016020809104026020016040519081016040528092919081815260200182805461168790614e7b565b80156116d45780601f106116a9576101008083540402835291602001916116d4565b820191906000526020600020905b8154815290600101906020018083116116b757829003601f168201915b5050505050815260200160048201548152602001600582015481526020016006820154815260200160078201548152505091505061171b565b6117156134dc565b80925050505b90565b6000600f60003373ffffffffffffffffffffffffffffffffffffffff1673ffffffffffffffffffffffffffffffffffffffff16815260200190815260200160002054905060006009600083815260200190815260200160002090506008601754141561179e57600281600601546117959190614cd1565b81600601819055505b60008160040154116117e5576040517f08c379a00000000000000000000000000000000000000000000000000000000081526004016117dc9061492c565b60405180910390fd5b6000600a600201541161182d576040517f08c379a000000000000000000000000000000000000000000000000000000000815260040161182490614a2c565b60405180910390fd5b8060060154600a60020154101561186e57600a600201548160070160008282546118579190614c4a565b925050819055506000600a600201819055506118ae565b80600601548160070160008282546118869190614c4a565b925050819055508060060154600a60020160008282546118a69190614d2b565b925050819055505b600a60040154816004015410156118ce57600081600401819055506118ef565b600a600401548160040160008282546118e79190614d2b565b925050819055505b60005b600780549050811015611b6c573373ffffffffffffffffffffffffffffffffffffffff166007828154811061192a57611929615019565b5b906000526020600020906008020160000160009054906101000a900473ffffffffffffffffffffffffffffffffffffffff1673ffffffffffffffffffffffffffffffffffffffff161415611b5957600082600401541415611a58576007818154811061199957611998615019565b5b9060005260206000209060080201600080820160006101000a81549073ffffffffffffffffffffffffffffffffffffffff021916905560018201600090556002820160006119e79190613537565b6003820160006119f79190613537565b600482016000905560058201600090556006820160009055600782016000905550507f8b348e519319ce056b18ae43c2239a2f2a8973595c0cf01aded937707d44c66d336007604051611a4b9291906145bf565b60405180910390a1611b58565b8160078281548110611a6d57611a6c615019565b5b90600052602060002090600802016000820160009054906101000a900473ffffffffffffffffffffffffffffffffffffffff168160000160006101000a81548173ffffffffffffffffffffffffffffffffffffffff021916908373ffffffffffffffffffffffffffffffffffffffff160217905550600182015481600101556002820181600201908054611b0090614e7b565b611b0b929190613577565b506003820181600301908054611b2090614e7b565b611b2b929190613577565b50600482015481600401556005820154816005015560068201548160060155600782015481600701559050505b5b8080611b6490614f12565b9150506118f2565b5060086017541415611b925760028160060154611b899190614ca0565b81600601819055505b7fc859f04dadf560b8f9dd8e4a7327ec478e58b6a681349f89f64496a23c9c25d2601754604051611bc39190614acb565b60405180910390a17f93e52d5efffa697fd9ea49a98f3868aadfe91fe7dd670a4784d212c5fba5297633600a60020154836004015484600701546007604051611c109594939291906146c7565b60405180910390a15050565b600080600a601754611c2e9190614f5b565b90508091505090565b601660009054906101000a900473ffffffffffffffffffffffffffffffffffffffff1673ffffffffffffffffffffffffffffffffffffffff163373ffffffffffffffffffffffffffffffffffffffff1614611c9157600080fd5b601060009054906101000a900473ffffffffffffffffffffffffffffffffffffffff1673ffffffffffffffffffffffffffffffffffffffff16635d3b1d30601254601060149054906101000a900467ffffffffffffffff16601360049054906101000a900461ffff16601360009054906101000a900463ffffffff16601360069054906101000a900463ffffffff166040518663ffffffff1660e01b8152600401611d4095949392919061475e565b602060405180830381600087803b158015611d5a57600080fd5b505af1158015611d6e573d6000803e3d6000fd5b505050506040513d601f19601f82011682018060405250810190611d929190613aca565b601581905550565b60155481565b6000600560008473ffffffffffffffffffffffffffffffffffffffff1673ffffffffffffffffffffffffffffffffffffffff16815260200190815260200160002060008373ffffffffffffffffffffffffffffffffffffffff1673ffffffffffffffffffffffffffffffffffffffff16815260200190815260200160002060009054906101000a900460ff16905092915050565b60148181548110611e4457600080fd5b906000526020600020016000915090505481565b6000611e646006612f54565b9050611e703382612f62565b6040518061010001604052803373ffffffffffffffffffffffffffffffffffffffff16815260200183815260200160088481548110611eb257611eb1615019565b5b90600052602060002090600802016002018054611ece90614e7b565b80601f0160208091040260200160405190810160405280929190818152602001828054611efa90614e7b565b8015611f475780601f10611f1c57610100808354040283529160200191611f47565b820191906000526020600020905b815481529060010190602001808311611f2a57829003601f168201915b5050505050815260200160088481548110611f6557611f64615019565b5b90600052602060002090600802016003018054611f8190614e7b565b80601f0160208091040260200160405190810160405280929190818152602001828054611fad90614e7b565b8015611ffa5780601f10611fcf57610100808354040283529160200191611ffa565b820191906000526020600020905b815481529060010190602001808311611fdd57829003601f168201915b505050505081526020016008848154811061201857612017615019565b5b90600052602060002090600802016004015481526020016008848154811061204357612042615019565b5b90600052602060002090600802016005015481526020016008848154811061206e5761206d615019565b5b906000526020600020906008020160060154815260200160008152506009600083815260200190815260200160002060008201518160000160006101000a81548173ffffffffffffffffffffffffffffffffffffffff021916908373ffffffffffffffffffffffffffffffffffffffff16021790555060208201518160010155604082015181600201908051906020019061210a929190613604565b506060820151816003019080519060200190612127929190613604565b506080820151816004015560a0820151816005015560c0820151816006015560e0820151816007015590505060076009600083815260200190815260200160002090806001815401808255809150506001900390600052602060002090600802016000909190919091506000820160009054906101000a900473ffffffffffffffffffffffffffffffffffffffff168160000160006101000a81548173ffffffffffffffffffffffffffffffffffffffff021916908373ffffffffffffffffffffffffffffffffffffffff16021790555060018201548160010155600282018160020190805461221690614e7b565b612221929190613577565b50600382018160030190805461223690614e7b565b612241929190613577565b5060048201548160040155600582015481600501556006820154816006015560078201548160070155505061228f6040518060600160405280602e81526020016156e8602e91398284612f80565b80600f60003373ffffffffffffffffffffffffffffffffffffffff1673ffffffffffffffffffffffffffffffffffffffff168152602001908152602001600020819055506122dd60066125cd565b7ff7ce6d45718f4d5553edc6316819886e91553095c70e36bced1baa5d3f5ee2263382846007604051612313949392919061467b565b60405180910390a15050565b60606007805480602002602001604051908101604052809291908181526020016000905b828210156125225783829060005260206000209060080201604051806101000160405290816000820160009054906101000a900473ffffffffffffffffffffffffffffffffffffffff1673ffffffffffffffffffffffffffffffffffffffff1673ffffffffffffffffffffffffffffffffffffffff168152602001600182015481526020016002820180546123d790614e7b565b80601f016020809104026020016040519081016040528092919081815260200182805461240390614e7b565b80156124505780601f1061242557610100808354040283529160200191612450565b820191906000526020600020905b81548152906001019060200180831161243357829003601f168201915b5050505050815260200160038201805461246990614e7b565b80601f016020809104026020016040519081016040528092919081815260200182805461249590614e7b565b80156124e25780601f106124b7576101008083540402835291602001916124e2565b820191906000526020600020905b8154815290600101906020018083116124c557829003601f168201915b5050505050815260200160048201548152602001600582015481526020016006820154815260200160078201548152505081526020019060010190612343565b50505050905090565b6125c78484848460405160240161254594939291906147d3565b6040516020818303038152906040527f8d142cdd000000000000000000000000000000000000000000000000000000007bffffffffffffffffffffffffffffffffffffffffffffffffffffffff19166020820180517bffffffffffffffffffffffffffffffffffffffffffffffffffffffff838183161783525050505061301f565b50505050565b6001816000016000828254019250508190555050565b60007f01ffc9a7000000000000000000000000000000000000000000000000000000007bffffffffffffffffffffffffffffffffffffffffffffffffffffffff1916827bffffffffffffffffffffffffffffffffffffffffffffffffffffffff1916149050919050565b61265681613048565b612695576040517f08c379a000000000000000000000000000000000000000000000000000000000815260040161268c906149ec565b60405180910390fd5b50565b600033905090565b816004600083815260200190815260200160002060006101000a81548173ffffffffffffffffffffffffffffffffffffffff021916908373ffffffffffffffffffffffffffffffffffffffff160217905550808273ffffffffffffffffffffffffffffffffffffffff1661271383610af6565b73ffffffffffffffffffffffffffffffffffffffff167f8c5be1e5ebec7d5bd14f71427d1e84f3dd0314c0f7b2291e5b200ac8c7c3b92560405160405180910390a45050565b8060008151811061276d5761276c615019565b5b6020026020010151601781905550806014908051906020019061279192919061368a565b505050565b6000806127a283610af6565b90508073ffffffffffffffffffffffffffffffffffffffff168473ffffffffffffffffffffffffffffffffffffffff1614806127e457506127e38185611da0565b5b8061282257508373ffffffffffffffffffffffffffffffffffffffff1661280a84610858565b73ffffffffffffffffffffffffffffffffffffffff16145b91505092915050565b8273ffffffffffffffffffffffffffffffffffffffff1661284b82610af6565b73ffffffffffffffffffffffffffffffffffffffff16146128a1576040517f08c379a0000000000000000000000000000000000000000000000000000000008152600401612898906148ec565b60405180910390fd5b600073ffffffffffffffffffffffffffffffffffffffff168273ffffffffffffffffffffffffffffffffffffffff161415612911576040517f08c379a00000000000000000000000000000000000000000000000000000000081526004016129089061494c565b60405180910390fd5b61291c8383836130b4565b6129276000826126a0565b6001600360008573ffffffffffffffffffffffffffffffffffffffff1673ffffffffffffffffffffffffffffffffffffffff16815260200190815260200160002060008282546129779190614d2b565b925050819055506001600360008473ffffffffffffffffffffffffffffffffffffffff1673ffffffffffffffffffffffffffffffffffffffff16815260200190815260200160002060008282546129ce9190614c4a565b92505081905550816002600083815260200190815260200160002060006101000a81548173ffffffffffffffffffffffffffffffffffffffff021916908373ffffffffffffffffffffffffffffffffffffffff160217905550808273ffffffffffffffffffffffffffffffffffffffff168473ffffffffffffffffffffffffffffffffffffffff167fddf252ad1be2c89b69c2b068fc378daa952ba7f163c4a11628f55a4df523b3ef60405160405180910390a4612a8d8383836130b9565b505050565b8173ffffffffffffffffffffffffffffffffffffffff168373ffffffffffffffffffffffffffffffffffffffff161415612b01576040517f08c379a0000000000000000000000000000000000000000000000000000000008152600401612af89061496c565b60405180910390fd5b80600560008573ffffffffffffffffffffffffffffffffffffffff1673ffffffffffffffffffffffffffffffffffffffff16815260200190815260200160002060008473ffffffffffffffffffffffffffffffffffffffff1673ffffffffffffffffffffffffffffffffffffffff16815260200190815260200160002060006101000a81548160ff0219169083151502179055508173ffffffffffffffffffffffffffffffffffffffff168373ffffffffffffffffffffffffffffffffffffffff167f17307eab39ab6107e8899845ad3d59bd9653f200f220920489ca2b5937696c3183604051612bf29190614743565b60405180910390a3505050565b612c0a84848461282b565b612c16848484846130be565b612c55576040517f08c379a0000000000000000000000000000000000000000000000000000000008152600401612c4c906148cc565b60405180910390fd5b50505050565b60606000821415612ca3576040518060400160405280600181526020017f30000000000000000000000000000000000000000000000000000000000000008152509050612db7565b600082905060005b60008214612cd5578080612cbe90614f12565b915050600a82612cce9190614ca0565b9150612cab565b60008167ffffffffffffffff811115612cf157612cf0615048565b5b6040519080825280601f01601f191660200182016040528015612d235781602001600182028036833780820191505090505b5090505b60008514612db057600182612d3c9190614d2b565b9150600a85612d4b9190614f5b565b6030612d579190614c4a565b60f81b818381518110612d6d57612d6c615019565b5b60200101907effffffffffffffffffffffffffffffffffffffffffffffffffffffffffffff1916908160001a905350600a85612da99190614ca0565b9450612d27565b8093505050505b919050565b60606000825190506000811415612de55760405180602001604052806000815250915050612f4f565b60006003600283612df69190614c4a565b612e009190614ca0565b6004612e0c9190614cd1565b90506000602082612e1d9190614c4a565b67ffffffffffffffff811115612e3657612e35615048565b5b6040519080825280601f01601f191660200182016040528015612e685781602001600182028036833780820191505090505b50905060006040518060600160405280604081526020016156a8604091399050600181016020830160005b86811015612f0c5760038101905062ffffff818a015116603f8160121c168401518060081b905060ff603f83600c1c1686015116810190508060081b905060ff603f8360061c1686015116810190508060081b905060ff603f831686015116810190508060e01b90508084526004840193505050612e93565b506003860660018114612f265760028114612f3657612f41565b613d3d60f01b6002830352612f41565b603d60f81b60018303525b508484525050819450505050505b919050565b600081600001549050919050565b612f7c828260405180602001604052806000815250613255565b5050565b61301a838383604051602401612f989392919061488e565b6040516020818303038152906040527f969cdd03000000000000000000000000000000000000000000000000000000007bffffffffffffffffffffffffffffffffffffffffffffffffffffffff19166020820180517bffffffffffffffffffffffffffffffffffffffffffffffffffffffff838183161783525050505061301f565b505050565b60008151905060006a636f6e736f6c652e6c6f679050602083016000808483855afa5050505050565b60008073ffffffffffffffffffffffffffffffffffffffff166002600084815260200190815260200160002060009054906101000a900473ffffffffffffffffffffffffffffffffffffffff1673ffffffffffffffffffffffffffffffffffffffff1614159050919050565b505050565b505050565b60006130df8473ffffffffffffffffffffffffffffffffffffffff166132b0565b15613248578373ffffffffffffffffffffffffffffffffffffffff1663150b7a02613108612698565b8786866040518563ffffffff1660e01b815260040161312a9493929190614573565b602060405180830381600087803b15801561314457600080fd5b505af192505050801561317557506040513d601f19601f820116820180604052508101906131729190613a70565b60015b6131f8573d80600081146131a5576040519150601f19603f3d011682016040523d82523d6000602084013e6131aa565b606091505b506000815114156131f0576040517f08c379a00000000000000000000000000000000000000000000000000000000081526004016131e7906148cc565b60405180910390fd5b805181602001fd5b63150b7a0260e01b7bffffffffffffffffffffffffffffffffffffffffffffffffffffffff1916817bffffffffffffffffffffffffffffffffffffffffffffffffffffffff19161491505061324d565b600190505b949350505050565b61325f83836132d3565b61326c60008484846130be565b6132ab576040517f08c379a00000000000000000000000000000000000000000000000000000000081526004016132a2906148cc565b60405180910390fd5b505050565b6000808273ffffffffffffffffffffffffffffffffffffffff163b119050919050565b600073ffffffffffffffffffffffffffffffffffffffff168273ffffffffffffffffffffffffffffffffffffffff161415613343576040517f08c379a000000000000000000000000000000000000000000000000000000000815260040161333a906149cc565b60405180910390fd5b61334c81613048565b1561338c576040517f08c379a00000000000000000000000000000000000000000000000000000000081526004016133839061490c565b60405180910390fd5b613398600083836130b4565b6001600360008473ffffffffffffffffffffffffffffffffffffffff1673ffffffffffffffffffffffffffffffffffffffff16815260200190815260200160002060008282546133e89190614c4a565b92505081905550816002600083815260200190815260200160002060006101000a81548173ffffffffffffffffffffffffffffffffffffffff021916908373ffffffffffffffffffffffffffffffffffffffff160217905550808273ffffffffffffffffffffffffffffffffffffffff16600073ffffffffffffffffffffffffffffffffffffffff167fddf252ad1be2c89b69c2b068fc378daa952ba7f163c4a11628f55a4df523b3ef60405160405180910390a46134a9600083836130b9565b5050565b6040518060a0016040528060608152602001606081526020016000815260200160008152602001600081525090565b604051806101000160405280600073ffffffffffffffffffffffffffffffffffffffff168152602001600081526020016060815260200160608152602001600081526020016000815260200160008152602001600081525090565b50805461354390614e7b565b6000825580601f106135555750613574565b601f01602090049060005260206000209081019061357391906136d7565b5b50565b82805461358390614e7b565b90600052602060002090601f0160209004810192826135a557600085556135f3565b82601f106135b657805485556135f3565b828001600101855582156135f357600052602060002091601f016020900482015b828111156135f25782548255916001019190600101906135d7565b5b50905061360091906136d7565b5090565b82805461361090614e7b565b90600052602060002090601f0160209004810192826136325760008555613679565b82601f1061364b57805160ff1916838001178555613679565b82800160010185558215613679579182015b8281111561367857825182559160200191906001019061365d565b5b50905061368691906136d7565b5090565b8280548282559060005260206000209081019282156136c6579160200282015b828111156136c55782518255916020019190600101906136aa565b5b5090506136d391906136d7565b5090565b5b808211156136f05760008160009055506001016136d8565b5090565b600061370761370284614b1e565b614af9565b9050808382526020820190508285602086028201111561372a5761372961507c565b5b60005b8581101561375a57816137408882613856565b84526020840193506020830192505060018101905061372d565b5050509392505050565b600061377761377284614b4a565b614af9565b90508281526020810184848401111561379357613792615081565b5b61379e848285614e39565b509392505050565b6000813590506137b58161564b565b92915050565b600082601f8301126137d0576137cf615077565b5b81356137e08482602086016136f4565b91505092915050565b6000813590506137f881615662565b92915050565b60008135905061380d81615679565b92915050565b60008151905061382281615679565b92915050565b600082601f83011261383d5761383c615077565b5b813561384d848260208601613764565b91505092915050565b60008135905061386581615690565b92915050565b60008151905061387a81615690565b92915050565b6000602082840312156138965761389561508b565b5b60006138a4848285016137a6565b91505092915050565b600080604083850312156138c4576138c361508b565b5b60006138d2858286016137a6565b92505060206138e3858286016137a6565b9150509250929050565b6000806000606084860312156139065761390561508b565b5b6000613914868287016137a6565b9350506020613925868287016137a6565b925050604061393686828701613856565b9150509250925092565b6000806000806080858703121561395a5761395961508b565b5b6000613968878288016137a6565b9450506020613979878288016137a6565b935050604061398a87828801613856565b925050606085013567ffffffffffffffff8111156139ab576139aa615086565b5b6139b787828801613828565b91505092959194509250565b600080604083850312156139da576139d961508b565b5b60006139e8858286016137a6565b92505060206139f9858286016137e9565b9150509250929050565b60008060408385031215613a1a57613a1961508b565b5b6000613a28858286016137a6565b9250506020613a3985828601613856565b9150509250929050565b600060208284031215613a5957613a5861508b565b5b6000613a67848285016137fe565b91505092915050565b600060208284031215613a8657613a8561508b565b5b6000613a9484828501613813565b91505092915050565b600060208284031215613ab357613ab261508b565b5b6000613ac184828501613856565b91505092915050565b600060208284031215613ae057613adf61508b565b5b6000613aee8482850161386b565b91505092915050565b60008060408385031215613b0e57613b0d61508b565b5b6000613b1c85828601613856565b925050602083013567ffffffffffffffff811115613b3d57613b3c615086565b5b613b49858286016137bb565b9150509250929050565b6000613b5f838361419e565b905092915050565b6000613b73838361430c565b905092915050565b613b8481614d89565b82525050565b613b9381614d89565b82525050565b6000613ba482614bb5565b613bae8185614bfb565b935083602082028501613bc085614b7b565b8060005b85811015613bfc5784840389528151613bdd8582613b53565b9450613be883614be1565b925060208a01995050600181019050613bc4565b50829750879550505050505092915050565b6000613c1982614bc0565b613c238185614bfb565b935083602082028501613c3585614b8b565b8060005b85811015613c7057848403895281613c518582613b67565b9450613c5c83614bee565b925060208a01995050600181019050613c39565b50829750879550505050505092915050565b613c8b81614d9b565b82525050565b613c9a81614da7565b82525050565b6000613cab82614bcb565b613cb58185614c0c565b9350613cc5818560208601614e48565b613cce81615090565b840191505092915050565b6000613ce482614bd6565b613cee8185614c1d565b9350613cfe818560208601614e48565b613d0781615090565b840191505092915050565b6000613d1d82614bd6565b613d278185614c2e565b9350613d37818560208601614e48565b613d4081615090565b840191505092915050565b6000613d5682614bd6565b613d608185614c3f565b9350613d70818560208601614e48565b80840191505092915050565b60008154613d8981614e7b565b613d938186614c1d565b94506001821660008114613dae5760018114613dc057613df3565b60ff1983168652602086019350613df3565b613dc985614ba0565b60005b83811015613deb57815481890152600182019150602081019050613dcc565b808801955050505b50505092915050565b6000613e09600b83614c3f565b9150613e14826150ae565b600b82019050919050565b6000613e2c603283614c2e565b9150613e37826150d7565b604082019050919050565b6000613e4f602583614c2e565b9150613e5a82615126565b604082019050919050565b6000613e72601c83614c2e565b9150613e7d82615175565b602082019050919050565b6000613e95601a83614c2e565b9150613ea08261519e565b602082019050919050565b6000613eb8606883614c3f565b9150613ec3826151c7565b606882019050919050565b6000613edb600e83614c3f565b9150613ee682615262565b600e82019050919050565b6000613efe602483614c2e565b9150613f098261528b565b604082019050919050565b6000613f21601983614c2e565b9150613f2c826152da565b602082019050919050565b6000613f44602983614c2e565b9150613f4f82615303565b604082019050919050565b6000613f67600483614c3f565b9150613f7282615352565b600482019050919050565b6000613f8a603e83614c2e565b9150613f958261537b565b604082019050919050565b6000613fad602083614c2e565b9150613fb8826153ca565b602082019050919050565b6000613fd0600a83614c3f565b9150613fdb826153f3565b600a82019050919050565b6000613ff3601883614c2e565b9150613ffe8261541c565b602082019050919050565b6000614016602183614c2e565b915061402182615445565b604082019050919050565b6000614039601d83614c3f565b915061404482615494565b601d82019050919050565b600061405c601883614c2e565b9150614067826154bd565b602082019050919050565b600061407f601183614c2e565b915061408a826154e6565b602082019050919050565b60006140a2603d83614c3f565b91506140ad8261550f565b603d82019050919050565b60006140c5602d83614c3f565b91506140d08261555e565b602d82019050919050565b60006140e8603283614c3f565b91506140f3826155ad565b603282019050919050565b600061410b602e83614c2e565b9150614116826155fc565b604082019050919050565b600060a083016000830151848203600086015261413e8282613cd9565b915050602083015184820360208601526141588282613cd9565b915050604083015161416d6040860182614414565b5060608301516141806060860182614414565b5060808301516141936080860182614414565b508091505092915050565b6000610100830160008301516141b76000860182613b7b565b5060208301516141ca6020860182614414565b50604083015184820360408601526141e28282613cd9565b915050606083015184820360608601526141fc8282613cd9565b91505060808301516142116080860182614414565b5060a083015161422460a0860182614414565b5060c083015161423760c0860182614414565b5060e083015161424a60e0860182614414565b508091505092915050565b60006101008301600083015161426e6000860182613b7b565b5060208301516142816020860182614414565b50604083015184820360408601526142998282613cd9565b915050606083015184820360608601526142b38282613cd9565b91505060808301516142c86080860182614414565b5060a08301516142db60a0860182614414565b5060c08301516142ee60c0860182614414565b5060e083015161430160e0860182614414565b508091505092915050565b60006101008301600080840154905061432481614ead565b6143316000870182613b7b565b506001840154905061434281614ec7565b61434f6020870182614414565b506002840185830360408701526143668382613d7c565b92505060038401858303606087015261437f8382613d7c565b9250506004840154905061439281614ec7565b61439f6080870182614414565b50600584015490506143b081614ec7565b6143bd60a0870182614414565b50600684015490506143ce81614ec7565b6143db60c0870182614414565b50600784015490506143ec81614ec7565b6143f960e0870182614414565b50819250505092915050565b61440e81614ddd565b82525050565b61441d81614e0b565b82525050565b61442c81614e0b565b82525050565b61443b81614e15565b82525050565b61444a81614e25565b82525050565b600061445b82613fc3565b9150614467828a613d4b565b915061447282613dfc565b915061447e8289613d4b565b915061448982613eab565b91506144958288613d4b565b91506144a082614095565b91506144ac8287613d4b565b91506144b782613ece565b91506144c38286613d4b565b91506144ce826140b8565b91506144da8285613d4b565b91506144e5826140db565b91506144f18284613d4b565b91506144fc82613f5a565b915081905098975050505050505050565b60006145188261402c565b91506145248284613d4b565b915081905092915050565b60006020820190506145446000830184613b8a565b92915050565b600060408201905061455f6000830185613b8a565b61456c6020830184613b8a565b9392505050565b60006080820190506145886000830187613b8a565b6145956020830186613b8a565b6145a26040830185614423565b81810360608301526145b48184613ca0565b905095945050505050565b60006040820190506145d46000830185613b8a565b81810360208301526145e68184613c0e565b90509392505050565b600061010082019050614605600083018b613b8a565b614612602083018a614423565b81810360408301526146248189613d12565b905081810360608301526146388188613d12565b90506146476080830187614423565b61465460a0830186614423565b61466160c0830185614423565b61466e60e0830184614423565b9998505050505050505050565b60006080820190506146906000830187613b8a565b61469d6020830186614423565b6146aa6040830185614423565b81810360608301526146bc8184613c0e565b905095945050505050565b600060a0820190506146dc6000830188613b8a565b6146e96020830187614423565b6146f66040830186614423565b6147036060830185614423565b81810360808301526147158184613c0e565b90509695505050505050565b6000602082019050818103600083015261473b8184613b99565b905092915050565b60006020820190506147586000830184613c82565b92915050565b600060a0820190506147736000830188613c91565b6147806020830187614441565b61478d6040830186614405565b61479a6060830185614432565b6147a76080830184614432565b9695505050505050565b600060208201905081810360008301526147cb8184613d12565b905092915050565b600060808201905081810360008301526147ed8187613d12565b905081810360208301526148018186613d12565b90506148106040830185614423565b81810360608301526148228184613d12565b905095945050505050565b600060a08201905081810360008301526148478188613d12565b9050818103602083015261485b8187613d12565b905061486a6040830186614423565b6148776060830185614423565b6148846080830184614423565b9695505050505050565b600060608201905081810360008301526148a88186613d12565b90506148b76020830185614423565b6148c46040830184614423565b949350505050565b600060208201905081810360008301526148e581613e1f565b9050919050565b6000602082019050818103600083015261490581613e42565b9050919050565b6000602082019050818103600083015261492581613e65565b9050919050565b6000602082019050818103600083015261494581613e88565b9050919050565b6000602082019050818103600083015261496581613ef1565b9050919050565b6000602082019050818103600083015261498581613f14565b9050919050565b600060208201905081810360008301526149a581613f37565b9050919050565b600060208201905081810360008301526149c581613f7d565b9050919050565b600060208201905081810360008301526149e581613fa0565b9050919050565b60006020820190508181036000830152614a0581613fe6565b9050919050565b60006020820190508181036000830152614a2581614009565b9050919050565b60006020820190508181036000830152614a458161404f565b9050919050565b60006020820190508181036000830152614a65816140fe565b9050919050565b60006020820190508181036000830152614a868184614121565b905092915050565b60006020820190508181036000830152614aa88184614255565b905092915050565b6000602082019050614ac56000830184614423565b92915050565b6000604082019050614ae06000830184614423565b8181036020830152614af181614072565b905092915050565b6000614b03614b14565b9050614b0f8282614ee1565b919050565b6000604051905090565b600067ffffffffffffffff821115614b3957614b38615048565b5b602082029050602081019050919050565b600067ffffffffffffffff821115614b6557614b64615048565b5b614b6e82615090565b9050602081019050919050565b6000819050602082019050919050565b60008190508160005260206000209050919050565b60008190508160005260206000209050919050565b600081519050919050565b600081549050919050565b600081519050919050565b600081519050919050565b6000602082019050919050565b6000600882019050919050565b600082825260208201905092915050565b600082825260208201905092915050565b600082825260208201905092915050565b600082825260208201905092915050565b600081905092915050565b6000614c5582614e0b565b9150614c6083614e0b565b9250827fffffffffffffffffffffffffffffffffffffffffffffffffffffffffffffffff03821115614c9557614c94614f8c565b5b828201905092915050565b6000614cab82614e0b565b9150614cb683614e0b565b925082614cc657614cc5614fbb565b5b828204905092915050565b6000614cdc82614e0b565b9150614ce783614e0b565b9250817fffffffffffffffffffffffffffffffffffffffffffffffffffffffffffffffff0483118215151615614d2057614d1f614f8c565b5b828202905092915050565b6000614d3682614e0b565b9150614d4183614e0b565b925082821015614d5457614d53614f8c565b5b828203905092915050565b600073ffffffffffffffffffffffffffffffffffffffff82169050919050565b6000819050919050565b6000614d9482614deb565b9050919050565b60008115159050919050565b6000819050919050565b60007fffffffff0000000000000000000000000000000000000000000000000000000082169050919050565b600061ffff82169050919050565b600073ffffffffffffffffffffffffffffffffffffffff82169050919050565b6000819050919050565b600063ffffffff82169050919050565b600067ffffffffffffffff82169050919050565b82818337600083830152505050565b60005b83811015614e66578082015181840152602081019050614e4b565b83811115614e75576000848401525b50505050565b60006002820490506001821680614e9357607f821691505b60208210811415614ea757614ea6614fea565b5b50919050565b6000614ec0614ebb836150a1565b614d5f565b9050919050565b6000614eda614ed5836150a1565b614d7f565b9050919050565b614eea82615090565b810181811067ffffffffffffffff82111715614f0957614f08615048565b5b80604052505050565b6000614f1d82614e0b565b91507fffffffffffffffffffffffffffffffffffffffffffffffffffffffffffffffff821415614f5057614f4f614f8c565b5b600182019050919050565b6000614f6682614e0b565b9150614f7183614e0b565b925082614f8157614f80614fbb565b5b828206905092915050565b7f4e487b7100000000000000000000000000000000000000000000000000000000600052601160045260246000fd5b7f4e487b7100000000000000000000000000000000000000000000000000000000600052601260045260246000fd5b7f4e487b7100000000000000000000000000000000000000000000000000000000600052602260045260246000fd5b7f4e487b7100000000000000000000000000000000000000000000000000000000600052603260045260246000fd5b7f4e487b7100000000000000000000000000000000000000000000000000000000600052604160045260246000fd5b600080fd5b600080fd5b600080fd5b600080fd5b600080fd5b6000601f19601f8301169050919050565b60008160001c9050919050565b7f202d2d204e465420233a20000000000000000000000000000000000000000000600082015250565b7f4552433732313a207472616e7366657220746f206e6f6e20455243373231526560008201527f63656976657220696d706c656d656e7465720000000000000000000000000000602082015250565b7f4552433732313a207472616e736665722066726f6d20696e636f72726563742060008201527f6f776e6572000000000000000000000000000000000000000000000000000000602082015250565b7f4552433732313a20746f6b656e20616c7265616479206d696e74656400000000600082015250565b7f506c6179657220686173206e6f2048502063616e7420706c6179000000000000600082015250565b7f222c20226465736372697074696f6e223a20225468697320697320616e204e4660008201527f542074686174206c6574732070656f706c6520706c617920696e20746865206760208201527f616d65204461726b77696e67204e696768747321222c2022696d616765223a2060408201527f22697066733a2f2f000000000000000000000000000000000000000000000000606082015250565b7f2c20226d61785f76616c7565223a000000000000000000000000000000000000600082015250565b7f4552433732313a207472616e7366657220746f20746865207a65726f2061646460008201527f7265737300000000000000000000000000000000000000000000000000000000602082015250565b7f4552433732313a20617070726f766520746f2063616c6c657200000000000000600082015250565b7f4552433732313a2061646472657373207a65726f206973206e6f74206120766160008201527f6c6964206f776e65720000000000000000000000000000000000000000000000602082015250565b7f7d205d7d00000000000000000000000000000000000000000000000000000000600082015250565b7f4552433732313a20617070726f76652063616c6c6572206973206e6f7420746f60008201527f6b656e206f776e6572206e6f7220617070726f76656420666f7220616c6c0000602082015250565b7f4552433732313a206d696e7420746f20746865207a65726f2061646472657373600082015250565b7f7b226e616d65223a202200000000000000000000000000000000000000000000600082015250565b7f4552433732313a20696e76616c696420746f6b656e2049440000000000000000600082015250565b7f4552433732313a20617070726f76616c20746f2063757272656e74206f776e6560008201527f7200000000000000000000000000000000000000000000000000000000000000602082015250565b7f646174613a6170706c69636174696f6e2f6a736f6e3b6261736536342c000000600082015250565b7f426f737320686173206e6f2048502063616e7420706c61790000000000000000600082015250565b7f6920686f7065207468697320776f726b73000000000000000000000000000000600082015250565b7f222c202261747472696275746573223a205b207b202274726169745f7479706560008201527f223a20224865616c746820506f696e7473222c202276616c7565223a20000000602082015250565b7f7d2c207b202274726169745f74797065223a202241747461636b2044616d616760008201527f65222c202276616c7565223a2000000000000000000000000000000000000000602082015250565b7f7d2c207b202274726169745f74797065223a2022546f74616c2044616d61676560008201527f204465616c74222c202276616c7565223a200000000000000000000000000000602082015250565b7f4552433732313a2063616c6c6572206973206e6f7420746f6b656e206f776e6560008201527f72206e6f7220617070726f766564000000000000000000000000000000000000602082015250565b61565481614d89565b811461565f57600080fd5b50565b61566b81614d9b565b811461567657600080fd5b50565b61568281614db1565b811461568d57600080fd5b50565b61569981614e0b565b81146156a457600080fd5b5056fe4142434445464748494a4b4c4d4e4f505152535455565758595a6162636465666768696a6b6c6d6e6f707172737475767778797a303132333435363738392b2f4d696e746564204e465420772f20746f6b656e496420257320616e6420636861726163746572496e646578202573a2646970667358221220adb0b338eee48abeeb39b1a2b7b9b818ec07c89c40d0a87b0fabed664d5eb33d64736f6c63430008070033446f6e6520696e697469616c697a696e6720257320772f2048502025732c20696d67202573",
  "linkReferences": {},
  "deployedLinkReferences": {}
}