{
  "_format": "hh-sol-artifact-1",
  "contractName": "MyEpicGame",
  "sourceName": "contracts/MyEpicGame.sol",
  "abi": [
    {
      "inputs": [
        {
          "internalType": "string[]",
          "name": "characterNames",
          "type": "string[]"
        },
        {
          "internalType": "string[]",
          "name": "characterImageURIs",
          "type": "string[]"
        },
        {
          "internalType": "uint256[]",
          "name": "characterHP",
          "type": "uint256[]"
        },
        {
          "internalType": "uint256[]",
          "name": "characterAttackDamage",
          "type": "uint256[]"
        },
        {
          "internalType": "string",
          "name": "bossName",
          "type": "string"
        },
        {
          "internalType": "string",
          "name": "bossImageURI",
          "type": "string"
        },
        {
          "internalType": "uint256",
          "name": "bossHp",
          "type": "uint256"
        },
        {
          "internalType": "uint256",
          "name": "bossAttackDamage",
          "type": "uint256"
        }
      ],
      "stateMutability": "nonpayable",
      "type": "constructor"
    },
    {
      "anonymous": false,
      "inputs": [
        {
          "indexed": true,
          "internalType": "address",
          "name": "owner",
          "type": "address"
        },
        {
          "indexed": true,
          "internalType": "address",
          "name": "approved",
          "type": "address"
        },
        {
          "indexed": true,
          "internalType": "uint256",
          "name": "tokenId",
          "type": "uint256"
        }
      ],
      "name": "Approval",
      "type": "event"
    },
    {
      "anonymous": false,
      "inputs": [
        {
          "indexed": true,
          "internalType": "address",
          "name": "owner",
          "type": "address"
        },
        {
          "indexed": true,
          "internalType": "address",
          "name": "operator",
          "type": "address"
        },
        {
          "indexed": false,
          "internalType": "bool",
          "name": "approved",
          "type": "bool"
        }
      ],
      "name": "ApprovalForAll",
      "type": "event"
    },
    {
      "anonymous": false,
      "inputs": [
        {
          "indexed": false,
          "internalType": "address",
          "name": "sender",
          "type": "address"
        },
        {
          "indexed": false,
          "internalType": "uint256",
          "name": "newBossHP",
          "type": "uint256"
        },
        {
          "indexed": false,
          "internalType": "uint256",
          "name": "newPlayerHP",
          "type": "uint256"
        },
        {
          "indexed": false,
          "internalType": "uint256",
          "name": "damageDone",
          "type": "uint256"
        },
        {
          "components": [
            {
              "internalType": "address",
              "name": "sender",
              "type": "address"
            },
            {
              "internalType": "uint256",
              "name": "characterIndex",
              "type": "uint256"
            },
            {
              "internalType": "string",
              "name": "name",
              "type": "string"
            },
            {
              "internalType": "string",
              "name": "imageURI",
              "type": "string"
            },
            {
              "internalType": "uint256",
              "name": "hp",
              "type": "uint256"
            },
            {
              "internalType": "uint256",
              "name": "maxHP",
              "type": "uint256"
            },
            {
              "internalType": "uint256",
              "name": "attackDamage",
              "type": "uint256"
            },
            {
              "internalType": "uint256",
              "name": "damageDone",
              "type": "uint256"
            }
          ],
          "indexed": false,
          "internalType": "struct MyEpicGame.CharacterAttributes[]",
          "name": "allPlayersInGame",
          "type": "tuple[]"
        }
      ],
      "name": "AttackComplete",
      "type": "event"
    },
    {
      "anonymous": false,
      "inputs": [
        {
          "indexed": false,
          "internalType": "address",
          "name": "sender",
          "type": "address"
        },
        {
          "indexed": false,
          "internalType": "uint256",
          "name": "tokenID",
          "type": "uint256"
        },
        {
          "indexed": false,
          "internalType": "uint256",
          "name": "characterIndex",
          "type": "uint256"
        },
        {
          "components": [
            {
              "internalType": "address",
              "name": "sender",
              "type": "address"
            },
            {
              "internalType": "uint256",
              "name": "characterIndex",
              "type": "uint256"
            },
            {
              "internalType": "string",
              "name": "name",
              "type": "string"
            },
            {
              "internalType": "string",
              "name": "imageURI",
              "type": "string"
            },
            {
              "internalType": "uint256",
              "name": "hp",
              "type": "uint256"
            },
            {
              "internalType": "uint256",
              "name": "maxHP",
              "type": "uint256"
            },
            {
              "internalType": "uint256",
              "name": "attackDamage",
              "type": "uint256"
            },
            {
              "internalType": "uint256",
              "name": "damageDone",
              "type": "uint256"
            }
          ],
          "indexed": false,
          "internalType": "struct MyEpicGame.CharacterAttributes[]",
          "name": "allPlayersInGame",
          "type": "tuple[]"
        }
      ],
      "name": "CharacterNftMinted",
      "type": "event"
    },
    {
      "anonymous": false,
      "inputs": [
        {
          "indexed": false,
          "internalType": "address",
          "name": "sender",
          "type": "address"
        },
        {
          "components": [
            {
              "internalType": "address",
              "name": "sender",
              "type": "address"
            },
            {
              "internalType": "uint256",
              "name": "characterIndex",
              "type": "uint256"
            },
            {
              "internalType": "string",
              "name": "name",
              "type": "string"
            },
            {
              "internalType": "string",
              "name": "imageURI",
              "type": "string"
            },
            {
              "internalType": "uint256",
              "name": "hp",
              "type": "uint256"
            },
            {
              "internalType": "uint256",
              "name": "maxHP",
              "type": "uint256"
            },
            {
              "internalType": "uint256",
              "name": "attackDamage",
              "type": "uint256"
            },
            {
              "internalType": "uint256",
              "name": "damageDone",
              "type": "uint256"
            }
          ],
          "indexed": false,
          "internalType": "struct MyEpicGame.CharacterAttributes[]",
          "name": "allPlayersInGame",
          "type": "tuple[]"
        }
      ],
      "name": "NftDeath",
      "type": "event"
    },
    {
      "anonymous": false,
      "inputs": [
        {
          "indexed": true,
          "internalType": "address",
          "name": "from",
          "type": "address"
        },
        {
          "indexed": true,
          "internalType": "address",
          "name": "to",
          "type": "address"
        },
        {
          "indexed": true,
          "internalType": "uint256",
          "name": "tokenId",
          "type": "uint256"
        }
      ],
      "name": "Transfer",
      "type": "event"
    },
    {
      "inputs": [
        {
          "internalType": "address",
          "name": "to",
          "type": "address"
        },
        {
          "internalType": "uint256",
          "name": "tokenId",
          "type": "uint256"
        }
      ],
      "name": "approve",
      "outputs": [],
      "stateMutability": "nonpayable",
      "type": "function"
    },
    {
      "inputs": [],
      "name": "attackBoss",
      "outputs": [],
      "stateMutability": "nonpayable",
      "type": "function"
    },
    {
      "inputs": [
        {
          "internalType": "address",
          "name": "owner",
          "type": "address"
        }
      ],
      "name": "balanceOf",
      "outputs": [
        {
          "internalType": "uint256",
          "name": "",
          "type": "uint256"
        }
      ],
      "stateMutability": "view",
      "type": "function"
    },
    {
      "inputs": [],
      "name": "bigBoss",
      "outputs": [
        {
          "internalType": "string",
          "name": "name",
          "type": "string"
        },
        {
          "internalType": "string",
          "name": "imageURI",
          "type": "string"
        },
        {
          "internalType": "uint256",
          "name": "hp",
          "type": "uint256"
        },
        {
          "internalType": "uint256",
          "name": "maxHP",
          "type": "uint256"
        },
        {
          "internalType": "uint256",
          "name": "attackDamage",
          "type": "uint256"
        }
      ],
      "stateMutability": "view",
      "type": "function"
    },
    {
      "inputs": [],
      "name": "checkIfUserHasNFT",
      "outputs": [
        {
          "components": [
            {
              "internalType": "address",
              "name": "sender",
              "type": "address"
            },
            {
              "internalType": "uint256",
              "name": "characterIndex",
              "type": "uint256"
            },
            {
              "internalType": "string",
              "name": "name",
              "type": "string"
            },
            {
              "internalType": "string",
              "name": "imageURI",
              "type": "string"
            },
            {
              "internalType": "uint256",
              "name": "hp",
              "type": "uint256"
            },
            {
              "internalType": "uint256",
              "name": "maxHP",
              "type": "uint256"
            },
            {
              "internalType": "uint256",
              "name": "attackDamage",
              "type": "uint256"
            },
            {
              "internalType": "uint256",
              "name": "damageDone",
              "type": "uint256"
            }
          ],
          "internalType": "struct MyEpicGame.CharacterAttributes",
          "name": "",
          "type": "tuple"
        }
      ],
      "stateMutability": "view",
      "type": "function"
    },
    {
      "inputs": [],
      "name": "getAllDefaultCharacters",
      "outputs": [
        {
          "components": [
            {
              "internalType": "address",
              "name": "sender",
              "type": "address"
            },
            {
              "internalType": "uint256",
              "name": "characterIndex",
              "type": "uint256"
            },
            {
              "internalType": "string",
              "name": "name",
              "type": "string"
            },
            {
              "internalType": "string",
              "name": "imageURI",
              "type": "string"
            },
            {
              "internalType": "uint256",
              "name": "hp",
              "type": "uint256"
            },
            {
              "internalType": "uint256",
              "name": "maxHP",
              "type": "uint256"
            },
            {
              "internalType": "uint256",
              "name": "attackDamage",
              "type": "uint256"
            },
            {
              "internalType": "uint256",
              "name": "damageDone",
              "type": "uint256"
            }
          ],
          "internalType": "struct MyEpicGame.CharacterAttributes[]",
          "name": "",
          "type": "tuple[]"
        }
      ],
      "stateMutability": "view",
      "type": "function"
    },
    {
      "inputs": [],
      "name": "getAllPlayersInGame",
      "outputs": [
        {
          "components": [
            {
              "internalType": "address",
              "name": "sender",
              "type": "address"
            },
            {
              "internalType": "uint256",
              "name": "characterIndex",
              "type": "uint256"
            },
            {
              "internalType": "string",
              "name": "name",
              "type": "string"
            },
            {
              "internalType": "string",
              "name": "imageURI",
              "type": "string"
            },
            {
              "internalType": "uint256",
              "name": "hp",
              "type": "uint256"
            },
            {
              "internalType": "uint256",
              "name": "maxHP",
              "type": "uint256"
            },
            {
              "internalType": "uint256",
              "name": "attackDamage",
              "type": "uint256"
            },
            {
              "internalType": "uint256",
              "name": "damageDone",
              "type": "uint256"
            }
          ],
          "internalType": "struct MyEpicGame.CharacterAttributes[]",
          "name": "",
          "type": "tuple[]"
        }
      ],
      "stateMutability": "view",
      "type": "function"
    },
    {
      "inputs": [
        {
          "internalType": "uint256",
          "name": "tokenId",
          "type": "uint256"
        }
      ],
      "name": "getApproved",
      "outputs": [
        {
          "internalType": "address",
          "name": "",
          "type": "address"
        }
      ],
      "stateMutability": "view",
      "type": "function"
    },
    {
      "inputs": [],
      "name": "getBigBoss",
      "outputs": [
        {
          "components": [
            {
              "internalType": "string",
              "name": "name",
              "type": "string"
            },
            {
              "internalType": "string",
              "name": "imageURI",
              "type": "string"
            },
            {
              "internalType": "uint256",
              "name": "hp",
              "type": "uint256"
            },
            {
              "internalType": "uint256",
              "name": "maxHP",
              "type": "uint256"
            },
            {
              "internalType": "uint256",
              "name": "attackDamage",
              "type": "uint256"
            }
          ],
          "internalType": "struct MyEpicGame.BigBoss",
          "name": "",
          "type": "tuple"
        }
      ],
      "stateMutability": "view",
      "type": "function"
    },
    {
      "inputs": [
        {
          "internalType": "address",
          "name": "owner",
          "type": "address"
        },
        {
          "internalType": "address",
          "name": "operator",
          "type": "address"
        }
      ],
      "name": "isApprovedForAll",
      "outputs": [
        {
          "internalType": "bool",
          "name": "",
          "type": "bool"
        }
      ],
      "stateMutability": "view",
      "type": "function"
    },
    {
      "inputs": [
        {
          "internalType": "uint256",
          "name": "_characterIndex",
          "type": "uint256"
        }
      ],
      "name": "mintCharacterNFT",
      "outputs": [],
      "stateMutability": "nonpayable",
      "type": "function"
    },
    {
      "inputs": [],
      "name": "name",
      "outputs": [
        {
          "internalType": "string",
          "name": "",
          "type": "string"
        }
      ],
      "stateMutability": "view",
      "type": "function"
    },
    {
      "inputs": [
        {
          "internalType": "uint256",
          "name": "",
          "type": "uint256"
        }
      ],
      "name": "nftHolderAttributes",
      "outputs": [
        {
          "internalType": "address",
          "name": "sender",
          "type": "address"
        },
        {
          "internalType": "uint256",
          "name": "characterIndex",
          "type": "uint256"
        },
        {
          "internalType": "string",
          "name": "name",
          "type": "string"
        },
        {
          "internalType": "string",
          "name": "imageURI",
          "type": "string"
        },
        {
          "internalType": "uint256",
          "name": "hp",
          "type": "uint256"
        },
        {
          "internalType": "uint256",
          "name": "maxHP",
          "type": "uint256"
        },
        {
          "internalType": "uint256",
          "name": "attackDamage",
          "type": "uint256"
        },
        {
          "internalType": "uint256",
          "name": "damageDone",
          "type": "uint256"
        }
      ],
      "stateMutability": "view",
      "type": "function"
    },
    {
      "inputs": [
        {
          "internalType": "address",
          "name": "",
          "type": "address"
        }
      ],
      "name": "nftHolders",
      "outputs": [
        {
          "internalType": "uint256",
          "name": "",
          "type": "uint256"
        }
      ],
      "stateMutability": "view",
      "type": "function"
    },
    {
      "inputs": [
        {
          "internalType": "uint256",
          "name": "tokenId",
          "type": "uint256"
        }
      ],
      "name": "ownerOf",
      "outputs": [
        {
          "internalType": "address",
          "name": "",
          "type": "address"
        }
      ],
      "stateMutability": "view",
      "type": "function"
    },
    {
      "inputs": [
        {
          "internalType": "address",
          "name": "from",
          "type": "address"
        },
        {
          "internalType": "address",
          "name": "to",
          "type": "address"
        },
        {
          "internalType": "uint256",
          "name": "tokenId",
          "type": "uint256"
        }
      ],
      "name": "safeTransferFrom",
      "outputs": [],
      "stateMutability": "nonpayable",
      "type": "function"
    },
    {
      "inputs": [
        {
          "internalType": "address",
          "name": "from",
          "type": "address"
        },
        {
          "internalType": "address",
          "name": "to",
          "type": "address"
        },
        {
          "internalType": "uint256",
          "name": "tokenId",
          "type": "uint256"
        },
        {
          "internalType": "bytes",
          "name": "data",
          "type": "bytes"
        }
      ],
      "name": "safeTransferFrom",
      "outputs": [],
      "stateMutability": "nonpayable",
      "type": "function"
    },
    {
      "inputs": [
        {
          "internalType": "address",
          "name": "operator",
          "type": "address"
        },
        {
          "internalType": "bool",
          "name": "approved",
          "type": "bool"
        }
      ],
      "name": "setApprovalForAll",
      "outputs": [],
      "stateMutability": "nonpayable",
      "type": "function"
    },
    {
      "inputs": [
        {
          "internalType": "bytes4",
          "name": "interfaceId",
          "type": "bytes4"
        }
      ],
      "name": "supportsInterface",
      "outputs": [
        {
          "internalType": "bool",
          "name": "",
          "type": "bool"
        }
      ],
      "stateMutability": "view",
      "type": "function"
    },
    {
      "inputs": [],
      "name": "symbol",
      "outputs": [
        {
          "internalType": "string",
          "name": "",
          "type": "string"
        }
      ],
      "stateMutability": "view",
      "type": "function"
    },
    {
      "inputs": [
        {
          "internalType": "uint256",
          "name": "_tokenId",
          "type": "uint256"
        }
      ],
      "name": "tokenURI",
      "outputs": [
        {
          "internalType": "string",
          "name": "",
          "type": "string"
        }
      ],
      "stateMutability": "view",
      "type": "function"
    },
    {
      "inputs": [
        {
          "internalType": "address",
          "name": "from",
          "type": "address"
        },
        {
          "internalType": "address",
          "name": "to",
          "type": "address"
        },
        {
          "internalType": "uint256",
          "name": "tokenId",
          "type": "uint256"
        }
      ],
      "name": "transferFrom",
      "outputs": [],
      "stateMutability": "nonpayable",
      "type": "function"
    }
  ],
  "bytecode": "0x60806040523480156200001157600080fd5b5060405162005c3138038062005c3183398181016040528101906200003791906200094b565b6040518060400160405280600f81526020017f4461726b77696e67204e696768747300000000000000000000000000000000008152506040518060400160405280600781526020017f42415457494e47000000000000000000000000000000000000000000000000008152508160009080519060200190620000bb92919062000689565b508060019080519060200190620000d492919062000689565b5050506040518060a0016040528085815260200184815260200183815260200183815260200182815250600a60008201518160000190805190602001906200011e92919062000689565b5060208201518160010190805190602001906200013d92919062000689565b5060408201518160020155606082015181600301556080820151816004015590505060005b8851811015620005785760086040518061010001604052803373ffffffffffffffffffffffffffffffffffffffff1681526020018381526020018b8481518110620001b257620001b162000db3565b5b602002602001015181526020018a8481518110620001d557620001d462000db3565b5b60200260200101518152602001898481518110620001f857620001f762000db3565b5b602002602001015181526020018984815181106200021b576200021a62000db3565b5b602002602001015181526020018884815181106200023e576200023d62000db3565b5b602002602001015181526020016000815250908060018154018082558091505060019003906000526020600020906008020160009091909190915060008201518160000160006101000a81548173ffffffffffffffffffffffffffffffffffffffff021916908373ffffffffffffffffffffffffffffffffffffffff160217905550602082015181600101556040820151816002019080519060200190620002e892919062000689565b5060608201518160030190805190602001906200030792919062000689565b506080820151816004015560a0820151816005015560c0820151816006015560e0820151816007015550506000600882815481106200034b576200034a62000db3565b5b9060005260206000209060080201604051806101000160405290816000820160009054906101000a900473ffffffffffffffffffffffffffffffffffffffff1673ffffffffffffffffffffffffffffffffffffffff1673ffffffffffffffffffffffffffffffffffffffff16815260200160018201548152602001600282018054620003d79062000c9b565b80601f0160208091040260200160405190810160405280929190818152602001828054620004059062000c9b565b8015620004565780601f106200042a5761010080835404028352916020019162000456565b820191906000526020600020905b8154815290600101906020018083116200043857829003601f168201915b50505050508152602001600382018054620004719062000c9b565b80601f01602080910402602001604051908101604052809291908181526020018280546200049f9062000c9b565b8015620004f05780601f10620004c457610100808354040283529160200191620004f0565b820191906000526020600020905b815481529060010190602001808311620004d257829003601f168201915b5050505050815260200160048201548152602001600582015481526020016006820154815260200160078201548152505090506200056160405180606001604052806025815260200162005c0c602591398260400151836080015184606001516200059e60201b62001eec1760201c565b5080806200056f9062000d07565b91505062000162565b506200059060066200064a60201b62001f8e1760201c565b505050505050505062000e55565b6200064484848484604051602401620005bb949392919062000b20565b6040516020818303038152906040527f8d142cdd000000000000000000000000000000000000000000000000000000007bffffffffffffffffffffffffffffffffffffffffffffffffffffffff19166020820180517bffffffffffffffffffffffffffffffffffffffffffffffffffffffff83818316178352505050506200066060201b60201c565b50505050565b6001816000016000828254019250508190555050565b60008151905060006a636f6e736f6c652e6c6f679050602083016000808483855afa5050505050565b828054620006979062000c9b565b90600052602060002090601f016020900481019282620006bb576000855562000707565b82601f10620006d657805160ff191683800117855562000707565b8280016001018555821562000707579182015b8281111562000706578251825591602001919060010190620006e9565b5b5090506200071691906200071a565b5090565b5b80821115620007355760008160009055506001016200071b565b5090565b6000620007506200074a8462000bab565b62000b82565b9050808382526020820190508285602086028201111562000776576200077562000e16565b5b60005b85811015620007cb57815167ffffffffffffffff811115620007a0576200079f62000e11565b5b808601620007af898262000901565b8552602085019450602084019350505060018101905062000779565b5050509392505050565b6000620007ec620007e68462000bda565b62000b82565b9050808382526020820190508285602086028201111562000812576200081162000e16565b5b60005b858110156200084657816200082b888262000934565b84526020840193506020830192505060018101905062000815565b5050509392505050565b600062000867620008618462000c09565b62000b82565b90508281526020810184848401111562000886576200088562000e1b565b5b6200089384828562000c65565b509392505050565b600082601f830112620008b357620008b262000e11565b5b8151620008c584826020860162000739565b91505092915050565b600082601f830112620008e657620008e562000e11565b5b8151620008f8848260208601620007d5565b91505092915050565b600082601f83011262000919576200091862000e11565b5b81516200092b84826020860162000850565b91505092915050565b600081519050620009458162000e3b565b92915050565b600080600080600080600080610100898b0312156200096f576200096e62000e25565b5b600089015167ffffffffffffffff81111562000990576200098f62000e20565b5b6200099e8b828c016200089b565b985050602089015167ffffffffffffffff811115620009c257620009c162000e20565b5b620009d08b828c016200089b565b975050604089015167ffffffffffffffff811115620009f457620009f362000e20565b5b62000a028b828c01620008ce565b965050606089015167ffffffffffffffff81111562000a265762000a2562000e20565b5b62000a348b828c01620008ce565b955050608089015167ffffffffffffffff81111562000a585762000a5762000e20565b5b62000a668b828c0162000901565b94505060a089015167ffffffffffffffff81111562000a8a5762000a8962000e20565b5b62000a988b828c0162000901565b93505060c062000aab8b828c0162000934565b92505060e062000abe8b828c0162000934565b9150509295985092959890939650565b600062000adb8262000c3f565b62000ae7818562000c4a565b935062000af981856020860162000c65565b62000b048162000e2a565b840191505092915050565b62000b1a8162000c5b565b82525050565b6000608082019050818103600083015262000b3c818762000ace565b9050818103602083015262000b52818662000ace565b905062000b63604083018562000b0f565b818103606083015262000b77818462000ace565b905095945050505050565b600062000b8e62000ba1565b905062000b9c828262000cd1565b919050565b6000604051905090565b600067ffffffffffffffff82111562000bc95762000bc862000de2565b5b602082029050602081019050919050565b600067ffffffffffffffff82111562000bf85762000bf762000de2565b5b602082029050602081019050919050565b600067ffffffffffffffff82111562000c275762000c2662000de2565b5b62000c328262000e2a565b9050602081019050919050565b600081519050919050565b600082825260208201905092915050565b6000819050919050565b60005b8381101562000c8557808201518184015260208101905062000c68565b8381111562000c95576000848401525b50505050565b6000600282049050600182168062000cb457607f821691505b6020821081141562000ccb5762000cca62000d84565b5b50919050565b62000cdc8262000e2a565b810181811067ffffffffffffffff8211171562000cfe5762000cfd62000de2565b5b80604052505050565b600062000d148262000c5b565b91507fffffffffffffffffffffffffffffffffffffffffffffffffffffffffffffffff82141562000d4a5762000d4962000d55565b5b600182019050919050565b7f4e487b7100000000000000000000000000000000000000000000000000000000600052601160045260246000fd5b7f4e487b7100000000000000000000000000000000000000000000000000000000600052602260045260246000fd5b7f4e487b7100000000000000000000000000000000000000000000000000000000600052603260045260246000fd5b7f4e487b7100000000000000000000000000000000000000000000000000000000600052604160045260246000fd5b600080fd5b600080fd5b600080fd5b600080fd5b600080fd5b6000601f19601f8301169050919050565b62000e468162000c5b565b811462000e5257600080fd5b50565b614da78062000e656000396000f3fe608060405234801561001057600080fd5b50600436106101425760003560e01c806398da4c95116100b8578063c87b56dd1161007c578063c87b56dd14610394578063c8cf27f4146103c4578063d4f24c5b146103e2578063e985e9c5146103ec578063f8b81ef71461041c578063f9b8f4cb1461043857610142565b806398da4c95146102e5578063a22cb4651461031c578063a9c3267914610338578063b88d4fde1461035a578063b953084e1461037657610142565b806323b872dd1161010a57806323b872dd146101ff57806342842e0e1461021b5780636352211e1461023757806370a08231146102675780637df124a11461029757806395d89b41146102c757610142565b806301ffc9a7146101475780630665f9611461017757806306fdde0314610195578063081812fc146101b3578063095ea7b3146101e3575b600080fd5b610161600480360381019061015c91906132c7565b610456565b60405161016e9190613eb6565b60405180910390f35b61017f610538565b60405161018c919061418c565b60405180910390f35b61019d610694565b6040516101aa9190613ed1565b60405180910390f35b6101cd60048036038101906101c89190613321565b610726565b6040516101da9190613ccb565b60405180910390f35b6101fd60048036038101906101f89190613287565b61076c565b005b61021960048036038101906102149190613171565b610884565b005b61023560048036038101906102309190613171565b6108e4565b005b610251600480360381019061024c9190613321565b610904565b60405161025e9190613ccb565b60405180910390f35b610281600480360381019061027c9190613104565b6109b6565b60405161028e91906141d0565b60405180910390f35b6102b160048036038101906102ac9190613104565b610a6e565b6040516102be91906141d0565b60405180910390f35b6102cf610a86565b6040516102dc9190613ed1565b60405180910390f35b6102ff60048036038101906102fa9190613321565b610b18565b604051610313989796959493929190613d62565b60405180910390f35b61033660048036038101906103319190613247565b610c90565b005b610340610ca6565b604051610351959493929190613f4d565b60405180910390f35b610374600480360381019061036f91906131c4565b610dda565b005b61037e610e3c565b60405161038b9190613e94565b60405180910390f35b6103ae60048036038101906103a99190613321565b611048565b6040516103bb9190613ed1565b60405180910390f35b6103cc6112d8565b6040516103d991906141ae565b60405180910390f35b6103ea611511565b005b61040660048036038101906104019190613131565b61198c565b6040516104139190613eb6565b60405180910390f35b61043660048036038101906104319190613321565b611a20565b005b610440611ee7565b60405161044d9190613e94565b60405180910390f35b60007f80ac58cd000000000000000000000000000000000000000000000000000000007bffffffffffffffffffffffffffffffffffffffffffffffffffffffff1916827bffffffffffffffffffffffffffffffffffffffffffffffffffffffff1916148061052157507f5b5e139f000000000000000000000000000000000000000000000000000000007bffffffffffffffffffffffffffffffffffffffffffffffffffffffff1916827bffffffffffffffffffffffffffffffffffffffffffffffffffffffff1916145b80610531575061053082611fa4565b5b9050919050565b610540612e31565b600a6040518060a001604052908160008201805461055d90614505565b80601f016020809104026020016040519081016040528092919081815260200182805461058990614505565b80156105d65780601f106105ab576101008083540402835291602001916105d6565b820191906000526020600020905b8154815290600101906020018083116105b957829003601f168201915b505050505081526020016001820180546105ef90614505565b80601f016020809104026020016040519081016040528092919081815260200182805461061b90614505565b80156106685780601f1061063d57610100808354040283529160200191610668565b820191906000526020600020905b81548152906001019060200180831161064b57829003601f168201915b505050505081526020016002820154815260200160038201548152602001600482015481525050905090565b6060600080546106a390614505565b80601f01602080910402602001604051908101604052809291908181526020018280546106cf90614505565b801561071c5780601f106106f15761010080835404028352916020019161071c565b820191906000526020600020905b8154815290600101906020018083116106ff57829003601f168201915b5050505050905090565b60006107318261200e565b6004600083815260200190815260200160002060009054906101000a900473ffffffffffffffffffffffffffffffffffffffff169050919050565b600061077782610904565b90508073ffffffffffffffffffffffffffffffffffffffff168373ffffffffffffffffffffffffffffffffffffffff1614156107e8576040517f08c379a00000000000000000000000000000000000000000000000000000000081526004016107df9061412c565b60405180910390fd5b8073ffffffffffffffffffffffffffffffffffffffff16610807612059565b73ffffffffffffffffffffffffffffffffffffffff161480610836575061083581610830612059565b61198c565b5b610875576040517f08c379a000000000000000000000000000000000000000000000000000000000815260040161086c906140cc565b60405180910390fd5b61087f8383612061565b505050565b61089561088f612059565b8261211a565b6108d4576040517f08c379a00000000000000000000000000000000000000000000000000000000081526004016108cb9061416c565b60405180910390fd5b6108df8383836121af565b505050565b6108ff83838360405180602001604052806000815250610dda565b505050565b6000806002600084815260200190815260200160002060009054906101000a900473ffffffffffffffffffffffffffffffffffffffff169050600073ffffffffffffffffffffffffffffffffffffffff168173ffffffffffffffffffffffffffffffffffffffff1614156109ad576040517f08c379a00000000000000000000000000000000000000000000000000000000081526004016109a49061410c565b60405180910390fd5b80915050919050565b60008073ffffffffffffffffffffffffffffffffffffffff168273ffffffffffffffffffffffffffffffffffffffff161415610a27576040517f08c379a0000000000000000000000000000000000000000000000000000000008152600401610a1e906140ac565b60405180910390fd5b600360008373ffffffffffffffffffffffffffffffffffffffff1673ffffffffffffffffffffffffffffffffffffffff168152602001908152602001600020549050919050565b600f6020528060005260406000206000915090505481565b606060018054610a9590614505565b80601f0160208091040260200160405190810160405280929190818152602001828054610ac190614505565b8015610b0e5780601f10610ae357610100808354040283529160200191610b0e565b820191906000526020600020905b815481529060010190602001808311610af157829003601f168201915b5050505050905090565b60096020528060005260406000206000915090508060000160009054906101000a900473ffffffffffffffffffffffffffffffffffffffff1690806001015490806002018054610b6790614505565b80601f0160208091040260200160405190810160405280929190818152602001828054610b9390614505565b8015610be05780601f10610bb557610100808354040283529160200191610be0565b820191906000526020600020905b815481529060010190602001808311610bc357829003601f168201915b505050505090806003018054610bf590614505565b80601f0160208091040260200160405190810160405280929190818152602001828054610c2190614505565b8015610c6e5780601f10610c4357610100808354040283529160200191610c6e565b820191906000526020600020905b815481529060010190602001808311610c5157829003601f168201915b5050505050908060040154908060050154908060060154908060070154905088565b610ca2610c9b612059565b8383612416565b5050565b600a806000018054610cb790614505565b80601f0160208091040260200160405190810160405280929190818152602001828054610ce390614505565b8015610d305780601f10610d0557610100808354040283529160200191610d30565b820191906000526020600020905b815481529060010190602001808311610d1357829003601f168201915b505050505090806001018054610d4590614505565b80601f0160208091040260200160405190810160405280929190818152602001828054610d7190614505565b8015610dbe5780601f10610d9357610100808354040283529160200191610dbe565b820191906000526020600020905b815481529060010190602001808311610da157829003601f168201915b5050505050908060020154908060030154908060040154905085565b610deb610de5612059565b8361211a565b610e2a576040517f08c379a0000000000000000000000000000000000000000000000000000000008152600401610e219061416c565b60405180910390fd5b610e3684848484612583565b50505050565b60606008805480602002602001604051908101604052809291908181526020016000905b8282101561103f5783829060005260206000209060080201604051806101000160405290816000820160009054906101000a900473ffffffffffffffffffffffffffffffffffffffff1673ffffffffffffffffffffffffffffffffffffffff1673ffffffffffffffffffffffffffffffffffffffff16815260200160018201548152602001600282018054610ef490614505565b80601f0160208091040260200160405190810160405280929190818152602001828054610f2090614505565b8015610f6d5780601f10610f4257610100808354040283529160200191610f6d565b820191906000526020600020905b815481529060010190602001808311610f5057829003601f168201915b50505050508152602001600382018054610f8690614505565b80601f0160208091040260200160405190810160405280929190818152602001828054610fb290614505565b8015610fff5780601f10610fd457610100808354040283529160200191610fff565b820191906000526020600020905b815481529060010190602001808311610fe257829003601f168201915b5050505050815260200160048201548152602001600582015481526020016006820154815260200160078201548152505081526020019060010190610e60565b50505050905090565b6060600060096000848152602001908152602001600020604051806101000160405290816000820160009054906101000a900473ffffffffffffffffffffffffffffffffffffffff1673ffffffffffffffffffffffffffffffffffffffff1673ffffffffffffffffffffffffffffffffffffffff168152602001600182015481526020016002820180546110db90614505565b80601f016020809104026020016040519081016040528092919081815260200182805461110790614505565b80156111545780601f1061112957610100808354040283529160200191611154565b820191906000526020600020905b81548152906001019060200180831161113757829003601f168201915b5050505050815260200160038201805461116d90614505565b80601f016020809104026020016040519081016040528092919081815260200182805461119990614505565b80156111e65780601f106111bb576101008083540402835291602001916111e6565b820191906000526020600020905b8154815290600101906020018083116111c957829003601f168201915b505050505081526020016004820154815260200160058201548152602001600682015481526020016007820154815250509050600061122882608001516125df565b905060006112398360a001516125df565b9050600061124a8460c001516125df565b9050600061125b8560e001516125df565b905060006112a386604001516112708a6125df565b88606001518888888860405160200161128f9796959493929190613bec565b604051602081830303815290604052612740565b90506000816040516020016112b89190613ca9565b604051602081830303815290604052905080975050505050505050919050565b6112e0612e60565b6000600f60003373ffffffffffffffffffffffffffffffffffffffff1673ffffffffffffffffffffffffffffffffffffffff16815260200190815260200160002054905060008111156115005760096000828152602001908152602001600020604051806101000160405290816000820160009054906101000a900473ffffffffffffffffffffffffffffffffffffffff1673ffffffffffffffffffffffffffffffffffffffff1673ffffffffffffffffffffffffffffffffffffffff168152602001600182015481526020016002820180546113bc90614505565b80601f01602080910402602001604051908101604052809291908181526020018280546113e890614505565b80156114355780601f1061140a57610100808354040283529160200191611435565b820191906000526020600020905b81548152906001019060200180831161141857829003601f168201915b5050505050815260200160038201805461144e90614505565b80601f016020809104026020016040519081016040528092919081815260200182805461147a90614505565b80156114c75780601f1061149c576101008083540402835291602001916114c7565b820191906000526020600020905b8154815290600101906020018083116114aa57829003601f168201915b5050505050815260200160048201548152602001600582015481526020016006820154815260200160078201548152505091505061150e565b611508612e60565b80925050505b90565b6000600f60003373ffffffffffffffffffffffffffffffffffffffff1673ffffffffffffffffffffffffffffffffffffffff168152602001908152602001600020549050600060096000838152602001908152602001600020905060008160040154116115b3576040517f08c379a00000000000000000000000000000000000000000000000000000000081526004016115aa9061404c565b60405180910390fd5b6000600a60020154116115fb576040517f08c379a00000000000000000000000000000000000000000000000000000000081526004016115f29061414c565b60405180910390fd5b8060060154600a60020154101561163c57600a600201548160070160008282546116259190614310565b925050819055506000600a6002018190555061167c565b80600601548160070160008282546116549190614310565b925050819055508060060154600a600201600082825461167491906143f1565b925050819055505b600a600401548160040154101561169c57600081600401819055506116bd565b600a600401548160040160008282546116b591906143f1565b925050819055505b60005b60078054905081101561193a573373ffffffffffffffffffffffffffffffffffffffff16600782815481106116f8576116f76146a3565b5b906000526020600020906008020160000160009054906101000a900473ffffffffffffffffffffffffffffffffffffffff1673ffffffffffffffffffffffffffffffffffffffff161415611927576000826004015414156118265760078181548110611767576117666146a3565b5b9060005260206000209060080201600080820160006101000a81549073ffffffffffffffffffffffffffffffffffffffff021916905560018201600090556002820160006117b59190612ebb565b6003820160006117c59190612ebb565b600482016000905560058201600090556006820160009055600782016000905550507f8b348e519319ce056b18ae43c2239a2f2a8973595c0cf01aded937707d44c66d336007604051611819929190613d32565b60405180910390a1611926565b816007828154811061183b5761183a6146a3565b5b90600052602060002090600802016000820160009054906101000a900473ffffffffffffffffffffffffffffffffffffffff168160000160006101000a81548173ffffffffffffffffffffffffffffffffffffffff021916908373ffffffffffffffffffffffffffffffffffffffff1602179055506001820154816001015560028201816002019080546118ce90614505565b6118d9929190612efb565b5060038201816003019080546118ee90614505565b6118f9929190612efb565b50600482015481600401556005820154816005015560068201548160060155600782015481600701559050505b5b80806119329061459c565b9150506116c0565b507f93e52d5efffa697fd9ea49a98f3868aadfe91fe7dd670a4784d212c5fba5297633600a60020154836004015484600701546007604051611980959493929190613e3a565b60405180910390a15050565b6000600560008473ffffffffffffffffffffffffffffffffffffffff1673ffffffffffffffffffffffffffffffffffffffff16815260200190815260200160002060008373ffffffffffffffffffffffffffffffffffffffff1673ffffffffffffffffffffffffffffffffffffffff16815260200190815260200160002060009054906101000a900460ff16905092915050565b6000611a2c60066128d8565b9050611a3833826128e6565b6040518061010001604052803373ffffffffffffffffffffffffffffffffffffffff16815260200183815260200160088481548110611a7a57611a796146a3565b5b90600052602060002090600802016002018054611a9690614505565b80601f0160208091040260200160405190810160405280929190818152602001828054611ac290614505565b8015611b0f5780601f10611ae457610100808354040283529160200191611b0f565b820191906000526020600020905b815481529060010190602001808311611af257829003601f168201915b5050505050815260200160088481548110611b2d57611b2c6146a3565b5b90600052602060002090600802016003018054611b4990614505565b80601f0160208091040260200160405190810160405280929190818152602001828054611b7590614505565b8015611bc25780601f10611b9757610100808354040283529160200191611bc2565b820191906000526020600020905b815481529060010190602001808311611ba557829003601f168201915b5050505050815260200160088481548110611be057611bdf6146a3565b5b906000526020600020906008020160040154815260200160088481548110611c0b57611c0a6146a3565b5b906000526020600020906008020160050154815260200160088481548110611c3657611c356146a3565b5b906000526020600020906008020160060154815260200160008152506009600083815260200190815260200160002060008201518160000160006101000a81548173ffffffffffffffffffffffffffffffffffffffff021916908373ffffffffffffffffffffffffffffffffffffffff160217905550602082015181600101556040820151816002019080519060200190611cd2929190612f88565b506060820151816003019080519060200190611cef929190612f88565b506080820151816004015560a0820151816005015560c0820151816006015560e0820151816007015590505060076009600083815260200190815260200160002090806001815401808255809150506001900390600052602060002090600802016000909190919091506000820160009054906101000a900473ffffffffffffffffffffffffffffffffffffffff168160000160006101000a81548173ffffffffffffffffffffffffffffffffffffffff021916908373ffffffffffffffffffffffffffffffffffffffff160217905550600182015481600101556002820181600201908054611dde90614505565b611de9929190612efb565b506003820181600301908054611dfe90614505565b611e09929190612efb565b50600482015481600401556005820154816005015560068201548160060155600782015481600701555050611e576040518060600160405280602e8152602001614d44602e91398284612904565b80600f60003373ffffffffffffffffffffffffffffffffffffffff1673ffffffffffffffffffffffffffffffffffffffff16815260200190815260200160002081905550611ea56006611f8e565b7ff7ce6d45718f4d5553edc6316819886e91553095c70e36bced1baa5d3f5ee2263382846007604051611edb9493929190613dee565b60405180910390a15050565b606090565b611f8884848484604051602401611f069493929190613ef3565b6040516020818303038152906040527f8d142cdd000000000000000000000000000000000000000000000000000000007bffffffffffffffffffffffffffffffffffffffffffffffffffffffff19166020820180517bffffffffffffffffffffffffffffffffffffffffffffffffffffffff83818316178352505050506129a3565b50505050565b6001816000016000828254019250508190555050565b60007f01ffc9a7000000000000000000000000000000000000000000000000000000007bffffffffffffffffffffffffffffffffffffffffffffffffffffffff1916827bffffffffffffffffffffffffffffffffffffffffffffffffffffffff1916149050919050565b612017816129cc565b612056576040517f08c379a000000000000000000000000000000000000000000000000000000000815260040161204d9061410c565b60405180910390fd5b50565b600033905090565b816004600083815260200190815260200160002060006101000a81548173ffffffffffffffffffffffffffffffffffffffff021916908373ffffffffffffffffffffffffffffffffffffffff160217905550808273ffffffffffffffffffffffffffffffffffffffff166120d483610904565b73ffffffffffffffffffffffffffffffffffffffff167f8c5be1e5ebec7d5bd14f71427d1e84f3dd0314c0f7b2291e5b200ac8c7c3b92560405160405180910390a45050565b60008061212683610904565b90508073ffffffffffffffffffffffffffffffffffffffff168473ffffffffffffffffffffffffffffffffffffffff1614806121685750612167818561198c565b5b806121a657508373ffffffffffffffffffffffffffffffffffffffff1661218e84610726565b73ffffffffffffffffffffffffffffffffffffffff16145b91505092915050565b8273ffffffffffffffffffffffffffffffffffffffff166121cf82610904565b73ffffffffffffffffffffffffffffffffffffffff1614612225576040517f08c379a000000000000000000000000000000000000000000000000000000000815260040161221c9061400c565b60405180910390fd5b600073ffffffffffffffffffffffffffffffffffffffff168273ffffffffffffffffffffffffffffffffffffffff161415612295576040517f08c379a000000000000000000000000000000000000000000000000000000000815260040161228c9061406c565b60405180910390fd5b6122a0838383612a38565b6122ab600082612061565b6001600360008573ffffffffffffffffffffffffffffffffffffffff1673ffffffffffffffffffffffffffffffffffffffff16815260200190815260200160002060008282546122fb91906143f1565b925050819055506001600360008473ffffffffffffffffffffffffffffffffffffffff1673ffffffffffffffffffffffffffffffffffffffff16815260200190815260200160002060008282546123529190614310565b92505081905550816002600083815260200190815260200160002060006101000a81548173ffffffffffffffffffffffffffffffffffffffff021916908373ffffffffffffffffffffffffffffffffffffffff160217905550808273ffffffffffffffffffffffffffffffffffffffff168473ffffffffffffffffffffffffffffffffffffffff167fddf252ad1be2c89b69c2b068fc378daa952ba7f163c4a11628f55a4df523b3ef60405160405180910390a4612411838383612a3d565b505050565b8173ffffffffffffffffffffffffffffffffffffffff168373ffffffffffffffffffffffffffffffffffffffff161415612485576040517f08c379a000000000000000000000000000000000000000000000000000000000815260040161247c9061408c565b60405180910390fd5b80600560008573ffffffffffffffffffffffffffffffffffffffff1673ffffffffffffffffffffffffffffffffffffffff16815260200190815260200160002060008473ffffffffffffffffffffffffffffffffffffffff1673ffffffffffffffffffffffffffffffffffffffff16815260200190815260200160002060006101000a81548160ff0219169083151502179055508173ffffffffffffffffffffffffffffffffffffffff168373ffffffffffffffffffffffffffffffffffffffff167f17307eab39ab6107e8899845ad3d59bd9653f200f220920489ca2b5937696c31836040516125769190613eb6565b60405180910390a3505050565b61258e8484846121af565b61259a84848484612a42565b6125d9576040517f08c379a00000000000000000000000000000000000000000000000000000000081526004016125d090613fec565b60405180910390fd5b50505050565b60606000821415612627576040518060400160405280600181526020017f3000000000000000000000000000000000000000000000000000000000000000815250905061273b565b600082905060005b600082146126595780806126429061459c565b915050600a826126529190614366565b915061262f565b60008167ffffffffffffffff811115612675576126746146d2565b5b6040519080825280601f01601f1916602001820160405280156126a75781602001600182028036833780820191505090505b5090505b60008514612734576001826126c091906143f1565b9150600a856126cf91906145e5565b60306126db9190614310565b60f81b8183815181106126f1576126f06146a3565b5b60200101907effffffffffffffffffffffffffffffffffffffffffffffffffffffffffffff1916908160001a905350600a8561272d9190614366565b94506126ab565b8093505050505b919050565b6060600082519050600081141561276957604051806020016040528060008152509150506128d3565b6000600360028361277a9190614310565b6127849190614366565b60046127909190614397565b905060006020826127a19190614310565b67ffffffffffffffff8111156127ba576127b96146d2565b5b6040519080825280601f01601f1916602001820160405280156127ec5781602001600182028036833780820191505090505b5090506000604051806060016040528060408152602001614d04604091399050600181016020830160005b868110156128905760038101905062ffffff818a015116603f8160121c168401518060081b905060ff603f83600c1c1686015116810190508060081b905060ff603f8360061c1686015116810190508060081b905060ff603f831686015116810190508060e01b90508084526004840193505050612817565b5060038606600181146128aa57600281146128ba576128c5565b613d3d60f01b60028303526128c5565b603d60f81b60018303525b508484525050819450505050505b919050565b600081600001549050919050565b612900828260405180602001604052806000815250612bd9565b5050565b61299e83838360405160240161291c93929190613fae565b6040516020818303038152906040527f969cdd03000000000000000000000000000000000000000000000000000000007bffffffffffffffffffffffffffffffffffffffffffffffffffffffff19166020820180517bffffffffffffffffffffffffffffffffffffffffffffffffffffffff83818316178352505050506129a3565b505050565b60008151905060006a636f6e736f6c652e6c6f679050602083016000808483855afa5050505050565b60008073ffffffffffffffffffffffffffffffffffffffff166002600084815260200190815260200160002060009054906101000a900473ffffffffffffffffffffffffffffffffffffffff1673ffffffffffffffffffffffffffffffffffffffff1614159050919050565b505050565b505050565b6000612a638473ffffffffffffffffffffffffffffffffffffffff16612c34565b15612bcc578373ffffffffffffffffffffffffffffffffffffffff1663150b7a02612a8c612059565b8786866040518563ffffffff1660e01b8152600401612aae9493929190613ce6565b602060405180830381600087803b158015612ac857600080fd5b505af1925050508015612af957506040513d601f19601f82011682018060405250810190612af691906132f4565b60015b612b7c573d8060008114612b29576040519150601f19603f3d011682016040523d82523d6000602084013e612b2e565b606091505b50600081511415612b74576040517f08c379a0000000000000000000000000000000000000000000000000000000008152600401612b6b90613fec565b60405180910390fd5b805181602001fd5b63150b7a0260e01b7bffffffffffffffffffffffffffffffffffffffffffffffffffffffff1916817bffffffffffffffffffffffffffffffffffffffffffffffffffffffff191614915050612bd1565b600190505b949350505050565b612be38383612c57565b612bf06000848484612a42565b612c2f576040517f08c379a0000000000000000000000000000000000000000000000000000000008152600401612c2690613fec565b60405180910390fd5b505050565b6000808273ffffffffffffffffffffffffffffffffffffffff163b119050919050565b600073ffffffffffffffffffffffffffffffffffffffff168273ffffffffffffffffffffffffffffffffffffffff161415612cc7576040517f08c379a0000000000000000000000000000000000000000000000000000000008152600401612cbe906140ec565b60405180910390fd5b612cd0816129cc565b15612d10576040517f08c379a0000000000000000000000000000000000000000000000000000000008152600401612d079061402c565b60405180910390fd5b612d1c60008383612a38565b6001600360008473ffffffffffffffffffffffffffffffffffffffff1673ffffffffffffffffffffffffffffffffffffffff1681526020019081526020016000206000828254612d6c9190614310565b92505081905550816002600083815260200190815260200160002060006101000a81548173ffffffffffffffffffffffffffffffffffffffff021916908373ffffffffffffffffffffffffffffffffffffffff160217905550808273ffffffffffffffffffffffffffffffffffffffff16600073ffffffffffffffffffffffffffffffffffffffff167fddf252ad1be2c89b69c2b068fc378daa952ba7f163c4a11628f55a4df523b3ef60405160405180910390a4612e2d60008383612a3d565b5050565b6040518060a0016040528060608152602001606081526020016000815260200160008152602001600081525090565b604051806101000160405280600073ffffffffffffffffffffffffffffffffffffffff168152602001600081526020016060815260200160608152602001600081526020016000815260200160008152602001600081525090565b508054612ec790614505565b6000825580601f10612ed95750612ef8565b601f016020900490600052602060002090810190612ef7919061300e565b5b50565b828054612f0790614505565b90600052602060002090601f016020900481019282612f295760008555612f77565b82601f10612f3a5780548555612f77565b82800160010185558215612f7757600052602060002091601f016020900482015b82811115612f76578254825591600101919060010190612f5b565b5b509050612f84919061300e565b5090565b828054612f9490614505565b90600052602060002090601f016020900481019282612fb65760008555612ffd565b82601f10612fcf57805160ff1916838001178555612ffd565b82800160010185558215612ffd579182015b82811115612ffc578251825591602001919060010190612fe1565b5b50905061300a919061300e565b5090565b5b8082111561302757600081600090555060010161300f565b5090565b600061303e61303984614210565b6141eb565b90508281526020810184848401111561305a57613059614706565b5b6130658482856144c3565b509392505050565b60008135905061307c81614ca7565b92915050565b60008135905061309181614cbe565b92915050565b6000813590506130a681614cd5565b92915050565b6000815190506130bb81614cd5565b92915050565b600082601f8301126130d6576130d5614701565b5b81356130e684826020860161302b565b91505092915050565b6000813590506130fe81614cec565b92915050565b60006020828403121561311a57613119614710565b5b60006131288482850161306d565b91505092915050565b6000806040838503121561314857613147614710565b5b60006131568582860161306d565b92505060206131678582860161306d565b9150509250929050565b60008060006060848603121561318a57613189614710565b5b60006131988682870161306d565b93505060206131a98682870161306d565b92505060406131ba868287016130ef565b9150509250925092565b600080600080608085870312156131de576131dd614710565b5b60006131ec8782880161306d565b94505060206131fd8782880161306d565b935050604061320e878288016130ef565b925050606085013567ffffffffffffffff81111561322f5761322e61470b565b5b61323b878288016130c1565b91505092959194509250565b6000806040838503121561325e5761325d614710565b5b600061326c8582860161306d565b925050602061327d85828601613082565b9150509250929050565b6000806040838503121561329e5761329d614710565b5b60006132ac8582860161306d565b92505060206132bd858286016130ef565b9150509250929050565b6000602082840312156132dd576132dc614710565b5b60006132eb84828501613097565b91505092915050565b60006020828403121561330a57613309614710565b5b6000613318848285016130ac565b91505092915050565b60006020828403121561333757613336614710565b5b6000613345848285016130ef565b91505092915050565b600061335a8383613967565b905092915050565b600061336e8383613ad5565b905092915050565b61337f8161444f565b82525050565b61338e8161444f565b82525050565b600061339f8261427b565b6133a981856142c1565b9350836020820285016133bb85614241565b8060005b858110156133f757848403895281516133d8858261334e565b94506133e3836142a7565b925060208a019950506001810190506133bf565b50829750879550505050505092915050565b600061341482614286565b61341e81856142c1565b93508360208202850161343085614251565b8060005b8581101561346b5784840389528161344c8582613362565b9450613457836142b4565b925060208a01995050600181019050613434565b50829750879550505050505092915050565b61348681614461565b82525050565b600061349782614291565b6134a181856142d2565b93506134b18185602086016144d2565b6134ba81614715565b840191505092915050565b60006134d08261429c565b6134da81856142e3565b93506134ea8185602086016144d2565b6134f381614715565b840191505092915050565b60006135098261429c565b61351381856142f4565b93506135238185602086016144d2565b61352c81614715565b840191505092915050565b60006135428261429c565b61354c8185614305565b935061355c8185602086016144d2565b80840191505092915050565b6000815461357581614505565b61357f81866142e3565b9450600182166000811461359a57600181146135ac576135df565b60ff19831686526020860193506135df565b6135b585614266565b60005b838110156135d7578154818901526001820191506020810190506135b8565b808801955050505b50505092915050565b60006135f5600b83614305565b915061360082614733565b600b82019050919050565b60006136186032836142f4565b91506136238261475c565b604082019050919050565b600061363b6025836142f4565b9150613646826147ab565b604082019050919050565b600061365e601c836142f4565b9150613669826147fa565b602082019050919050565b6000613681601a836142f4565b915061368c82614823565b602082019050919050565b60006136a4606883614305565b91506136af8261484c565b606882019050919050565b60006136c7600e83614305565b91506136d2826148e7565b600e82019050919050565b60006136ea6024836142f4565b91506136f582614910565b604082019050919050565b600061370d6019836142f4565b91506137188261495f565b602082019050919050565b60006137306029836142f4565b915061373b82614988565b604082019050919050565b6000613753600483614305565b915061375e826149d7565b600482019050919050565b6000613776603e836142f4565b915061378182614a00565b604082019050919050565b60006137996020836142f4565b91506137a482614a4f565b602082019050919050565b60006137bc600a83614305565b91506137c782614a78565b600a82019050919050565b60006137df6018836142f4565b91506137ea82614aa1565b602082019050919050565b60006138026021836142f4565b915061380d82614aca565b604082019050919050565b6000613825601d83614305565b915061383082614b19565b601d82019050919050565b60006138486018836142f4565b915061385382614b42565b602082019050919050565b600061386b603d83614305565b915061387682614b6b565b603d82019050919050565b600061388e602d83614305565b915061389982614bba565b602d82019050919050565b60006138b1603283614305565b91506138bc82614c09565b603282019050919050565b60006138d4602e836142f4565b91506138df82614c58565b604082019050919050565b600060a083016000830151848203600086015261390782826134c5565b9150506020830151848203602086015261392182826134c5565b91505060408301516139366040860182613bce565b5060608301516139496060860182613bce565b50608083015161395c6080860182613bce565b508091505092915050565b6000610100830160008301516139806000860182613376565b5060208301516139936020860182613bce565b50604083015184820360408601526139ab82826134c5565b915050606083015184820360608601526139c582826134c5565b91505060808301516139da6080860182613bce565b5060a08301516139ed60a0860182613bce565b5060c0830151613a0060c0860182613bce565b5060e0830151613a1360e0860182613bce565b508091505092915050565b600061010083016000830151613a376000860182613376565b506020830151613a4a6020860182613bce565b5060408301518482036040860152613a6282826134c5565b91505060608301518482036060860152613a7c82826134c5565b9150506080830151613a916080860182613bce565b5060a0830151613aa460a0860182613bce565b5060c0830151613ab760c0860182613bce565b5060e0830151613aca60e0860182613bce565b508091505092915050565b600061010083016000808401549050613aed81614537565b613afa6000870182613376565b5060018401549050613b0b81614551565b613b186020870182613bce565b50600284018583036040870152613b2f8382613568565b925050600384018583036060870152613b488382613568565b92505060048401549050613b5b81614551565b613b686080870182613bce565b5060058401549050613b7981614551565b613b8660a0870182613bce565b5060068401549050613b9781614551565b613ba460c0870182613bce565b5060078401549050613bb581614551565b613bc260e0870182613bce565b50819250505092915050565b613bd7816144b9565b82525050565b613be6816144b9565b82525050565b6000613bf7826137af565b9150613c03828a613537565b9150613c0e826135e8565b9150613c1a8289613537565b9150613c2582613697565b9150613c318288613537565b9150613c3c8261385e565b9150613c488287613537565b9150613c53826136ba565b9150613c5f8286613537565b9150613c6a82613881565b9150613c768285613537565b9150613c81826138a4565b9150613c8d8284613537565b9150613c9882613746565b915081905098975050505050505050565b6000613cb482613818565b9150613cc08284613537565b915081905092915050565b6000602082019050613ce06000830184613385565b92915050565b6000608082019050613cfb6000830187613385565b613d086020830186613385565b613d156040830185613bdd565b8181036060830152613d27818461348c565b905095945050505050565b6000604082019050613d476000830185613385565b8181036020830152613d598184613409565b90509392505050565b600061010082019050613d78600083018b613385565b613d85602083018a613bdd565b8181036040830152613d9781896134fe565b90508181036060830152613dab81886134fe565b9050613dba6080830187613bdd565b613dc760a0830186613bdd565b613dd460c0830185613bdd565b613de160e0830184613bdd565b9998505050505050505050565b6000608082019050613e036000830187613385565b613e106020830186613bdd565b613e1d6040830185613bdd565b8181036060830152613e2f8184613409565b905095945050505050565b600060a082019050613e4f6000830188613385565b613e5c6020830187613bdd565b613e696040830186613bdd565b613e766060830185613bdd565b8181036080830152613e888184613409565b90509695505050505050565b60006020820190508181036000830152613eae8184613394565b905092915050565b6000602082019050613ecb600083018461347d565b92915050565b60006020820190508181036000830152613eeb81846134fe565b905092915050565b60006080820190508181036000830152613f0d81876134fe565b90508181036020830152613f2181866134fe565b9050613f306040830185613bdd565b8181036060830152613f4281846134fe565b905095945050505050565b600060a0820190508181036000830152613f6781886134fe565b90508181036020830152613f7b81876134fe565b9050613f8a6040830186613bdd565b613f976060830185613bdd565b613fa46080830184613bdd565b9695505050505050565b60006060820190508181036000830152613fc881866134fe565b9050613fd76020830185613bdd565b613fe46040830184613bdd565b949350505050565b600060208201905081810360008301526140058161360b565b9050919050565b600060208201905081810360008301526140258161362e565b9050919050565b6000602082019050818103600083015261404581613651565b9050919050565b6000602082019050818103600083015261406581613674565b9050919050565b60006020820190508181036000830152614085816136dd565b9050919050565b600060208201905081810360008301526140a581613700565b9050919050565b600060208201905081810360008301526140c581613723565b9050919050565b600060208201905081810360008301526140e581613769565b9050919050565b600060208201905081810360008301526141058161378c565b9050919050565b60006020820190508181036000830152614125816137d2565b9050919050565b60006020820190508181036000830152614145816137f5565b9050919050565b600060208201905081810360008301526141658161383b565b9050919050565b60006020820190508181036000830152614185816138c7565b9050919050565b600060208201905081810360008301526141a681846138ea565b905092915050565b600060208201905081810360008301526141c88184613a1e565b905092915050565b60006020820190506141e56000830184613bdd565b92915050565b60006141f5614206565b9050614201828261456b565b919050565b6000604051905090565b600067ffffffffffffffff82111561422b5761422a6146d2565b5b61423482614715565b9050602081019050919050565b6000819050602082019050919050565b60008190508160005260206000209050919050565b60008190508160005260206000209050919050565b600081519050919050565b600081549050919050565b600081519050919050565b600081519050919050565b6000602082019050919050565b6000600882019050919050565b600082825260208201905092915050565b600082825260208201905092915050565b600082825260208201905092915050565b600082825260208201905092915050565b600081905092915050565b600061431b826144b9565b9150614326836144b9565b9250827fffffffffffffffffffffffffffffffffffffffffffffffffffffffffffffffff0382111561435b5761435a614616565b5b828201905092915050565b6000614371826144b9565b915061437c836144b9565b92508261438c5761438b614645565b5b828204905092915050565b60006143a2826144b9565b91506143ad836144b9565b9250817fffffffffffffffffffffffffffffffffffffffffffffffffffffffffffffffff04831182151516156143e6576143e5614616565b5b828202905092915050565b60006143fc826144b9565b9150614407836144b9565b92508282101561441a57614419614616565b5b828203905092915050565b600073ffffffffffffffffffffffffffffffffffffffff82169050919050565b6000819050919050565b600061445a82614499565b9050919050565b60008115159050919050565b60007fffffffff0000000000000000000000000000000000000000000000000000000082169050919050565b600073ffffffffffffffffffffffffffffffffffffffff82169050919050565b6000819050919050565b82818337600083830152505050565b60005b838110156144f05780820151818401526020810190506144d5565b838111156144ff576000848401525b50505050565b6000600282049050600182168061451d57607f821691505b6020821081141561453157614530614674565b5b50919050565b600061454a61454583614726565b614425565b9050919050565b600061456461455f83614726565b614445565b9050919050565b61457482614715565b810181811067ffffffffffffffff82111715614593576145926146d2565b5b80604052505050565b60006145a7826144b9565b91507fffffffffffffffffffffffffffffffffffffffffffffffffffffffffffffffff8214156145da576145d9614616565b5b600182019050919050565b60006145f0826144b9565b91506145fb836144b9565b92508261460b5761460a614645565b5b828206905092915050565b7f4e487b7100000000000000000000000000000000000000000000000000000000600052601160045260246000fd5b7f4e487b7100000000000000000000000000000000000000000000000000000000600052601260045260246000fd5b7f4e487b7100000000000000000000000000000000000000000000000000000000600052602260045260246000fd5b7f4e487b7100000000000000000000000000000000000000000000000000000000600052603260045260246000fd5b7f4e487b7100000000000000000000000000000000000000000000000000000000600052604160045260246000fd5b600080fd5b600080fd5b600080fd5b600080fd5b6000601f19601f8301169050919050565b60008160001c9050919050565b7f202d2d204e465420233a20000000000000000000000000000000000000000000600082015250565b7f4552433732313a207472616e7366657220746f206e6f6e20455243373231526560008201527f63656976657220696d706c656d656e7465720000000000000000000000000000602082015250565b7f4552433732313a207472616e736665722066726f6d20696e636f72726563742060008201527f6f776e6572000000000000000000000000000000000000000000000000000000602082015250565b7f4552433732313a20746f6b656e20616c7265616479206d696e74656400000000600082015250565b7f506c6179657220686173206e6f2048502063616e7420706c6179000000000000600082015250565b7f222c20226465736372697074696f6e223a20225468697320697320616e204e4660008201527f542074686174206c6574732070656f706c6520706c617920696e20746865206760208201527f616d65204461726b77696e67204e696768747321222c2022696d616765223a2060408201527f22697066733a2f2f000000000000000000000000000000000000000000000000606082015250565b7f2c20226d61785f76616c7565223a000000000000000000000000000000000000600082015250565b7f4552433732313a207472616e7366657220746f20746865207a65726f2061646460008201527f7265737300000000000000000000000000000000000000000000000000000000602082015250565b7f4552433732313a20617070726f766520746f2063616c6c657200000000000000600082015250565b7f4552433732313a2061646472657373207a65726f206973206e6f74206120766160008201527f6c6964206f776e65720000000000000000000000000000000000000000000000602082015250565b7f7d205d7d00000000000000000000000000000000000000000000000000000000600082015250565b7f4552433732313a20617070726f76652063616c6c6572206973206e6f7420746f60008201527f6b656e206f776e6572206e6f7220617070726f76656420666f7220616c6c0000602082015250565b7f4552433732313a206d696e7420746f20746865207a65726f2061646472657373600082015250565b7f7b226e616d65223a202200000000000000000000000000000000000000000000600082015250565b7f4552433732313a20696e76616c696420746f6b656e2049440000000000000000600082015250565b7f4552433732313a20617070726f76616c20746f2063757272656e74206f776e6560008201527f7200000000000000000000000000000000000000000000000000000000000000602082015250565b7f646174613a6170706c69636174696f6e2f6a736f6e3b6261736536342c000000600082015250565b7f426f737320686173206e6f2048502063616e7420706c61790000000000000000600082015250565b7f222c202261747472696275746573223a205b207b202274726169745f7479706560008201527f223a20224865616c746820506f696e7473222c202276616c7565223a20000000602082015250565b7f7d2c207b202274726169745f74797065223a202241747461636b2044616d616760008201527f65222c202276616c7565223a2000000000000000000000000000000000000000602082015250565b7f7d2c207b202274726169745f74797065223a2022546f74616c2044616d61676560008201527f204465616c74222c202276616c7565223a200000000000000000000000000000602082015250565b7f4552433732313a2063616c6c6572206973206e6f7420746f6b656e206f776e6560008201527f72206e6f7220617070726f766564000000000000000000000000000000000000602082015250565b614cb08161444f565b8114614cbb57600080fd5b50565b614cc781614461565b8114614cd257600080fd5b50565b614cde8161446d565b8114614ce957600080fd5b50565b614cf5816144b9565b8114614d0057600080fd5b5056fe4142434445464748494a4b4c4d4e4f505152535455565758595a6162636465666768696a6b6c6d6e6f707172737475767778797a303132333435363738392b2f4d696e746564204e465420772f20746f6b656e496420257320616e6420636861726163746572496e646578202573a2646970667358221220b7aead92e00bf047cd64e4cd53760372d76d90065e996568f8b7442b3427b09264736f6c63430008070033446f6e6520696e697469616c697a696e6720257320772f2048502025732c20696d67202573",
  "linkReferences": {},
  "deployedLinkReferences": {}
}