{
  "_format": "hh-sol-artifact-1",
  "contractName": "MyEpicGame",
  "sourceName": "contracts/MyEpicGame.sol",
  "abi": [
    {
      "inputs": [
        {
          "internalType": "string[]",
          "name": "characterNames",
          "type": "string[]"
        },
        {
          "internalType": "string[]",
          "name": "characterImageURIs",
          "type": "string[]"
        },
        {
          "internalType": "uint256[]",
          "name": "characterHP",
          "type": "uint256[]"
        },
        {
          "internalType": "uint256[]",
          "name": "characterAttackDamage",
          "type": "uint256[]"
        },
        {
          "internalType": "string",
          "name": "bossName",
          "type": "string"
        },
        {
          "internalType": "string",
          "name": "bossImageURI",
          "type": "string"
        },
        {
          "internalType": "uint256",
          "name": "bossHp",
          "type": "uint256"
        },
        {
          "internalType": "uint256",
          "name": "bossAttackDamage",
          "type": "uint256"
        },
        {
          "internalType": "uint64",
          "name": "subscriptionId",
          "type": "uint64"
        }
      ],
      "stateMutability": "nonpayable",
      "type": "constructor"
    },
    {
      "inputs": [
        {
          "internalType": "address",
          "name": "have",
          "type": "address"
        },
        {
          "internalType": "address",
          "name": "want",
          "type": "address"
        }
      ],
      "name": "OnlyCoordinatorCanFulfill",
      "type": "error"
    },
    {
      "anonymous": false,
      "inputs": [
        {
          "indexed": true,
          "internalType": "address",
          "name": "owner",
          "type": "address"
        },
        {
          "indexed": true,
          "internalType": "address",
          "name": "approved",
          "type": "address"
        },
        {
          "indexed": true,
          "internalType": "uint256",
          "name": "tokenId",
          "type": "uint256"
        }
      ],
      "name": "Approval",
      "type": "event"
    },
    {
      "anonymous": false,
      "inputs": [
        {
          "indexed": true,
          "internalType": "address",
          "name": "owner",
          "type": "address"
        },
        {
          "indexed": true,
          "internalType": "address",
          "name": "operator",
          "type": "address"
        },
        {
          "indexed": false,
          "internalType": "bool",
          "name": "approved",
          "type": "bool"
        }
      ],
      "name": "ApprovalForAll",
      "type": "event"
    },
    {
      "anonymous": false,
      "inputs": [
        {
          "indexed": false,
          "internalType": "address",
          "name": "sender",
          "type": "address"
        },
        {
          "indexed": false,
          "internalType": "uint256",
          "name": "newBossHP",
          "type": "uint256"
        },
        {
          "indexed": false,
          "internalType": "uint256",
          "name": "newPlayerHP",
          "type": "uint256"
        },
        {
          "indexed": false,
          "internalType": "uint256",
          "name": "damageDone",
          "type": "uint256"
        },
        {
          "components": [
            {
              "internalType": "address",
              "name": "sender",
              "type": "address"
            },
            {
              "internalType": "uint256",
              "name": "characterIndex",
              "type": "uint256"
            },
            {
              "internalType": "string",
              "name": "name",
              "type": "string"
            },
            {
              "internalType": "string",
              "name": "imageURI",
              "type": "string"
            },
            {
              "internalType": "uint256",
              "name": "hp",
              "type": "uint256"
            },
            {
              "internalType": "uint256",
              "name": "maxHP",
              "type": "uint256"
            },
            {
              "internalType": "uint256",
              "name": "attackDamage",
              "type": "uint256"
            },
            {
              "internalType": "uint256",
              "name": "damageDone",
              "type": "uint256"
            }
          ],
          "indexed": false,
          "internalType": "struct MyEpicGame.CharacterAttributes[]",
          "name": "allPlayersInGame",
          "type": "tuple[]"
        }
      ],
      "name": "AttackComplete",
      "type": "event"
    },
    {
      "anonymous": false,
      "inputs": [
        {
          "indexed": false,
          "internalType": "address",
          "name": "sender",
          "type": "address"
        },
        {
          "indexed": false,
          "internalType": "uint256",
          "name": "tokenID",
          "type": "uint256"
        },
        {
          "indexed": false,
          "internalType": "uint256",
          "name": "characterIndex",
          "type": "uint256"
        },
        {
          "components": [
            {
              "internalType": "address",
              "name": "sender",
              "type": "address"
            },
            {
              "internalType": "uint256",
              "name": "characterIndex",
              "type": "uint256"
            },
            {
              "internalType": "string",
              "name": "name",
              "type": "string"
            },
            {
              "internalType": "string",
              "name": "imageURI",
              "type": "string"
            },
            {
              "internalType": "uint256",
              "name": "hp",
              "type": "uint256"
            },
            {
              "internalType": "uint256",
              "name": "maxHP",
              "type": "uint256"
            },
            {
              "internalType": "uint256",
              "name": "attackDamage",
              "type": "uint256"
            },
            {
              "internalType": "uint256",
              "name": "damageDone",
              "type": "uint256"
            }
          ],
          "indexed": false,
          "internalType": "struct MyEpicGame.CharacterAttributes[]",
          "name": "allPlayersInGame",
          "type": "tuple[]"
        }
      ],
      "name": "CharacterNftMinted",
      "type": "event"
    },
    {
      "anonymous": false,
      "inputs": [
        {
          "indexed": false,
          "internalType": "address",
          "name": "sender",
          "type": "address"
        },
        {
          "components": [
            {
              "internalType": "address",
              "name": "sender",
              "type": "address"
            },
            {
              "internalType": "uint256",
              "name": "characterIndex",
              "type": "uint256"
            },
            {
              "internalType": "string",
              "name": "name",
              "type": "string"
            },
            {
              "internalType": "string",
              "name": "imageURI",
              "type": "string"
            },
            {
              "internalType": "uint256",
              "name": "hp",
              "type": "uint256"
            },
            {
              "internalType": "uint256",
              "name": "maxHP",
              "type": "uint256"
            },
            {
              "internalType": "uint256",
              "name": "attackDamage",
              "type": "uint256"
            },
            {
              "internalType": "uint256",
              "name": "damageDone",
              "type": "uint256"
            }
          ],
          "indexed": false,
          "internalType": "struct MyEpicGame.CharacterAttributes[]",
          "name": "allPlayersInGame",
          "type": "tuple[]"
        }
      ],
      "name": "NftDeath",
      "type": "event"
    },
    {
      "anonymous": false,
      "inputs": [
        {
          "indexed": false,
          "internalType": "uint256",
          "name": "randomNumber",
          "type": "uint256"
        },
        {
          "indexed": false,
          "internalType": "string",
          "name": "praise",
          "type": "string"
        }
      ],
      "name": "RandomNumberEvent",
      "type": "event"
    },
    {
      "anonymous": false,
      "inputs": [
        {
          "indexed": true,
          "internalType": "address",
          "name": "from",
          "type": "address"
        },
        {
          "indexed": true,
          "internalType": "address",
          "name": "to",
          "type": "address"
        },
        {
          "indexed": true,
          "internalType": "uint256",
          "name": "tokenId",
          "type": "uint256"
        }
      ],
      "name": "Transfer",
      "type": "event"
    },
    {
      "inputs": [
        {
          "internalType": "address",
          "name": "to",
          "type": "address"
        },
        {
          "internalType": "uint256",
          "name": "tokenId",
          "type": "uint256"
        }
      ],
      "name": "approve",
      "outputs": [],
      "stateMutability": "nonpayable",
      "type": "function"
    },
    {
      "inputs": [],
      "name": "attackBoss",
      "outputs": [],
      "stateMutability": "nonpayable",
      "type": "function"
    },
    {
      "inputs": [
        {
          "internalType": "address",
          "name": "owner",
          "type": "address"
        }
      ],
      "name": "balanceOf",
      "outputs": [
        {
          "internalType": "uint256",
          "name": "",
          "type": "uint256"
        }
      ],
      "stateMutability": "view",
      "type": "function"
    },
    {
      "inputs": [],
      "name": "bigBoss",
      "outputs": [
        {
          "internalType": "string",
          "name": "name",
          "type": "string"
        },
        {
          "internalType": "string",
          "name": "imageURI",
          "type": "string"
        },
        {
          "internalType": "uint256",
          "name": "hp",
          "type": "uint256"
        },
        {
          "internalType": "uint256",
          "name": "maxHP",
          "type": "uint256"
        },
        {
          "internalType": "uint256",
          "name": "attackDamage",
          "type": "uint256"
        }
      ],
      "stateMutability": "view",
      "type": "function"
    },
    {
      "inputs": [],
      "name": "checkIfUserHasNFT",
      "outputs": [
        {
          "components": [
            {
              "internalType": "address",
              "name": "sender",
              "type": "address"
            },
            {
              "internalType": "uint256",
              "name": "characterIndex",
              "type": "uint256"
            },
            {
              "internalType": "string",
              "name": "name",
              "type": "string"
            },
            {
              "internalType": "string",
              "name": "imageURI",
              "type": "string"
            },
            {
              "internalType": "uint256",
              "name": "hp",
              "type": "uint256"
            },
            {
              "internalType": "uint256",
              "name": "maxHP",
              "type": "uint256"
            },
            {
              "internalType": "uint256",
              "name": "attackDamage",
              "type": "uint256"
            },
            {
              "internalType": "uint256",
              "name": "damageDone",
              "type": "uint256"
            }
          ],
          "internalType": "struct MyEpicGame.CharacterAttributes",
          "name": "",
          "type": "tuple"
        }
      ],
      "stateMutability": "view",
      "type": "function"
    },
    {
      "inputs": [],
      "name": "getAllDefaultCharacters",
      "outputs": [
        {
          "components": [
            {
              "internalType": "address",
              "name": "sender",
              "type": "address"
            },
            {
              "internalType": "uint256",
              "name": "characterIndex",
              "type": "uint256"
            },
            {
              "internalType": "string",
              "name": "name",
              "type": "string"
            },
            {
              "internalType": "string",
              "name": "imageURI",
              "type": "string"
            },
            {
              "internalType": "uint256",
              "name": "hp",
              "type": "uint256"
            },
            {
              "internalType": "uint256",
              "name": "maxHP",
              "type": "uint256"
            },
            {
              "internalType": "uint256",
              "name": "attackDamage",
              "type": "uint256"
            },
            {
              "internalType": "uint256",
              "name": "damageDone",
              "type": "uint256"
            }
          ],
          "internalType": "struct MyEpicGame.CharacterAttributes[]",
          "name": "",
          "type": "tuple[]"
        }
      ],
      "stateMutability": "view",
      "type": "function"
    },
    {
      "inputs": [],
      "name": "getAllPlayersInGame",
      "outputs": [
        {
          "components": [
            {
              "internalType": "address",
              "name": "sender",
              "type": "address"
            },
            {
              "internalType": "uint256",
              "name": "characterIndex",
              "type": "uint256"
            },
            {
              "internalType": "string",
              "name": "name",
              "type": "string"
            },
            {
              "internalType": "string",
              "name": "imageURI",
              "type": "string"
            },
            {
              "internalType": "uint256",
              "name": "hp",
              "type": "uint256"
            },
            {
              "internalType": "uint256",
              "name": "maxHP",
              "type": "uint256"
            },
            {
              "internalType": "uint256",
              "name": "attackDamage",
              "type": "uint256"
            },
            {
              "internalType": "uint256",
              "name": "damageDone",
              "type": "uint256"
            }
          ],
          "internalType": "struct MyEpicGame.CharacterAttributes[]",
          "name": "",
          "type": "tuple[]"
        }
      ],
      "stateMutability": "view",
      "type": "function"
    },
    {
      "inputs": [
        {
          "internalType": "uint256",
          "name": "tokenId",
          "type": "uint256"
        }
      ],
      "name": "getApproved",
      "outputs": [
        {
          "internalType": "address",
          "name": "",
          "type": "address"
        }
      ],
      "stateMutability": "view",
      "type": "function"
    },
    {
      "inputs": [],
      "name": "getBigBoss",
      "outputs": [
        {
          "components": [
            {
              "internalType": "string",
              "name": "name",
              "type": "string"
            },
            {
              "internalType": "string",
              "name": "imageURI",
              "type": "string"
            },
            {
              "internalType": "uint256",
              "name": "hp",
              "type": "uint256"
            },
            {
              "internalType": "uint256",
              "name": "maxHP",
              "type": "uint256"
            },
            {
              "internalType": "uint256",
              "name": "attackDamage",
              "type": "uint256"
            }
          ],
          "internalType": "struct MyEpicGame.BigBoss",
          "name": "",
          "type": "tuple"
        }
      ],
      "stateMutability": "view",
      "type": "function"
    },
    {
      "inputs": [],
      "name": "getRandomNumber",
      "outputs": [
        {
          "internalType": "uint256",
          "name": "",
          "type": "uint256"
        }
      ],
      "stateMutability": "view",
      "type": "function"
    },
    {
      "inputs": [
        {
          "internalType": "address",
          "name": "owner",
          "type": "address"
        },
        {
          "internalType": "address",
          "name": "operator",
          "type": "address"
        }
      ],
      "name": "isApprovedForAll",
      "outputs": [
        {
          "internalType": "bool",
          "name": "",
          "type": "bool"
        }
      ],
      "stateMutability": "view",
      "type": "function"
    },
    {
      "inputs": [
        {
          "internalType": "uint256",
          "name": "_characterIndex",
          "type": "uint256"
        }
      ],
      "name": "mintCharacterNFT",
      "outputs": [],
      "stateMutability": "nonpayable",
      "type": "function"
    },
    {
      "inputs": [],
      "name": "name",
      "outputs": [
        {
          "internalType": "string",
          "name": "",
          "type": "string"
        }
      ],
      "stateMutability": "view",
      "type": "function"
    },
    {
      "inputs": [
        {
          "internalType": "uint256",
          "name": "",
          "type": "uint256"
        }
      ],
      "name": "nftHolderAttributes",
      "outputs": [
        {
          "internalType": "address",
          "name": "sender",
          "type": "address"
        },
        {
          "internalType": "uint256",
          "name": "characterIndex",
          "type": "uint256"
        },
        {
          "internalType": "string",
          "name": "name",
          "type": "string"
        },
        {
          "internalType": "string",
          "name": "imageURI",
          "type": "string"
        },
        {
          "internalType": "uint256",
          "name": "hp",
          "type": "uint256"
        },
        {
          "internalType": "uint256",
          "name": "maxHP",
          "type": "uint256"
        },
        {
          "internalType": "uint256",
          "name": "attackDamage",
          "type": "uint256"
        },
        {
          "internalType": "uint256",
          "name": "damageDone",
          "type": "uint256"
        }
      ],
      "stateMutability": "view",
      "type": "function"
    },
    {
      "inputs": [
        {
          "internalType": "address",
          "name": "",
          "type": "address"
        }
      ],
      "name": "nftHolders",
      "outputs": [
        {
          "internalType": "uint256",
          "name": "",
          "type": "uint256"
        }
      ],
      "stateMutability": "view",
      "type": "function"
    },
    {
      "inputs": [
        {
          "internalType": "uint256",
          "name": "tokenId",
          "type": "uint256"
        }
      ],
      "name": "ownerOf",
      "outputs": [
        {
          "internalType": "address",
          "name": "",
          "type": "address"
        }
      ],
      "stateMutability": "view",
      "type": "function"
    },
    {
      "inputs": [
        {
          "internalType": "uint256",
          "name": "requestId",
          "type": "uint256"
        },
        {
          "internalType": "uint256[]",
          "name": "randomWords",
          "type": "uint256[]"
        }
      ],
      "name": "rawFulfillRandomWords",
      "outputs": [],
      "stateMutability": "nonpayable",
      "type": "function"
    },
    {
      "inputs": [],
      "name": "requestRandomWords",
      "outputs": [],
      "stateMutability": "nonpayable",
      "type": "function"
    },
    {
      "inputs": [
        {
          "internalType": "uint256",
          "name": "",
          "type": "uint256"
        }
      ],
      "name": "s_randomWords",
      "outputs": [
        {
          "internalType": "uint256",
          "name": "",
          "type": "uint256"
        }
      ],
      "stateMutability": "view",
      "type": "function"
    },
    {
      "inputs": [],
      "name": "s_requestId",
      "outputs": [
        {
          "internalType": "uint256",
          "name": "",
          "type": "uint256"
        }
      ],
      "stateMutability": "view",
      "type": "function"
    },
    {
      "inputs": [
        {
          "internalType": "address",
          "name": "from",
          "type": "address"
        },
        {
          "internalType": "address",
          "name": "to",
          "type": "address"
        },
        {
          "internalType": "uint256",
          "name": "tokenId",
          "type": "uint256"
        }
      ],
      "name": "safeTransferFrom",
      "outputs": [],
      "stateMutability": "nonpayable",
      "type": "function"
    },
    {
      "inputs": [
        {
          "internalType": "address",
          "name": "from",
          "type": "address"
        },
        {
          "internalType": "address",
          "name": "to",
          "type": "address"
        },
        {
          "internalType": "uint256",
          "name": "tokenId",
          "type": "uint256"
        },
        {
          "internalType": "bytes",
          "name": "data",
          "type": "bytes"
        }
      ],
      "name": "safeTransferFrom",
      "outputs": [],
      "stateMutability": "nonpayable",
      "type": "function"
    },
    {
      "inputs": [
        {
          "internalType": "address",
          "name": "operator",
          "type": "address"
        },
        {
          "internalType": "bool",
          "name": "approved",
          "type": "bool"
        }
      ],
      "name": "setApprovalForAll",
      "outputs": [],
      "stateMutability": "nonpayable",
      "type": "function"
    },
    {
      "inputs": [
        {
          "internalType": "bytes4",
          "name": "interfaceId",
          "type": "bytes4"
        }
      ],
      "name": "supportsInterface",
      "outputs": [
        {
          "internalType": "bool",
          "name": "",
          "type": "bool"
        }
      ],
      "stateMutability": "view",
      "type": "function"
    },
    {
      "inputs": [],
      "name": "symbol",
      "outputs": [
        {
          "internalType": "string",
          "name": "",
          "type": "string"
        }
      ],
      "stateMutability": "view",
      "type": "function"
    },
    {
      "inputs": [
        {
          "internalType": "uint256",
          "name": "_tokenId",
          "type": "uint256"
        }
      ],
      "name": "tokenURI",
      "outputs": [
        {
          "internalType": "string",
          "name": "",
          "type": "string"
        }
      ],
      "stateMutability": "view",
      "type": "function"
    },
    {
      "inputs": [
        {
          "internalType": "address",
          "name": "from",
          "type": "address"
        },
        {
          "internalType": "address",
          "name": "to",
          "type": "address"
        },
        {
          "internalType": "uint256",
          "name": "tokenId",
          "type": "uint256"
        }
      ],
      "name": "transferFrom",
      "outputs": [],
      "stateMutability": "nonpayable",
      "type": "function"
    }
  ],
  "bytecode": "0x60a0604052732ca8e0c643bde4c2e08ab1fa0da3401adad7734d601160006101000a81548173ffffffffffffffffffffffffffffffffffffffff021916908373ffffffffffffffffffffffffffffffffffffffff1602179055507f79d3d8832d904592c0bf9818b621522c988bb8b0c05cdc3b15aea1b6e8db0c1560001b601255620186a0601360006101000a81548163ffffffff021916908363ffffffff1602179055506003601360046101000a81548161ffff021916908361ffff1602179055506005601360066101000a81548163ffffffff021916908363ffffffff160217905550348015620000f157600080fd5b506040516200676338038062006763833981810160405281019062000117919062000b6b565b601160009054906101000a900473ffffffffffffffffffffffffffffffffffffffff166040518060400160405280600f81526020017f4461726b77696e67204e696768747300000000000000000000000000000000008152506040518060400160405280600781526020017f42415457494e47000000000000000000000000000000000000000000000000008152508160009080519060200190620001be92919062000892565b508060019080519060200190620001d792919062000892565b5050508073ffffffffffffffffffffffffffffffffffffffff1660808173ffffffffffffffffffffffffffffffffffffffff1660601b81525050506040518060a0016040528086815260200185815260200184815260200184815260200183815250600a60008201518160000190805190602001906200025992919062000892565b5060208201518160010190805190602001906200027892919062000892565b5060408201518160020155606082015181600301556080820151816004015590505060005b8951811015620006b35760086040518061010001604052803373ffffffffffffffffffffffffffffffffffffffff1681526020018381526020018c8481518110620002ed57620002ec62000ffd565b5b602002602001015181526020018b848151811062000310576200030f62000ffd565b5b602002602001015181526020018a848151811062000333576200033262000ffd565b5b602002602001015181526020018a848151811062000356576200035562000ffd565b5b6020026020010151815260200189848151811062000379576200037862000ffd565b5b602002602001015181526020016000815250908060018154018082558091505060019003906000526020600020906008020160009091909190915060008201518160000160006101000a81548173ffffffffffffffffffffffffffffffffffffffff021916908373ffffffffffffffffffffffffffffffffffffffff1602179055506020820151816001015560408201518160020190805190602001906200042392919062000892565b5060608201518160030190805190602001906200044292919062000892565b506080820151816004015560a0820151816005015560c0820151816006015560e08201518160070155505060006008828154811062000486576200048562000ffd565b5b9060005260206000209060080201604051806101000160405290816000820160009054906101000a900473ffffffffffffffffffffffffffffffffffffffff1673ffffffffffffffffffffffffffffffffffffffff1673ffffffffffffffffffffffffffffffffffffffff16815260200160018201548152602001600282018054620005129062000ee5565b80601f0160208091040260200160405190810160405280929190818152602001828054620005409062000ee5565b8015620005915780601f10620005655761010080835404028352916020019162000591565b820191906000526020600020905b8154815290600101906020018083116200057357829003601f168201915b50505050508152602001600382018054620005ac9062000ee5565b80601f0160208091040260200160405190810160405280929190818152602001828054620005da9062000ee5565b80156200062b5780601f10620005ff576101008083540402835291602001916200062b565b820191906000526020600020905b8154815290600101906020018083116200060d57829003601f168201915b5050505050815260200160048201548152602001600582015481526020016006820154815260200160078201548152505090506200069c6040518060600160405280602581526020016200673e60259139826040015183608001518460600151620007a760201b620024331760201c565b508080620006aa9062000f51565b9150506200029d565b50601160009054906101000a900473ffffffffffffffffffffffffffffffffffffffff16601060006101000a81548173ffffffffffffffffffffffffffffffffffffffff021916908373ffffffffffffffffffffffffffffffffffffffff16021790555033601660006101000a81548173ffffffffffffffffffffffffffffffffffffffff021916908373ffffffffffffffffffffffffffffffffffffffff16021790555080601060146101000a81548167ffffffffffffffff021916908367ffffffffffffffff1602179055506200079860066200085360201b620024d51760201c565b505050505050505050620010b9565b6200084d84848484604051602401620007c4949392919062000d56565b6040516020818303038152906040527f8d142cdd000000000000000000000000000000000000000000000000000000007bffffffffffffffffffffffffffffffffffffffffffffffffffffffff19166020820180517bffffffffffffffffffffffffffffffffffffffffffffffffffffffff83818316178352505050506200086960201b60201c565b50505050565b6001816000016000828254019250508190555050565b60008151905060006a636f6e736f6c652e6c6f679050602083016000808483855afa5050505050565b828054620008a09062000ee5565b90600052602060002090601f016020900481019282620008c4576000855562000910565b82601f10620008df57805160ff191683800117855562000910565b8280016001018555821562000910579182015b828111156200090f578251825591602001919060010190620008f2565b5b5090506200091f919062000923565b5090565b5b808211156200093e57600081600090555060010162000924565b5090565b600062000959620009538462000de1565b62000db8565b905080838252602082019050828560208602820111156200097f576200097e62001060565b5b60005b85811015620009d457815167ffffffffffffffff811115620009a957620009a86200105b565b5b808601620009b8898262000b0a565b8552602085019450602084019350505060018101905062000982565b5050509392505050565b6000620009f5620009ef8462000e10565b62000db8565b9050808382526020820190508285602086028201111562000a1b5762000a1a62001060565b5b60005b8581101562000a4f578162000a34888262000b3d565b84526020840193506020830192505060018101905062000a1e565b5050509392505050565b600062000a7062000a6a8462000e3f565b62000db8565b90508281526020810184848401111562000a8f5762000a8e62001065565b5b62000a9c84828562000eaf565b509392505050565b600082601f83011262000abc5762000abb6200105b565b5b815162000ace84826020860162000942565b91505092915050565b600082601f83011262000aef5762000aee6200105b565b5b815162000b01848260208601620009de565b91505092915050565b600082601f83011262000b225762000b216200105b565b5b815162000b3484826020860162000a59565b91505092915050565b60008151905062000b4e8162001085565b92915050565b60008151905062000b65816200109f565b92915050565b60008060008060008060008060006101208a8c03121562000b915762000b906200106f565b5b60008a015167ffffffffffffffff81111562000bb25762000bb16200106a565b5b62000bc08c828d0162000aa4565b99505060208a015167ffffffffffffffff81111562000be45762000be36200106a565b5b62000bf28c828d0162000aa4565b98505060408a015167ffffffffffffffff81111562000c165762000c156200106a565b5b62000c248c828d0162000ad7565b97505060608a015167ffffffffffffffff81111562000c485762000c476200106a565b5b62000c568c828d0162000ad7565b96505060808a015167ffffffffffffffff81111562000c7a5762000c796200106a565b5b62000c888c828d0162000b0a565b95505060a08a015167ffffffffffffffff81111562000cac5762000cab6200106a565b5b62000cba8c828d0162000b0a565b94505060c062000ccd8c828d0162000b3d565b93505060e062000ce08c828d0162000b3d565b92505061010062000cf48c828d0162000b54565b9150509295985092959850929598565b600062000d118262000e75565b62000d1d818562000e80565b935062000d2f81856020860162000eaf565b62000d3a8162001074565b840191505092915050565b62000d508162000e91565b82525050565b6000608082019050818103600083015262000d72818762000d04565b9050818103602083015262000d88818662000d04565b905062000d99604083018562000d45565b818103606083015262000dad818462000d04565b905095945050505050565b600062000dc462000dd7565b905062000dd2828262000f1b565b919050565b6000604051905090565b600067ffffffffffffffff82111562000dff5762000dfe6200102c565b5b602082029050602081019050919050565b600067ffffffffffffffff82111562000e2e5762000e2d6200102c565b5b602082029050602081019050919050565b600067ffffffffffffffff82111562000e5d5762000e5c6200102c565b5b62000e688262001074565b9050602081019050919050565b600081519050919050565b600082825260208201905092915050565b6000819050919050565b600067ffffffffffffffff82169050919050565b60005b8381101562000ecf57808201518184015260208101905062000eb2565b8381111562000edf576000848401525b50505050565b6000600282049050600182168062000efe57607f821691505b6020821081141562000f155762000f1462000fce565b5b50919050565b62000f268262001074565b810181811067ffffffffffffffff8211171562000f485762000f476200102c565b5b80604052505050565b600062000f5e8262000e91565b91507fffffffffffffffffffffffffffffffffffffffffffffffffffffffffffffffff82141562000f945762000f9362000f9f565b5b600182019050919050565b7f4e487b7100000000000000000000000000000000000000000000000000000000600052601160045260246000fd5b7f4e487b7100000000000000000000000000000000000000000000000000000000600052602260045260246000fd5b7f4e487b7100000000000000000000000000000000000000000000000000000000600052603260045260246000fd5b7f4e487b7100000000000000000000000000000000000000000000000000000000600052604160045260246000fd5b600080fd5b600080fd5b600080fd5b600080fd5b600080fd5b6000601f19601f8301169050919050565b620010908162000e91565b81146200109c57600080fd5b50565b620010aa8162000e9b565b8114620010b657600080fd5b50565b60805160601c61565f620010df6000396000818161097f01526109d3015261565f6000f3fe608060405234801561001057600080fd5b50600436106101a95760003560e01c8063a22cb465116100f9578063dbdff2c111610097578063e985e9c511610071578063e985e9c5146104b5578063f6eaffc8146104e5578063f8b81ef714610515578063f9b8f4cb14610531576101a9565b8063dbdff2c11461046f578063e0c862891461048d578063e89e106a14610497576101a9565b8063b953084e116100d3578063b953084e146103f9578063c87b56dd14610417578063c8cf27f414610447578063d4f24c5b14610465576101a9565b8063a22cb4651461039f578063a9c32679146103bb578063b88d4fde146103dd576101a9565b806323b872dd1161016657806370a082311161014057806370a08231146102ea5780637df124a11461031a57806395d89b411461034a57806398da4c9514610368576101a9565b806323b872dd1461028257806342842e0e1461029e5780636352211e146102ba576101a9565b806301ffc9a7146101ae5780630665f961146101de57806306fdde03146101fc578063081812fc1461021a578063095ea7b31461024a5780631fe543e314610266575b600080fd5b6101c860048036038101906101c39190613957565b61054f565b6040516101d59190614657565b60405180910390f35b6101e6610631565b6040516101f39190614980565b60405180910390f35b61020461078d565b60405161021191906146c5565b60405180910390f35b610234600480360381019061022f91906139b1565b61081f565b6040516102419190614443565b60405180910390f35b610264600480360381019061025f9190613917565b610865565b005b610280600480360381019061027b9190613a0b565b61097d565b005b61029c60048036038101906102979190613801565b610a3d565b005b6102b860048036038101906102b39190613801565b610a9d565b005b6102d460048036038101906102cf91906139b1565b610abd565b6040516102e19190614443565b60405180910390f35b61030460048036038101906102ff9190613794565b610b6f565b60405161031191906149c4565b60405180910390f35b610334600480360381019061032f9190613794565b610c27565b60405161034191906149c4565b60405180910390f35b610352610c3f565b60405161035f91906146c5565b60405180910390f35b610382600480360381019061037d91906139b1565b610cd1565b604051610396989796959493929190614503565b60405180910390f35b6103b960048036038101906103b491906138d7565b610e49565b005b6103c3610e5f565b6040516103d4959493929190614741565b60405180910390f35b6103f760048036038101906103f29190613854565b610f93565b005b610401610ff5565b60405161040e9190614635565b60405180910390f35b610431600480360381019061042c91906139b1565b611201565b60405161043e91906146c5565b60405180910390f35b61044f611491565b60405161045c91906149a2565b60405180910390f35b61046d6116ca565b005b610477611b8f565b60405161048491906149c4565b60405180910390f35b610495611b99565b005b61049f611ca2565b6040516104ac91906149c4565b60405180910390f35b6104cf60048036038101906104ca91906137c1565b611ca8565b6040516104dc9190614657565b60405180910390f35b6104ff60048036038101906104fa91906139b1565b611d3c565b60405161050c91906149c4565b60405180910390f35b61052f600480360381019061052a91906139b1565b611d60565b005b610539612227565b6040516105469190614635565b60405180910390f35b60007f80ac58cd000000000000000000000000000000000000000000000000000000007bffffffffffffffffffffffffffffffffffffffffffffffffffffffff1916827bffffffffffffffffffffffffffffffffffffffffffffffffffffffff1916148061061a57507f5b5e139f000000000000000000000000000000000000000000000000000000007bffffffffffffffffffffffffffffffffffffffffffffffffffffffff1916827bffffffffffffffffffffffffffffffffffffffffffffffffffffffff1916145b8061062a5750610629826124eb565b5b9050919050565b61063961340e565b600a6040518060a001604052908160008201805461065690614d8f565b80601f016020809104026020016040519081016040528092919081815260200182805461068290614d8f565b80156106cf5780601f106106a4576101008083540402835291602001916106cf565b820191906000526020600020905b8154815290600101906020018083116106b257829003601f168201915b505050505081526020016001820180546106e890614d8f565b80601f016020809104026020016040519081016040528092919081815260200182805461071490614d8f565b80156107615780601f1061073657610100808354040283529160200191610761565b820191906000526020600020905b81548152906001019060200180831161074457829003601f168201915b505050505081526020016002820154815260200160038201548152602001600482015481525050905090565b60606000805461079c90614d8f565b80601f01602080910402602001604051908101604052809291908181526020018280546107c890614d8f565b80156108155780601f106107ea57610100808354040283529160200191610815565b820191906000526020600020905b8154815290600101906020018083116107f857829003601f168201915b5050505050905090565b600061082a82612555565b6004600083815260200190815260200160002060009054906101000a900473ffffffffffffffffffffffffffffffffffffffff169050919050565b600061087082610abd565b90508073ffffffffffffffffffffffffffffffffffffffff168373ffffffffffffffffffffffffffffffffffffffff1614156108e1576040517f08c379a00000000000000000000000000000000000000000000000000000000081526004016108d890614920565b60405180910390fd5b8073ffffffffffffffffffffffffffffffffffffffff166109006125a0565b73ffffffffffffffffffffffffffffffffffffffff16148061092f575061092e816109296125a0565b611ca8565b5b61096e576040517f08c379a0000000000000000000000000000000000000000000000000000000008152600401610965906148c0565b60405180910390fd5b61097883836125a8565b505050565b7f000000000000000000000000000000000000000000000000000000000000000073ffffffffffffffffffffffffffffffffffffffff163373ffffffffffffffffffffffffffffffffffffffff1614610a2f57337f00000000000000000000000000000000000000000000000000000000000000006040517f1cf993f4000000000000000000000000000000000000000000000000000000008152600401610a2692919061445e565b60405180910390fd5b610a398282612661565b5050565b610a4e610a486125a0565b826126f7565b610a8d576040517f08c379a0000000000000000000000000000000000000000000000000000000008152600401610a8490614960565b60405180910390fd5b610a9883838361278c565b505050565b610ab883838360405180602001604052806000815250610f93565b505050565b6000806002600084815260200190815260200160002060009054906101000a900473ffffffffffffffffffffffffffffffffffffffff169050600073ffffffffffffffffffffffffffffffffffffffff168173ffffffffffffffffffffffffffffffffffffffff161415610b66576040517f08c379a0000000000000000000000000000000000000000000000000000000008152600401610b5d90614900565b60405180910390fd5b80915050919050565b60008073ffffffffffffffffffffffffffffffffffffffff168273ffffffffffffffffffffffffffffffffffffffff161415610be0576040517f08c379a0000000000000000000000000000000000000000000000000000000008152600401610bd7906148a0565b60405180910390fd5b600360008373ffffffffffffffffffffffffffffffffffffffff1673ffffffffffffffffffffffffffffffffffffffff168152602001908152602001600020549050919050565b600f6020528060005260406000206000915090505481565b606060018054610c4e90614d8f565b80601f0160208091040260200160405190810160405280929190818152602001828054610c7a90614d8f565b8015610cc75780601f10610c9c57610100808354040283529160200191610cc7565b820191906000526020600020905b815481529060010190602001808311610caa57829003601f168201915b5050505050905090565b60096020528060005260406000206000915090508060000160009054906101000a900473ffffffffffffffffffffffffffffffffffffffff1690806001015490806002018054610d2090614d8f565b80601f0160208091040260200160405190810160405280929190818152602001828054610d4c90614d8f565b8015610d995780601f10610d6e57610100808354040283529160200191610d99565b820191906000526020600020905b815481529060010190602001808311610d7c57829003601f168201915b505050505090806003018054610dae90614d8f565b80601f0160208091040260200160405190810160405280929190818152602001828054610dda90614d8f565b8015610e275780601f10610dfc57610100808354040283529160200191610e27565b820191906000526020600020905b815481529060010190602001808311610e0a57829003601f168201915b5050505050908060040154908060050154908060060154908060070154905088565b610e5b610e546125a0565b83836129f3565b5050565b600a806000018054610e7090614d8f565b80601f0160208091040260200160405190810160405280929190818152602001828054610e9c90614d8f565b8015610ee95780601f10610ebe57610100808354040283529160200191610ee9565b820191906000526020600020905b815481529060010190602001808311610ecc57829003601f168201915b505050505090806001018054610efe90614d8f565b80601f0160208091040260200160405190810160405280929190818152602001828054610f2a90614d8f565b8015610f775780601f10610f4c57610100808354040283529160200191610f77565b820191906000526020600020905b815481529060010190602001808311610f5a57829003601f168201915b5050505050908060020154908060030154908060040154905085565b610fa4610f9e6125a0565b836126f7565b610fe3576040517f08c379a0000000000000000000000000000000000000000000000000000000008152600401610fda90614960565b60405180910390fd5b610fef84848484612b60565b50505050565b60606008805480602002602001604051908101604052809291908181526020016000905b828210156111f85783829060005260206000209060080201604051806101000160405290816000820160009054906101000a900473ffffffffffffffffffffffffffffffffffffffff1673ffffffffffffffffffffffffffffffffffffffff1673ffffffffffffffffffffffffffffffffffffffff168152602001600182015481526020016002820180546110ad90614d8f565b80601f01602080910402602001604051908101604052809291908181526020018280546110d990614d8f565b80156111265780601f106110fb57610100808354040283529160200191611126565b820191906000526020600020905b81548152906001019060200180831161110957829003601f168201915b5050505050815260200160038201805461113f90614d8f565b80601f016020809104026020016040519081016040528092919081815260200182805461116b90614d8f565b80156111b85780601f1061118d576101008083540402835291602001916111b8565b820191906000526020600020905b81548152906001019060200180831161119b57829003601f168201915b5050505050815260200160048201548152602001600582015481526020016006820154815260200160078201548152505081526020019060010190611019565b50505050905090565b6060600060096000848152602001908152602001600020604051806101000160405290816000820160009054906101000a900473ffffffffffffffffffffffffffffffffffffffff1673ffffffffffffffffffffffffffffffffffffffff1673ffffffffffffffffffffffffffffffffffffffff1681526020016001820154815260200160028201805461129490614d8f565b80601f01602080910402602001604051908101604052809291908181526020018280546112c090614d8f565b801561130d5780601f106112e25761010080835404028352916020019161130d565b820191906000526020600020905b8154815290600101906020018083116112f057829003601f168201915b5050505050815260200160038201805461132690614d8f565b80601f016020809104026020016040519081016040528092919081815260200182805461135290614d8f565b801561139f5780601f106113745761010080835404028352916020019161139f565b820191906000526020600020905b81548152906001019060200180831161138257829003601f168201915b50505050508152602001600482015481526020016005820154815260200160068201548152602001600782015481525050905060006113e18260800151612bbc565b905060006113f28360a00151612bbc565b905060006114038460c00151612bbc565b905060006114148560e00151612bbc565b9050600061145c86604001516114298a612bbc565b8860600151888888886040516020016114489796959493929190614364565b604051602081830303815290604052612d1d565b90506000816040516020016114719190614421565b604051602081830303815290604052905080975050505050505050919050565b61149961343d565b6000600f60003373ffffffffffffffffffffffffffffffffffffffff1673ffffffffffffffffffffffffffffffffffffffff16815260200190815260200160002054905060008111156116b95760096000828152602001908152602001600020604051806101000160405290816000820160009054906101000a900473ffffffffffffffffffffffffffffffffffffffff1673ffffffffffffffffffffffffffffffffffffffff1673ffffffffffffffffffffffffffffffffffffffff1681526020016001820154815260200160028201805461157590614d8f565b80601f01602080910402602001604051908101604052809291908181526020018280546115a190614d8f565b80156115ee5780601f106115c3576101008083540402835291602001916115ee565b820191906000526020600020905b8154815290600101906020018083116115d157829003601f168201915b5050505050815260200160038201805461160790614d8f565b80601f016020809104026020016040519081016040528092919081815260200182805461163390614d8f565b80156116805780601f1061165557610100808354040283529160200191611680565b820191906000526020600020905b81548152906001019060200180831161166357829003601f168201915b505050505081526020016004820154815260200160058201548152602001600682015481526020016007820154815250509150506116c7565b6116c161343d565b80925050505b90565b6000600f60003373ffffffffffffffffffffffffffffffffffffffff1673ffffffffffffffffffffffffffffffffffffffff16815260200190815260200160002054905060006009600083815260200190815260200160002090506004601754141561174a57600381600601546117419190614be5565b81600601819055505b6000816004015411611791576040517f08c379a000000000000000000000000000000000000000000000000000000000815260040161178890614840565b60405180910390fd5b6000600a60020154116117d9576040517f08c379a00000000000000000000000000000000000000000000000000000000081526004016117d090614940565b60405180910390fd5b8060060154600a60020154101561181a57600a600201548160070160008282546118039190614b5e565b925050819055506000600a6002018190555061185a565b80600601548160070160008282546118329190614b5e565b925050819055508060060154600a60020160008282546118529190614c3f565b925050819055505b600a600401548160040154101561187a576000816004018190555061189b565b600a600401548160040160008282546118939190614c3f565b925050819055505b60005b600780549050811015611b18573373ffffffffffffffffffffffffffffffffffffffff16600782815481106118d6576118d5614f2d565b5b906000526020600020906008020160000160009054906101000a900473ffffffffffffffffffffffffffffffffffffffff1673ffffffffffffffffffffffffffffffffffffffff161415611b0557600082600401541415611a04576007818154811061194557611944614f2d565b5b9060005260206000209060080201600080820160006101000a81549073ffffffffffffffffffffffffffffffffffffffff021916905560018201600090556002820160006119939190613498565b6003820160006119a39190613498565b600482016000905560058201600090556006820160009055600782016000905550507f8b348e519319ce056b18ae43c2239a2f2a8973595c0cf01aded937707d44c66d3360076040516119f79291906144d3565b60405180910390a1611b04565b8160078281548110611a1957611a18614f2d565b5b90600052602060002090600802016000820160009054906101000a900473ffffffffffffffffffffffffffffffffffffffff168160000160006101000a81548173ffffffffffffffffffffffffffffffffffffffff021916908373ffffffffffffffffffffffffffffffffffffffff160217905550600182015481600101556002820181600201908054611aac90614d8f565b611ab79291906134d8565b506003820181600301908054611acc90614d8f565b611ad79291906134d8565b50600482015481600401556005820154816005015560068201548160060155600782015481600701559050505b5b8080611b1090614e26565b91505061189e565b5060046017541415611b3e5760038160060154611b359190614bb4565b81600601819055505b7f93e52d5efffa697fd9ea49a98f3868aadfe91fe7dd670a4784d212c5fba5297633600a60020154836004015484600701546007604051611b839594939291906145db565b60405180910390a15050565b6000601754905090565b601060009054906101000a900473ffffffffffffffffffffffffffffffffffffffff1673ffffffffffffffffffffffffffffffffffffffff16635d3b1d30601254601060149054906101000a900467ffffffffffffffff16601360049054906101000a900461ffff16601360009054906101000a900463ffffffff16601360069054906101000a900463ffffffff166040518663ffffffff1660e01b8152600401611c48959493929190614672565b602060405180830381600087803b158015611c6257600080fd5b505af1158015611c76573d6000803e3d6000fd5b505050506040513d601f19601f82011682018060405250810190611c9a91906139de565b601581905550565b60155481565b6000600560008473ffffffffffffffffffffffffffffffffffffffff1673ffffffffffffffffffffffffffffffffffffffff16815260200190815260200160002060008373ffffffffffffffffffffffffffffffffffffffff1673ffffffffffffffffffffffffffffffffffffffff16815260200190815260200160002060009054906101000a900460ff16905092915050565b60148181548110611d4c57600080fd5b906000526020600020016000915090505481565b6000611d6c6006612eb5565b9050611d783382612ec3565b6040518061010001604052803373ffffffffffffffffffffffffffffffffffffffff16815260200183815260200160088481548110611dba57611db9614f2d565b5b90600052602060002090600802016002018054611dd690614d8f565b80601f0160208091040260200160405190810160405280929190818152602001828054611e0290614d8f565b8015611e4f5780601f10611e2457610100808354040283529160200191611e4f565b820191906000526020600020905b815481529060010190602001808311611e3257829003601f168201915b5050505050815260200160088481548110611e6d57611e6c614f2d565b5b90600052602060002090600802016003018054611e8990614d8f565b80601f0160208091040260200160405190810160405280929190818152602001828054611eb590614d8f565b8015611f025780601f10611ed757610100808354040283529160200191611f02565b820191906000526020600020905b815481529060010190602001808311611ee557829003601f168201915b5050505050815260200160088481548110611f2057611f1f614f2d565b5b906000526020600020906008020160040154815260200160088481548110611f4b57611f4a614f2d565b5b906000526020600020906008020160050154815260200160088481548110611f7657611f75614f2d565b5b906000526020600020906008020160060154815260200160008152506009600083815260200190815260200160002060008201518160000160006101000a81548173ffffffffffffffffffffffffffffffffffffffff021916908373ffffffffffffffffffffffffffffffffffffffff160217905550602082015181600101556040820151816002019080519060200190612012929190613565565b50606082015181600301908051906020019061202f929190613565565b506080820151816004015560a0820151816005015560c0820151816006015560e0820151816007015590505060076009600083815260200190815260200160002090806001815401808255809150506001900390600052602060002090600802016000909190919091506000820160009054906101000a900473ffffffffffffffffffffffffffffffffffffffff168160000160006101000a81548173ffffffffffffffffffffffffffffffffffffffff021916908373ffffffffffffffffffffffffffffffffffffffff16021790555060018201548160010155600282018160020190805461211e90614d8f565b6121299291906134d8565b50600382018160030190805461213e90614d8f565b6121499291906134d8565b506004820154816004015560058201548160050155600682015481600601556007820154816007015550506121976040518060600160405280602e81526020016155fc602e91398284612ee1565b80600f60003373ffffffffffffffffffffffffffffffffffffffff1673ffffffffffffffffffffffffffffffffffffffff168152602001908152602001600020819055506121e560066124d5565b7ff7ce6d45718f4d5553edc6316819886e91553095c70e36bced1baa5d3f5ee226338284600760405161221b949392919061458f565b60405180910390a15050565b60606007805480602002602001604051908101604052809291908181526020016000905b8282101561242a5783829060005260206000209060080201604051806101000160405290816000820160009054906101000a900473ffffffffffffffffffffffffffffffffffffffff1673ffffffffffffffffffffffffffffffffffffffff1673ffffffffffffffffffffffffffffffffffffffff168152602001600182015481526020016002820180546122df90614d8f565b80601f016020809104026020016040519081016040528092919081815260200182805461230b90614d8f565b80156123585780601f1061232d57610100808354040283529160200191612358565b820191906000526020600020905b81548152906001019060200180831161233b57829003601f168201915b5050505050815260200160038201805461237190614d8f565b80601f016020809104026020016040519081016040528092919081815260200182805461239d90614d8f565b80156123ea5780601f106123bf576101008083540402835291602001916123ea565b820191906000526020600020905b8154815290600101906020018083116123cd57829003601f168201915b505050505081526020016004820154815260200160058201548152602001600682015481526020016007820154815250508152602001906001019061224b565b50505050905090565b6124cf8484848460405160240161244d94939291906146e7565b6040516020818303038152906040527f8d142cdd000000000000000000000000000000000000000000000000000000007bffffffffffffffffffffffffffffffffffffffffffffffffffffffff19166020820180517bffffffffffffffffffffffffffffffffffffffffffffffffffffffff8381831617835250505050612f80565b50505050565b6001816000016000828254019250508190555050565b60007f01ffc9a7000000000000000000000000000000000000000000000000000000007bffffffffffffffffffffffffffffffffffffffffffffffffffffffff1916827bffffffffffffffffffffffffffffffffffffffffffffffffffffffff1916149050919050565b61255e81612fa9565b61259d576040517f08c379a000000000000000000000000000000000000000000000000000000000815260040161259490614900565b60405180910390fd5b50565b600033905090565b816004600083815260200190815260200160002060006101000a81548173ffffffffffffffffffffffffffffffffffffffff021916908373ffffffffffffffffffffffffffffffffffffffff160217905550808273ffffffffffffffffffffffffffffffffffffffff1661261b83610abd565b73ffffffffffffffffffffffffffffffffffffffff167f8c5be1e5ebec7d5bd14f71427d1e84f3dd0314c0f7b2291e5b200ac8c7c3b92560405160405180910390a45050565b60005b81518110156126f2576001600583838151811061268457612683614f2d565b5b60200260200101516126969190614e6f565b6126a09190614b5e565b6017819055507fc859f04dadf560b8f9dd8e4a7327ec478e58b6a681349f89f64496a23c9c25d26017546040516126d791906149df565b60405180910390a180806126ea90614e26565b915050612664565b505050565b60008061270383610abd565b90508073ffffffffffffffffffffffffffffffffffffffff168473ffffffffffffffffffffffffffffffffffffffff16148061274557506127448185611ca8565b5b8061278357508373ffffffffffffffffffffffffffffffffffffffff1661276b8461081f565b73ffffffffffffffffffffffffffffffffffffffff16145b91505092915050565b8273ffffffffffffffffffffffffffffffffffffffff166127ac82610abd565b73ffffffffffffffffffffffffffffffffffffffff1614612802576040517f08c379a00000000000000000000000000000000000000000000000000000000081526004016127f990614800565b60405180910390fd5b600073ffffffffffffffffffffffffffffffffffffffff168273ffffffffffffffffffffffffffffffffffffffff161415612872576040517f08c379a000000000000000000000000000000000000000000000000000000000815260040161286990614860565b60405180910390fd5b61287d838383613015565b6128886000826125a8565b6001600360008573ffffffffffffffffffffffffffffffffffffffff1673ffffffffffffffffffffffffffffffffffffffff16815260200190815260200160002060008282546128d89190614c3f565b925050819055506001600360008473ffffffffffffffffffffffffffffffffffffffff1673ffffffffffffffffffffffffffffffffffffffff168152602001908152602001600020600082825461292f9190614b5e565b92505081905550816002600083815260200190815260200160002060006101000a81548173ffffffffffffffffffffffffffffffffffffffff021916908373ffffffffffffffffffffffffffffffffffffffff160217905550808273ffffffffffffffffffffffffffffffffffffffff168473ffffffffffffffffffffffffffffffffffffffff167fddf252ad1be2c89b69c2b068fc378daa952ba7f163c4a11628f55a4df523b3ef60405160405180910390a46129ee83838361301a565b505050565b8173ffffffffffffffffffffffffffffffffffffffff168373ffffffffffffffffffffffffffffffffffffffff161415612a62576040517f08c379a0000000000000000000000000000000000000000000000000000000008152600401612a5990614880565b60405180910390fd5b80600560008573ffffffffffffffffffffffffffffffffffffffff1673ffffffffffffffffffffffffffffffffffffffff16815260200190815260200160002060008473ffffffffffffffffffffffffffffffffffffffff1673ffffffffffffffffffffffffffffffffffffffff16815260200190815260200160002060006101000a81548160ff0219169083151502179055508173ffffffffffffffffffffffffffffffffffffffff168373ffffffffffffffffffffffffffffffffffffffff167f17307eab39ab6107e8899845ad3d59bd9653f200f220920489ca2b5937696c3183604051612b539190614657565b60405180910390a3505050565b612b6b84848461278c565b612b778484848461301f565b612bb6576040517f08c379a0000000000000000000000000000000000000000000000000000000008152600401612bad906147e0565b60405180910390fd5b50505050565b60606000821415612c04576040518060400160405280600181526020017f30000000000000000000000000000000000000000000000000000000000000008152509050612d18565b600082905060005b60008214612c36578080612c1f90614e26565b915050600a82612c2f9190614bb4565b9150612c0c565b60008167ffffffffffffffff811115612c5257612c51614f5c565b5b6040519080825280601f01601f191660200182016040528015612c845781602001600182028036833780820191505090505b5090505b60008514612d1157600182612c9d9190614c3f565b9150600a85612cac9190614e6f565b6030612cb89190614b5e565b60f81b818381518110612cce57612ccd614f2d565b5b60200101907effffffffffffffffffffffffffffffffffffffffffffffffffffffffffffff1916908160001a905350600a85612d0a9190614bb4565b9450612c88565b8093505050505b919050565b60606000825190506000811415612d465760405180602001604052806000815250915050612eb0565b60006003600283612d579190614b5e565b612d619190614bb4565b6004612d6d9190614be5565b90506000602082612d7e9190614b5e565b67ffffffffffffffff811115612d9757612d96614f5c565b5b6040519080825280601f01601f191660200182016040528015612dc95781602001600182028036833780820191505090505b50905060006040518060600160405280604081526020016155bc604091399050600181016020830160005b86811015612e6d5760038101905062ffffff818a015116603f8160121c168401518060081b905060ff603f83600c1c1686015116810190508060081b905060ff603f8360061c1686015116810190508060081b905060ff603f831686015116810190508060e01b90508084526004840193505050612df4565b506003860660018114612e875760028114612e9757612ea2565b613d3d60f01b6002830352612ea2565b603d60f81b60018303525b508484525050819450505050505b919050565b600081600001549050919050565b612edd8282604051806020016040528060008152506131b6565b5050565b612f7b838383604051602401612ef9939291906147a2565b6040516020818303038152906040527f969cdd03000000000000000000000000000000000000000000000000000000007bffffffffffffffffffffffffffffffffffffffffffffffffffffffff19166020820180517bffffffffffffffffffffffffffffffffffffffffffffffffffffffff8381831617835250505050612f80565b505050565b60008151905060006a636f6e736f6c652e6c6f679050602083016000808483855afa5050505050565b60008073ffffffffffffffffffffffffffffffffffffffff166002600084815260200190815260200160002060009054906101000a900473ffffffffffffffffffffffffffffffffffffffff1673ffffffffffffffffffffffffffffffffffffffff1614159050919050565b505050565b505050565b60006130408473ffffffffffffffffffffffffffffffffffffffff16613211565b156131a9578373ffffffffffffffffffffffffffffffffffffffff1663150b7a026130696125a0565b8786866040518563ffffffff1660e01b815260040161308b9493929190614487565b602060405180830381600087803b1580156130a557600080fd5b505af19250505080156130d657506040513d601f19601f820116820180604052508101906130d39190613984565b60015b613159573d8060008114613106576040519150601f19603f3d011682016040523d82523d6000602084013e61310b565b606091505b50600081511415613151576040517f08c379a0000000000000000000000000000000000000000000000000000000008152600401613148906147e0565b60405180910390fd5b805181602001fd5b63150b7a0260e01b7bffffffffffffffffffffffffffffffffffffffffffffffffffffffff1916817bffffffffffffffffffffffffffffffffffffffffffffffffffffffff1916149150506131ae565b600190505b949350505050565b6131c08383613234565b6131cd600084848461301f565b61320c576040517f08c379a0000000000000000000000000000000000000000000000000000000008152600401613203906147e0565b60405180910390fd5b505050565b6000808273ffffffffffffffffffffffffffffffffffffffff163b119050919050565b600073ffffffffffffffffffffffffffffffffffffffff168273ffffffffffffffffffffffffffffffffffffffff1614156132a4576040517f08c379a000000000000000000000000000000000000000000000000000000000815260040161329b906148e0565b60405180910390fd5b6132ad81612fa9565b156132ed576040517f08c379a00000000000000000000000000000000000000000000000000000000081526004016132e490614820565b60405180910390fd5b6132f960008383613015565b6001600360008473ffffffffffffffffffffffffffffffffffffffff1673ffffffffffffffffffffffffffffffffffffffff16815260200190815260200160002060008282546133499190614b5e565b92505081905550816002600083815260200190815260200160002060006101000a81548173ffffffffffffffffffffffffffffffffffffffff021916908373ffffffffffffffffffffffffffffffffffffffff160217905550808273ffffffffffffffffffffffffffffffffffffffff16600073ffffffffffffffffffffffffffffffffffffffff167fddf252ad1be2c89b69c2b068fc378daa952ba7f163c4a11628f55a4df523b3ef60405160405180910390a461340a6000838361301a565b5050565b6040518060a0016040528060608152602001606081526020016000815260200160008152602001600081525090565b604051806101000160405280600073ffffffffffffffffffffffffffffffffffffffff168152602001600081526020016060815260200160608152602001600081526020016000815260200160008152602001600081525090565b5080546134a490614d8f565b6000825580601f106134b657506134d5565b601f0160209004906000526020600020908101906134d491906135eb565b5b50565b8280546134e490614d8f565b90600052602060002090601f0160209004810192826135065760008555613554565b82601f106135175780548555613554565b8280016001018555821561355457600052602060002091601f016020900482015b82811115613553578254825591600101919060010190613538565b5b50905061356191906135eb565b5090565b82805461357190614d8f565b90600052602060002090601f01602090048101928261359357600085556135da565b82601f106135ac57805160ff19168380011785556135da565b828001600101855582156135da579182015b828111156135d95782518255916020019190600101906135be565b5b5090506135e791906135eb565b5090565b5b808211156136045760008160009055506001016135ec565b5090565b600061361b61361684614a32565b614a0d565b9050808382526020820190508285602086028201111561363e5761363d614f90565b5b60005b8581101561366e5781613654888261376a565b845260208401935060208301925050600181019050613641565b5050509392505050565b600061368b61368684614a5e565b614a0d565b9050828152602081018484840111156136a7576136a6614f95565b5b6136b2848285614d4d565b509392505050565b6000813590506136c98161555f565b92915050565b600082601f8301126136e4576136e3614f8b565b5b81356136f4848260208601613608565b91505092915050565b60008135905061370c81615576565b92915050565b6000813590506137218161558d565b92915050565b6000815190506137368161558d565b92915050565b600082601f83011261375157613750614f8b565b5b8135613761848260208601613678565b91505092915050565b600081359050613779816155a4565b92915050565b60008151905061378e816155a4565b92915050565b6000602082840312156137aa576137a9614f9f565b5b60006137b8848285016136ba565b91505092915050565b600080604083850312156137d8576137d7614f9f565b5b60006137e6858286016136ba565b92505060206137f7858286016136ba565b9150509250929050565b60008060006060848603121561381a57613819614f9f565b5b6000613828868287016136ba565b9350506020613839868287016136ba565b925050604061384a8682870161376a565b9150509250925092565b6000806000806080858703121561386e5761386d614f9f565b5b600061387c878288016136ba565b945050602061388d878288016136ba565b935050604061389e8782880161376a565b925050606085013567ffffffffffffffff8111156138bf576138be614f9a565b5b6138cb8782880161373c565b91505092959194509250565b600080604083850312156138ee576138ed614f9f565b5b60006138fc858286016136ba565b925050602061390d858286016136fd565b9150509250929050565b6000806040838503121561392e5761392d614f9f565b5b600061393c858286016136ba565b925050602061394d8582860161376a565b9150509250929050565b60006020828403121561396d5761396c614f9f565b5b600061397b84828501613712565b91505092915050565b60006020828403121561399a57613999614f9f565b5b60006139a884828501613727565b91505092915050565b6000602082840312156139c7576139c6614f9f565b5b60006139d58482850161376a565b91505092915050565b6000602082840312156139f4576139f3614f9f565b5b6000613a028482850161377f565b91505092915050565b60008060408385031215613a2257613a21614f9f565b5b6000613a308582860161376a565b925050602083013567ffffffffffffffff811115613a5157613a50614f9a565b5b613a5d858286016136cf565b9150509250929050565b6000613a7383836140b2565b905092915050565b6000613a878383614220565b905092915050565b613a9881614c9d565b82525050565b613aa781614c9d565b82525050565b6000613ab882614ac9565b613ac28185614b0f565b935083602082028501613ad485614a8f565b8060005b85811015613b105784840389528151613af18582613a67565b9450613afc83614af5565b925060208a01995050600181019050613ad8565b50829750879550505050505092915050565b6000613b2d82614ad4565b613b378185614b0f565b935083602082028501613b4985614a9f565b8060005b85811015613b8457848403895281613b658582613a7b565b9450613b7083614b02565b925060208a01995050600181019050613b4d565b50829750879550505050505092915050565b613b9f81614caf565b82525050565b613bae81614cbb565b82525050565b6000613bbf82614adf565b613bc98185614b20565b9350613bd9818560208601614d5c565b613be281614fa4565b840191505092915050565b6000613bf882614aea565b613c028185614b31565b9350613c12818560208601614d5c565b613c1b81614fa4565b840191505092915050565b6000613c3182614aea565b613c3b8185614b42565b9350613c4b818560208601614d5c565b613c5481614fa4565b840191505092915050565b6000613c6a82614aea565b613c748185614b53565b9350613c84818560208601614d5c565b80840191505092915050565b60008154613c9d81614d8f565b613ca78186614b31565b94506001821660008114613cc25760018114613cd457613d07565b60ff1983168652602086019350613d07565b613cdd85614ab4565b60005b83811015613cff57815481890152600182019150602081019050613ce0565b808801955050505b50505092915050565b6000613d1d600b83614b53565b9150613d2882614fc2565b600b82019050919050565b6000613d40603283614b42565b9150613d4b82614feb565b604082019050919050565b6000613d63602583614b42565b9150613d6e8261503a565b604082019050919050565b6000613d86601c83614b42565b9150613d9182615089565b602082019050919050565b6000613da9601283614b42565b9150613db4826150b2565b602082019050919050565b6000613dcc601a83614b42565b9150613dd7826150db565b602082019050919050565b6000613def606883614b53565b9150613dfa82615104565b606882019050919050565b6000613e12600e83614b53565b9150613e1d8261519f565b600e82019050919050565b6000613e35602483614b42565b9150613e40826151c8565b604082019050919050565b6000613e58601983614b42565b9150613e6382615217565b602082019050919050565b6000613e7b602983614b42565b9150613e8682615240565b604082019050919050565b6000613e9e600483614b53565b9150613ea98261528f565b600482019050919050565b6000613ec1603e83614b42565b9150613ecc826152b8565b604082019050919050565b6000613ee4602083614b42565b9150613eef82615307565b602082019050919050565b6000613f07600a83614b53565b9150613f1282615330565b600a82019050919050565b6000613f2a601883614b42565b9150613f3582615359565b602082019050919050565b6000613f4d602183614b42565b9150613f5882615382565b604082019050919050565b6000613f70601d83614b53565b9150613f7b826153d1565b601d82019050919050565b6000613f93601883614b42565b9150613f9e826153fa565b602082019050919050565b6000613fb6603d83614b53565b9150613fc182615423565b603d82019050919050565b6000613fd9602d83614b53565b9150613fe482615472565b602d82019050919050565b6000613ffc603283614b53565b9150614007826154c1565b603282019050919050565b600061401f602e83614b42565b915061402a82615510565b604082019050919050565b600060a08301600083015184820360008601526140528282613bed565b9150506020830151848203602086015261406c8282613bed565b91505060408301516140816040860182614328565b5060608301516140946060860182614328565b5060808301516140a76080860182614328565b508091505092915050565b6000610100830160008301516140cb6000860182613a8f565b5060208301516140de6020860182614328565b50604083015184820360408601526140f68282613bed565b915050606083015184820360608601526141108282613bed565b91505060808301516141256080860182614328565b5060a083015161413860a0860182614328565b5060c083015161414b60c0860182614328565b5060e083015161415e60e0860182614328565b508091505092915050565b6000610100830160008301516141826000860182613a8f565b5060208301516141956020860182614328565b50604083015184820360408601526141ad8282613bed565b915050606083015184820360608601526141c78282613bed565b91505060808301516141dc6080860182614328565b5060a08301516141ef60a0860182614328565b5060c083015161420260c0860182614328565b5060e083015161421560e0860182614328565b508091505092915050565b60006101008301600080840154905061423881614dc1565b6142456000870182613a8f565b506001840154905061425681614ddb565b6142636020870182614328565b5060028401858303604087015261427a8382613c90565b9250506003840185830360608701526142938382613c90565b925050600484015490506142a681614ddb565b6142b36080870182614328565b50600584015490506142c481614ddb565b6142d160a0870182614328565b50600684015490506142e281614ddb565b6142ef60c0870182614328565b506007840154905061430081614ddb565b61430d60e0870182614328565b50819250505092915050565b61432281614cf1565b82525050565b61433181614d1f565b82525050565b61434081614d1f565b82525050565b61434f81614d29565b82525050565b61435e81614d39565b82525050565b600061436f82613efa565b915061437b828a613c5f565b915061438682613d10565b91506143928289613c5f565b915061439d82613de2565b91506143a98288613c5f565b91506143b482613fa9565b91506143c08287613c5f565b91506143cb82613e05565b91506143d78286613c5f565b91506143e282613fcc565b91506143ee8285613c5f565b91506143f982613fef565b91506144058284613c5f565b915061441082613e91565b915081905098975050505050505050565b600061442c82613f63565b91506144388284613c5f565b915081905092915050565b60006020820190506144586000830184613a9e565b92915050565b60006040820190506144736000830185613a9e565b6144806020830184613a9e565b9392505050565b600060808201905061449c6000830187613a9e565b6144a96020830186613a9e565b6144b66040830185614337565b81810360608301526144c88184613bb4565b905095945050505050565b60006040820190506144e86000830185613a9e565b81810360208301526144fa8184613b22565b90509392505050565b600061010082019050614519600083018b613a9e565b614526602083018a614337565b81810360408301526145388189613c26565b9050818103606083015261454c8188613c26565b905061455b6080830187614337565b61456860a0830186614337565b61457560c0830185614337565b61458260e0830184614337565b9998505050505050505050565b60006080820190506145a46000830187613a9e565b6145b16020830186614337565b6145be6040830185614337565b81810360608301526145d08184613b22565b905095945050505050565b600060a0820190506145f06000830188613a9e565b6145fd6020830187614337565b61460a6040830186614337565b6146176060830185614337565b81810360808301526146298184613b22565b90509695505050505050565b6000602082019050818103600083015261464f8184613aad565b905092915050565b600060208201905061466c6000830184613b96565b92915050565b600060a0820190506146876000830188613ba5565b6146946020830187614355565b6146a16040830186614319565b6146ae6060830185614346565b6146bb6080830184614346565b9695505050505050565b600060208201905081810360008301526146df8184613c26565b905092915050565b600060808201905081810360008301526147018187613c26565b905081810360208301526147158186613c26565b90506147246040830185614337565b81810360608301526147368184613c26565b905095945050505050565b600060a082019050818103600083015261475b8188613c26565b9050818103602083015261476f8187613c26565b905061477e6040830186614337565b61478b6060830185614337565b6147986080830184614337565b9695505050505050565b600060608201905081810360008301526147bc8186613c26565b90506147cb6020830185614337565b6147d86040830184614337565b949350505050565b600060208201905081810360008301526147f981613d33565b9050919050565b6000602082019050818103600083015261481981613d56565b9050919050565b6000602082019050818103600083015261483981613d79565b9050919050565b6000602082019050818103600083015261485981613dbf565b9050919050565b6000602082019050818103600083015261487981613e28565b9050919050565b6000602082019050818103600083015261489981613e4b565b9050919050565b600060208201905081810360008301526148b981613e6e565b9050919050565b600060208201905081810360008301526148d981613eb4565b9050919050565b600060208201905081810360008301526148f981613ed7565b9050919050565b6000602082019050818103600083015261491981613f1d565b9050919050565b6000602082019050818103600083015261493981613f40565b9050919050565b6000602082019050818103600083015261495981613f86565b9050919050565b6000602082019050818103600083015261497981614012565b9050919050565b6000602082019050818103600083015261499a8184614035565b905092915050565b600060208201905081810360008301526149bc8184614169565b905092915050565b60006020820190506149d96000830184614337565b92915050565b60006040820190506149f46000830184614337565b8181036020830152614a0581613d9c565b905092915050565b6000614a17614a28565b9050614a238282614df5565b919050565b6000604051905090565b600067ffffffffffffffff821115614a4d57614a4c614f5c565b5b602082029050602081019050919050565b600067ffffffffffffffff821115614a7957614a78614f5c565b5b614a8282614fa4565b9050602081019050919050565b6000819050602082019050919050565b60008190508160005260206000209050919050565b60008190508160005260206000209050919050565b600081519050919050565b600081549050919050565b600081519050919050565b600081519050919050565b6000602082019050919050565b6000600882019050919050565b600082825260208201905092915050565b600082825260208201905092915050565b600082825260208201905092915050565b600082825260208201905092915050565b600081905092915050565b6000614b6982614d1f565b9150614b7483614d1f565b9250827fffffffffffffffffffffffffffffffffffffffffffffffffffffffffffffffff03821115614ba957614ba8614ea0565b5b828201905092915050565b6000614bbf82614d1f565b9150614bca83614d1f565b925082614bda57614bd9614ecf565b5b828204905092915050565b6000614bf082614d1f565b9150614bfb83614d1f565b9250817fffffffffffffffffffffffffffffffffffffffffffffffffffffffffffffffff0483118215151615614c3457614c33614ea0565b5b828202905092915050565b6000614c4a82614d1f565b9150614c5583614d1f565b925082821015614c6857614c67614ea0565b5b828203905092915050565b600073ffffffffffffffffffffffffffffffffffffffff82169050919050565b6000819050919050565b6000614ca882614cff565b9050919050565b60008115159050919050565b6000819050919050565b60007fffffffff0000000000000000000000000000000000000000000000000000000082169050919050565b600061ffff82169050919050565b600073ffffffffffffffffffffffffffffffffffffffff82169050919050565b6000819050919050565b600063ffffffff82169050919050565b600067ffffffffffffffff82169050919050565b82818337600083830152505050565b60005b83811015614d7a578082015181840152602081019050614d5f565b83811115614d89576000848401525b50505050565b60006002820490506001821680614da757607f821691505b60208210811415614dbb57614dba614efe565b5b50919050565b6000614dd4614dcf83614fb5565b614c73565b9050919050565b6000614dee614de983614fb5565b614c93565b9050919050565b614dfe82614fa4565b810181811067ffffffffffffffff82111715614e1d57614e1c614f5c565b5b80604052505050565b6000614e3182614d1f565b91507fffffffffffffffffffffffffffffffffffffffffffffffffffffffffffffffff821415614e6457614e63614ea0565b5b600182019050919050565b6000614e7a82614d1f565b9150614e8583614d1f565b925082614e9557614e94614ecf565b5b828206905092915050565b7f4e487b7100000000000000000000000000000000000000000000000000000000600052601160045260246000fd5b7f4e487b7100000000000000000000000000000000000000000000000000000000600052601260045260246000fd5b7f4e487b7100000000000000000000000000000000000000000000000000000000600052602260045260246000fd5b7f4e487b7100000000000000000000000000000000000000000000000000000000600052603260045260246000fd5b7f4e487b7100000000000000000000000000000000000000000000000000000000600052604160045260246000fd5b600080fd5b600080fd5b600080fd5b600080fd5b600080fd5b6000601f19601f8301169050919050565b60008160001c9050919050565b7f202d2d204e465420233a20000000000000000000000000000000000000000000600082015250565b7f4552433732313a207472616e7366657220746f206e6f6e20455243373231526560008201527f63656976657220696d706c656d656e7465720000000000000000000000000000602082015250565b7f4552433732313a207472616e736665722066726f6d20696e636f72726563742060008201527f6f776e6572000000000000000000000000000000000000000000000000000000602082015250565b7f4552433732313a20746f6b656e20616c7265616479206d696e74656400000000600082015250565b7f6920616d2072616e646f6d206e756d6265720000000000000000000000000000600082015250565b7f506c6179657220686173206e6f2048502063616e7420706c6179000000000000600082015250565b7f222c20226465736372697074696f6e223a20225468697320697320616e204e4660008201527f542074686174206c6574732070656f706c6520706c617920696e20746865206760208201527f616d65204461726b77696e67204e696768747321222c2022696d616765223a2060408201527f22697066733a2f2f000000000000000000000000000000000000000000000000606082015250565b7f2c20226d61785f76616c7565223a000000000000000000000000000000000000600082015250565b7f4552433732313a207472616e7366657220746f20746865207a65726f2061646460008201527f7265737300000000000000000000000000000000000000000000000000000000602082015250565b7f4552433732313a20617070726f766520746f2063616c6c657200000000000000600082015250565b7f4552433732313a2061646472657373207a65726f206973206e6f74206120766160008201527f6c6964206f776e65720000000000000000000000000000000000000000000000602082015250565b7f7d205d7d00000000000000000000000000000000000000000000000000000000600082015250565b7f4552433732313a20617070726f76652063616c6c6572206973206e6f7420746f60008201527f6b656e206f776e6572206e6f7220617070726f76656420666f7220616c6c0000602082015250565b7f4552433732313a206d696e7420746f20746865207a65726f2061646472657373600082015250565b7f7b226e616d65223a202200000000000000000000000000000000000000000000600082015250565b7f4552433732313a20696e76616c696420746f6b656e2049440000000000000000600082015250565b7f4552433732313a20617070726f76616c20746f2063757272656e74206f776e6560008201527f7200000000000000000000000000000000000000000000000000000000000000602082015250565b7f646174613a6170706c69636174696f6e2f6a736f6e3b6261736536342c000000600082015250565b7f426f737320686173206e6f2048502063616e7420706c61790000000000000000600082015250565b7f222c202261747472696275746573223a205b207b202274726169745f7479706560008201527f223a20224865616c746820506f696e7473222c202276616c7565223a20000000602082015250565b7f7d2c207b202274726169745f74797065223a202241747461636b2044616d616760008201527f65222c202276616c7565223a2000000000000000000000000000000000000000602082015250565b7f7d2c207b202274726169745f74797065223a2022546f74616c2044616d61676560008201527f204465616c74222c202276616c7565223a200000000000000000000000000000602082015250565b7f4552433732313a2063616c6c6572206973206e6f7420746f6b656e206f776e6560008201527f72206e6f7220617070726f766564000000000000000000000000000000000000602082015250565b61556881614c9d565b811461557357600080fd5b50565b61557f81614caf565b811461558a57600080fd5b50565b61559681614cc5565b81146155a157600080fd5b50565b6155ad81614d1f565b81146155b857600080fd5b5056fe4142434445464748494a4b4c4d4e4f505152535455565758595a6162636465666768696a6b6c6d6e6f707172737475767778797a303132333435363738392b2f4d696e746564204e465420772f20746f6b656e496420257320616e6420636861726163746572496e646578202573a26469706673582212207887d51786333c8e347fead3bba66579cfd85c7e8318bf61d9cb9ad3f131b33364736f6c63430008070033446f6e6520696e697469616c697a696e6720257320772f2048502025732c20696d67202573",
  "linkReferences": {},
  "deployedLinkReferences": {}
}