{
  "_format": "hh-sol-artifact-1",
  "contractName": "MyEpicGame",
  "sourceName": "contracts/MyEpicGame.sol",
  "abi": [
    {
      "inputs": [
        {
          "internalType": "string[]",
          "name": "characterNames",
          "type": "string[]"
        },
        {
          "internalType": "string[]",
          "name": "characterImageURIs",
          "type": "string[]"
        },
        {
          "internalType": "uint256[]",
          "name": "characterHP",
          "type": "uint256[]"
        },
        {
          "internalType": "uint256[]",
          "name": "characterAttackDamage",
          "type": "uint256[]"
        },
        {
          "internalType": "string",
          "name": "bossName",
          "type": "string"
        },
        {
          "internalType": "string",
          "name": "bossImageURI",
          "type": "string"
        },
        {
          "internalType": "uint256",
          "name": "bossHp",
          "type": "uint256"
        },
        {
          "internalType": "uint256",
          "name": "bossAttackDamage",
          "type": "uint256"
        },
        {
          "internalType": "uint64",
          "name": "subscriptionId",
          "type": "uint64"
        }
      ],
      "stateMutability": "nonpayable",
      "type": "constructor"
    },
    {
      "inputs": [
        {
          "internalType": "address",
          "name": "have",
          "type": "address"
        },
        {
          "internalType": "address",
          "name": "want",
          "type": "address"
        }
      ],
      "name": "OnlyCoordinatorCanFulfill",
      "type": "error"
    },
    {
      "anonymous": false,
      "inputs": [
        {
          "indexed": true,
          "internalType": "address",
          "name": "owner",
          "type": "address"
        },
        {
          "indexed": true,
          "internalType": "address",
          "name": "approved",
          "type": "address"
        },
        {
          "indexed": true,
          "internalType": "uint256",
          "name": "tokenId",
          "type": "uint256"
        }
      ],
      "name": "Approval",
      "type": "event"
    },
    {
      "anonymous": false,
      "inputs": [
        {
          "indexed": true,
          "internalType": "address",
          "name": "owner",
          "type": "address"
        },
        {
          "indexed": true,
          "internalType": "address",
          "name": "operator",
          "type": "address"
        },
        {
          "indexed": false,
          "internalType": "bool",
          "name": "approved",
          "type": "bool"
        }
      ],
      "name": "ApprovalForAll",
      "type": "event"
    },
    {
      "anonymous": false,
      "inputs": [
        {
          "indexed": false,
          "internalType": "address",
          "name": "sender",
          "type": "address"
        },
        {
          "indexed": false,
          "internalType": "uint256",
          "name": "newBossHP",
          "type": "uint256"
        },
        {
          "indexed": false,
          "internalType": "uint256",
          "name": "newPlayerHP",
          "type": "uint256"
        },
        {
          "indexed": false,
          "internalType": "uint256",
          "name": "damageDone",
          "type": "uint256"
        },
        {
          "components": [
            {
              "internalType": "address",
              "name": "sender",
              "type": "address"
            },
            {
              "internalType": "uint256",
              "name": "characterIndex",
              "type": "uint256"
            },
            {
              "internalType": "string",
              "name": "name",
              "type": "string"
            },
            {
              "internalType": "string",
              "name": "imageURI",
              "type": "string"
            },
            {
              "internalType": "uint256",
              "name": "hp",
              "type": "uint256"
            },
            {
              "internalType": "uint256",
              "name": "maxHP",
              "type": "uint256"
            },
            {
              "internalType": "uint256",
              "name": "attackDamage",
              "type": "uint256"
            },
            {
              "internalType": "uint256",
              "name": "damageDone",
              "type": "uint256"
            }
          ],
          "indexed": false,
          "internalType": "struct MyEpicGame.CharacterAttributes[]",
          "name": "allPlayersInGame",
          "type": "tuple[]"
        }
      ],
      "name": "AttackComplete",
      "type": "event"
    },
    {
      "anonymous": false,
      "inputs": [
        {
          "indexed": false,
          "internalType": "address",
          "name": "sender",
          "type": "address"
        },
        {
          "indexed": false,
          "internalType": "uint256",
          "name": "tokenID",
          "type": "uint256"
        },
        {
          "indexed": false,
          "internalType": "uint256",
          "name": "characterIndex",
          "type": "uint256"
        },
        {
          "components": [
            {
              "internalType": "address",
              "name": "sender",
              "type": "address"
            },
            {
              "internalType": "uint256",
              "name": "characterIndex",
              "type": "uint256"
            },
            {
              "internalType": "string",
              "name": "name",
              "type": "string"
            },
            {
              "internalType": "string",
              "name": "imageURI",
              "type": "string"
            },
            {
              "internalType": "uint256",
              "name": "hp",
              "type": "uint256"
            },
            {
              "internalType": "uint256",
              "name": "maxHP",
              "type": "uint256"
            },
            {
              "internalType": "uint256",
              "name": "attackDamage",
              "type": "uint256"
            },
            {
              "internalType": "uint256",
              "name": "damageDone",
              "type": "uint256"
            }
          ],
          "indexed": false,
          "internalType": "struct MyEpicGame.CharacterAttributes[]",
          "name": "allPlayersInGame",
          "type": "tuple[]"
        }
      ],
      "name": "CharacterNftMinted",
      "type": "event"
    },
    {
      "anonymous": false,
      "inputs": [
        {
          "indexed": false,
          "internalType": "address",
          "name": "sender",
          "type": "address"
        },
        {
          "components": [
            {
              "internalType": "address",
              "name": "sender",
              "type": "address"
            },
            {
              "internalType": "uint256",
              "name": "characterIndex",
              "type": "uint256"
            },
            {
              "internalType": "string",
              "name": "name",
              "type": "string"
            },
            {
              "internalType": "string",
              "name": "imageURI",
              "type": "string"
            },
            {
              "internalType": "uint256",
              "name": "hp",
              "type": "uint256"
            },
            {
              "internalType": "uint256",
              "name": "maxHP",
              "type": "uint256"
            },
            {
              "internalType": "uint256",
              "name": "attackDamage",
              "type": "uint256"
            },
            {
              "internalType": "uint256",
              "name": "damageDone",
              "type": "uint256"
            }
          ],
          "indexed": false,
          "internalType": "struct MyEpicGame.CharacterAttributes[]",
          "name": "allPlayersInGame",
          "type": "tuple[]"
        }
      ],
      "name": "NftDeath",
      "type": "event"
    },
    {
      "anonymous": false,
      "inputs": [
        {
          "indexed": true,
          "internalType": "address",
          "name": "from",
          "type": "address"
        },
        {
          "indexed": true,
          "internalType": "address",
          "name": "to",
          "type": "address"
        },
        {
          "indexed": true,
          "internalType": "uint256",
          "name": "tokenId",
          "type": "uint256"
        }
      ],
      "name": "Transfer",
      "type": "event"
    },
    {
      "inputs": [
        {
          "internalType": "address",
          "name": "to",
          "type": "address"
        },
        {
          "internalType": "uint256",
          "name": "tokenId",
          "type": "uint256"
        }
      ],
      "name": "approve",
      "outputs": [],
      "stateMutability": "nonpayable",
      "type": "function"
    },
    {
      "inputs": [],
      "name": "attackBoss",
      "outputs": [],
      "stateMutability": "nonpayable",
      "type": "function"
    },
    {
      "inputs": [
        {
          "internalType": "address",
          "name": "owner",
          "type": "address"
        }
      ],
      "name": "balanceOf",
      "outputs": [
        {
          "internalType": "uint256",
          "name": "",
          "type": "uint256"
        }
      ],
      "stateMutability": "view",
      "type": "function"
    },
    {
      "inputs": [],
      "name": "bigBoss",
      "outputs": [
        {
          "internalType": "string",
          "name": "name",
          "type": "string"
        },
        {
          "internalType": "string",
          "name": "imageURI",
          "type": "string"
        },
        {
          "internalType": "uint256",
          "name": "hp",
          "type": "uint256"
        },
        {
          "internalType": "uint256",
          "name": "maxHP",
          "type": "uint256"
        },
        {
          "internalType": "uint256",
          "name": "attackDamage",
          "type": "uint256"
        }
      ],
      "stateMutability": "view",
      "type": "function"
    },
    {
      "inputs": [],
      "name": "checkIfUserHasNFT",
      "outputs": [
        {
          "components": [
            {
              "internalType": "address",
              "name": "sender",
              "type": "address"
            },
            {
              "internalType": "uint256",
              "name": "characterIndex",
              "type": "uint256"
            },
            {
              "internalType": "string",
              "name": "name",
              "type": "string"
            },
            {
              "internalType": "string",
              "name": "imageURI",
              "type": "string"
            },
            {
              "internalType": "uint256",
              "name": "hp",
              "type": "uint256"
            },
            {
              "internalType": "uint256",
              "name": "maxHP",
              "type": "uint256"
            },
            {
              "internalType": "uint256",
              "name": "attackDamage",
              "type": "uint256"
            },
            {
              "internalType": "uint256",
              "name": "damageDone",
              "type": "uint256"
            }
          ],
          "internalType": "struct MyEpicGame.CharacterAttributes",
          "name": "",
          "type": "tuple"
        }
      ],
      "stateMutability": "view",
      "type": "function"
    },
    {
      "inputs": [],
      "name": "getAllDefaultCharacters",
      "outputs": [
        {
          "components": [
            {
              "internalType": "address",
              "name": "sender",
              "type": "address"
            },
            {
              "internalType": "uint256",
              "name": "characterIndex",
              "type": "uint256"
            },
            {
              "internalType": "string",
              "name": "name",
              "type": "string"
            },
            {
              "internalType": "string",
              "name": "imageURI",
              "type": "string"
            },
            {
              "internalType": "uint256",
              "name": "hp",
              "type": "uint256"
            },
            {
              "internalType": "uint256",
              "name": "maxHP",
              "type": "uint256"
            },
            {
              "internalType": "uint256",
              "name": "attackDamage",
              "type": "uint256"
            },
            {
              "internalType": "uint256",
              "name": "damageDone",
              "type": "uint256"
            }
          ],
          "internalType": "struct MyEpicGame.CharacterAttributes[]",
          "name": "",
          "type": "tuple[]"
        }
      ],
      "stateMutability": "view",
      "type": "function"
    },
    {
      "inputs": [],
      "name": "getAllPlayersInGame",
      "outputs": [
        {
          "components": [
            {
              "internalType": "address",
              "name": "sender",
              "type": "address"
            },
            {
              "internalType": "uint256",
              "name": "characterIndex",
              "type": "uint256"
            },
            {
              "internalType": "string",
              "name": "name",
              "type": "string"
            },
            {
              "internalType": "string",
              "name": "imageURI",
              "type": "string"
            },
            {
              "internalType": "uint256",
              "name": "hp",
              "type": "uint256"
            },
            {
              "internalType": "uint256",
              "name": "maxHP",
              "type": "uint256"
            },
            {
              "internalType": "uint256",
              "name": "attackDamage",
              "type": "uint256"
            },
            {
              "internalType": "uint256",
              "name": "damageDone",
              "type": "uint256"
            }
          ],
          "internalType": "struct MyEpicGame.CharacterAttributes[]",
          "name": "",
          "type": "tuple[]"
        }
      ],
      "stateMutability": "view",
      "type": "function"
    },
    {
      "inputs": [
        {
          "internalType": "uint256",
          "name": "tokenId",
          "type": "uint256"
        }
      ],
      "name": "getApproved",
      "outputs": [
        {
          "internalType": "address",
          "name": "",
          "type": "address"
        }
      ],
      "stateMutability": "view",
      "type": "function"
    },
    {
      "inputs": [],
      "name": "getBigBoss",
      "outputs": [
        {
          "components": [
            {
              "internalType": "string",
              "name": "name",
              "type": "string"
            },
            {
              "internalType": "string",
              "name": "imageURI",
              "type": "string"
            },
            {
              "internalType": "uint256",
              "name": "hp",
              "type": "uint256"
            },
            {
              "internalType": "uint256",
              "name": "maxHP",
              "type": "uint256"
            },
            {
              "internalType": "uint256",
              "name": "attackDamage",
              "type": "uint256"
            }
          ],
          "internalType": "struct MyEpicGame.BigBoss",
          "name": "",
          "type": "tuple"
        }
      ],
      "stateMutability": "view",
      "type": "function"
    },
    {
      "inputs": [
        {
          "internalType": "address",
          "name": "owner",
          "type": "address"
        },
        {
          "internalType": "address",
          "name": "operator",
          "type": "address"
        }
      ],
      "name": "isApprovedForAll",
      "outputs": [
        {
          "internalType": "bool",
          "name": "",
          "type": "bool"
        }
      ],
      "stateMutability": "view",
      "type": "function"
    },
    {
      "inputs": [
        {
          "internalType": "uint256",
          "name": "_characterIndex",
          "type": "uint256"
        }
      ],
      "name": "mintCharacterNFT",
      "outputs": [],
      "stateMutability": "nonpayable",
      "type": "function"
    },
    {
      "inputs": [],
      "name": "name",
      "outputs": [
        {
          "internalType": "string",
          "name": "",
          "type": "string"
        }
      ],
      "stateMutability": "view",
      "type": "function"
    },
    {
      "inputs": [
        {
          "internalType": "uint256",
          "name": "",
          "type": "uint256"
        }
      ],
      "name": "nftHolderAttributes",
      "outputs": [
        {
          "internalType": "address",
          "name": "sender",
          "type": "address"
        },
        {
          "internalType": "uint256",
          "name": "characterIndex",
          "type": "uint256"
        },
        {
          "internalType": "string",
          "name": "name",
          "type": "string"
        },
        {
          "internalType": "string",
          "name": "imageURI",
          "type": "string"
        },
        {
          "internalType": "uint256",
          "name": "hp",
          "type": "uint256"
        },
        {
          "internalType": "uint256",
          "name": "maxHP",
          "type": "uint256"
        },
        {
          "internalType": "uint256",
          "name": "attackDamage",
          "type": "uint256"
        },
        {
          "internalType": "uint256",
          "name": "damageDone",
          "type": "uint256"
        }
      ],
      "stateMutability": "view",
      "type": "function"
    },
    {
      "inputs": [
        {
          "internalType": "address",
          "name": "",
          "type": "address"
        }
      ],
      "name": "nftHolders",
      "outputs": [
        {
          "internalType": "uint256",
          "name": "",
          "type": "uint256"
        }
      ],
      "stateMutability": "view",
      "type": "function"
    },
    {
      "inputs": [
        {
          "internalType": "uint256",
          "name": "tokenId",
          "type": "uint256"
        }
      ],
      "name": "ownerOf",
      "outputs": [
        {
          "internalType": "address",
          "name": "",
          "type": "address"
        }
      ],
      "stateMutability": "view",
      "type": "function"
    },
    {
      "inputs": [
        {
          "internalType": "uint256",
          "name": "requestId",
          "type": "uint256"
        },
        {
          "internalType": "uint256[]",
          "name": "randomWords",
          "type": "uint256[]"
        }
      ],
      "name": "rawFulfillRandomWords",
      "outputs": [],
      "stateMutability": "nonpayable",
      "type": "function"
    },
    {
      "inputs": [],
      "name": "requestRandomWords",
      "outputs": [],
      "stateMutability": "nonpayable",
      "type": "function"
    },
    {
      "inputs": [],
      "name": "returnRandomNumber",
      "outputs": [
        {
          "internalType": "uint256",
          "name": "",
          "type": "uint256"
        }
      ],
      "stateMutability": "nonpayable",
      "type": "function"
    },
    {
      "inputs": [],
      "name": "returnRandomNumbers",
      "outputs": [
        {
          "internalType": "uint256[]",
          "name": "",
          "type": "uint256[]"
        }
      ],
      "stateMutability": "view",
      "type": "function"
    },
    {
      "inputs": [
        {
          "internalType": "uint256",
          "name": "",
          "type": "uint256"
        }
      ],
      "name": "s_randomWords",
      "outputs": [
        {
          "internalType": "uint256",
          "name": "",
          "type": "uint256"
        }
      ],
      "stateMutability": "view",
      "type": "function"
    },
    {
      "inputs": [],
      "name": "s_requestId",
      "outputs": [
        {
          "internalType": "uint256",
          "name": "",
          "type": "uint256"
        }
      ],
      "stateMutability": "view",
      "type": "function"
    },
    {
      "inputs": [
        {
          "internalType": "address",
          "name": "from",
          "type": "address"
        },
        {
          "internalType": "address",
          "name": "to",
          "type": "address"
        },
        {
          "internalType": "uint256",
          "name": "tokenId",
          "type": "uint256"
        }
      ],
      "name": "safeTransferFrom",
      "outputs": [],
      "stateMutability": "nonpayable",
      "type": "function"
    },
    {
      "inputs": [
        {
          "internalType": "address",
          "name": "from",
          "type": "address"
        },
        {
          "internalType": "address",
          "name": "to",
          "type": "address"
        },
        {
          "internalType": "uint256",
          "name": "tokenId",
          "type": "uint256"
        },
        {
          "internalType": "bytes",
          "name": "data",
          "type": "bytes"
        }
      ],
      "name": "safeTransferFrom",
      "outputs": [],
      "stateMutability": "nonpayable",
      "type": "function"
    },
    {
      "inputs": [
        {
          "internalType": "address",
          "name": "operator",
          "type": "address"
        },
        {
          "internalType": "bool",
          "name": "approved",
          "type": "bool"
        }
      ],
      "name": "setApprovalForAll",
      "outputs": [],
      "stateMutability": "nonpayable",
      "type": "function"
    },
    {
      "inputs": [
        {
          "internalType": "bytes4",
          "name": "interfaceId",
          "type": "bytes4"
        }
      ],
      "name": "supportsInterface",
      "outputs": [
        {
          "internalType": "bool",
          "name": "",
          "type": "bool"
        }
      ],
      "stateMutability": "view",
      "type": "function"
    },
    {
      "inputs": [],
      "name": "symbol",
      "outputs": [
        {
          "internalType": "string",
          "name": "",
          "type": "string"
        }
      ],
      "stateMutability": "view",
      "type": "function"
    },
    {
      "inputs": [
        {
          "internalType": "uint256",
          "name": "_tokenId",
          "type": "uint256"
        }
      ],
      "name": "tokenURI",
      "outputs": [
        {
          "internalType": "string",
          "name": "",
          "type": "string"
        }
      ],
      "stateMutability": "view",
      "type": "function"
    },
    {
      "inputs": [
        {
          "internalType": "address",
          "name": "from",
          "type": "address"
        },
        {
          "internalType": "address",
          "name": "to",
          "type": "address"
        },
        {
          "internalType": "uint256",
          "name": "tokenId",
          "type": "uint256"
        }
      ],
      "name": "transferFrom",
      "outputs": [],
      "stateMutability": "nonpayable",
      "type": "function"
    }
  ],
  "bytecode": "0x60a0604052732ca8e0c643bde4c2e08ab1fa0da3401adad7734d601160006101000a81548173ffffffffffffffffffffffffffffffffffffffff021916908373ffffffffffffffffffffffffffffffffffffffff1602179055507f79d3d8832d904592c0bf9818b621522c988bb8b0c05cdc3b15aea1b6e8db0c1560001b601255620186a0601360006101000a81548163ffffffff021916908363ffffffff1602179055506003601360046101000a81548161ffff021916908361ffff1602179055506002601360066101000a81548163ffffffff021916908363ffffffff160217905550348015620000f157600080fd5b506040516200686438038062006864833981810160405281019062000117919062000b6b565b601160009054906101000a900473ffffffffffffffffffffffffffffffffffffffff166040518060400160405280600f81526020017f4461726b77696e67204e696768747300000000000000000000000000000000008152506040518060400160405280600781526020017f42415457494e47000000000000000000000000000000000000000000000000008152508160009080519060200190620001be92919062000892565b508060019080519060200190620001d792919062000892565b5050508073ffffffffffffffffffffffffffffffffffffffff1660808173ffffffffffffffffffffffffffffffffffffffff1660601b81525050506040518060a0016040528086815260200185815260200184815260200184815260200183815250600a60008201518160000190805190602001906200025992919062000892565b5060208201518160010190805190602001906200027892919062000892565b5060408201518160020155606082015181600301556080820151816004015590505060005b8951811015620006b35760086040518061010001604052803373ffffffffffffffffffffffffffffffffffffffff1681526020018381526020018c8481518110620002ed57620002ec62000ffd565b5b602002602001015181526020018b848151811062000310576200030f62000ffd565b5b602002602001015181526020018a848151811062000333576200033262000ffd565b5b602002602001015181526020018a848151811062000356576200035562000ffd565b5b6020026020010151815260200189848151811062000379576200037862000ffd565b5b602002602001015181526020016000815250908060018154018082558091505060019003906000526020600020906008020160009091909190915060008201518160000160006101000a81548173ffffffffffffffffffffffffffffffffffffffff021916908373ffffffffffffffffffffffffffffffffffffffff1602179055506020820151816001015560408201518160020190805190602001906200042392919062000892565b5060608201518160030190805190602001906200044292919062000892565b506080820151816004015560a0820151816005015560c0820151816006015560e08201518160070155505060006008828154811062000486576200048562000ffd565b5b9060005260206000209060080201604051806101000160405290816000820160009054906101000a900473ffffffffffffffffffffffffffffffffffffffff1673ffffffffffffffffffffffffffffffffffffffff1673ffffffffffffffffffffffffffffffffffffffff16815260200160018201548152602001600282018054620005129062000ee5565b80601f0160208091040260200160405190810160405280929190818152602001828054620005409062000ee5565b8015620005915780601f10620005655761010080835404028352916020019162000591565b820191906000526020600020905b8154815290600101906020018083116200057357829003601f168201915b50505050508152602001600382018054620005ac9062000ee5565b80601f0160208091040260200160405190810160405280929190818152602001828054620005da9062000ee5565b80156200062b5780601f10620005ff576101008083540402835291602001916200062b565b820191906000526020600020905b8154815290600101906020018083116200060d57829003601f168201915b5050505050815260200160048201548152602001600582015481526020016006820154815260200160078201548152505090506200069c6040518060600160405280602581526020016200683f60259139826040015183608001518460600151620007a760201b620024e91760201c565b508080620006aa9062000f51565b9150506200029d565b50601160009054906101000a900473ffffffffffffffffffffffffffffffffffffffff16601060006101000a81548173ffffffffffffffffffffffffffffffffffffffff021916908373ffffffffffffffffffffffffffffffffffffffff16021790555033601660006101000a81548173ffffffffffffffffffffffffffffffffffffffff021916908373ffffffffffffffffffffffffffffffffffffffff16021790555080601060146101000a81548167ffffffffffffffff021916908367ffffffffffffffff1602179055506200079860066200085360201b6200258b1760201c565b505050505050505050620010b9565b6200084d84848484604051602401620007c4949392919062000d56565b6040516020818303038152906040527f8d142cdd000000000000000000000000000000000000000000000000000000007bffffffffffffffffffffffffffffffffffffffffffffffffffffffff19166020820180517bffffffffffffffffffffffffffffffffffffffffffffffffffffffff83818316178352505050506200086960201b60201c565b50505050565b6001816000016000828254019250508190555050565b60008151905060006a636f6e736f6c652e6c6f679050602083016000808483855afa5050505050565b828054620008a09062000ee5565b90600052602060002090601f016020900481019282620008c4576000855562000910565b82601f10620008df57805160ff191683800117855562000910565b8280016001018555821562000910579182015b828111156200090f578251825591602001919060010190620008f2565b5b5090506200091f919062000923565b5090565b5b808211156200093e57600081600090555060010162000924565b5090565b600062000959620009538462000de1565b62000db8565b905080838252602082019050828560208602820111156200097f576200097e62001060565b5b60005b85811015620009d457815167ffffffffffffffff811115620009a957620009a86200105b565b5b808601620009b8898262000b0a565b8552602085019450602084019350505060018101905062000982565b5050509392505050565b6000620009f5620009ef8462000e10565b62000db8565b9050808382526020820190508285602086028201111562000a1b5762000a1a62001060565b5b60005b8581101562000a4f578162000a34888262000b3d565b84526020840193506020830192505060018101905062000a1e565b5050509392505050565b600062000a7062000a6a8462000e3f565b62000db8565b90508281526020810184848401111562000a8f5762000a8e62001065565b5b62000a9c84828562000eaf565b509392505050565b600082601f83011262000abc5762000abb6200105b565b5b815162000ace84826020860162000942565b91505092915050565b600082601f83011262000aef5762000aee6200105b565b5b815162000b01848260208601620009de565b91505092915050565b600082601f83011262000b225762000b216200105b565b5b815162000b3484826020860162000a59565b91505092915050565b60008151905062000b4e8162001085565b92915050565b60008151905062000b65816200109f565b92915050565b60008060008060008060008060006101208a8c03121562000b915762000b906200106f565b5b60008a015167ffffffffffffffff81111562000bb25762000bb16200106a565b5b62000bc08c828d0162000aa4565b99505060208a015167ffffffffffffffff81111562000be45762000be36200106a565b5b62000bf28c828d0162000aa4565b98505060408a015167ffffffffffffffff81111562000c165762000c156200106a565b5b62000c248c828d0162000ad7565b97505060608a015167ffffffffffffffff81111562000c485762000c476200106a565b5b62000c568c828d0162000ad7565b96505060808a015167ffffffffffffffff81111562000c7a5762000c796200106a565b5b62000c888c828d0162000b0a565b95505060a08a015167ffffffffffffffff81111562000cac5762000cab6200106a565b5b62000cba8c828d0162000b0a565b94505060c062000ccd8c828d0162000b3d565b93505060e062000ce08c828d0162000b3d565b92505061010062000cf48c828d0162000b54565b9150509295985092959850929598565b600062000d118262000e75565b62000d1d818562000e80565b935062000d2f81856020860162000eaf565b62000d3a8162001074565b840191505092915050565b62000d508162000e91565b82525050565b6000608082019050818103600083015262000d72818762000d04565b9050818103602083015262000d88818662000d04565b905062000d99604083018562000d45565b818103606083015262000dad818462000d04565b905095945050505050565b600062000dc462000dd7565b905062000dd2828262000f1b565b919050565b6000604051905090565b600067ffffffffffffffff82111562000dff5762000dfe6200102c565b5b602082029050602081019050919050565b600067ffffffffffffffff82111562000e2e5762000e2d6200102c565b5b602082029050602081019050919050565b600067ffffffffffffffff82111562000e5d5762000e5c6200102c565b5b62000e688262001074565b9050602081019050919050565b600081519050919050565b600082825260208201905092915050565b6000819050919050565b600067ffffffffffffffff82169050919050565b60005b8381101562000ecf57808201518184015260208101905062000eb2565b8381111562000edf576000848401525b50505050565b6000600282049050600182168062000efe57607f821691505b6020821081141562000f155762000f1462000fce565b5b50919050565b62000f268262001074565b810181811067ffffffffffffffff8211171562000f485762000f476200102c565b5b80604052505050565b600062000f5e8262000e91565b91507fffffffffffffffffffffffffffffffffffffffffffffffffffffffffffffffff82141562000f945762000f9362000f9f565b5b600182019050919050565b7f4e487b7100000000000000000000000000000000000000000000000000000000600052601160045260246000fd5b7f4e487b7100000000000000000000000000000000000000000000000000000000600052602260045260246000fd5b7f4e487b7100000000000000000000000000000000000000000000000000000000600052603260045260246000fd5b7f4e487b7100000000000000000000000000000000000000000000000000000000600052604160045260246000fd5b600080fd5b600080fd5b600080fd5b600080fd5b600080fd5b6000601f19601f8301169050919050565b620010908162000e91565b81146200109c57600080fd5b50565b620010aa8162000e9b565b8114620010b657600080fd5b50565b60805160601c615760620010df600039600081816109b80152610a0c01526157606000f3fe608060405234801561001057600080fd5b50600436106101c45760003560e01c806398da4c95116100f9578063d4f24c5b11610097578063e985e9c511610071578063e985e9c5146104ee578063f6eaffc81461051e578063f8b81ef71461054e578063f9b8f4cb1461056a576101c4565b8063d4f24c5b146104bc578063e0c86289146104c6578063e89e106a146104d0576101c4565b8063b88d4fde116100d3578063b88d4fde14610434578063b953084e14610450578063c87b56dd1461046e578063c8cf27f41461049e576101c4565b806398da4c95146103bf578063a22cb465146103f6578063a9c3267914610412576101c4565b806336376b4a11610166578063651089d111610140578063651089d11461032357806370a08231146103415780637df124a11461037157806395d89b41146103a1576101c4565b806336376b4a146102b957806342842e0e146102d75780636352211e146102f3576101c4565b8063081812fc116101a2578063081812fc14610235578063095ea7b3146102655780631fe543e31461028157806323b872dd1461029d576101c4565b806301ffc9a7146101c95780630665f961146101f957806306fdde0314610217575b600080fd5b6101e360048036038101906101de9190613a01565b610588565b6040516101f09190614776565b60405180910390f35b61020161066a565b60405161020e9190614a9f565b60405180910390f35b61021f6107c6565b60405161022c91906147e4565b60405180910390f35b61024f600480360381019061024a9190613a5b565b610858565b60405161025c9190614540565b60405180910390f35b61027f600480360381019061027a91906139c1565b61089e565b005b61029b60048036038101906102969190613ab5565b6109b6565b005b6102b760048036038101906102b291906138ab565b610a76565b005b6102c1610ad6565b6040516102ce9190614ae3565b60405180910390f35b6102f160048036038101906102ec91906138ab565b610af5565b005b61030d60048036038101906103089190613a5b565b610b15565b60405161031a9190614540565b60405180910390f35b61032b610bc7565b6040516103389190614754565b60405180910390f35b61035b6004803603810190610356919061383e565b610c1f565b6040516103689190614ae3565b60405180910390f35b61038b6004803603810190610386919061383e565b610cd7565b6040516103989190614ae3565b60405180910390f35b6103a9610cef565b6040516103b691906147e4565b60405180910390f35b6103d960048036038101906103d49190613a5b565b610d81565b6040516103ed989796959493929190614600565b60405180910390f35b610410600480360381019061040b9190613981565b610ef9565b005b61041a610f0f565b60405161042b959493929190614860565b60405180910390f35b61044e600480360381019061044991906138fe565b611043565b005b6104586110a5565b6040516104659190614732565b60405180910390f35b61048860048036038101906104839190613a5b565b6112b1565b60405161049591906147e4565b60405180910390f35b6104a6611541565b6040516104b39190614ac1565b60405180910390f35b6104c461177a565b005b6104ce611bf5565b005b6104d8611d58565b6040516104e59190614ae3565b60405180910390f35b6105086004803603810190610503919061386b565b611d5e565b6040516105159190614776565b60405180910390f35b61053860048036038101906105339190613a5b565b611df2565b6040516105459190614ae3565b60405180910390f35b61056860048036038101906105639190613a5b565b611e16565b005b6105726122dd565b60405161057f9190614732565b60405180910390f35b60007f80ac58cd000000000000000000000000000000000000000000000000000000007bffffffffffffffffffffffffffffffffffffffffffffffffffffffff1916827bffffffffffffffffffffffffffffffffffffffffffffffffffffffff1916148061065357507f5b5e139f000000000000000000000000000000000000000000000000000000007bffffffffffffffffffffffffffffffffffffffffffffffffffffffff1916827bffffffffffffffffffffffffffffffffffffffffffffffffffffffff1916145b806106635750610662826125a1565b5b9050919050565b61067261346b565b600a6040518060a001604052908160008201805461068f90614eb9565b80601f01602080910402602001604051908101604052809291908181526020018280546106bb90614eb9565b80156107085780601f106106dd57610100808354040283529160200191610708565b820191906000526020600020905b8154815290600101906020018083116106eb57829003601f168201915b5050505050815260200160018201805461072190614eb9565b80601f016020809104026020016040519081016040528092919081815260200182805461074d90614eb9565b801561079a5780601f1061076f5761010080835404028352916020019161079a565b820191906000526020600020905b81548152906001019060200180831161077d57829003601f168201915b505050505081526020016002820154815260200160038201548152602001600482015481525050905090565b6060600080546107d590614eb9565b80601f016020809104026020016040519081016040528092919081815260200182805461080190614eb9565b801561084e5780601f106108235761010080835404028352916020019161084e565b820191906000526020600020905b81548152906001019060200180831161083157829003601f168201915b5050505050905090565b60006108638261260b565b6004600083815260200190815260200160002060009054906101000a900473ffffffffffffffffffffffffffffffffffffffff169050919050565b60006108a982610b15565b90508073ffffffffffffffffffffffffffffffffffffffff168373ffffffffffffffffffffffffffffffffffffffff16141561091a576040517f08c379a000000000000000000000000000000000000000000000000000000000815260040161091190614a3f565b60405180910390fd5b8073ffffffffffffffffffffffffffffffffffffffff16610939612656565b73ffffffffffffffffffffffffffffffffffffffff161480610968575061096781610962612656565b611d5e565b5b6109a7576040517f08c379a000000000000000000000000000000000000000000000000000000000815260040161099e906149df565b60405180910390fd5b6109b1838361265e565b505050565b7f000000000000000000000000000000000000000000000000000000000000000073ffffffffffffffffffffffffffffffffffffffff163373ffffffffffffffffffffffffffffffffffffffff1614610a6857337f00000000000000000000000000000000000000000000000000000000000000006040517f1cf993f4000000000000000000000000000000000000000000000000000000008152600401610a5f92919061455b565b60405180910390fd5b610a728282612717565b5050565b610a87610a81612656565b82612754565b610ac6576040517f08c379a0000000000000000000000000000000000000000000000000000000008152600401610abd90614a7f565b60405180910390fd5b610ad18383836127e9565b505050565b6000600a601754610ae79190614f99565b601781905550601754905090565b610b1083838360405180602001604052806000815250611043565b505050565b6000806002600084815260200190815260200160002060009054906101000a900473ffffffffffffffffffffffffffffffffffffffff169050600073ffffffffffffffffffffffffffffffffffffffff168173ffffffffffffffffffffffffffffffffffffffff161415610bbe576040517f08c379a0000000000000000000000000000000000000000000000000000000008152600401610bb590614a1f565b60405180910390fd5b80915050919050565b60606014805480602002602001604051908101604052809291908181526020018280548015610c1557602002820191906000526020600020905b815481526020019060010190808311610c01575b5050505050905090565b60008073ffffffffffffffffffffffffffffffffffffffff168273ffffffffffffffffffffffffffffffffffffffff161415610c90576040517f08c379a0000000000000000000000000000000000000000000000000000000008152600401610c87906149bf565b60405180910390fd5b600360008373ffffffffffffffffffffffffffffffffffffffff1673ffffffffffffffffffffffffffffffffffffffff168152602001908152602001600020549050919050565b600f6020528060005260406000206000915090505481565b606060018054610cfe90614eb9565b80601f0160208091040260200160405190810160405280929190818152602001828054610d2a90614eb9565b8015610d775780601f10610d4c57610100808354040283529160200191610d77565b820191906000526020600020905b815481529060010190602001808311610d5a57829003601f168201915b5050505050905090565b60096020528060005260406000206000915090508060000160009054906101000a900473ffffffffffffffffffffffffffffffffffffffff1690806001015490806002018054610dd090614eb9565b80601f0160208091040260200160405190810160405280929190818152602001828054610dfc90614eb9565b8015610e495780601f10610e1e57610100808354040283529160200191610e49565b820191906000526020600020905b815481529060010190602001808311610e2c57829003601f168201915b505050505090806003018054610e5e90614eb9565b80601f0160208091040260200160405190810160405280929190818152602001828054610e8a90614eb9565b8015610ed75780601f10610eac57610100808354040283529160200191610ed7565b820191906000526020600020905b815481529060010190602001808311610eba57829003601f168201915b5050505050908060040154908060050154908060060154908060070154905088565b610f0b610f04612656565b8383612a50565b5050565b600a806000018054610f2090614eb9565b80601f0160208091040260200160405190810160405280929190818152602001828054610f4c90614eb9565b8015610f995780601f10610f6e57610100808354040283529160200191610f99565b820191906000526020600020905b815481529060010190602001808311610f7c57829003601f168201915b505050505090806001018054610fae90614eb9565b80601f0160208091040260200160405190810160405280929190818152602001828054610fda90614eb9565b80156110275780601f10610ffc57610100808354040283529160200191611027565b820191906000526020600020905b81548152906001019060200180831161100a57829003601f168201915b5050505050908060020154908060030154908060040154905085565b61105461104e612656565b83612754565b611093576040517f08c379a000000000000000000000000000000000000000000000000000000000815260040161108a90614a7f565b60405180910390fd5b61109f84848484612bbd565b50505050565b60606008805480602002602001604051908101604052809291908181526020016000905b828210156112a85783829060005260206000209060080201604051806101000160405290816000820160009054906101000a900473ffffffffffffffffffffffffffffffffffffffff1673ffffffffffffffffffffffffffffffffffffffff1673ffffffffffffffffffffffffffffffffffffffff1681526020016001820154815260200160028201805461115d90614eb9565b80601f016020809104026020016040519081016040528092919081815260200182805461118990614eb9565b80156111d65780601f106111ab576101008083540402835291602001916111d6565b820191906000526020600020905b8154815290600101906020018083116111b957829003601f168201915b505050505081526020016003820180546111ef90614eb9565b80601f016020809104026020016040519081016040528092919081815260200182805461121b90614eb9565b80156112685780601f1061123d57610100808354040283529160200191611268565b820191906000526020600020905b81548152906001019060200180831161124b57829003601f168201915b50505050508152602001600482015481526020016005820154815260200160068201548152602001600782015481525050815260200190600101906110c9565b50505050905090565b6060600060096000848152602001908152602001600020604051806101000160405290816000820160009054906101000a900473ffffffffffffffffffffffffffffffffffffffff1673ffffffffffffffffffffffffffffffffffffffff1673ffffffffffffffffffffffffffffffffffffffff1681526020016001820154815260200160028201805461134490614eb9565b80601f016020809104026020016040519081016040528092919081815260200182805461137090614eb9565b80156113bd5780601f10611392576101008083540402835291602001916113bd565b820191906000526020600020905b8154815290600101906020018083116113a057829003601f168201915b505050505081526020016003820180546113d690614eb9565b80601f016020809104026020016040519081016040528092919081815260200182805461140290614eb9565b801561144f5780601f106114245761010080835404028352916020019161144f565b820191906000526020600020905b81548152906001019060200180831161143257829003601f168201915b50505050508152602001600482015481526020016005820154815260200160068201548152602001600782015481525050905060006114918260800151612c19565b905060006114a28360a00151612c19565b905060006114b38460c00151612c19565b905060006114c48560e00151612c19565b9050600061150c86604001516114d98a612c19565b8860600151888888886040516020016114f89796959493929190614461565b604051602081830303815290604052612d7a565b9050600081604051602001611521919061451e565b604051602081830303815290604052905080975050505050505050919050565b61154961349a565b6000600f60003373ffffffffffffffffffffffffffffffffffffffff1673ffffffffffffffffffffffffffffffffffffffff16815260200190815260200160002054905060008111156117695760096000828152602001908152602001600020604051806101000160405290816000820160009054906101000a900473ffffffffffffffffffffffffffffffffffffffff1673ffffffffffffffffffffffffffffffffffffffff1673ffffffffffffffffffffffffffffffffffffffff1681526020016001820154815260200160028201805461162590614eb9565b80601f016020809104026020016040519081016040528092919081815260200182805461165190614eb9565b801561169e5780601f106116735761010080835404028352916020019161169e565b820191906000526020600020905b81548152906001019060200180831161168157829003601f168201915b505050505081526020016003820180546116b790614eb9565b80601f01602080910402602001604051908101604052809291908181526020018280546116e390614eb9565b80156117305780601f1061170557610100808354040283529160200191611730565b820191906000526020600020905b81548152906001019060200180831161171357829003601f168201915b50505050508152602001600482015481526020016005820154815260200160068201548152602001600782015481525050915050611777565b61177161349a565b80925050505b90565b6000600f60003373ffffffffffffffffffffffffffffffffffffffff1673ffffffffffffffffffffffffffffffffffffffff1681526020019081526020016000205490506000600960008381526020019081526020016000209050600081600401541161181c576040517f08c379a00000000000000000000000000000000000000000000000000000000081526004016118139061495f565b60405180910390fd5b6000600a6002015411611864576040517f08c379a000000000000000000000000000000000000000000000000000000000815260040161185b90614a5f565b60405180910390fd5b8060060154600a6002015410156118a557600a6002015481600701600082825461188e9190614c88565b925050819055506000600a600201819055506118e5565b80600601548160070160008282546118bd9190614c88565b925050819055508060060154600a60020160008282546118dd9190614d69565b925050819055505b600a60040154816004015410156119055760008160040181905550611926565b600a6004015481600401600082825461191e9190614d69565b925050819055505b60005b600780549050811015611ba3573373ffffffffffffffffffffffffffffffffffffffff166007828154811061196157611960615057565b5b906000526020600020906008020160000160009054906101000a900473ffffffffffffffffffffffffffffffffffffffff1673ffffffffffffffffffffffffffffffffffffffff161415611b9057600082600401541415611a8f57600781815481106119d0576119cf615057565b5b9060005260206000209060080201600080820160006101000a81549073ffffffffffffffffffffffffffffffffffffffff02191690556001820160009055600282016000611a1e91906134f5565b600382016000611a2e91906134f5565b600482016000905560058201600090556006820160009055600782016000905550507f8b348e519319ce056b18ae43c2239a2f2a8973595c0cf01aded937707d44c66d336007604051611a829291906145d0565b60405180910390a1611b8f565b8160078281548110611aa457611aa3615057565b5b90600052602060002090600802016000820160009054906101000a900473ffffffffffffffffffffffffffffffffffffffff168160000160006101000a81548173ffffffffffffffffffffffffffffffffffffffff021916908373ffffffffffffffffffffffffffffffffffffffff160217905550600182015481600101556002820181600201908054611b3790614eb9565b611b42929190613535565b506003820181600301908054611b5790614eb9565b611b62929190613535565b50600482015481600401556005820154816005015560068201548160060155600782015481600701559050505b5b8080611b9b90614f50565b915050611929565b507f93e52d5efffa697fd9ea49a98f3868aadfe91fe7dd670a4784d212c5fba5297633600a60020154836004015484600701546007604051611be99594939291906146d8565b60405180910390a15050565b601660009054906101000a900473ffffffffffffffffffffffffffffffffffffffff1673ffffffffffffffffffffffffffffffffffffffff163373ffffffffffffffffffffffffffffffffffffffff1614611c4f57600080fd5b601060009054906101000a900473ffffffffffffffffffffffffffffffffffffffff1673ffffffffffffffffffffffffffffffffffffffff16635d3b1d30601254601060149054906101000a900467ffffffffffffffff16601360049054906101000a900461ffff16601360009054906101000a900463ffffffff16601360069054906101000a900463ffffffff166040518663ffffffff1660e01b8152600401611cfe959493929190614791565b602060405180830381600087803b158015611d1857600080fd5b505af1158015611d2c573d6000803e3d6000fd5b505050506040513d601f19601f82011682018060405250810190611d509190613a88565b601581905550565b60155481565b6000600560008473ffffffffffffffffffffffffffffffffffffffff1673ffffffffffffffffffffffffffffffffffffffff16815260200190815260200160002060008373ffffffffffffffffffffffffffffffffffffffff1673ffffffffffffffffffffffffffffffffffffffff16815260200190815260200160002060009054906101000a900460ff16905092915050565b60148181548110611e0257600080fd5b906000526020600020016000915090505481565b6000611e226006612f12565b9050611e2e3382612f20565b6040518061010001604052803373ffffffffffffffffffffffffffffffffffffffff16815260200183815260200160088481548110611e7057611e6f615057565b5b90600052602060002090600802016002018054611e8c90614eb9565b80601f0160208091040260200160405190810160405280929190818152602001828054611eb890614eb9565b8015611f055780601f10611eda57610100808354040283529160200191611f05565b820191906000526020600020905b815481529060010190602001808311611ee857829003601f168201915b5050505050815260200160088481548110611f2357611f22615057565b5b90600052602060002090600802016003018054611f3f90614eb9565b80601f0160208091040260200160405190810160405280929190818152602001828054611f6b90614eb9565b8015611fb85780601f10611f8d57610100808354040283529160200191611fb8565b820191906000526020600020905b815481529060010190602001808311611f9b57829003601f168201915b5050505050815260200160088481548110611fd657611fd5615057565b5b90600052602060002090600802016004015481526020016008848154811061200157612000615057565b5b90600052602060002090600802016005015481526020016008848154811061202c5761202b615057565b5b906000526020600020906008020160060154815260200160008152506009600083815260200190815260200160002060008201518160000160006101000a81548173ffffffffffffffffffffffffffffffffffffffff021916908373ffffffffffffffffffffffffffffffffffffffff1602179055506020820151816001015560408201518160020190805190602001906120c89291906135c2565b5060608201518160030190805190602001906120e59291906135c2565b506080820151816004015560a0820151816005015560c0820151816006015560e0820151816007015590505060076009600083815260200190815260200160002090806001815401808255809150506001900390600052602060002090600802016000909190919091506000820160009054906101000a900473ffffffffffffffffffffffffffffffffffffffff168160000160006101000a81548173ffffffffffffffffffffffffffffffffffffffff021916908373ffffffffffffffffffffffffffffffffffffffff1602179055506001820154816001015560028201816002019080546121d490614eb9565b6121df929190613535565b5060038201816003019080546121f490614eb9565b6121ff929190613535565b5060048201548160040155600582015481600501556006820154816006015560078201548160070155505061224d6040518060600160405280602e81526020016156fd602e91398284612f3e565b80600f60003373ffffffffffffffffffffffffffffffffffffffff1673ffffffffffffffffffffffffffffffffffffffff1681526020019081526020016000208190555061229b600661258b565b7ff7ce6d45718f4d5553edc6316819886e91553095c70e36bced1baa5d3f5ee22633828460076040516122d1949392919061468c565b60405180910390a15050565b60606007805480602002602001604051908101604052809291908181526020016000905b828210156124e05783829060005260206000209060080201604051806101000160405290816000820160009054906101000a900473ffffffffffffffffffffffffffffffffffffffff1673ffffffffffffffffffffffffffffffffffffffff1673ffffffffffffffffffffffffffffffffffffffff1681526020016001820154815260200160028201805461239590614eb9565b80601f01602080910402602001604051908101604052809291908181526020018280546123c190614eb9565b801561240e5780601f106123e35761010080835404028352916020019161240e565b820191906000526020600020905b8154815290600101906020018083116123f157829003601f168201915b5050505050815260200160038201805461242790614eb9565b80601f016020809104026020016040519081016040528092919081815260200182805461245390614eb9565b80156124a05780601f10612475576101008083540402835291602001916124a0565b820191906000526020600020905b81548152906001019060200180831161248357829003601f168201915b5050505050815260200160048201548152602001600582015481526020016006820154815260200160078201548152505081526020019060010190612301565b50505050905090565b612585848484846040516024016125039493929190614806565b6040516020818303038152906040527f8d142cdd000000000000000000000000000000000000000000000000000000007bffffffffffffffffffffffffffffffffffffffffffffffffffffffff19166020820180517bffffffffffffffffffffffffffffffffffffffffffffffffffffffff8381831617835250505050612fdd565b50505050565b6001816000016000828254019250508190555050565b60007f01ffc9a7000000000000000000000000000000000000000000000000000000007bffffffffffffffffffffffffffffffffffffffffffffffffffffffff1916827bffffffffffffffffffffffffffffffffffffffffffffffffffffffff1916149050919050565b61261481613006565b612653576040517f08c379a000000000000000000000000000000000000000000000000000000000815260040161264a90614a1f565b60405180910390fd5b50565b600033905090565b816004600083815260200190815260200160002060006101000a81548173ffffffffffffffffffffffffffffffffffffffff021916908373ffffffffffffffffffffffffffffffffffffffff160217905550808273ffffffffffffffffffffffffffffffffffffffff166126d183610b15565b73ffffffffffffffffffffffffffffffffffffffff167f8c5be1e5ebec7d5bd14f71427d1e84f3dd0314c0f7b2291e5b200ac8c7c3b92560405160405180910390a45050565b8060008151811061272b5761272a615057565b5b6020026020010151601781905550806014908051906020019061274f929190613648565b505050565b60008061276083610b15565b90508073ffffffffffffffffffffffffffffffffffffffff168473ffffffffffffffffffffffffffffffffffffffff1614806127a257506127a18185611d5e565b5b806127e057508373ffffffffffffffffffffffffffffffffffffffff166127c884610858565b73ffffffffffffffffffffffffffffffffffffffff16145b91505092915050565b8273ffffffffffffffffffffffffffffffffffffffff1661280982610b15565b73ffffffffffffffffffffffffffffffffffffffff161461285f576040517f08c379a00000000000000000000000000000000000000000000000000000000081526004016128569061491f565b60405180910390fd5b600073ffffffffffffffffffffffffffffffffffffffff168273ffffffffffffffffffffffffffffffffffffffff1614156128cf576040517f08c379a00000000000000000000000000000000000000000000000000000000081526004016128c69061497f565b60405180910390fd5b6128da838383613072565b6128e560008261265e565b6001600360008573ffffffffffffffffffffffffffffffffffffffff1673ffffffffffffffffffffffffffffffffffffffff16815260200190815260200160002060008282546129359190614d69565b925050819055506001600360008473ffffffffffffffffffffffffffffffffffffffff1673ffffffffffffffffffffffffffffffffffffffff168152602001908152602001600020600082825461298c9190614c88565b92505081905550816002600083815260200190815260200160002060006101000a81548173ffffffffffffffffffffffffffffffffffffffff021916908373ffffffffffffffffffffffffffffffffffffffff160217905550808273ffffffffffffffffffffffffffffffffffffffff168473ffffffffffffffffffffffffffffffffffffffff167fddf252ad1be2c89b69c2b068fc378daa952ba7f163c4a11628f55a4df523b3ef60405160405180910390a4612a4b838383613077565b505050565b8173ffffffffffffffffffffffffffffffffffffffff168373ffffffffffffffffffffffffffffffffffffffff161415612abf576040517f08c379a0000000000000000000000000000000000000000000000000000000008152600401612ab69061499f565b60405180910390fd5b80600560008573ffffffffffffffffffffffffffffffffffffffff1673ffffffffffffffffffffffffffffffffffffffff16815260200190815260200160002060008473ffffffffffffffffffffffffffffffffffffffff1673ffffffffffffffffffffffffffffffffffffffff16815260200190815260200160002060006101000a81548160ff0219169083151502179055508173ffffffffffffffffffffffffffffffffffffffff168373ffffffffffffffffffffffffffffffffffffffff167f17307eab39ab6107e8899845ad3d59bd9653f200f220920489ca2b5937696c3183604051612bb09190614776565b60405180910390a3505050565b612bc88484846127e9565b612bd48484848461307c565b612c13576040517f08c379a0000000000000000000000000000000000000000000000000000000008152600401612c0a906148ff565b60405180910390fd5b50505050565b60606000821415612c61576040518060400160405280600181526020017f30000000000000000000000000000000000000000000000000000000000000008152509050612d75565b600082905060005b60008214612c93578080612c7c90614f50565b915050600a82612c8c9190614cde565b9150612c69565b60008167ffffffffffffffff811115612caf57612cae615086565b5b6040519080825280601f01601f191660200182016040528015612ce15781602001600182028036833780820191505090505b5090505b60008514612d6e57600182612cfa9190614d69565b9150600a85612d099190614f99565b6030612d159190614c88565b60f81b818381518110612d2b57612d2a615057565b5b60200101907effffffffffffffffffffffffffffffffffffffffffffffffffffffffffffff1916908160001a905350600a85612d679190614cde565b9450612ce5565b8093505050505b919050565b60606000825190506000811415612da35760405180602001604052806000815250915050612f0d565b60006003600283612db49190614c88565b612dbe9190614cde565b6004612dca9190614d0f565b90506000602082612ddb9190614c88565b67ffffffffffffffff811115612df457612df3615086565b5b6040519080825280601f01601f191660200182016040528015612e265781602001600182028036833780820191505090505b50905060006040518060600160405280604081526020016156bd604091399050600181016020830160005b86811015612eca5760038101905062ffffff818a015116603f8160121c168401518060081b905060ff603f83600c1c1686015116810190508060081b905060ff603f8360061c1686015116810190508060081b905060ff603f831686015116810190508060e01b90508084526004840193505050612e51565b506003860660018114612ee45760028114612ef457612eff565b613d3d60f01b6002830352612eff565b603d60f81b60018303525b508484525050819450505050505b919050565b600081600001549050919050565b612f3a828260405180602001604052806000815250613213565b5050565b612fd8838383604051602401612f56939291906148c1565b6040516020818303038152906040527f969cdd03000000000000000000000000000000000000000000000000000000007bffffffffffffffffffffffffffffffffffffffffffffffffffffffff19166020820180517bffffffffffffffffffffffffffffffffffffffffffffffffffffffff8381831617835250505050612fdd565b505050565b60008151905060006a636f6e736f6c652e6c6f679050602083016000808483855afa5050505050565b60008073ffffffffffffffffffffffffffffffffffffffff166002600084815260200190815260200160002060009054906101000a900473ffffffffffffffffffffffffffffffffffffffff1673ffffffffffffffffffffffffffffffffffffffff1614159050919050565b505050565b505050565b600061309d8473ffffffffffffffffffffffffffffffffffffffff1661326e565b15613206578373ffffffffffffffffffffffffffffffffffffffff1663150b7a026130c6612656565b8786866040518563ffffffff1660e01b81526004016130e89493929190614584565b602060405180830381600087803b15801561310257600080fd5b505af192505050801561313357506040513d601f19601f820116820180604052508101906131309190613a2e565b60015b6131b6573d8060008114613163576040519150601f19603f3d011682016040523d82523d6000602084013e613168565b606091505b506000815114156131ae576040517f08c379a00000000000000000000000000000000000000000000000000000000081526004016131a5906148ff565b60405180910390fd5b805181602001fd5b63150b7a0260e01b7bffffffffffffffffffffffffffffffffffffffffffffffffffffffff1916817bffffffffffffffffffffffffffffffffffffffffffffffffffffffff19161491505061320b565b600190505b949350505050565b61321d8383613291565b61322a600084848461307c565b613269576040517f08c379a0000000000000000000000000000000000000000000000000000000008152600401613260906148ff565b60405180910390fd5b505050565b6000808273ffffffffffffffffffffffffffffffffffffffff163b119050919050565b600073ffffffffffffffffffffffffffffffffffffffff168273ffffffffffffffffffffffffffffffffffffffff161415613301576040517f08c379a00000000000000000000000000000000000000000000000000000000081526004016132f8906149ff565b60405180910390fd5b61330a81613006565b1561334a576040517f08c379a00000000000000000000000000000000000000000000000000000000081526004016133419061493f565b60405180910390fd5b61335660008383613072565b6001600360008473ffffffffffffffffffffffffffffffffffffffff1673ffffffffffffffffffffffffffffffffffffffff16815260200190815260200160002060008282546133a69190614c88565b92505081905550816002600083815260200190815260200160002060006101000a81548173ffffffffffffffffffffffffffffffffffffffff021916908373ffffffffffffffffffffffffffffffffffffffff160217905550808273ffffffffffffffffffffffffffffffffffffffff16600073ffffffffffffffffffffffffffffffffffffffff167fddf252ad1be2c89b69c2b068fc378daa952ba7f163c4a11628f55a4df523b3ef60405160405180910390a461346760008383613077565b5050565b6040518060a0016040528060608152602001606081526020016000815260200160008152602001600081525090565b604051806101000160405280600073ffffffffffffffffffffffffffffffffffffffff168152602001600081526020016060815260200160608152602001600081526020016000815260200160008152602001600081525090565b50805461350190614eb9565b6000825580601f106135135750613532565b601f0160209004906000526020600020908101906135319190613695565b5b50565b82805461354190614eb9565b90600052602060002090601f01602090048101928261356357600085556135b1565b82601f1061357457805485556135b1565b828001600101855582156135b157600052602060002091601f016020900482015b828111156135b0578254825591600101919060010190613595565b5b5090506135be9190613695565b5090565b8280546135ce90614eb9565b90600052602060002090601f0160209004810192826135f05760008555613637565b82601f1061360957805160ff1916838001178555613637565b82800160010185558215613637579182015b8281111561363657825182559160200191906001019061361b565b5b5090506136449190613695565b5090565b828054828255906000526020600020908101928215613684579160200282015b82811115613683578251825591602001919060010190613668565b5b5090506136919190613695565b5090565b5b808211156136ae576000816000905550600101613696565b5090565b60006136c56136c084614b23565b614afe565b905080838252602082019050828560208602820111156136e8576136e76150ba565b5b60005b8581101561371857816136fe8882613814565b8452602084019350602083019250506001810190506136eb565b5050509392505050565b600061373561373084614b4f565b614afe565b905082815260208101848484011115613751576137506150bf565b5b61375c848285614e77565b509392505050565b60008135905061377381615660565b92915050565b600082601f83011261378e5761378d6150b5565b5b813561379e8482602086016136b2565b91505092915050565b6000813590506137b681615677565b92915050565b6000813590506137cb8161568e565b92915050565b6000815190506137e08161568e565b92915050565b600082601f8301126137fb576137fa6150b5565b5b813561380b848260208601613722565b91505092915050565b600081359050613823816156a5565b92915050565b600081519050613838816156a5565b92915050565b600060208284031215613854576138536150c9565b5b600061386284828501613764565b91505092915050565b60008060408385031215613882576138816150c9565b5b600061389085828601613764565b92505060206138a185828601613764565b9150509250929050565b6000806000606084860312156138c4576138c36150c9565b5b60006138d286828701613764565b93505060206138e386828701613764565b92505060406138f486828701613814565b9150509250925092565b60008060008060808587031215613918576139176150c9565b5b600061392687828801613764565b945050602061393787828801613764565b935050604061394887828801613814565b925050606085013567ffffffffffffffff811115613969576139686150c4565b5b613975878288016137e6565b91505092959194509250565b60008060408385031215613998576139976150c9565b5b60006139a685828601613764565b92505060206139b7858286016137a7565b9150509250929050565b600080604083850312156139d8576139d76150c9565b5b60006139e685828601613764565b92505060206139f785828601613814565b9150509250929050565b600060208284031215613a1757613a166150c9565b5b6000613a25848285016137bc565b91505092915050565b600060208284031215613a4457613a436150c9565b5b6000613a52848285016137d1565b91505092915050565b600060208284031215613a7157613a706150c9565b5b6000613a7f84828501613814565b91505092915050565b600060208284031215613a9e57613a9d6150c9565b5b6000613aac84828501613829565b91505092915050565b60008060408385031215613acc57613acb6150c9565b5b6000613ada85828601613814565b925050602083013567ffffffffffffffff811115613afb57613afa6150c4565b5b613b0785828601613779565b9150509250929050565b6000613b1d83836141af565b905092915050565b6000613b31838361431d565b905092915050565b6000613b458383614425565b60208301905092915050565b613b5a81614dc7565b82525050565b613b6981614dc7565b82525050565b6000613b7a82614bca565b613b848185614c28565b935083602082028501613b9685614b80565b8060005b85811015613bd25784840389528151613bb38582613b11565b9450613bbe83614c01565b925060208a01995050600181019050613b9a565b50829750879550505050505092915050565b6000613bef82614bd5565b613bf98185614c28565b935083602082028501613c0b85614b90565b8060005b85811015613c4657848403895281613c278582613b25565b9450613c3283614c0e565b925060208a01995050600181019050613c0f565b50829750879550505050505092915050565b6000613c6382614be0565b613c6d8185614c39565b9350613c7883614ba5565b8060005b83811015613ca9578151613c908882613b39565b9750613c9b83614c1b565b925050600181019050613c7c565b5085935050505092915050565b613cbf81614dd9565b82525050565b613cce81614de5565b82525050565b6000613cdf82614beb565b613ce98185614c4a565b9350613cf9818560208601614e86565b613d02816150ce565b840191505092915050565b6000613d1882614bf6565b613d228185614c5b565b9350613d32818560208601614e86565b613d3b816150ce565b840191505092915050565b6000613d5182614bf6565b613d5b8185614c6c565b9350613d6b818560208601614e86565b613d74816150ce565b840191505092915050565b6000613d8a82614bf6565b613d948185614c7d565b9350613da4818560208601614e86565b80840191505092915050565b60008154613dbd81614eb9565b613dc78186614c5b565b94506001821660008114613de25760018114613df457613e27565b60ff1983168652602086019350613e27565b613dfd85614bb5565b60005b83811015613e1f57815481890152600182019150602081019050613e00565b808801955050505b50505092915050565b6000613e3d600b83614c7d565b9150613e48826150ec565b600b82019050919050565b6000613e60603283614c6c565b9150613e6b82615115565b604082019050919050565b6000613e83602583614c6c565b9150613e8e82615164565b604082019050919050565b6000613ea6601c83614c6c565b9150613eb1826151b3565b602082019050919050565b6000613ec9601a83614c6c565b9150613ed4826151dc565b602082019050919050565b6000613eec606883614c7d565b9150613ef782615205565b606882019050919050565b6000613f0f600e83614c7d565b9150613f1a826152a0565b600e82019050919050565b6000613f32602483614c6c565b9150613f3d826152c9565b604082019050919050565b6000613f55601983614c6c565b9150613f6082615318565b602082019050919050565b6000613f78602983614c6c565b9150613f8382615341565b604082019050919050565b6000613f9b600483614c7d565b9150613fa682615390565b600482019050919050565b6000613fbe603e83614c6c565b9150613fc9826153b9565b604082019050919050565b6000613fe1602083614c6c565b9150613fec82615408565b602082019050919050565b6000614004600a83614c7d565b915061400f82615431565b600a82019050919050565b6000614027601883614c6c565b91506140328261545a565b602082019050919050565b600061404a602183614c6c565b915061405582615483565b604082019050919050565b600061406d601d83614c7d565b9150614078826154d2565b601d82019050919050565b6000614090601883614c6c565b915061409b826154fb565b602082019050919050565b60006140b3603d83614c7d565b91506140be82615524565b603d82019050919050565b60006140d6602d83614c7d565b91506140e182615573565b602d82019050919050565b60006140f9603283614c7d565b9150614104826155c2565b603282019050919050565b600061411c602e83614c6c565b915061412782615611565b604082019050919050565b600060a083016000830151848203600086015261414f8282613d0d565b915050602083015184820360208601526141698282613d0d565b915050604083015161417e6040860182614425565b5060608301516141916060860182614425565b5060808301516141a46080860182614425565b508091505092915050565b6000610100830160008301516141c86000860182613b51565b5060208301516141db6020860182614425565b50604083015184820360408601526141f38282613d0d565b9150506060830151848203606086015261420d8282613d0d565b91505060808301516142226080860182614425565b5060a083015161423560a0860182614425565b5060c083015161424860c0860182614425565b5060e083015161425b60e0860182614425565b508091505092915050565b60006101008301600083015161427f6000860182613b51565b5060208301516142926020860182614425565b50604083015184820360408601526142aa8282613d0d565b915050606083015184820360608601526142c48282613d0d565b91505060808301516142d96080860182614425565b5060a08301516142ec60a0860182614425565b5060c08301516142ff60c0860182614425565b5060e083015161431260e0860182614425565b508091505092915050565b60006101008301600080840154905061433581614eeb565b6143426000870182613b51565b506001840154905061435381614f05565b6143606020870182614425565b506002840185830360408701526143778382613db0565b9250506003840185830360608701526143908382613db0565b925050600484015490506143a381614f05565b6143b06080870182614425565b50600584015490506143c181614f05565b6143ce60a0870182614425565b50600684015490506143df81614f05565b6143ec60c0870182614425565b50600784015490506143fd81614f05565b61440a60e0870182614425565b50819250505092915050565b61441f81614e1b565b82525050565b61442e81614e49565b82525050565b61443d81614e49565b82525050565b61444c81614e53565b82525050565b61445b81614e63565b82525050565b600061446c82613ff7565b9150614478828a613d7f565b915061448382613e30565b915061448f8289613d7f565b915061449a82613edf565b91506144a68288613d7f565b91506144b1826140a6565b91506144bd8287613d7f565b91506144c882613f02565b91506144d48286613d7f565b91506144df826140c9565b91506144eb8285613d7f565b91506144f6826140ec565b91506145028284613d7f565b915061450d82613f8e565b915081905098975050505050505050565b600061452982614060565b91506145358284613d7f565b915081905092915050565b60006020820190506145556000830184613b60565b92915050565b60006040820190506145706000830185613b60565b61457d6020830184613b60565b9392505050565b60006080820190506145996000830187613b60565b6145a66020830186613b60565b6145b36040830185614434565b81810360608301526145c58184613cd4565b905095945050505050565b60006040820190506145e56000830185613b60565b81810360208301526145f78184613be4565b90509392505050565b600061010082019050614616600083018b613b60565b614623602083018a614434565b81810360408301526146358189613d46565b905081810360608301526146498188613d46565b90506146586080830187614434565b61466560a0830186614434565b61467260c0830185614434565b61467f60e0830184614434565b9998505050505050505050565b60006080820190506146a16000830187613b60565b6146ae6020830186614434565b6146bb6040830185614434565b81810360608301526146cd8184613be4565b905095945050505050565b600060a0820190506146ed6000830188613b60565b6146fa6020830187614434565b6147076040830186614434565b6147146060830185614434565b81810360808301526147268184613be4565b90509695505050505050565b6000602082019050818103600083015261474c8184613b6f565b905092915050565b6000602082019050818103600083015261476e8184613c58565b905092915050565b600060208201905061478b6000830184613cb6565b92915050565b600060a0820190506147a66000830188613cc5565b6147b36020830187614452565b6147c06040830186614416565b6147cd6060830185614443565b6147da6080830184614443565b9695505050505050565b600060208201905081810360008301526147fe8184613d46565b905092915050565b600060808201905081810360008301526148208187613d46565b905081810360208301526148348186613d46565b90506148436040830185614434565b81810360608301526148558184613d46565b905095945050505050565b600060a082019050818103600083015261487a8188613d46565b9050818103602083015261488e8187613d46565b905061489d6040830186614434565b6148aa6060830185614434565b6148b76080830184614434565b9695505050505050565b600060608201905081810360008301526148db8186613d46565b90506148ea6020830185614434565b6148f76040830184614434565b949350505050565b6000602082019050818103600083015261491881613e53565b9050919050565b6000602082019050818103600083015261493881613e76565b9050919050565b6000602082019050818103600083015261495881613e99565b9050919050565b6000602082019050818103600083015261497881613ebc565b9050919050565b6000602082019050818103600083015261499881613f25565b9050919050565b600060208201905081810360008301526149b881613f48565b9050919050565b600060208201905081810360008301526149d881613f6b565b9050919050565b600060208201905081810360008301526149f881613fb1565b9050919050565b60006020820190508181036000830152614a1881613fd4565b9050919050565b60006020820190508181036000830152614a388161401a565b9050919050565b60006020820190508181036000830152614a588161403d565b9050919050565b60006020820190508181036000830152614a7881614083565b9050919050565b60006020820190508181036000830152614a988161410f565b9050919050565b60006020820190508181036000830152614ab98184614132565b905092915050565b60006020820190508181036000830152614adb8184614266565b905092915050565b6000602082019050614af86000830184614434565b92915050565b6000614b08614b19565b9050614b148282614f1f565b919050565b6000604051905090565b600067ffffffffffffffff821115614b3e57614b3d615086565b5b602082029050602081019050919050565b600067ffffffffffffffff821115614b6a57614b69615086565b5b614b73826150ce565b9050602081019050919050565b6000819050602082019050919050565b60008190508160005260206000209050919050565b6000819050602082019050919050565b60008190508160005260206000209050919050565b600081519050919050565b600081549050919050565b600081519050919050565b600081519050919050565b600081519050919050565b6000602082019050919050565b6000600882019050919050565b6000602082019050919050565b600082825260208201905092915050565b600082825260208201905092915050565b600082825260208201905092915050565b600082825260208201905092915050565b600082825260208201905092915050565b600081905092915050565b6000614c9382614e49565b9150614c9e83614e49565b9250827fffffffffffffffffffffffffffffffffffffffffffffffffffffffffffffffff03821115614cd357614cd2614fca565b5b828201905092915050565b6000614ce982614e49565b9150614cf483614e49565b925082614d0457614d03614ff9565b5b828204905092915050565b6000614d1a82614e49565b9150614d2583614e49565b9250817fffffffffffffffffffffffffffffffffffffffffffffffffffffffffffffffff0483118215151615614d5e57614d5d614fca565b5b828202905092915050565b6000614d7482614e49565b9150614d7f83614e49565b925082821015614d9257614d91614fca565b5b828203905092915050565b600073ffffffffffffffffffffffffffffffffffffffff82169050919050565b6000819050919050565b6000614dd282614e29565b9050919050565b60008115159050919050565b6000819050919050565b60007fffffffff0000000000000000000000000000000000000000000000000000000082169050919050565b600061ffff82169050919050565b600073ffffffffffffffffffffffffffffffffffffffff82169050919050565b6000819050919050565b600063ffffffff82169050919050565b600067ffffffffffffffff82169050919050565b82818337600083830152505050565b60005b83811015614ea4578082015181840152602081019050614e89565b83811115614eb3576000848401525b50505050565b60006002820490506001821680614ed157607f821691505b60208210811415614ee557614ee4615028565b5b50919050565b6000614efe614ef9836150df565b614d9d565b9050919050565b6000614f18614f13836150df565b614dbd565b9050919050565b614f28826150ce565b810181811067ffffffffffffffff82111715614f4757614f46615086565b5b80604052505050565b6000614f5b82614e49565b91507fffffffffffffffffffffffffffffffffffffffffffffffffffffffffffffffff821415614f8e57614f8d614fca565b5b600182019050919050565b6000614fa482614e49565b9150614faf83614e49565b925082614fbf57614fbe614ff9565b5b828206905092915050565b7f4e487b7100000000000000000000000000000000000000000000000000000000600052601160045260246000fd5b7f4e487b7100000000000000000000000000000000000000000000000000000000600052601260045260246000fd5b7f4e487b7100000000000000000000000000000000000000000000000000000000600052602260045260246000fd5b7f4e487b7100000000000000000000000000000000000000000000000000000000600052603260045260246000fd5b7f4e487b7100000000000000000000000000000000000000000000000000000000600052604160045260246000fd5b600080fd5b600080fd5b600080fd5b600080fd5b600080fd5b6000601f19601f8301169050919050565b60008160001c9050919050565b7f202d2d204e465420233a20000000000000000000000000000000000000000000600082015250565b7f4552433732313a207472616e7366657220746f206e6f6e20455243373231526560008201527f63656976657220696d706c656d656e7465720000000000000000000000000000602082015250565b7f4552433732313a207472616e736665722066726f6d20696e636f72726563742060008201527f6f776e6572000000000000000000000000000000000000000000000000000000602082015250565b7f4552433732313a20746f6b656e20616c7265616479206d696e74656400000000600082015250565b7f506c6179657220686173206e6f2048502063616e7420706c6179000000000000600082015250565b7f222c20226465736372697074696f6e223a20225468697320697320616e204e4660008201527f542074686174206c6574732070656f706c6520706c617920696e20746865206760208201527f616d65204461726b77696e67204e696768747321222c2022696d616765223a2060408201527f22697066733a2f2f000000000000000000000000000000000000000000000000606082015250565b7f2c20226d61785f76616c7565223a000000000000000000000000000000000000600082015250565b7f4552433732313a207472616e7366657220746f20746865207a65726f2061646460008201527f7265737300000000000000000000000000000000000000000000000000000000602082015250565b7f4552433732313a20617070726f766520746f2063616c6c657200000000000000600082015250565b7f4552433732313a2061646472657373207a65726f206973206e6f74206120766160008201527f6c6964206f776e65720000000000000000000000000000000000000000000000602082015250565b7f7d205d7d00000000000000000000000000000000000000000000000000000000600082015250565b7f4552433732313a20617070726f76652063616c6c6572206973206e6f7420746f60008201527f6b656e206f776e6572206e6f7220617070726f76656420666f7220616c6c0000602082015250565b7f4552433732313a206d696e7420746f20746865207a65726f2061646472657373600082015250565b7f7b226e616d65223a202200000000000000000000000000000000000000000000600082015250565b7f4552433732313a20696e76616c696420746f6b656e2049440000000000000000600082015250565b7f4552433732313a20617070726f76616c20746f2063757272656e74206f776e6560008201527f7200000000000000000000000000000000000000000000000000000000000000602082015250565b7f646174613a6170706c69636174696f6e2f6a736f6e3b6261736536342c000000600082015250565b7f426f737320686173206e6f2048502063616e7420706c61790000000000000000600082015250565b7f222c202261747472696275746573223a205b207b202274726169745f7479706560008201527f223a20224865616c746820506f696e7473222c202276616c7565223a20000000602082015250565b7f7d2c207b202274726169745f74797065223a202241747461636b2044616d616760008201527f65222c202276616c7565223a2000000000000000000000000000000000000000602082015250565b7f7d2c207b202274726169745f74797065223a2022546f74616c2044616d61676560008201527f204465616c74222c202276616c7565223a200000000000000000000000000000602082015250565b7f4552433732313a2063616c6c6572206973206e6f7420746f6b656e206f776e6560008201527f72206e6f7220617070726f766564000000000000000000000000000000000000602082015250565b61566981614dc7565b811461567457600080fd5b50565b61568081614dd9565b811461568b57600080fd5b50565b61569781614def565b81146156a257600080fd5b50565b6156ae81614e49565b81146156b957600080fd5b5056fe4142434445464748494a4b4c4d4e4f505152535455565758595a6162636465666768696a6b6c6d6e6f707172737475767778797a303132333435363738392b2f4d696e746564204e465420772f20746f6b656e496420257320616e6420636861726163746572496e646578202573a264697066735822122021bb4a37e582a2538e997bf3782d1578f307204e179d2f56730d3cbbf71b007364736f6c63430008070033446f6e6520696e697469616c697a696e6720257320772f2048502025732c20696d67202573",
  "linkReferences": {},
  "deployedLinkReferences": {}
}