{
  "_format": "hh-sol-artifact-1",
  "contractName": "MyEpicGame",
  "sourceName": "contracts/MyEpicGame.sol",
  "abi": [
    {
      "inputs": [
        {
          "internalType": "string[]",
          "name": "characterNames",
          "type": "string[]"
        },
        {
          "internalType": "string[]",
          "name": "characterImageURIs",
          "type": "string[]"
        },
        {
          "internalType": "uint256[]",
          "name": "characterHP",
          "type": "uint256[]"
        },
        {
          "internalType": "uint256[]",
          "name": "characterAttackDamage",
          "type": "uint256[]"
        },
        {
          "internalType": "string",
          "name": "bossName",
          "type": "string"
        },
        {
          "internalType": "string",
          "name": "bossImageURI",
          "type": "string"
        },
        {
          "internalType": "uint256",
          "name": "bossHp",
          "type": "uint256"
        },
        {
          "internalType": "uint256",
          "name": "bossAttackDamage",
          "type": "uint256"
        }
      ],
      "stateMutability": "nonpayable",
      "type": "constructor"
    },
    {
      "anonymous": false,
      "inputs": [
        {
          "indexed": true,
          "internalType": "address",
          "name": "owner",
          "type": "address"
        },
        {
          "indexed": true,
          "internalType": "address",
          "name": "approved",
          "type": "address"
        },
        {
          "indexed": true,
          "internalType": "uint256",
          "name": "tokenId",
          "type": "uint256"
        }
      ],
      "name": "Approval",
      "type": "event"
    },
    {
      "anonymous": false,
      "inputs": [
        {
          "indexed": true,
          "internalType": "address",
          "name": "owner",
          "type": "address"
        },
        {
          "indexed": true,
          "internalType": "address",
          "name": "operator",
          "type": "address"
        },
        {
          "indexed": false,
          "internalType": "bool",
          "name": "approved",
          "type": "bool"
        }
      ],
      "name": "ApprovalForAll",
      "type": "event"
    },
    {
      "anonymous": false,
      "inputs": [
        {
          "indexed": false,
          "internalType": "address",
          "name": "sender",
          "type": "address"
        },
        {
          "indexed": false,
          "internalType": "uint256",
          "name": "newBossHP",
          "type": "uint256"
        },
        {
          "indexed": false,
          "internalType": "uint256",
          "name": "newPlayerHP",
          "type": "uint256"
        },
        {
          "indexed": false,
          "internalType": "uint256",
          "name": "damageDone",
          "type": "uint256"
        }
      ],
      "name": "AttackComplete",
      "type": "event"
    },
    {
      "anonymous": false,
      "inputs": [
        {
          "indexed": false,
          "internalType": "address",
          "name": "sender",
          "type": "address"
        },
        {
          "indexed": false,
          "internalType": "uint256",
          "name": "tokenID",
          "type": "uint256"
        },
        {
          "indexed": false,
          "internalType": "uint256",
          "name": "characterIndex",
          "type": "uint256"
        }
      ],
      "name": "CharacterNftMinted",
      "type": "event"
    },
    {
      "anonymous": false,
      "inputs": [
        {
          "indexed": true,
          "internalType": "address",
          "name": "from",
          "type": "address"
        },
        {
          "indexed": true,
          "internalType": "address",
          "name": "to",
          "type": "address"
        },
        {
          "indexed": true,
          "internalType": "uint256",
          "name": "tokenId",
          "type": "uint256"
        }
      ],
      "name": "Transfer",
      "type": "event"
    },
    {
      "inputs": [
        {
          "internalType": "address",
          "name": "to",
          "type": "address"
        },
        {
          "internalType": "uint256",
          "name": "tokenId",
          "type": "uint256"
        }
      ],
      "name": "approve",
      "outputs": [],
      "stateMutability": "nonpayable",
      "type": "function"
    },
    {
      "inputs": [],
      "name": "attackBoss",
      "outputs": [],
      "stateMutability": "nonpayable",
      "type": "function"
    },
    {
      "inputs": [
        {
          "internalType": "address",
          "name": "owner",
          "type": "address"
        }
      ],
      "name": "balanceOf",
      "outputs": [
        {
          "internalType": "uint256",
          "name": "",
          "type": "uint256"
        }
      ],
      "stateMutability": "view",
      "type": "function"
    },
    {
      "inputs": [],
      "name": "bigBoss",
      "outputs": [
        {
          "internalType": "string",
          "name": "name",
          "type": "string"
        },
        {
          "internalType": "string",
          "name": "imageURI",
          "type": "string"
        },
        {
          "internalType": "uint256",
          "name": "hp",
          "type": "uint256"
        },
        {
          "internalType": "uint256",
          "name": "maxHP",
          "type": "uint256"
        },
        {
          "internalType": "uint256",
          "name": "attackDamage",
          "type": "uint256"
        }
      ],
      "stateMutability": "view",
      "type": "function"
    },
    {
      "inputs": [],
      "name": "checkIfUserHasNFT",
      "outputs": [
        {
          "components": [
            {
              "internalType": "address",
              "name": "sender",
              "type": "address"
            },
            {
              "internalType": "uint256",
              "name": "characterIndex",
              "type": "uint256"
            },
            {
              "internalType": "string",
              "name": "name",
              "type": "string"
            },
            {
              "internalType": "string",
              "name": "imageURI",
              "type": "string"
            },
            {
              "internalType": "uint256",
              "name": "hp",
              "type": "uint256"
            },
            {
              "internalType": "uint256",
              "name": "maxHP",
              "type": "uint256"
            },
            {
              "internalType": "uint256",
              "name": "attackDamage",
              "type": "uint256"
            },
            {
              "internalType": "uint256",
              "name": "damageDone",
              "type": "uint256"
            }
          ],
          "internalType": "struct MyEpicGame.CharacterAttributes",
          "name": "",
          "type": "tuple"
        }
      ],
      "stateMutability": "view",
      "type": "function"
    },
    {
      "inputs": [],
      "name": "getAllDefaultCharacters",
      "outputs": [
        {
          "components": [
            {
              "internalType": "address",
              "name": "sender",
              "type": "address"
            },
            {
              "internalType": "uint256",
              "name": "characterIndex",
              "type": "uint256"
            },
            {
              "internalType": "string",
              "name": "name",
              "type": "string"
            },
            {
              "internalType": "string",
              "name": "imageURI",
              "type": "string"
            },
            {
              "internalType": "uint256",
              "name": "hp",
              "type": "uint256"
            },
            {
              "internalType": "uint256",
              "name": "maxHP",
              "type": "uint256"
            },
            {
              "internalType": "uint256",
              "name": "attackDamage",
              "type": "uint256"
            },
            {
              "internalType": "uint256",
              "name": "damageDone",
              "type": "uint256"
            }
          ],
          "internalType": "struct MyEpicGame.CharacterAttributes[]",
          "name": "",
          "type": "tuple[]"
        }
      ],
      "stateMutability": "view",
      "type": "function"
    },
    {
      "inputs": [],
      "name": "getAllPlayersInGame",
      "outputs": [
        {
          "components": [
            {
              "internalType": "address",
              "name": "sender",
              "type": "address"
            },
            {
              "internalType": "uint256",
              "name": "characterIndex",
              "type": "uint256"
            },
            {
              "internalType": "string",
              "name": "name",
              "type": "string"
            },
            {
              "internalType": "string",
              "name": "imageURI",
              "type": "string"
            },
            {
              "internalType": "uint256",
              "name": "hp",
              "type": "uint256"
            },
            {
              "internalType": "uint256",
              "name": "maxHP",
              "type": "uint256"
            },
            {
              "internalType": "uint256",
              "name": "attackDamage",
              "type": "uint256"
            },
            {
              "internalType": "uint256",
              "name": "damageDone",
              "type": "uint256"
            }
          ],
          "internalType": "struct MyEpicGame.CharacterAttributes[]",
          "name": "",
          "type": "tuple[]"
        }
      ],
      "stateMutability": "view",
      "type": "function"
    },
    {
      "inputs": [
        {
          "internalType": "uint256",
          "name": "tokenId",
          "type": "uint256"
        }
      ],
      "name": "getApproved",
      "outputs": [
        {
          "internalType": "address",
          "name": "",
          "type": "address"
        }
      ],
      "stateMutability": "view",
      "type": "function"
    },
    {
      "inputs": [],
      "name": "getBigBoss",
      "outputs": [
        {
          "components": [
            {
              "internalType": "string",
              "name": "name",
              "type": "string"
            },
            {
              "internalType": "string",
              "name": "imageURI",
              "type": "string"
            },
            {
              "internalType": "uint256",
              "name": "hp",
              "type": "uint256"
            },
            {
              "internalType": "uint256",
              "name": "maxHP",
              "type": "uint256"
            },
            {
              "internalType": "uint256",
              "name": "attackDamage",
              "type": "uint256"
            }
          ],
          "internalType": "struct MyEpicGame.BigBoss",
          "name": "",
          "type": "tuple"
        }
      ],
      "stateMutability": "view",
      "type": "function"
    },
    {
      "inputs": [
        {
          "internalType": "address",
          "name": "owner",
          "type": "address"
        },
        {
          "internalType": "address",
          "name": "operator",
          "type": "address"
        }
      ],
      "name": "isApprovedForAll",
      "outputs": [
        {
          "internalType": "bool",
          "name": "",
          "type": "bool"
        }
      ],
      "stateMutability": "view",
      "type": "function"
    },
    {
      "inputs": [
        {
          "internalType": "uint256",
          "name": "_characterIndex",
          "type": "uint256"
        }
      ],
      "name": "mintCharacterNFT",
      "outputs": [],
      "stateMutability": "nonpayable",
      "type": "function"
    },
    {
      "inputs": [],
      "name": "name",
      "outputs": [
        {
          "internalType": "string",
          "name": "",
          "type": "string"
        }
      ],
      "stateMutability": "view",
      "type": "function"
    },
    {
      "inputs": [
        {
          "internalType": "uint256",
          "name": "",
          "type": "uint256"
        }
      ],
      "name": "nftHolderAttributes",
      "outputs": [
        {
          "internalType": "address",
          "name": "sender",
          "type": "address"
        },
        {
          "internalType": "uint256",
          "name": "characterIndex",
          "type": "uint256"
        },
        {
          "internalType": "string",
          "name": "name",
          "type": "string"
        },
        {
          "internalType": "string",
          "name": "imageURI",
          "type": "string"
        },
        {
          "internalType": "uint256",
          "name": "hp",
          "type": "uint256"
        },
        {
          "internalType": "uint256",
          "name": "maxHP",
          "type": "uint256"
        },
        {
          "internalType": "uint256",
          "name": "attackDamage",
          "type": "uint256"
        },
        {
          "internalType": "uint256",
          "name": "damageDone",
          "type": "uint256"
        }
      ],
      "stateMutability": "view",
      "type": "function"
    },
    {
      "inputs": [
        {
          "internalType": "address",
          "name": "",
          "type": "address"
        }
      ],
      "name": "nftHolders",
      "outputs": [
        {
          "internalType": "uint256",
          "name": "",
          "type": "uint256"
        }
      ],
      "stateMutability": "view",
      "type": "function"
    },
    {
      "inputs": [
        {
          "internalType": "uint256",
          "name": "tokenId",
          "type": "uint256"
        }
      ],
      "name": "ownerOf",
      "outputs": [
        {
          "internalType": "address",
          "name": "",
          "type": "address"
        }
      ],
      "stateMutability": "view",
      "type": "function"
    },
    {
      "inputs": [
        {
          "internalType": "address",
          "name": "from",
          "type": "address"
        },
        {
          "internalType": "address",
          "name": "to",
          "type": "address"
        },
        {
          "internalType": "uint256",
          "name": "tokenId",
          "type": "uint256"
        }
      ],
      "name": "safeTransferFrom",
      "outputs": [],
      "stateMutability": "nonpayable",
      "type": "function"
    },
    {
      "inputs": [
        {
          "internalType": "address",
          "name": "from",
          "type": "address"
        },
        {
          "internalType": "address",
          "name": "to",
          "type": "address"
        },
        {
          "internalType": "uint256",
          "name": "tokenId",
          "type": "uint256"
        },
        {
          "internalType": "bytes",
          "name": "data",
          "type": "bytes"
        }
      ],
      "name": "safeTransferFrom",
      "outputs": [],
      "stateMutability": "nonpayable",
      "type": "function"
    },
    {
      "inputs": [
        {
          "internalType": "address",
          "name": "operator",
          "type": "address"
        },
        {
          "internalType": "bool",
          "name": "approved",
          "type": "bool"
        }
      ],
      "name": "setApprovalForAll",
      "outputs": [],
      "stateMutability": "nonpayable",
      "type": "function"
    },
    {
      "inputs": [
        {
          "internalType": "bytes4",
          "name": "interfaceId",
          "type": "bytes4"
        }
      ],
      "name": "supportsInterface",
      "outputs": [
        {
          "internalType": "bool",
          "name": "",
          "type": "bool"
        }
      ],
      "stateMutability": "view",
      "type": "function"
    },
    {
      "inputs": [],
      "name": "symbol",
      "outputs": [
        {
          "internalType": "string",
          "name": "",
          "type": "string"
        }
      ],
      "stateMutability": "view",
      "type": "function"
    },
    {
      "inputs": [
        {
          "internalType": "uint256",
          "name": "_tokenId",
          "type": "uint256"
        }
      ],
      "name": "tokenURI",
      "outputs": [
        {
          "internalType": "string",
          "name": "",
          "type": "string"
        }
      ],
      "stateMutability": "view",
      "type": "function"
    },
    {
      "inputs": [
        {
          "internalType": "address",
          "name": "from",
          "type": "address"
        },
        {
          "internalType": "address",
          "name": "to",
          "type": "address"
        },
        {
          "internalType": "uint256",
          "name": "tokenId",
          "type": "uint256"
        }
      ],
      "name": "transferFrom",
      "outputs": [],
      "stateMutability": "nonpayable",
      "type": "function"
    }
  ],
  "bytecode": "0x60806040523480156200001157600080fd5b5060405162005ed838038062005ed8833981810160405281019062000037919062000b2f565b6040518060400160405280600f81526020017f4461726b77696e67204e696768747300000000000000000000000000000000008152506040518060400160405280600781526020017f42415457494e47000000000000000000000000000000000000000000000000008152508160009080519060200190620000bb929190620008c2565b508060019080519060200190620000d4929190620008c2565b5050506040518060a0016040528085815260200184815260200183815260200183815260200182815250600a60008201518160000190805190602001906200011e929190620008c2565b5060208201518160010190805190602001906200013d929190620008c2565b50604082015181600201556060820151816003015560808201518160040155905050620002c06040518060600160405280602a815260200162005eae602a9139600a60000180546200018f9062000e55565b80601f0160208091040260200160405190810160405280929190818152602001828054620001bd9062000e55565b80156200020e5780601f10620001e2576101008083540402835291602001916200020e565b820191906000526020600020905b815481529060010190602001808311620001f057829003601f168201915b5050505050600a60020154600a60010180546200022b9062000e55565b80601f0160208091040260200160405190810160405280929190818152602001828054620002599062000e55565b8015620002aa5780601f106200027e57610100808354040283529160200191620002aa565b820191906000526020600020905b8154815290600101906020018083116200028c57829003601f168201915b5050505050620007d760201b620021431760201c565b60005b8851811015620007b15760086040518061010001604052803373ffffffffffffffffffffffffffffffffffffffff1681526020018381526020018b848151811062000337577f4e487b7100000000000000000000000000000000000000000000000000000000600052603260045260246000fd5b602002602001015181526020018a84815181106200037e577f4e487b7100000000000000000000000000000000000000000000000000000000600052603260045260246000fd5b60200260200101518152602001898481518110620003c5577f4e487b7100000000000000000000000000000000000000000000000000000000600052603260045260246000fd5b602002602001015181526020018984815181106200040c577f4e487b7100000000000000000000000000000000000000000000000000000000600052603260045260246000fd5b6020026020010151815260200188848151811062000453577f4e487b7100000000000000000000000000000000000000000000000000000000600052603260045260246000fd5b602002602001015181526020016000815250908060018154018082558091505060019003906000526020600020906008020160009091909190915060008201518160000160006101000a81548173ffffffffffffffffffffffffffffffffffffffff021916908373ffffffffffffffffffffffffffffffffffffffff160217905550602082015181600101556040820151816002019080519060200190620004fd929190620008c2565b5060608201518160030190805190602001906200051c929190620008c2565b506080820151816004015560a0820151816005015560c0820151816006015560e08201518160070155505060006008828154811062000584577f4e487b7100000000000000000000000000000000000000000000000000000000600052603260045260246000fd5b9060005260206000209060080201604051806101000160405290816000820160009054906101000a900473ffffffffffffffffffffffffffffffffffffffff1673ffffffffffffffffffffffffffffffffffffffff1673ffffffffffffffffffffffffffffffffffffffff16815260200160018201548152602001600282018054620006109062000e55565b80601f01602080910402602001604051908101604052809291908181526020018280546200063e9062000e55565b80156200068f5780601f1062000663576101008083540402835291602001916200068f565b820191906000526020600020905b8154815290600101906020018083116200067157829003601f168201915b50505050508152602001600382018054620006aa9062000e55565b80601f0160208091040260200160405190810160405280929190818152602001828054620006d89062000e55565b8015620007295780601f10620006fd5761010080835404028352916020019162000729565b820191906000526020600020905b8154815290600101906020018083116200070b57829003601f168201915b5050505050815260200160048201548152602001600582015481526020016006820154815260200160078201548152505090506200079a60405180606001604052806025815260200162005e8960259139826040015183608001518460600151620007d760201b620021431760201c565b508080620007a89062000ec1565b915050620002c3565b50620007c960066200088360201b620021e51760201c565b505050505050505062000fc7565b6200087d84848484604051602401620007f4949392919062000cda565b6040516020818303038152906040527f8d142cdd000000000000000000000000000000000000000000000000000000007bffffffffffffffffffffffffffffffffffffffffffffffffffffffff19166020820180517bffffffffffffffffffffffffffffffffffffffffffffffffffffffff83818316178352505050506200089960201b60201c565b50505050565b6001816000016000828254019250508190555050565b60008151905060006a636f6e736f6c652e6c6f679050602083016000808483855afa5050505050565b828054620008d09062000e55565b90600052602060002090601f016020900481019282620008f4576000855562000940565b82601f106200090f57805160ff191683800117855562000940565b8280016001018555821562000940579182015b828111156200093f57825182559160200191906001019062000922565b5b5090506200094f919062000953565b5090565b5b808211156200096e57600081600090555060010162000954565b5090565b600062000989620009838462000d65565b62000d3c565b9050808382526020820190508260005b85811015620009cd5781518501620009b2888262000aeb565b84526020840193506020830192505060018101905062000999565b5050509392505050565b6000620009ee620009e88462000d94565b62000d3c565b9050808382526020820190508285602086028201111562000a0e57600080fd5b60005b8581101562000a42578162000a27888262000b18565b84526020840193506020830192505060018101905062000a11565b5050509392505050565b600062000a6362000a5d8462000dc3565b62000d3c565b90508281526020810184848401111562000a7c57600080fd5b62000a8984828562000e1f565b509392505050565b600082601f83011262000aa357600080fd5b815162000ab584826020860162000972565b91505092915050565b600082601f83011262000ad057600080fd5b815162000ae2848260208601620009d7565b91505092915050565b600082601f83011262000afd57600080fd5b815162000b0f84826020860162000a4c565b91505092915050565b60008151905062000b298162000fad565b92915050565b600080600080600080600080610100898b03121562000b4d57600080fd5b600089015167ffffffffffffffff81111562000b6857600080fd5b62000b768b828c0162000a91565b985050602089015167ffffffffffffffff81111562000b9457600080fd5b62000ba28b828c0162000a91565b975050604089015167ffffffffffffffff81111562000bc057600080fd5b62000bce8b828c0162000abe565b965050606089015167ffffffffffffffff81111562000bec57600080fd5b62000bfa8b828c0162000abe565b955050608089015167ffffffffffffffff81111562000c1857600080fd5b62000c268b828c0162000aeb565b94505060a089015167ffffffffffffffff81111562000c4457600080fd5b62000c528b828c0162000aeb565b93505060c062000c658b828c0162000b18565b92505060e062000c788b828c0162000b18565b9150509295985092959890939650565b600062000c958262000df9565b62000ca1818562000e04565b935062000cb381856020860162000e1f565b62000cbe8162000f9c565b840191505092915050565b62000cd48162000e15565b82525050565b6000608082019050818103600083015262000cf6818762000c88565b9050818103602083015262000d0c818662000c88565b905062000d1d604083018562000cc9565b818103606083015262000d31818462000c88565b905095945050505050565b600062000d4862000d5b565b905062000d56828262000e8b565b919050565b6000604051905090565b600067ffffffffffffffff82111562000d835762000d8262000f6d565b5b602082029050602081019050919050565b600067ffffffffffffffff82111562000db25762000db162000f6d565b5b602082029050602081019050919050565b600067ffffffffffffffff82111562000de15762000de062000f6d565b5b62000dec8262000f9c565b9050602081019050919050565b600081519050919050565b600082825260208201905092915050565b6000819050919050565b60005b8381101562000e3f57808201518184015260208101905062000e22565b8381111562000e4f576000848401525b50505050565b6000600282049050600182168062000e6e57607f821691505b6020821081141562000e855762000e8462000f3e565b5b50919050565b62000e968262000f9c565b810181811067ffffffffffffffff8211171562000eb85762000eb762000f6d565b5b80604052505050565b600062000ece8262000e15565b91507fffffffffffffffffffffffffffffffffffffffffffffffffffffffffffffffff82141562000f045762000f0362000f0f565b5b600182019050919050565b7f4e487b7100000000000000000000000000000000000000000000000000000000600052601160045260246000fd5b7f4e487b7100000000000000000000000000000000000000000000000000000000600052602260045260246000fd5b7f4e487b7100000000000000000000000000000000000000000000000000000000600052604160045260246000fd5b6000601f19601f8301169050919050565b62000fb88162000e15565b811462000fc457600080fd5b50565b614eb28062000fd76000396000f3fe608060405234801561001057600080fd5b50600436106101425760003560e01c806398da4c95116100b8578063c87b56dd1161007c578063c87b56dd14610394578063c8cf27f4146103c4578063d4f24c5b146103e2578063e985e9c5146103ec578063f8b81ef71461041c578063f9b8f4cb1461043857610142565b806398da4c95146102e5578063a22cb4651461031c578063a9c3267914610338578063b88d4fde1461035a578063b953084e1461037657610142565b806323b872dd1161010a57806323b872dd146101ff57806342842e0e1461021b5780636352211e1461023757806370a08231146102675780637df124a11461029757806395d89b41146102c757610142565b806301ffc9a7146101475780630665f9611461017757806306fdde0314610195578063081812fc146101b3578063095ea7b3146101e3575b600080fd5b610161600480360381019061015c919061366a565b610456565b60405161016e9190613ff2565b60405180910390f35b61017f610538565b60405161018c919061434b565b60405180910390f35b61019d610694565b6040516101aa919061400d565b60405180910390f35b6101cd60048036038101906101c891906136bc565b610726565b6040516101da9190613e61565b60405180910390f35b6101fd60048036038101906101f8919061362e565b61076c565b005b61021960048036038101906102149190613528565b610884565b005b61023560048036038101906102309190613528565b6108e4565b005b610251600480360381019061024c91906136bc565b610904565b60405161025e9190613e61565b60405180910390f35b610281600480360381019061027c91906134c3565b6109b6565b60405161028e919061438f565b60405180910390f35b6102b160048036038101906102ac91906134c3565b610a6e565b6040516102be919061438f565b60405180910390f35b6102cf610a86565b6040516102dc919061400d565b60405180910390f35b6102ff60048036038101906102fa91906136bc565b610b18565b604051610313989796959493929190613ec8565b60405180910390f35b610336600480360381019061033191906135f2565b610c90565b005b610340610ca6565b6040516103519594939291906140dc565b60405180910390f35b610374600480360381019061036f9190613577565b610dda565b005b61037e610e3c565b60405161038b9190613fd0565b60405180910390f35b6103ae60048036038101906103a991906136bc565b611048565b6040516103bb919061400d565b60405180910390f35b6103cc6112d8565b6040516103d9919061436d565b60405180910390f35b6103ea611511565b005b610406600480360381019061040191906134ec565b611921565b6040516104139190613ff2565b60405180910390f35b610436600480360381019061043191906136bc565b6119b5565b005b610440611f37565b60405161044d9190613fd0565b60405180910390f35b60007f80ac58cd000000000000000000000000000000000000000000000000000000007bffffffffffffffffffffffffffffffffffffffffffffffffffffffff1916827bffffffffffffffffffffffffffffffffffffffffffffffffffffffff1916148061052157507f5b5e139f000000000000000000000000000000000000000000000000000000007bffffffffffffffffffffffffffffffffffffffffffffffffffffffff1916827bffffffffffffffffffffffffffffffffffffffffffffffffffffffff1916145b806105315750610530826121fb565b5b9050919050565b610540613238565b600a6040518060a001604052908160008201805461055d90614658565b80601f016020809104026020016040519081016040528092919081815260200182805461058990614658565b80156105d65780601f106105ab576101008083540402835291602001916105d6565b820191906000526020600020905b8154815290600101906020018083116105b957829003601f168201915b505050505081526020016001820180546105ef90614658565b80601f016020809104026020016040519081016040528092919081815260200182805461061b90614658565b80156106685780601f1061063d57610100808354040283529160200191610668565b820191906000526020600020905b81548152906001019060200180831161064b57829003601f168201915b505050505081526020016002820154815260200160038201548152602001600482015481525050905090565b6060600080546106a390614658565b80601f01602080910402602001604051908101604052809291908181526020018280546106cf90614658565b801561071c5780601f106106f15761010080835404028352916020019161071c565b820191906000526020600020905b8154815290600101906020018083116106ff57829003601f168201915b5050505050905090565b600061073182612265565b6004600083815260200190815260200160002060009054906101000a900473ffffffffffffffffffffffffffffffffffffffff169050919050565b600061077782610904565b90508073ffffffffffffffffffffffffffffffffffffffff168373ffffffffffffffffffffffffffffffffffffffff1614156107e8576040517f08c379a00000000000000000000000000000000000000000000000000000000081526004016107df906142eb565b60405180910390fd5b8073ffffffffffffffffffffffffffffffffffffffff166108076122b0565b73ffffffffffffffffffffffffffffffffffffffff1614806108365750610835816108306122b0565b611921565b5b610875576040517f08c379a000000000000000000000000000000000000000000000000000000000815260040161086c9061428b565b60405180910390fd5b61087f83836122b8565b505050565b61089561088f6122b0565b82612371565b6108d4576040517f08c379a00000000000000000000000000000000000000000000000000000000081526004016108cb9061432b565b60405180910390fd5b6108df838383612406565b505050565b6108ff83838360405180602001604052806000815250610dda565b505050565b6000806002600084815260200190815260200160002060009054906101000a900473ffffffffffffffffffffffffffffffffffffffff169050600073ffffffffffffffffffffffffffffffffffffffff168173ffffffffffffffffffffffffffffffffffffffff1614156109ad576040517f08c379a00000000000000000000000000000000000000000000000000000000081526004016109a4906142cb565b60405180910390fd5b80915050919050565b60008073ffffffffffffffffffffffffffffffffffffffff168273ffffffffffffffffffffffffffffffffffffffff161415610a27576040517f08c379a0000000000000000000000000000000000000000000000000000000008152600401610a1e9061426b565b60405180910390fd5b600360008373ffffffffffffffffffffffffffffffffffffffff1673ffffffffffffffffffffffffffffffffffffffff168152602001908152602001600020549050919050565b600f6020528060005260406000206000915090505481565b606060018054610a9590614658565b80601f0160208091040260200160405190810160405280929190818152602001828054610ac190614658565b8015610b0e5780601f10610ae357610100808354040283529160200191610b0e565b820191906000526020600020905b815481529060010190602001808311610af157829003601f168201915b5050505050905090565b60096020528060005260406000206000915090508060000160009054906101000a900473ffffffffffffffffffffffffffffffffffffffff1690806001015490806002018054610b6790614658565b80601f0160208091040260200160405190810160405280929190818152602001828054610b9390614658565b8015610be05780601f10610bb557610100808354040283529160200191610be0565b820191906000526020600020905b815481529060010190602001808311610bc357829003601f168201915b505050505090806003018054610bf590614658565b80601f0160208091040260200160405190810160405280929190818152602001828054610c2190614658565b8015610c6e5780601f10610c4357610100808354040283529160200191610c6e565b820191906000526020600020905b815481529060010190602001808311610c5157829003601f168201915b5050505050908060040154908060050154908060060154908060070154905088565b610ca2610c9b6122b0565b838361266d565b5050565b600a806000018054610cb790614658565b80601f0160208091040260200160405190810160405280929190818152602001828054610ce390614658565b8015610d305780601f10610d0557610100808354040283529160200191610d30565b820191906000526020600020905b815481529060010190602001808311610d1357829003601f168201915b505050505090806001018054610d4590614658565b80601f0160208091040260200160405190810160405280929190818152602001828054610d7190614658565b8015610dbe5780601f10610d9357610100808354040283529160200191610dbe565b820191906000526020600020905b815481529060010190602001808311610da157829003601f168201915b5050505050908060020154908060030154908060040154905085565b610deb610de56122b0565b83612371565b610e2a576040517f08c379a0000000000000000000000000000000000000000000000000000000008152600401610e219061432b565b60405180910390fd5b610e36848484846127da565b50505050565b60606008805480602002602001604051908101604052809291908181526020016000905b8282101561103f5783829060005260206000209060080201604051806101000160405290816000820160009054906101000a900473ffffffffffffffffffffffffffffffffffffffff1673ffffffffffffffffffffffffffffffffffffffff1673ffffffffffffffffffffffffffffffffffffffff16815260200160018201548152602001600282018054610ef490614658565b80601f0160208091040260200160405190810160405280929190818152602001828054610f2090614658565b8015610f6d5780601f10610f4257610100808354040283529160200191610f6d565b820191906000526020600020905b815481529060010190602001808311610f5057829003601f168201915b50505050508152602001600382018054610f8690614658565b80601f0160208091040260200160405190810160405280929190818152602001828054610fb290614658565b8015610fff5780601f10610fd457610100808354040283529160200191610fff565b820191906000526020600020905b815481529060010190602001808311610fe257829003601f168201915b5050505050815260200160048201548152602001600582015481526020016006820154815260200160078201548152505081526020019060010190610e60565b50505050905090565b6060600060096000848152602001908152602001600020604051806101000160405290816000820160009054906101000a900473ffffffffffffffffffffffffffffffffffffffff1673ffffffffffffffffffffffffffffffffffffffff1673ffffffffffffffffffffffffffffffffffffffff168152602001600182015481526020016002820180546110db90614658565b80601f016020809104026020016040519081016040528092919081815260200182805461110790614658565b80156111545780601f1061112957610100808354040283529160200191611154565b820191906000526020600020905b81548152906001019060200180831161113757829003601f168201915b5050505050815260200160038201805461116d90614658565b80601f016020809104026020016040519081016040528092919081815260200182805461119990614658565b80156111e65780601f106111bb576101008083540402835291602001916111e6565b820191906000526020600020905b8154815290600101906020018083116111c957829003601f168201915b50505050508152602001600482015481526020016005820154815260200160068201548152602001600782015481525050905060006112288260800151612836565b905060006112398360a00151612836565b9050600061124a8460c00151612836565b9050600061125b8560e00151612836565b905060006112a386604001516112708a612836565b88606001518888888860405160200161128f9796959493929190613d82565b6040516020818303038152906040526129e3565b90506000816040516020016112b89190613e3f565b604051602081830303815290604052905080975050505050505050919050565b6112e0613267565b6000600f60003373ffffffffffffffffffffffffffffffffffffffff1673ffffffffffffffffffffffffffffffffffffffff16815260200190815260200160002054905060008111156115005760096000828152602001908152602001600020604051806101000160405290816000820160009054906101000a900473ffffffffffffffffffffffffffffffffffffffff1673ffffffffffffffffffffffffffffffffffffffff1673ffffffffffffffffffffffffffffffffffffffff168152602001600182015481526020016002820180546113bc90614658565b80601f01602080910402602001604051908101604052809291908181526020018280546113e890614658565b80156114355780601f1061140a57610100808354040283529160200191611435565b820191906000526020600020905b81548152906001019060200180831161141857829003601f168201915b5050505050815260200160038201805461144e90614658565b80601f016020809104026020016040519081016040528092919081815260200182805461147a90614658565b80156114c75780601f1061149c576101008083540402835291602001916114c7565b820191906000526020600020905b8154815290600101906020018083116114aa57829003601f168201915b5050505050815260200160048201548152602001600582015481526020016006820154815260200160078201548152505091505061150e565b611508613267565b80925050505b90565b6000600f60003373ffffffffffffffffffffffffffffffffffffffff1673ffffffffffffffffffffffffffffffffffffffff16815260200190815260200160002054905060006009600083815260200190815260200160002090506115af6040518060400160405280601181526020017f706c617965722e64616d616765446f6e650000000000000000000000000000008152508260070154612ba1565b6116676040518060600160405280603c8152602001614e41603c91398260020180546115da90614658565b80601f016020809104026020016040519081016040528092919081815260200182805461160690614658565b80156116535780601f1061162857610100808354040283529160200191611653565b820191906000526020600020905b81548152906001019060200180831161163657829003601f168201915b505050505083600401548460060154612c3d565b61173f6040518060400160405280601b81526020017f426f73732025732068617320257320485020616e642025732041440000000000815250600a60000180546116b090614658565b80601f01602080910402602001604051908101604052809291908181526020018280546116dc90614658565b80156117295780601f106116fe57610100808354040283529160200191611729565b820191906000526020600020905b81548152906001019060200180831161170c57829003601f168201915b5050505050600a60020154600a60040154612c3d565b6000816004015411611786576040517f08c379a000000000000000000000000000000000000000000000000000000000815260040161177d9061420b565b60405180910390fd5b6000600a60020154116117ce576040517f08c379a00000000000000000000000000000000000000000000000000000000081526004016117c59061430b565b60405180910390fd5b8060060154600a60020154101561180f57600a600201548160070160008282546117f8919061448d565b925050819055506000600a6002018190555061184f565b8060060154816007016000828254611827919061448d565b925050819055508060060154600a6002016000828254611847919061456e565b925050819055505b600a600401548160040154101561186f5760008160040181905550611890565b600a60040154816004016000828254611888919061456e565b925050819055505b6118d36040518060400160405280601481526020017f706c617965722e64616d616765446f6e652a2a2a0000000000000000000000008152508260070154612ba1565b7f3934b616480d35e63d1488f95747e3a90304761635614598a79069e8c4fbbe0e33600a60020154836004015484600701546040516119159493929190613f8b565b60405180910390a15050565b6000600560008473ffffffffffffffffffffffffffffffffffffffff1673ffffffffffffffffffffffffffffffffffffffff16815260200190815260200160002060008373ffffffffffffffffffffffffffffffffffffffff1673ffffffffffffffffffffffffffffffffffffffff16815260200190815260200160002060009054906101000a900460ff16905092915050565b60006119c16006612cdf565b90506119cd3382612ced565b6040518061010001604052803373ffffffffffffffffffffffffffffffffffffffff16815260200183815260200160088481548110611a35577f4e487b7100000000000000000000000000000000000000000000000000000000600052603260045260246000fd5b90600052602060002090600802016002018054611a5190614658565b80601f0160208091040260200160405190810160405280929190818152602001828054611a7d90614658565b8015611aca5780601f10611a9f57610100808354040283529160200191611aca565b820191906000526020600020905b815481529060010190602001808311611aad57829003601f168201915b5050505050815260200160088481548110611b0e577f4e487b7100000000000000000000000000000000000000000000000000000000600052603260045260246000fd5b90600052602060002090600802016003018054611b2a90614658565b80601f0160208091040260200160405190810160405280929190818152602001828054611b5690614658565b8015611ba35780601f10611b7857610100808354040283529160200191611ba3565b820191906000526020600020905b815481529060010190602001808311611b8657829003601f168201915b5050505050815260200160088481548110611be7577f4e487b7100000000000000000000000000000000000000000000000000000000600052603260045260246000fd5b906000526020600020906008020160040154815260200160088481548110611c38577f4e487b7100000000000000000000000000000000000000000000000000000000600052603260045260246000fd5b906000526020600020906008020160050154815260200160088481548110611c89577f4e487b7100000000000000000000000000000000000000000000000000000000600052603260045260246000fd5b906000526020600020906008020160060154815260200160008152506009600083815260200190815260200160002060008201518160000160006101000a81548173ffffffffffffffffffffffffffffffffffffffff021916908373ffffffffffffffffffffffffffffffffffffffff160217905550602082015181600101556040820151816002019080519060200190611d259291906132c2565b506060820151816003019080519060200190611d429291906132c2565b506080820151816004015560a0820151816005015560c0820151816006015560e0820151816007015590505060076009600083815260200190815260200160002090806001815401808255809150506001900390600052602060002090600802016000909190919091506000820160009054906101000a900473ffffffffffffffffffffffffffffffffffffffff168160000160006101000a81548173ffffffffffffffffffffffffffffffffffffffff021916908373ffffffffffffffffffffffffffffffffffffffff160217905550600182015481600101556002820181600201908054611e3190614658565b611e3c929190613348565b506003820181600301908054611e5190614658565b611e5c929190613348565b50600482015481600401556005820154816005015560068201548160060155600782015481600701555050611eaa6040518060600160405280602e8152602001614e13602e91398284612d0b565b80600f60003373ffffffffffffffffffffffffffffffffffffffff1673ffffffffffffffffffffffffffffffffffffffff16815260200190815260200160002081905550611ef860066121e5565b7f5c5a40a57afc3c1041f01d72639b5cc9543d2f381f4f9869d6ce1ed50b45d498338284604051611f2b93929190613f54565b60405180910390a15050565b60606007805480602002602001604051908101604052809291908181526020016000905b8282101561213a5783829060005260206000209060080201604051806101000160405290816000820160009054906101000a900473ffffffffffffffffffffffffffffffffffffffff1673ffffffffffffffffffffffffffffffffffffffff1673ffffffffffffffffffffffffffffffffffffffff16815260200160018201548152602001600282018054611fef90614658565b80601f016020809104026020016040519081016040528092919081815260200182805461201b90614658565b80156120685780601f1061203d57610100808354040283529160200191612068565b820191906000526020600020905b81548152906001019060200180831161204b57829003601f168201915b5050505050815260200160038201805461208190614658565b80601f01602080910402602001604051908101604052809291908181526020018280546120ad90614658565b80156120fa5780601f106120cf576101008083540402835291602001916120fa565b820191906000526020600020905b8154815290600101906020018083116120dd57829003601f168201915b5050505050815260200160048201548152602001600582015481526020016006820154815260200160078201548152505081526020019060010190611f5b565b50505050905090565b6121df8484848460405160240161215d949392919061402f565b6040516020818303038152906040527f8d142cdd000000000000000000000000000000000000000000000000000000007bffffffffffffffffffffffffffffffffffffffffffffffffffffffff19166020820180517bffffffffffffffffffffffffffffffffffffffffffffffffffffffff8381831617835250505050612daa565b50505050565b6001816000016000828254019250508190555050565b60007f01ffc9a7000000000000000000000000000000000000000000000000000000007bffffffffffffffffffffffffffffffffffffffffffffffffffffffff1916827bffffffffffffffffffffffffffffffffffffffffffffffffffffffff1916149050919050565b61226e81612dd3565b6122ad576040517f08c379a00000000000000000000000000000000000000000000000000000000081526004016122a4906142cb565b60405180910390fd5b50565b600033905090565b816004600083815260200190815260200160002060006101000a81548173ffffffffffffffffffffffffffffffffffffffff021916908373ffffffffffffffffffffffffffffffffffffffff160217905550808273ffffffffffffffffffffffffffffffffffffffff1661232b83610904565b73ffffffffffffffffffffffffffffffffffffffff167f8c5be1e5ebec7d5bd14f71427d1e84f3dd0314c0f7b2291e5b200ac8c7c3b92560405160405180910390a45050565b60008061237d83610904565b90508073ffffffffffffffffffffffffffffffffffffffff168473ffffffffffffffffffffffffffffffffffffffff1614806123bf57506123be8185611921565b5b806123fd57508373ffffffffffffffffffffffffffffffffffffffff166123e584610726565b73ffffffffffffffffffffffffffffffffffffffff16145b91505092915050565b8273ffffffffffffffffffffffffffffffffffffffff1661242682610904565b73ffffffffffffffffffffffffffffffffffffffff161461247c576040517f08c379a0000000000000000000000000000000000000000000000000000000008152600401612473906141cb565b60405180910390fd5b600073ffffffffffffffffffffffffffffffffffffffff168273ffffffffffffffffffffffffffffffffffffffff1614156124ec576040517f08c379a00000000000000000000000000000000000000000000000000000000081526004016124e39061422b565b60405180910390fd5b6124f7838383612e3f565b6125026000826122b8565b6001600360008573ffffffffffffffffffffffffffffffffffffffff1673ffffffffffffffffffffffffffffffffffffffff1681526020019081526020016000206000828254612552919061456e565b925050819055506001600360008473ffffffffffffffffffffffffffffffffffffffff1673ffffffffffffffffffffffffffffffffffffffff16815260200190815260200160002060008282546125a9919061448d565b92505081905550816002600083815260200190815260200160002060006101000a81548173ffffffffffffffffffffffffffffffffffffffff021916908373ffffffffffffffffffffffffffffffffffffffff160217905550808273ffffffffffffffffffffffffffffffffffffffff168473ffffffffffffffffffffffffffffffffffffffff167fddf252ad1be2c89b69c2b068fc378daa952ba7f163c4a11628f55a4df523b3ef60405160405180910390a4612668838383612e44565b505050565b8173ffffffffffffffffffffffffffffffffffffffff168373ffffffffffffffffffffffffffffffffffffffff1614156126dc576040517f08c379a00000000000000000000000000000000000000000000000000000000081526004016126d39061424b565b60405180910390fd5b80600560008573ffffffffffffffffffffffffffffffffffffffff1673ffffffffffffffffffffffffffffffffffffffff16815260200190815260200160002060008473ffffffffffffffffffffffffffffffffffffffff1673ffffffffffffffffffffffffffffffffffffffff16815260200190815260200160002060006101000a81548160ff0219169083151502179055508173ffffffffffffffffffffffffffffffffffffffff168373ffffffffffffffffffffffffffffffffffffffff167f17307eab39ab6107e8899845ad3d59bd9653f200f220920489ca2b5937696c31836040516127cd9190613ff2565b60405180910390a3505050565b6127e5848484612406565b6127f184848484612e49565b612830576040517f08c379a0000000000000000000000000000000000000000000000000000000008152600401612827906141ab565b60405180910390fd5b50505050565b6060600082141561287e576040518060400160405280600181526020017f300000000000000000000000000000000000000000000000000000000000000081525090506129de565b600082905060005b600082146128b0578080612899906146bb565b915050600a826128a991906144e3565b9150612886565b60008167ffffffffffffffff8111156128f2577f4e487b7100000000000000000000000000000000000000000000000000000000600052604160045260246000fd5b6040519080825280601f01601f1916602001820160405280156129245781602001600182028036833780820191505090505b5090505b600085146129d75760018261293d919061456e565b9150600a8561294c9190614704565b6030612958919061448d565b60f81b818381518110612994577f4e487b7100000000000000000000000000000000000000000000000000000000600052603260045260246000fd5b60200101907effffffffffffffffffffffffffffffffffffffffffffffffffffffffffffff1916908160001a905350600a856129d091906144e3565b9450612928565b8093505050505b919050565b60606000825190506000811415612a0c5760405180602001604052806000815250915050612b9c565b60006003600283612a1d919061448d565b612a2791906144e3565b6004612a339190614514565b90506000602082612a44919061448d565b67ffffffffffffffff811115612a83577f4e487b7100000000000000000000000000000000000000000000000000000000600052604160045260246000fd5b6040519080825280601f01601f191660200182016040528015612ab55781602001600182028036833780820191505090505b5090506000604051806060016040528060408152602001614dd3604091399050600181016020830160005b86811015612b595760038101905062ffffff818a015116603f8160121c168401518060081b905060ff603f83600c1c1686015116810190508060081b905060ff603f8360061c1686015116810190508060081b905060ff603f831686015116810190508060e01b90508084526004840193505050612ae0565b506003860660018114612b735760028114612b8357612b8e565b613d3d60f01b6002830352612b8e565b603d60f81b60018303525b508484525050819450505050505b919050565b612c398282604051602401612bb792919061413d565b6040516020818303038152906040527f9710a9d0000000000000000000000000000000000000000000000000000000007bffffffffffffffffffffffffffffffffffffffffffffffffffffffff19166020820180517bffffffffffffffffffffffffffffffffffffffffffffffffffffffff8381831617835250505050612daa565b5050565b612cd984848484604051602401612c579493929190614089565b6040516020818303038152906040527fd5cf17d0000000000000000000000000000000000000000000000000000000007bffffffffffffffffffffffffffffffffffffffffffffffffffffffff19166020820180517bffffffffffffffffffffffffffffffffffffffffffffffffffffffff8381831617835250505050612daa565b50505050565b600081600001549050919050565b612d07828260405180602001604052806000815250612fe0565b5050565b612da5838383604051602401612d239392919061416d565b6040516020818303038152906040527f969cdd03000000000000000000000000000000000000000000000000000000007bffffffffffffffffffffffffffffffffffffffffffffffffffffffff19166020820180517bffffffffffffffffffffffffffffffffffffffffffffffffffffffff8381831617835250505050612daa565b505050565b60008151905060006a636f6e736f6c652e6c6f679050602083016000808483855afa5050505050565b60008073ffffffffffffffffffffffffffffffffffffffff166002600084815260200190815260200160002060009054906101000a900473ffffffffffffffffffffffffffffffffffffffff1673ffffffffffffffffffffffffffffffffffffffff1614159050919050565b505050565b505050565b6000612e6a8473ffffffffffffffffffffffffffffffffffffffff1661303b565b15612fd3578373ffffffffffffffffffffffffffffffffffffffff1663150b7a02612e936122b0565b8786866040518563ffffffff1660e01b8152600401612eb59493929190613e7c565b602060405180830381600087803b158015612ecf57600080fd5b505af1925050508015612f0057506040513d601f19601f82011682018060405250810190612efd9190613693565b60015b612f83573d8060008114612f30576040519150601f19603f3d011682016040523d82523d6000602084013e612f35565b606091505b50600081511415612f7b576040517f08c379a0000000000000000000000000000000000000000000000000000000008152600401612f72906141ab565b60405180910390fd5b805181602001fd5b63150b7a0260e01b7bffffffffffffffffffffffffffffffffffffffffffffffffffffffff1916817bffffffffffffffffffffffffffffffffffffffffffffffffffffffff191614915050612fd8565b600190505b949350505050565b612fea838361305e565b612ff76000848484612e49565b613036576040517f08c379a000000000000000000000000000000000000000000000000000000000815260040161302d906141ab565b60405180910390fd5b505050565b6000808273ffffffffffffffffffffffffffffffffffffffff163b119050919050565b600073ffffffffffffffffffffffffffffffffffffffff168273ffffffffffffffffffffffffffffffffffffffff1614156130ce576040517f08c379a00000000000000000000000000000000000000000000000000000000081526004016130c5906142ab565b60405180910390fd5b6130d781612dd3565b15613117576040517f08c379a000000000000000000000000000000000000000000000000000000000815260040161310e906141eb565b60405180910390fd5b61312360008383612e3f565b6001600360008473ffffffffffffffffffffffffffffffffffffffff1673ffffffffffffffffffffffffffffffffffffffff1681526020019081526020016000206000828254613173919061448d565b92505081905550816002600083815260200190815260200160002060006101000a81548173ffffffffffffffffffffffffffffffffffffffff021916908373ffffffffffffffffffffffffffffffffffffffff160217905550808273ffffffffffffffffffffffffffffffffffffffff16600073ffffffffffffffffffffffffffffffffffffffff167fddf252ad1be2c89b69c2b068fc378daa952ba7f163c4a11628f55a4df523b3ef60405160405180910390a461323460008383612e44565b5050565b6040518060a0016040528060608152602001606081526020016000815260200160008152602001600081525090565b604051806101000160405280600073ffffffffffffffffffffffffffffffffffffffff168152602001600081526020016060815260200160608152602001600081526020016000815260200160008152602001600081525090565b8280546132ce90614658565b90600052602060002090601f0160209004810192826132f05760008555613337565b82601f1061330957805160ff1916838001178555613337565b82800160010185558215613337579182015b8281111561333657825182559160200191906001019061331b565b5b50905061334491906133d5565b5090565b82805461335490614658565b90600052602060002090601f01602090048101928261337657600085556133c4565b82601f1061338757805485556133c4565b828001600101855582156133c457600052602060002091601f016020900482015b828111156133c35782548255916001019190600101906133a8565b5b5090506133d191906133d5565b5090565b5b808211156133ee5760008160009055506001016133d6565b5090565b6000613405613400846143cf565b6143aa565b90508281526020810184848401111561341d57600080fd5b613428848285614616565b509392505050565b60008135905061343f81614d76565b92915050565b60008135905061345481614d8d565b92915050565b60008135905061346981614da4565b92915050565b60008151905061347e81614da4565b92915050565b600082601f83011261349557600080fd5b81356134a58482602086016133f2565b91505092915050565b6000813590506134bd81614dbb565b92915050565b6000602082840312156134d557600080fd5b60006134e384828501613430565b91505092915050565b600080604083850312156134ff57600080fd5b600061350d85828601613430565b925050602061351e85828601613430565b9150509250929050565b60008060006060848603121561353d57600080fd5b600061354b86828701613430565b935050602061355c86828701613430565b925050604061356d868287016134ae565b9150509250925092565b6000806000806080858703121561358d57600080fd5b600061359b87828801613430565b94505060206135ac87828801613430565b93505060406135bd878288016134ae565b925050606085013567ffffffffffffffff8111156135da57600080fd5b6135e687828801613484565b91505092959194509250565b6000806040838503121561360557600080fd5b600061361385828601613430565b925050602061362485828601613445565b9150509250929050565b6000806040838503121561364157600080fd5b600061364f85828601613430565b9250506020613660858286016134ae565b9150509250929050565b60006020828403121561367c57600080fd5b600061368a8482850161345a565b91505092915050565b6000602082840312156136a557600080fd5b60006136b38482850161346f565b91505092915050565b6000602082840312156136ce57600080fd5b60006136dc848285016134ae565b91505092915050565b60006136f18383613bf6565b905092915050565b613702816145a2565b82525050565b613711816145a2565b82525050565b600061372282614410565b61372c818561443e565b93508360208202850161373e85614400565b8060005b8581101561377a578484038952815161375b85826136e5565b945061376683614431565b925060208a01995050600181019050613742565b50829750879550505050505092915050565b613795816145b4565b82525050565b60006137a68261441b565b6137b0818561444f565b93506137c0818560208601614625565b6137c9816147f1565b840191505092915050565b60006137df82614426565b6137e98185614460565b93506137f9818560208601614625565b613802816147f1565b840191505092915050565b600061381882614426565b6138228185614471565b9350613832818560208601614625565b61383b816147f1565b840191505092915050565b600061385182614426565b61385b8185614482565b935061386b818560208601614625565b80840191505092915050565b6000613884600b83614482565b915061388f82614802565b600b82019050919050565b60006138a7603283614471565b91506138b28261482b565b604082019050919050565b60006138ca602583614471565b91506138d58261487a565b604082019050919050565b60006138ed601c83614471565b91506138f8826148c9565b602082019050919050565b6000613910601a83614471565b915061391b826148f2565b602082019050919050565b6000613933606883614482565b915061393e8261491b565b606882019050919050565b6000613956600e83614482565b9150613961826149b6565b600e82019050919050565b6000613979602483614471565b9150613984826149df565b604082019050919050565b600061399c601983614471565b91506139a782614a2e565b602082019050919050565b60006139bf602983614471565b91506139ca82614a57565b604082019050919050565b60006139e2600483614482565b91506139ed82614aa6565b600482019050919050565b6000613a05603e83614471565b9150613a1082614acf565b604082019050919050565b6000613a28602083614471565b9150613a3382614b1e565b602082019050919050565b6000613a4b600a83614482565b9150613a5682614b47565b600a82019050919050565b6000613a6e601883614471565b9150613a7982614b70565b602082019050919050565b6000613a91602183614471565b9150613a9c82614b99565b604082019050919050565b6000613ab4601d83614482565b9150613abf82614be8565b601d82019050919050565b6000613ad7601883614471565b9150613ae282614c11565b602082019050919050565b6000613afa603d83614482565b9150613b0582614c3a565b603d82019050919050565b6000613b1d602d83614482565b9150613b2882614c89565b602d82019050919050565b6000613b40603283614482565b9150613b4b82614cd8565b603282019050919050565b6000613b63602e83614471565b9150613b6e82614d27565b604082019050919050565b600060a0830160008301518482036000860152613b9682826137d4565b91505060208301518482036020860152613bb082826137d4565b9150506040830151613bc56040860182613d64565b506060830151613bd86060860182613d64565b506080830151613beb6080860182613d64565b508091505092915050565b600061010083016000830151613c0f60008601826136f9565b506020830151613c226020860182613d64565b5060408301518482036040860152613c3a82826137d4565b91505060608301518482036060860152613c5482826137d4565b9150506080830151613c696080860182613d64565b5060a0830151613c7c60a0860182613d64565b5060c0830151613c8f60c0860182613d64565b5060e0830151613ca260e0860182613d64565b508091505092915050565b600061010083016000830151613cc660008601826136f9565b506020830151613cd96020860182613d64565b5060408301518482036040860152613cf182826137d4565b91505060608301518482036060860152613d0b82826137d4565b9150506080830151613d206080860182613d64565b5060a0830151613d3360a0860182613d64565b5060c0830151613d4660c0860182613d64565b5060e0830151613d5960e0860182613d64565b508091505092915050565b613d6d8161460c565b82525050565b613d7c8161460c565b82525050565b6000613d8d82613a3e565b9150613d99828a613846565b9150613da482613877565b9150613db08289613846565b9150613dbb82613926565b9150613dc78288613846565b9150613dd282613aed565b9150613dde8287613846565b9150613de982613949565b9150613df58286613846565b9150613e0082613b10565b9150613e0c8285613846565b9150613e1782613b33565b9150613e238284613846565b9150613e2e826139d5565b915081905098975050505050505050565b6000613e4a82613aa7565b9150613e568284613846565b915081905092915050565b6000602082019050613e766000830184613708565b92915050565b6000608082019050613e916000830187613708565b613e9e6020830186613708565b613eab6040830185613d73565b8181036060830152613ebd818461379b565b905095945050505050565b600061010082019050613ede600083018b613708565b613eeb602083018a613d73565b8181036040830152613efd818961380d565b90508181036060830152613f11818861380d565b9050613f206080830187613d73565b613f2d60a0830186613d73565b613f3a60c0830185613d73565b613f4760e0830184613d73565b9998505050505050505050565b6000606082019050613f696000830186613708565b613f766020830185613d73565b613f836040830184613d73565b949350505050565b6000608082019050613fa06000830187613708565b613fad6020830186613d73565b613fba6040830185613d73565b613fc76060830184613d73565b95945050505050565b60006020820190508181036000830152613fea8184613717565b905092915050565b6000602082019050614007600083018461378c565b92915050565b60006020820190508181036000830152614027818461380d565b905092915050565b60006080820190508181036000830152614049818761380d565b9050818103602083015261405d818661380d565b905061406c6040830185613d73565b818103606083015261407e818461380d565b905095945050505050565b600060808201905081810360008301526140a3818761380d565b905081810360208301526140b7818661380d565b90506140c66040830185613d73565b6140d36060830184613d73565b95945050505050565b600060a08201905081810360008301526140f6818861380d565b9050818103602083015261410a818761380d565b90506141196040830186613d73565b6141266060830185613d73565b6141336080830184613d73565b9695505050505050565b60006040820190508181036000830152614157818561380d565b90506141666020830184613d73565b9392505050565b60006060820190508181036000830152614187818661380d565b90506141966020830185613d73565b6141a36040830184613d73565b949350505050565b600060208201905081810360008301526141c48161389a565b9050919050565b600060208201905081810360008301526141e4816138bd565b9050919050565b60006020820190508181036000830152614204816138e0565b9050919050565b6000602082019050818103600083015261422481613903565b9050919050565b600060208201905081810360008301526142448161396c565b9050919050565b600060208201905081810360008301526142648161398f565b9050919050565b60006020820190508181036000830152614284816139b2565b9050919050565b600060208201905081810360008301526142a4816139f8565b9050919050565b600060208201905081810360008301526142c481613a1b565b9050919050565b600060208201905081810360008301526142e481613a61565b9050919050565b6000602082019050818103600083015261430481613a84565b9050919050565b6000602082019050818103600083015261432481613aca565b9050919050565b6000602082019050818103600083015261434481613b56565b9050919050565b600060208201905081810360008301526143658184613b79565b905092915050565b600060208201905081810360008301526143878184613cad565b905092915050565b60006020820190506143a46000830184613d73565b92915050565b60006143b46143c5565b90506143c0828261468a565b919050565b6000604051905090565b600067ffffffffffffffff8211156143ea576143e96147c2565b5b6143f3826147f1565b9050602081019050919050565b6000819050602082019050919050565b600081519050919050565b600081519050919050565b600081519050919050565b6000602082019050919050565b600082825260208201905092915050565b600082825260208201905092915050565b600082825260208201905092915050565b600082825260208201905092915050565b600081905092915050565b60006144988261460c565b91506144a38361460c565b9250827fffffffffffffffffffffffffffffffffffffffffffffffffffffffffffffffff038211156144d8576144d7614735565b5b828201905092915050565b60006144ee8261460c565b91506144f98361460c565b92508261450957614508614764565b5b828204905092915050565b600061451f8261460c565b915061452a8361460c565b9250817fffffffffffffffffffffffffffffffffffffffffffffffffffffffffffffffff048311821515161561456357614562614735565b5b828202905092915050565b60006145798261460c565b91506145848361460c565b92508282101561459757614596614735565b5b828203905092915050565b60006145ad826145ec565b9050919050565b60008115159050919050565b60007fffffffff0000000000000000000000000000000000000000000000000000000082169050919050565b600073ffffffffffffffffffffffffffffffffffffffff82169050919050565b6000819050919050565b82818337600083830152505050565b60005b83811015614643578082015181840152602081019050614628565b83811115614652576000848401525b50505050565b6000600282049050600182168061467057607f821691505b6020821081141561468457614683614793565b5b50919050565b614693826147f1565b810181811067ffffffffffffffff821117156146b2576146b16147c2565b5b80604052505050565b60006146c68261460c565b91507fffffffffffffffffffffffffffffffffffffffffffffffffffffffffffffffff8214156146f9576146f8614735565b5b600182019050919050565b600061470f8261460c565b915061471a8361460c565b92508261472a57614729614764565b5b828206905092915050565b7f4e487b7100000000000000000000000000000000000000000000000000000000600052601160045260246000fd5b7f4e487b7100000000000000000000000000000000000000000000000000000000600052601260045260246000fd5b7f4e487b7100000000000000000000000000000000000000000000000000000000600052602260045260246000fd5b7f4e487b7100000000000000000000000000000000000000000000000000000000600052604160045260246000fd5b6000601f19601f8301169050919050565b7f202d2d204e465420233a20000000000000000000000000000000000000000000600082015250565b7f4552433732313a207472616e7366657220746f206e6f6e20455243373231526560008201527f63656976657220696d706c656d656e7465720000000000000000000000000000602082015250565b7f4552433732313a207472616e736665722066726f6d20696e636f72726563742060008201527f6f776e6572000000000000000000000000000000000000000000000000000000602082015250565b7f4552433732313a20746f6b656e20616c7265616479206d696e74656400000000600082015250565b7f506c6179657220686173206e6f2048502063616e7420706c6179000000000000600082015250565b7f222c20226465736372697074696f6e223a20225468697320697320616e204e4660008201527f542074686174206c6574732070656f706c6520706c617920696e20746865206760208201527f616d65204461726b77696e67204e696768747321222c2022696d616765223a2060408201527f22697066733a2f2f000000000000000000000000000000000000000000000000606082015250565b7f2c20226d61785f76616c7565223a000000000000000000000000000000000000600082015250565b7f4552433732313a207472616e7366657220746f20746865207a65726f2061646460008201527f7265737300000000000000000000000000000000000000000000000000000000602082015250565b7f4552433732313a20617070726f766520746f2063616c6c657200000000000000600082015250565b7f4552433732313a2061646472657373207a65726f206973206e6f74206120766160008201527f6c6964206f776e65720000000000000000000000000000000000000000000000602082015250565b7f7d205d7d00000000000000000000000000000000000000000000000000000000600082015250565b7f4552433732313a20617070726f76652063616c6c6572206973206e6f7420746f60008201527f6b656e206f776e6572206e6f7220617070726f76656420666f7220616c6c0000602082015250565b7f4552433732313a206d696e7420746f20746865207a65726f2061646472657373600082015250565b7f7b226e616d65223a202200000000000000000000000000000000000000000000600082015250565b7f4552433732313a20696e76616c696420746f6b656e2049440000000000000000600082015250565b7f4552433732313a20617070726f76616c20746f2063757272656e74206f776e6560008201527f7200000000000000000000000000000000000000000000000000000000000000602082015250565b7f646174613a6170706c69636174696f6e2f6a736f6e3b6261736536342c000000600082015250565b7f426f737320686173206e6f2048502063616e7420706c61790000000000000000600082015250565b7f222c202261747472696275746573223a205b207b202274726169745f7479706560008201527f223a20224865616c746820506f696e7473222c202276616c7565223a20000000602082015250565b7f7d2c207b202274726169745f74797065223a202241747461636b2044616d616760008201527f65222c202276616c7565223a2000000000000000000000000000000000000000602082015250565b7f7d2c207b202274726169745f74797065223a2022546f74616c2044616d61676560008201527f204465616c74222c202276616c7565223a200000000000000000000000000000602082015250565b7f4552433732313a2063616c6c6572206973206e6f7420746f6b656e206f776e6560008201527f72206e6f7220617070726f766564000000000000000000000000000000000000602082015250565b614d7f816145a2565b8114614d8a57600080fd5b50565b614d96816145b4565b8114614da157600080fd5b50565b614dad816145c0565b8114614db857600080fd5b50565b614dc48161460c565b8114614dcf57600080fd5b5056fe4142434445464748494a4b4c4d4e4f505152535455565758595a6162636465666768696a6b6c6d6e6f707172737475767778797a303132333435363738392b2f4d696e746564204e465420772f20746f6b656e496420257320616e6420636861726163746572496e6465782025730a506c6179657220772f206368617261637465722025732061626f757420746f2061747461636b2e2048617320257320485020616e64202573204144a26469706673582212201291c06c7f863b81bdccdb8cc12d177a09a30148e4e81f0545367059af765dce64736f6c63430008010033446f6e6520696e697469616c697a696e6720257320772f2048502025732c20696d67202573446f6e6520696e697469616c697a696e6720626f737320257320772f2048502025732c20696d67202573",
  "linkReferences": {},
  "deployedLinkReferences": {}
}