{
	"_format": "hh-sol-artifact-1",
	"contractName": "VRFv2Consumer",
	"sourceName": "contracts/VRFv2Consumer.sol",
	"abi": [
		{
			"inputs": [
				{
					"internalType": "uint64",
					"name": "subscriptionId",
					"type": "uint64"
				}
			],
			"stateMutability": "nonpayable",
			"type": "constructor"
		},
		{
			"inputs": [
				{
					"internalType": "address",
					"name": "have",
					"type": "address"
				},
				{
					"internalType": "address",
					"name": "want",
					"type": "address"
				}
			],
			"name": "OnlyCoordinatorCanFulfill",
			"type": "error"
		},
		{
			"inputs": [
				{
					"internalType": "uint256",
					"name": "requestId",
					"type": "uint256"
				},
				{
					"internalType": "uint256[]",
					"name": "randomWords",
					"type": "uint256[]"
				}
			],
			"name": "rawFulfillRandomWords",
			"outputs": [],
			"stateMutability": "nonpayable",
			"type": "function"
		},
		{
			"inputs": [],
			"name": "requestRandomWords",
			"outputs": [],
			"stateMutability": "nonpayable",
			"type": "function"
		},
		{
			"inputs": [],
			"name": "returnRandomNumber",
			"outputs": [
				{
					"internalType": "uint256",
					"name": "",
					"type": "uint256"
				}
			],
			"stateMutability": "view",
			"type": "function"
		},
		{
			"inputs": [
				{
					"internalType": "uint256",
					"name": "",
					"type": "uint256"
				}
			],
			"name": "s_randomWords",
			"outputs": [
				{
					"internalType": "uint256",
					"name": "",
					"type": "uint256"
				}
			],
			"stateMutability": "view",
			"type": "function"
		},
		{
			"inputs": [],
			"name": "s_requestId",
			"outputs": [
				{
					"internalType": "uint256",
					"name": "",
					"type": "uint256"
				}
			],
			"stateMutability": "view",
			"type": "function"
		}
	],
	"bytecode": "0x60a0604052732ca8e0c643bde4c2e08ab1fa0da3401adad7734d600160006101000a81548173ffffffffffffffffffffffffffffffffffffffff021916908373ffffffffffffffffffffffffffffffffffffffff1602179055507f79d3d8832d904592c0bf9818b621522c988bb8b0c05cdc3b15aea1b6e8db0c1560001b600255620186a0600360006101000a81548163ffffffff021916908363ffffffff16021790555060038060046101000a81548161ffff021916908361ffff1602179055506002600360066101000a81548163ffffffff021916908363ffffffff1602179055503480156100ef57600080fd5b50604051610b6a380380610b6a83398181016040528101906101119190610253565b600160009054906101000a900473ffffffffffffffffffffffffffffffffffffffff168073ffffffffffffffffffffffffffffffffffffffff1660808173ffffffffffffffffffffffffffffffffffffffff1660601b8152505050600160009054906101000a900473ffffffffffffffffffffffffffffffffffffffff166000806101000a81548173ffffffffffffffffffffffffffffffffffffffff021916908373ffffffffffffffffffffffffffffffffffffffff16021790555033600660006101000a81548173ffffffffffffffffffffffffffffffffffffffff021916908373ffffffffffffffffffffffffffffffffffffffff16021790555080600060146101000a81548167ffffffffffffffff021916908367ffffffffffffffff160217905550506102b0565b60008151905061024d81610299565b92915050565b60006020828403121561026957610268610294565b5b60006102778482850161023e565b91505092915050565b600067ffffffffffffffff82169050919050565b600080fd5b6102a281610280565b81146102ad57600080fd5b50565b60805160601c6108966102d46000396000818160f0015261014401526108966000f3fe608060405234801561001057600080fd5b50600436106100575760003560e01c80631fe543e31461005c57806336376b4a14610078578063e0c8628914610096578063e89e106a146100a0578063f6eaffc8146100be575b600080fd5b6100766004803603810190610071919061051c565b6100ee565b005b6100806101ae565b60405161008d919061064e565b60405180910390f35b61009e6101ea565b005b6100a861034b565b6040516100b5919061064e565b60405180910390f35b6100d860048036038101906100d391906104c2565b610351565b6040516100e5919061064e565b60405180910390f35b7f000000000000000000000000000000000000000000000000000000000000000073ffffffffffffffffffffffffffffffffffffffff163373ffffffffffffffffffffffffffffffffffffffff16146101a057337f00000000000000000000000000000000000000000000000000000000000000006040517f1cf993f40000000000000000000000000000000000000000000000000000000081526004016101979291906105d2565b60405180910390fd5b6101aa8282610375565b5050565b600080600460016004805490506101c591906106ba565b815481106101d6576101d56107c6565b5b906000526020600020015490508091505090565b600660009054906101000a900473ffffffffffffffffffffffffffffffffffffffff1673ffffffffffffffffffffffffffffffffffffffff163373ffffffffffffffffffffffffffffffffffffffff161461024457600080fd5b60008054906101000a900473ffffffffffffffffffffffffffffffffffffffff1673ffffffffffffffffffffffffffffffffffffffff16635d3b1d30600254600060149054906101000a900467ffffffffffffffff16600360049054906101000a900461ffff16600360009054906101000a900463ffffffff16600360069054906101000a900463ffffffff166040518663ffffffff1660e01b81526004016102f19594939291906105fb565b602060405180830381600087803b15801561030b57600080fd5b505af115801561031f573d6000803e3d6000fd5b505050506040513d601f19601f8201168201806040525081019061034391906104ef565b600581905550565b60055481565b6004818154811061036157600080fd5b906000526020600020016000915090505481565b806004908051906020019061038b929190610390565b505050565b8280548282559060005260206000209081019282156103cc579160200282015b828111156103cb5782518255916020019190600101906103b0565b5b5090506103d991906103dd565b5090565b5b808211156103f65760008160009055506001016103de565b5090565b600061040d6104088461068e565b610669565b905080838252602082019050828560208602820111156104305761042f610829565b5b60005b8581101561046057816104468882610498565b845260208401935060208301925050600181019050610433565b5050509392505050565b600082601f83011261047f5761047e610824565b5b813561048f8482602086016103fa565b91505092915050565b6000813590506104a781610849565b92915050565b6000815190506104bc81610849565b92915050565b6000602082840312156104d8576104d7610833565b5b60006104e684828501610498565b91505092915050565b60006020828403121561050557610504610833565b5b6000610513848285016104ad565b91505092915050565b6000806040838503121561053357610532610833565b5b600061054185828601610498565b925050602083013567ffffffffffffffff8111156105625761056161082e565b5b61056e8582860161046a565b9150509250929050565b610581816106ee565b82525050565b61059081610700565b82525050565b61059f8161070a565b82525050565b6105ae81610738565b82525050565b6105bd81610742565b82525050565b6105cc81610752565b82525050565b60006040820190506105e76000830185610578565b6105f46020830184610578565b9392505050565b600060a0820190506106106000830188610587565b61061d60208301876105c3565b61062a6040830186610596565b61063760608301856105b4565b61064460808301846105b4565b9695505050505050565b600060208201905061066360008301846105a5565b92915050565b6000610673610684565b905061067f8282610766565b919050565b6000604051905090565b600067ffffffffffffffff8211156106a9576106a86107f5565b5b602082029050602081019050919050565b60006106c582610738565b91506106d083610738565b9250828210156106e3576106e2610797565b5b828203905092915050565b60006106f982610718565b9050919050565b6000819050919050565b600061ffff82169050919050565b600073ffffffffffffffffffffffffffffffffffffffff82169050919050565b6000819050919050565b600063ffffffff82169050919050565b600067ffffffffffffffff82169050919050565b61076f82610838565b810181811067ffffffffffffffff8211171561078e5761078d6107f5565b5b80604052505050565b7f4e487b7100000000000000000000000000000000000000000000000000000000600052601160045260246000fd5b7f4e487b7100000000000000000000000000000000000000000000000000000000600052603260045260246000fd5b7f4e487b7100000000000000000000000000000000000000000000000000000000600052604160045260246000fd5b600080fd5b600080fd5b600080fd5b600080fd5b6000601f19601f8301169050919050565b61085281610738565b811461085d57600080fd5b5056fea2646970667358221220e31d4ea373446e78cb526d82917ae8d200dbbeaf72b5fbe5b153b486a7f0c88f64736f6c63430008070033",
	"linkReferences": {},
	"deployedLinkReferences": {}
}